{"abi":[{"type":"constructor","inputs":[{"name":"_owner","type":"address","internalType":"address"},{"name":"_acceptedTokens","type":"address[]","internalType":"address[]"},{"name":"_initialMember","type":"address","internalType":"address"}],"stateMutability":"nonpayable"},{"type":"function","name":"acceptedTokens","inputs":[{"name":"","type":"uint256","internalType":"uint256"}],"outputs":[{"name":"","type":"address","internalType":"address"}],"stateMutability":"view"},{"type":"function","name":"addMember","inputs":[{"name":"_member","type":"address","internalType":"address"}],"outputs":[],"stateMutability":"nonpayable"},{"type":"function","name":"approveWithdrawal","inputs":[{"name":"_token","type":"address","internalType":"address"},{"name":"_requestId","type":"uint256","internalType":"uint256"}],"outputs":[],"stateMutability":"nonpayable"},{"type":"function","name":"autoSendSettings","inputs":[],"outputs":[{"name":"enabled","type":"bool","internalType":"bool"},{"name":"amount","type":"uint256","internalType":"uint256"},{"name":"period","type":"uint256","internalType":"uint256"},{"name":"lastSendTime","type":"uint256","internalType":"uint256"}],"stateMutability":"view"},{"type":"function","name":"autoSendToAll","inputs":[],"outputs":[],"stateMutability":"nonpayable"},{"type":"function","name":"batchSend","inputs":[{"name":"_token","type":"address","internalType":"address"},{"name":"_recipients","type":"address[]","internalType":"address[]"},{"name":"_amounts","type":"uint256[]","internalType":"uint256[]"}],"outputs":[],"stateMutability":"nonpayable"},{"type":"function","name":"defaultToken","inputs":[],"outputs":[{"name":"","type":"address","internalType":"address"}],"stateMutability":"view"},{"type":"function","name":"deposit","inputs":[{"name":"_token","type":"address","internalType":"address"},{"name":"_amount","type":"uint256","internalType":"uint256"}],"outputs":[],"stateMutability":"nonpayable"},{"type":"function","name":"getAcceptedTokens","inputs":[],"outputs":[{"name":"","type":"address[]","internalType":"address[]"}],"stateMutability":"view"},{"type":"function","name":"getBalance","inputs":[{"name":"_token","type":"address","internalType":"address"}],"outputs":[{"name":"","type":"uint256","internalType":"uint256"}],"stateMutability":"view"},{"type":"function","name":"getMembers","inputs":[],"outputs":[{"name":"","type":"address[]","internalType":"address[]"}],"stateMutability":"view"},{"type":"function","name":"isMember","inputs":[{"name":"","type":"address","internalType":"address"}],"outputs":[{"name":"","type":"bool","internalType":"bool"}],"stateMutability":"view"},{"type":"function","name":"isSavingsAccount","inputs":[{"name":"_user","type":"address","internalType":"address"}],"outputs":[],"stateMutability":"view"},{"type":"function","name":"isTokenAccepted","inputs":[{"name":"","type":"address","internalType":"address"}],"outputs":[{"name":"","type":"bool","internalType":"bool"}],"stateMutability":"view"},{"type":"function","name":"members","inputs":[{"name":"","type":"uint256","internalType":"uint256"}],"outputs":[{"name":"","type":"address","internalType":"address"}],"stateMutability":"view"},{"type":"function","name":"operator","inputs":[],"outputs":[{"name":"","type":"address","internalType":"address"}],"stateMutability":"view"},{"type":"function","name":"owner","inputs":[],"outputs":[{"name":"","type":"address","internalType":"address"}],"stateMutability":"view"},{"type":"function","name":"removeMember","inputs":[{"name":"_member","type":"address","internalType":"address"}],"outputs":[],"stateMutability":"nonpayable"},{"type":"function","name":"renounceOwnership","inputs":[],"outputs":[],"stateMutability":"nonpayable"},{"type":"function","name":"requestWithdrawal","inputs":[{"name":"_token","type":"address","internalType":"address"},{"name":"_amount","type":"uint256","internalType":"uint256"}],"outputs":[],"stateMutability":"nonpayable"},{"type":"function","name":"setAutoSendSettings","inputs":[{"name":"_enabled","type":"bool","internalType":"bool"},{"name":"_amount","type":"uint256","internalType":"uint256"},{"name":"_period","type":"uint256","internalType":"uint256"}],"outputs":[],"stateMutability":"nonpayable"},{"type":"function","name":"setOperator","inputs":[{"name":"_newOperator","type":"address","internalType":"address"}],"outputs":[],"stateMutability":"nonpayable"},{"type":"function","name":"tokenSavings","inputs":[{"name":"","type":"address","internalType":"address"}],"outputs":[{"name":"","type":"uint256","internalType":"uint256"}],"stateMutability":"view"},{"type":"function","name":"transferOwnership","inputs":[{"name":"newOwner","type":"address","internalType":"address"}],"outputs":[],"stateMutability":"nonpayable"},{"type":"function","name":"withdrawalRequests","inputs":[{"name":"","type":"address","internalType":"address"},{"name":"","type":"uint256","internalType":"uint256"}],"outputs":[{"name":"recipient","type":"address","internalType":"address"},{"name":"amount","type":"uint256","internalType":"uint256"},{"name":"approved","type":"bool","internalType":"bool"}],"stateMutability":"view"},{"type":"event","name":"AutoSendExecuted","inputs":[{"name":"totalAmount","type":"uint256","indexed":false,"internalType":"uint256"},{"name":"membersCount","type":"uint256","indexed":false,"internalType":"uint256"}],"anonymous":false},{"type":"event","name":"AutoSendSettingsUpdated","inputs":[{"name":"enabled","type":"bool","indexed":false,"internalType":"bool"},{"name":"amount","type":"uint256","indexed":false,"internalType":"uint256"},{"name":"period","type":"uint256","indexed":false,"internalType":"uint256"}],"anonymous":false},{"type":"event","name":"Deposit","inputs":[{"name":"user","type":"address","indexed":true,"internalType":"address"},{"name":"token","type":"address","indexed":true,"internalType":"address"},{"name":"amount","type":"uint256","indexed":false,"internalType":"uint256"}],"anonymous":false},{"type":"event","name":"MemberAdded","inputs":[{"name":"member","type":"address","indexed":true,"internalType":"address"}],"anonymous":false},{"type":"event","name":"MemberRemoved","inputs":[{"name":"member","type":"address","indexed":true,"internalType":"address"}],"anonymous":false},{"type":"event","name":"OperatorUpdated","inputs":[{"name":"newOperator","type":"address","indexed":true,"internalType":"address"}],"anonymous":false},{"type":"event","name":"OwnershipTransferred","inputs":[{"name":"previousOwner","type":"address","indexed":true,"internalType":"address"},{"name":"newOwner","type":"address","indexed":true,"internalType":"address"}],"anonymous":false},{"type":"event","name":"Withdraw","inputs":[{"name":"user","type":"address","indexed":true,"internalType":"address"},{"name":"token","type":"address","indexed":true,"internalType":"address"},{"name":"amount","type":"uint256","indexed":false,"internalType":"uint256"}],"anonymous":false},{"type":"event","name":"WithdrawalApproved","inputs":[{"name":"requester","type":"address","indexed":true,"internalType":"address"},{"name":"amount","type":"uint256","indexed":false,"internalType":"uint256"},{"name":"requestId","type":"uint256","indexed":false,"internalType":"uint256"}],"anonymous":false},{"type":"event","name":"WithdrawalRequested","inputs":[{"name":"requester","type":"address","indexed":true,"internalType":"address"},{"name":"amount","type":"uint256","indexed":false,"internalType":"uint256"},{"name":"requestId","type":"uint256","indexed":false,"internalType":"uint256"}],"anonymous":false},{"type":"error","name":"AddressEmptyCode","inputs":[{"name":"target","type":"address","internalType":"address"}]},{"type":"error","name":"AddressInsufficientBalance","inputs":[{"name":"account","type":"address","internalType":"address"}]},{"type":"error","name":"FailedInnerCall","inputs":[]},{"type":"error","name":"OwnableInvalidOwner","inputs":[{"name":"owner","type":"address","internalType":"address"}]},{"type":"error","name":"OwnableUnauthorizedAccount","inputs":[{"name":"account","type":"address","internalType":"address"}]},{"type":"error","name":"ReentrancyGuardReentrantCall","inputs":[]},{"type":"error","name":"SafeERC20FailedOperation","inputs":[{"name":"token","type":"address","internalType":"address"}]}],"bytecode":{"object":"0x608060405234801561001057600080fd5b50604051611fb0380380611fb083398101604081905261002f91610388565b826001600160a01b03811661005f57604051631e4fbdf760e01b8152600060048201526024015b60405180910390fd5b610068816100fc565b506001805560005b82518110156100a9576100a183828151811061008e5761008e610471565b602002602001015161014c60201b60201c565b600101610070565b506100b38161026e565b816000815181106100c6576100c6610471565b6020026020010151600260006101000a8154816001600160a01b0302191690836001600160a01b03160217905550505050610487565b600080546001600160a01b038381166001600160a01b0319831681178455604051919092169283917f8be0079c531659141344cd1fd0a4f28419497f9722a3daafe3b4186f6b6457e09190a35050565b6001600160a01b03811660009081526006602052604090205460ff16156101b55760405162461bcd60e51b815260206004820152601660248201527f546f6b656e20616c7265616479206163636570746564000000000000000000006044820152606401610056565b6005546020116102075760405162461bcd60e51b815260206004820152601b60248201527f4d6178696d756d20746f6b656e206c696d6974207265616368656400000000006044820152606401610056565b6005805460018181019092557f036b6384b5eca791c62761152d0c79bb0604c104a5fb6f4eb0703f3154bb3db00180546001600160a01b039093166001600160a01b031990931683179055600091825260066020526040909120805460ff19169091179055565b6001600160a01b03811660009081526007602052604090205460ff16156102ca5760405162461bcd60e51b815260206004820152601060248201526f20b63932b0b23c90309036b2b6b132b960811b6044820152606401610056565b6001600160a01b038116600081815260076020526040808220805460ff1916600190811790915560088054918201815583527ff3f7a9fe364faab93b216da50a3214154f22a0a2b415b23a84c8169e8b636ee30180546001600160a01b03191684179055517fb251eb052afc73ffd02ffe85ad79990a8b3fed60d76dbc2fa2fdd7123dffd9149190a250565b80516001600160a01b038116811461036d57600080fd5b919050565b634e487b7160e01b600052604160045260246000fd5b60008060006060848603121561039d57600080fd5b6103a684610356565b602085810151919450906001600160401b03808211156103c557600080fd5b818701915087601f8301126103d957600080fd5b8151818111156103eb576103eb610372565b8060051b604051601f19603f8301168101818110858211171561041057610410610372565b60405291825284820192508381018501918a83111561042e57600080fd5b938501935b828510156104535761044485610356565b84529385019392850192610433565b80975050505050505061046860408501610356565b90509250925092565b634e487b7160e01b600052603260045260246000fd5b611b1a806104966000396000f3fe608060405234801561001057600080fd5b50600436106101735760003560e01c80635daf08ca116100de578063b3ab15fb11610097578063da95ebf711610071578063da95ebf71461039f578063f2fde38b146103b2578063f4970e71146103c5578063f8b2cb4f146103d857600080fd5b8063b3ab15fb14610366578063ca6d56dc14610379578063d765ba721461038c57600080fd5b80635daf08ca146102fc578063715018a61461030f57806374c13fda146103175780638da5cb5b1461032a5780639eab52531461033b578063a230c5241461034357600080fd5b80633cd9e525116101305780633cd9e5251461024657806347e7ef24146102595780634a062e731461026c5780634e5a2328146102a7578063570ca735146102e1578063586c5a52146102f457600080fd5b80630560bd96146101785780630b1ca49a146101b057806318a029cf146101c557806319648bed146101f35780632f7570061461020657806336c877541461021b575b600080fd5b61019b610186366004611725565b60066020526000908152604090205460ff1681565b60405190151581526020015b60405180910390f35b6101c36101be366004611725565b610401565b005b6101e56101d3366004611725565b60046020526000908152604090205481565b6040519081526020016101a7565b6101c361020136600461181a565b6105b9565b61020e610884565b6040516101a791906118ec565b61022e610229366004611939565b6108e6565b6040516001600160a01b0390911681526020016101a7565b6101c3610254366004611960565b610910565b6101c3610267366004611995565b61097c565b600a54600b54600c54600d546102859360ff1692919084565b60408051941515855260208501939093529183015260608201526080016101a7565b6102ba6102b5366004611995565b610aef565b604080516001600160a01b03909416845260208401929092521515908201526060016101a7565b60035461022e906001600160a01b031681565b6101c3610b3e565b61022e61030a366004611939565b610e00565b6101c3610e10565b60025461022e906001600160a01b031681565b6000546001600160a01b031661022e565b61020e610e22565b61019b610351366004611725565b60076020526000908152604090205460ff1681565b6101c3610374366004611725565b610e82565b6101c3610387366004611725565b610ed4565b6101c361039a366004611725565b610ee8565b6101c36103ad366004611995565b610f96565b6101c36103c0366004611725565b611134565b6101c36103d3366004611995565b61116f565b6101e56103e6366004611725565b6001600160a01b031660009081526004602052604090205490565b61040961133e565b6001600160a01b03811660009081526007602052604090205460ff166104655760405162461bcd60e51b815260206004820152600c60248201526b2737ba10309036b2b6b132b960a11b60448201526064015b60405180910390fd5b6001600160a01b0381166000908152600760205260408120805460ff191690555b60085481101561058157816001600160a01b0316600882815481106104ad576104ad6119bf565b6000918252602090912001546001600160a01b03160361057957600880546104d7906001906119eb565b815481106104e7576104e76119bf565b600091825260209091200154600880546001600160a01b039092169183908110610513576105136119bf565b9060005260206000200160006101000a8154816001600160a01b0302191690836001600160a01b031602179055506008805480610552576105526119fe565b600082815260209020810160001990810180546001600160a01b0319169055019055610581565b600101610486565b506040516001600160a01b038216907f6e76fb4c77256006d9c38ec7d82b45a8c8f3c27b1d6766fffc42dfb8de68449290600090a250565b6105c161133e565b6105c961136b565b80518251146106135760405162461bcd60e51b8152602060048201526016602482015275082e4e4c2f2e640d8cadccee8d040dad2e6dac2e8c6d60531b604482015260640161045c565b6001600160a01b03831660009081526006602052604090205460ff1661064b5760405162461bcd60e51b815260040161045c90611a14565b6000805b82518110156106875782818151811061066a5761066a6119bf565b60200260200101518261067d9190611a40565b915060010161064f565b506001600160a01b0384166000908152600460205260409020548111156106c05760405162461bcd60e51b815260040161045c90611a53565b60005b835181101561084757600760008583815181106106e2576106e26119bf565b6020908102919091018101516001600160a01b031682528101919091526040016000205460ff1661074e5760405162461bcd60e51b81526020600482015260166024820152752932b1b4b834b2b73a103737ba10309036b2b6b132b960511b604482015260640161045c565b610770848281518110610763576107636119bf565b6020026020010151610ee8565b6107c0848281518110610785576107856119bf565b602002602001015184838151811061079f5761079f6119bf565b6020026020010151876001600160a01b03166113959092919063ffffffff16565b846001600160a01b03168482815181106107dc576107dc6119bf565b60200260200101516001600160a01b03167f9b1bfa7fa9ee420a16e124f794c35ac9f90472acc99140eb2f6447c714cad8eb858481518110610820576108206119bf565b602002602001015160405161083791815260200190565b60405180910390a36001016106c3565b506001600160a01b038416600090815260046020526040812080548392906108709084906119eb565b90915550506001805550505050565b505050565b606060058054806020026020016040519081016040528092919081815260200182805480156108dc57602002820191906000526020600020905b81546001600160a01b031681526001909101906020018083116108be575b5050505050905090565b600581815481106108f657600080fd5b6000918252602090912001546001600160a01b0316905081565b61091861133e565b600a805460ff1916841515908117909155600b839055600c82905542600d55604080519182526020820184905281018290527fb58dd73d8fc2b9f2c4d24b29b6f6791534fda898df432b6b78ae58cd95e67ef69060600160405180910390a1505050565b3360009081526007602052604090205460ff166109d05760405162461bcd60e51b81526020600482015260126024820152712737ba10309033b937bab81036b2b6b132b960711b604482015260640161045c565b6109d861136b565b6001600160a01b03821660009081526006602052604090205460ff16610a105760405162461bcd60e51b815260040161045c90611a14565b60008111610a605760405162461bcd60e51b815260206004820152601d60248201527f416d6f756e74206d7573742062652067726561746572207468616e2030000000604482015260640161045c565b610a756001600160a01b0383163330846113f4565b6001600160a01b03821660009081526004602052604081208054839290610a9d908490611a40565b90915550506040518181526001600160a01b0383169033907f5548c837ab068cf56a2c2479df0882a4922fd203edb7517321831d95078c5f629060200160405180910390a3610aeb60018055565b5050565b60096020528160005260406000208181548110610b0b57600080fd5b60009182526020909120600390910201805460018201546002909201546001600160a01b03909116935090915060ff1683565b6003546001600160a01b03163314610b8b5760405162461bcd60e51b815260206004820152601060248201526f2737ba103a34329037b832b930ba37b960811b604482015260640161045c565b610b9361136b565b600a5460ff16610be55760405162461bcd60e51b815260206004820152601860248201527f4175746f2d73656e64206973206e6f7420656e61626c65640000000000000000604482015260640161045c565b600c54600d54610bf59190611a40565b421015610c445760405162461bcd60e51b815260206004820152601c60248201527f4175746f2d73656e6420706572696f64206e6f7420656c617073656400000000604482015260640161045c565b600854600b54600091610c5691611a81565b6002546001600160a01b0316600090815260046020526040902054909150811115610c935760405162461bcd60e51b815260040161045c90611a53565b60005b600854811015610d8357610cd060088281548110610cb657610cb66119bf565b6000918252602090912001546001600160a01b0316610ee8565b610d0b60088281548110610ce657610ce66119bf565b600091825260209091200154600b546002546001600160a01b03908116921690611395565b600254600880546001600160a01b039092169183908110610d2e57610d2e6119bf565b60009182526020918290200154600b546040519081526001600160a01b03909116917f9b1bfa7fa9ee420a16e124f794c35ac9f90472acc99140eb2f6447c714cad8eb910160405180910390a3600101610c96565b506002546001600160a01b031660009081526004602052604081208054839290610dae9084906119eb565b909155505042600d556008546040805183815260208101929092527fc06a2616f5525484d5c386ced74ecb8b2c1348567eaf29ac1833eab333791558910160405180910390a150610dfe60018055565b565b600881815481106108f657600080fd5b610e1861133e565b610dfe6000611433565b606060088054806020026020016040519081016040528092919081815260200182805480156108dc576020028201919060005260206000209081546001600160a01b031681526001909101906020018083116108be575050505050905090565b610e8a61133e565b600380546001600160a01b0319166001600160a01b0383169081179091556040517fb3b3f5f64ab192e4b5fefde1f51ce9733bbdcf831951543b325aebd49cc27ec490600090a250565b610edc61133e565b610ee581611483565b50565b806001600160a01b03166384bfd0df6040518163ffffffff1660e01b8152600401602060405180830381865afa158015610f26573d6000803e3d6000fd5b505050506040513d601f19601f82011682018060405250810190610f4a9190611a98565b610ee55760405162461bcd60e51b815260206004820181905260248201527f4e6f74206120636f6d70617469626c6520736176696e6773206163636f756e74604482015260640161045c565b3360009081526007602052604090205460ff16610fea5760405162461bcd60e51b81526020600482015260126024820152712737ba10309033b937bab81036b2b6b132b960711b604482015260640161045c565b6001600160a01b03821660009081526006602052604090205460ff166110225760405162461bcd60e51b815260040161045c90611a14565b600081116110725760405162461bcd60e51b815260206004820152601d60248201527f416d6f756e74206d7573742062652067726561746572207468616e2030000000604482015260640161045c565b6001600160a01b0382811660009081526009602090815260408083208054825160608101845233808252818601898152828601888152600180860187559589529787902092516003850290930180546001600160a01b0319169390991692909217885590519287019290925593516002909501805460ff19169515159590951790945580518581529182018390529192917f24b91f4f47caf44230a57777a9be744924e82bf666f2d5702faf97df35e60f9f91015b60405180910390a2505050565b61113c61133e565b6001600160a01b03811661116657604051631e4fbdf760e01b81526000600482015260240161045c565b610ee581611433565b61117761133e565b6001600160a01b03821660009081526009602052604090205481106111d35760405162461bcd60e51b8152602060048201526012602482015271125b9d985b1a59081c995c5d595cdd08125160721b604482015260640161045c565b6001600160a01b03821660009081526009602052604081208054839081106111fd576111fd6119bf565b60009182526020909120600390910201600281015490915060ff16156112585760405162461bcd60e51b815260206004820152601060248201526f105b1c9958591e48185c1c1c9bdd995960821b604482015260640161045c565b60018101546001600160a01b03841660009081526004602052604090205410156112945760405162461bcd60e51b815260040161045c90611a53565b60028101805460ff191660019081179091558101546001600160a01b038416600090815260046020526040812080549091906112d19084906119eb565b9091555050805460018201546112f5916001600160a01b0386811692911690611395565b8054600182015460408051918252602082018590526001600160a01b03909216917ffca20c9ed6adcdaa5ddc6863b9744f5651994b53a016c73a30ff4bdf37f96c519101611127565b6000546001600160a01b03163314610dfe5760405163118cdaa760e01b815233600482015260240161045c565b60026001540361138e57604051633ee5aeb560e01b815260040160405180910390fd5b6002600155565b6040516001600160a01b0383811660248301526044820183905261087f91859182169063a9059cbb906064015b604051602081830303815290604052915060e01b6020820180516001600160e01b03838183161783525050505061156b565b6040516001600160a01b03848116602483015283811660448301526064820183905261142d9186918216906323b872dd906084016113c2565b50505050565b600080546001600160a01b038381166001600160a01b0319831681178455604051919092169283917f8be0079c531659141344cd1fd0a4f28419497f9722a3daafe3b4186f6b6457e09190a35050565b6001600160a01b03811660009081526007602052604090205460ff16156114df5760405162461bcd60e51b815260206004820152601060248201526f20b63932b0b23c90309036b2b6b132b960811b604482015260640161045c565b6001600160a01b038116600081815260076020526040808220805460ff1916600190811790915560088054918201815583527ff3f7a9fe364faab93b216da50a3214154f22a0a2b415b23a84c8169e8b636ee30180546001600160a01b03191684179055517fb251eb052afc73ffd02ffe85ad79990a8b3fed60d76dbc2fa2fdd7123dffd9149190a250565b60006115806001600160a01b038416836115ce565b905080516000141580156115a55750808060200190518101906115a39190611a98565b155b1561087f57604051635274afe760e01b81526001600160a01b038416600482015260240161045c565b60606115dc838360006115e5565b90505b92915050565b60608147101561160a5760405163cd78605960e01b815230600482015260240161045c565b600080856001600160a01b031684866040516116269190611ab5565b60006040518083038185875af1925050503d8060008114611663576040519150601f19603f3d011682016040523d82523d6000602084013e611668565b606091505b5091509150611678868383611684565b925050505b9392505050565b60608261169957611694826116e0565b61167d565b81511580156116b057506001600160a01b0384163b155b156116d957604051639996b31560e01b81526001600160a01b038516600482015260240161045c565b508061167d565b8051156116f05780518082602001fd5b604051630a12f52160e11b815260040160405180910390fd5b80356001600160a01b038116811461172057600080fd5b919050565b60006020828403121561173757600080fd5b6115dc82611709565b634e487b7160e01b600052604160045260246000fd5b604051601f8201601f1916810167ffffffffffffffff8111828210171561177f5761177f611740565b604052919050565b600067ffffffffffffffff8211156117a1576117a1611740565b5060051b60200190565b600082601f8301126117bc57600080fd5b813560206117d16117cc83611787565b611756565b8083825260208201915060208460051b8701019350868411156117f357600080fd5b602086015b8481101561180f57803583529183019183016117f8565b509695505050505050565b60008060006060848603121561182f57600080fd5b61183884611709565b925060208085013567ffffffffffffffff8082111561185657600080fd5b818701915087601f83011261186a57600080fd5b81356118786117cc82611787565b81815260059190911b8301840190848101908a83111561189757600080fd5b938501935b828510156118bc576118ad85611709565b8252938501939085019061189c565b9650505060408701359250808311156118d457600080fd5b50506118e2868287016117ab565b9150509250925092565b6020808252825182820181905260009190848201906040850190845b8181101561192d5783516001600160a01b031683529284019291840191600101611908565b50909695505050505050565b60006020828403121561194b57600080fd5b5035919050565b8015158114610ee557600080fd5b60008060006060848603121561197557600080fd5b833561198081611952565b95602085013595506040909401359392505050565b600080604083850312156119a857600080fd5b6119b183611709565b946020939093013593505050565b634e487b7160e01b600052603260045260246000fd5b634e487b7160e01b600052601160045260246000fd5b818103818111156115df576115df6119d5565b634e487b7160e01b600052603160045260246000fd5b602080825260129082015271151bdad95b881b9bdd081858d8d95c1d195960721b604082015260600190565b808201808211156115df576115df6119d5565b602080825260149082015273496e73756666696369656e742062616c616e636560601b604082015260600190565b80820281158282048414176115df576115df6119d5565b600060208284031215611aaa57600080fd5b815161167d81611952565b6000825160005b81811015611ad65760208186018101518583015201611abc565b50600092019182525091905056fea264697066735822122028878f64d666ece2e40936a7582e3a0476a85742766a9ab0d9a6b942f31e3a8e64736f6c63430008190033","linkReferences":{}},"methodIdentifiers":{"acceptedTokens(uint256)":"36c87754","addMember(address)":"ca6d56dc","approveWithdrawal(address,uint256)":"f4970e71","autoSendSettings()":"4a062e73","autoSendToAll()":"586c5a52","batchSend(address,address[],uint256[])":"19648bed","defaultToken()":"74c13fda","deposit(address,uint256)":"47e7ef24","getAcceptedTokens()":"2f757006","getBalance(address)":"f8b2cb4f","getMembers()":"9eab5253","isMember(address)":"a230c524","isSavingsAccount(address)":"d765ba72","isTokenAccepted(address)":"0560bd96","members(uint256)":"5daf08ca","operator()":"570ca735","owner()":"8da5cb5b","removeMember(address)":"0b1ca49a","renounceOwnership()":"715018a6","requestWithdrawal(address,uint256)":"da95ebf7","setAutoSendSettings(bool,uint256,uint256)":"3cd9e525","setOperator(address)":"b3ab15fb","tokenSavings(address)":"18a029cf","transferOwnership(address)":"f2fde38b","withdrawalRequests(address,uint256)":"4e5a2328"},"id":105}