{"abi":[{"type":"constructor","inputs":[{"name":"_owner","type":"address","internalType":"address"},{"name":"_acceptedTokens","type":"address[]","internalType":"address[]"},{"name":"_targets","type":"uint256[]","internalType":"uint256[]"}],"stateMutability":"nonpayable"},{"type":"function","name":"acceptedTokens","inputs":[{"name":"","type":"uint256","internalType":"uint256"}],"outputs":[{"name":"","type":"address","internalType":"address"}],"stateMutability":"view"},{"type":"function","name":"autoSave","inputs":[{"name":"_amount","type":"uint256","internalType":"uint256"}],"outputs":[],"stateMutability":"nonpayable"},{"type":"function","name":"autoSaveEnabled","inputs":[],"outputs":[{"name":"","type":"bool","internalType":"bool"}],"stateMutability":"view"},{"type":"function","name":"defaultToken","inputs":[],"outputs":[{"name":"","type":"address","internalType":"address"}],"stateMutability":"view"},{"type":"function","name":"deposit","inputs":[{"name":"_token","type":"address","internalType":"address"},{"name":"_amount","type":"uint256","internalType":"uint256"}],"outputs":[],"stateMutability":"nonpayable"},{"type":"function","name":"getAcceptedTokens","inputs":[],"outputs":[{"name":"","type":"address[]","internalType":"address[]"}],"stateMutability":"view"},{"type":"function","name":"getBalance","inputs":[{"name":"_token","type":"address","internalType":"address"}],"outputs":[{"name":"","type":"uint256","internalType":"uint256"}],"stateMutability":"view"},{"type":"function","name":"isTokenAccepted","inputs":[{"name":"","type":"address","internalType":"address"}],"outputs":[{"name":"","type":"bool","internalType":"bool"}],"stateMutability":"view"},{"type":"function","name":"operator","inputs":[],"outputs":[{"name":"","type":"address","internalType":"address"}],"stateMutability":"view"},{"type":"function","name":"owner","inputs":[],"outputs":[{"name":"","type":"address","internalType":"address"}],"stateMutability":"view"},{"type":"function","name":"renounceOwnership","inputs":[],"outputs":[],"stateMutability":"nonpayable"},{"type":"function","name":"savingsCompatible","inputs":[],"outputs":[{"name":"","type":"bool","internalType":"bool"}],"stateMutability":"pure"},{"type":"function","name":"toggleAutoSave","inputs":[{"name":"_enabled","type":"bool","internalType":"bool"},{"name":"_defaultToken","type":"address","internalType":"address"},{"name":"_operator","type":"address","internalType":"address"}],"outputs":[],"stateMutability":"nonpayable"},{"type":"function","name":"tokenSavings","inputs":[{"name":"","type":"address","internalType":"address"}],"outputs":[{"name":"","type":"uint256","internalType":"uint256"}],"stateMutability":"view"},{"type":"function","name":"tokenTargets","inputs":[{"name":"","type":"address","internalType":"address"}],"outputs":[{"name":"","type":"uint256","internalType":"uint256"}],"stateMutability":"view"},{"type":"function","name":"transferOwnership","inputs":[{"name":"newOwner","type":"address","internalType":"address"}],"outputs":[],"stateMutability":"nonpayable"},{"type":"function","name":"withdraw","inputs":[{"name":"_token","type":"address","internalType":"address"},{"name":"_amount","type":"uint256","internalType":"uint256"}],"outputs":[],"stateMutability":"nonpayable"},{"type":"event","name":"AutoSaveToggled","inputs":[{"name":"enabled","type":"bool","indexed":false,"internalType":"bool"},{"name":"defaultToken","type":"address","indexed":false,"internalType":"address"},{"name":"operator","type":"address","indexed":false,"internalType":"address"}],"anonymous":false},{"type":"event","name":"Deposit","inputs":[{"name":"user","type":"address","indexed":true,"internalType":"address"},{"name":"token","type":"address","indexed":true,"internalType":"address"},{"name":"amount","type":"uint256","indexed":false,"internalType":"uint256"}],"anonymous":false},{"type":"event","name":"OwnershipTransferred","inputs":[{"name":"previousOwner","type":"address","indexed":true,"internalType":"address"},{"name":"newOwner","type":"address","indexed":true,"internalType":"address"}],"anonymous":false},{"type":"event","name":"TargetReached","inputs":[{"name":"token","type":"address","indexed":true,"internalType":"address"}],"anonymous":false},{"type":"event","name":"TargetSet","inputs":[{"name":"token","type":"address","indexed":true,"internalType":"address"},{"name":"target","type":"uint256","indexed":false,"internalType":"uint256"}],"anonymous":false},{"type":"event","name":"Withdraw","inputs":[{"name":"user","type":"address","indexed":true,"internalType":"address"},{"name":"token","type":"address","indexed":true,"internalType":"address"},{"name":"amount","type":"uint256","indexed":false,"internalType":"uint256"}],"anonymous":false},{"type":"error","name":"AddressEmptyCode","inputs":[{"name":"target","type":"address","internalType":"address"}]},{"type":"error","name":"AddressInsufficientBalance","inputs":[{"name":"account","type":"address","internalType":"address"}]},{"type":"error","name":"FailedInnerCall","inputs":[]},{"type":"error","name":"OwnableInvalidOwner","inputs":[{"name":"owner","type":"address","internalType":"address"}]},{"type":"error","name":"OwnableUnauthorizedAccount","inputs":[{"name":"account","type":"address","internalType":"address"}]},{"type":"error","name":"ReentrancyGuardReentrantCall","inputs":[]},{"type":"error","name":"SafeERC20FailedOperation","inputs":[{"name":"token","type":"address","internalType":"address"}]}],"bytecode":{"object":"0x608060405234801561001057600080fd5b5060405161148438038061148483398101604081905261002f9161045e565b8282816001600160a01b03811661006157604051631e4fbdf760e01b8152600060048201526024015b60405180910390fd5b61006a816101f8565b506001805560005b81518110156100ab576100a382828151811061009057610090610532565b602002602001015161024860201b60201c565b600101610072565b505050805182511461010a5760405162461bcd60e51b815260206004820152602260248201527f546f6b656e7320616e642074617267657473206c656e677468206d69736d61746044820152610c6d60f31b6064820152608401610058565b60005b82518110156101ef5781818151811061012857610128610532565b60200260200101516007600085848151811061014657610146610532565b60200260200101516001600160a01b03166001600160a01b031681526020019081526020016000208190555082818151811061018457610184610532565b60200260200101516001600160a01b03167fa8b7afa9a4a9f8516362fefb2d061847f8f017d1406d0c2c8bc12273ae4f450a8383815181106101c8576101c8610532565b60200260200101516040516101df91815260200190565b60405180910390a260010161010d565b50505050610548565b600080546001600160a01b038381166001600160a01b0319831681178455604051919092169283917f8be0079c531659141344cd1fd0a4f28419497f9722a3daafe3b4186f6b6457e09190a35050565b6001600160a01b03811660009081526006602052604090205460ff16156102b15760405162461bcd60e51b815260206004820152601660248201527f546f6b656e20616c7265616479206163636570746564000000000000000000006044820152606401610058565b6005546020116103035760405162461bcd60e51b815260206004820152601b60248201527f4d6178696d756d20746f6b656e206c696d6974207265616368656400000000006044820152606401610058565b6005805460018181019092557f036b6384b5eca791c62761152d0c79bb0604c104a5fb6f4eb0703f3154bb3db00180546001600160a01b039093166001600160a01b031990931683179055600091825260066020526040909120805460ff19169091179055565b80516001600160a01b038116811461038157600080fd5b919050565b634e487b7160e01b600052604160045260246000fd5b604051601f8201601f191681016001600160401b03811182821017156103c4576103c4610386565b604052919050565b60006001600160401b038211156103e5576103e5610386565b5060051b60200190565b600082601f83011261040057600080fd5b81516020610415610410836103cc565b61039c565b8083825260208201915060208460051b87010193508684111561043757600080fd5b602086015b84811015610453578051835291830191830161043c565b509695505050505050565b60008060006060848603121561047357600080fd5b61047c8461036a565b602085810151919450906001600160401b038082111561049b57600080fd5b818701915087601f8301126104af57600080fd5b81516104bd610410826103cc565b81815260059190911b8301840190848101908a8311156104dc57600080fd5b938501935b82851015610501576104f28561036a565b825293850193908501906104e1565b60408a0151909750945050508083111561051a57600080fd5b5050610528868287016103ef565b9150509250925092565b634e487b7160e01b600052603260045260246000fd5b610f2d806105576000396000f3fe608060405234801561001057600080fd5b506004361061010b5760003560e01c8063715018a6116100a25780638da5cb5b116100715780638da5cb5b14610245578063a622752114610256578063f2fde38b14610269578063f3fef3a31461027c578063f8b2cb4f1461028f57600080fd5b8063715018a61461021657806374c13fda1461021e57806381684db51461023157806384bfd0df1461023e57600080fd5b806332469ffe116100de57806332469ffe146101ab57806336c87754146101c057806347e7ef24146101eb578063570ca735146101fe57600080fd5b80630560bd961461011057806318a029cf146101485780632a2d613c146101765780632f75700614610196575b600080fd5b61013361011e366004610cf5565b60066020526000908152604090205460ff1681565b60405190151581526020015b60405180910390f35b610168610156366004610cf5565b60046020526000908152604090205481565b60405190815260200161013f565b610168610184366004610cf5565b60076020526000908152604090205481565b61019e6102b8565b60405161013f9190610d10565b6101be6101b9366004610d5d565b61031a565b005b6101d36101ce366004610d5d565b6104ad565b6040516001600160a01b03909116815260200161013f565b6101be6101f9366004610d76565b6104d7565b6002546101d39061010090046001600160a01b031681565b6101be61055d565b6003546101d3906001600160a01b031681565b6002546101339060ff1681565b6001610133565b6000546001600160a01b03166101d3565b6101be610264366004610dae565b610571565b6101be610277366004610cf5565b610645565b6101be61028a366004610d76565b610680565b61016861029d366004610cf5565b6001600160a01b031660009081526004602052604090205490565b6060600580548060200260200160405190810160405280929190818152602001828054801561031057602002820191906000526020600020905b81546001600160a01b031681526001909101906020018083116102f2575b5050505050905090565b60025461010090046001600160a01b0316331461036f5760405162461bcd60e51b815260206004820152600e60248201526d139bdd08185d5d1a1bdc9a5e995960921b60448201526064015b60405180910390fd5b610377610702565b60025460ff166103c95760405162461bcd60e51b815260206004820152601860248201527f4175746f2d73617665206973206e6f7420656e61626c656400000000000000006044820152606401610366565b600081116103e95760405162461bcd60e51b815260040161036690610df3565b6104126103fe6000546001600160a01b031690565b6003546001600160a01b031690308461072c565b6003546001600160a01b03166000908152600460205260408120805483929061043c908490610e40565b90915550506003546001600160a01b031661045f6000546001600160a01b031690565b6001600160a01b03167f5548c837ab068cf56a2c2479df0882a4922fd203edb7517321831d95078c5f628360405161049991815260200190565b60405180910390a36104aa60018055565b50565b600581815481106104bd57600080fd5b6000918252602090912001546001600160a01b0316905081565b6104df610799565b6104e7610702565b6104f182826107c6565b6001600160a01b03821660009081526007602090815260408083205460049092529091205410610550576040516001600160a01b038316907f5f3dc439f5dac30845c9521c66d83b1358993f0affa96a556ec90c0478a65d8590600090a25b61055960018055565b5050565b610565610799565b61056f60006108b9565b565b610579610799565b6001600160a01b03821660009081526006602052604090205460ff166105b15760405162461bcd60e51b815260040161036690610e53565b60028054600380546001600160a01b0319166001600160a01b038681169182179092556001600160a81b0319909216861515610100600160a81b031981169190911761010092861692830217909355604080519384526020840192909252908201527f629a66e9009f2689e67705f82a8e844ebd3be4c0168030a4727bc4b90663e15d9060600160405180910390a1505050565b61064d610799565b6001600160a01b03811661067757604051631e4fbdf760e01b815260006004820152602401610366565b6104aa816108b9565b610688610799565b610690610702565b6001600160a01b03821660009081526007602090815260408083205460049092529091205410156106f85760405162461bcd60e51b815260206004820152601260248201527115185c99d95d081b9bdd081c995858da195960721b6044820152606401610366565b6105508282610909565b60026001540361072557604051633ee5aeb560e01b815260040160405180910390fd5b6002600155565b6040516001600160a01b0384811660248301528381166044830152606482018390526107939186918216906323b872dd906084015b604051602081830303815290604052915060e01b6020820180516001600160e01b038381831617835250505050610b05565b50505050565b6000546001600160a01b0316331461056f5760405163118cdaa760e01b8152336004820152602401610366565b6107ce610799565b6107d6610702565b6001600160a01b03821660009081526006602052604090205460ff1661080e5760405162461bcd60e51b815260040161036690610e53565b6000811161082e5760405162461bcd60e51b815260040161036690610df3565b6108436001600160a01b03831633308461072c565b6001600160a01b0382166000908152600460205260408120805483929061086b908490610e40565b90915550506040518181526001600160a01b0383169033907f5548c837ab068cf56a2c2479df0882a4922fd203edb7517321831d95078c5f629060200160405180910390a361055960018055565b600080546001600160a01b038381166001600160a01b0319831681178455604051919092169283917f8be0079c531659141344cd1fd0a4f28419497f9722a3daafe3b4186f6b6457e09190a35050565b610911610799565b610919610702565b6001600160a01b03821660009081526006602052604090205460ff166109515760405162461bcd60e51b815260040161036690610e53565b600081116109715760405162461bcd60e51b815260040161036690610df3565b6040516370a0823160e01b81523060048201526000906001600160a01b038416906370a0823190602401602060405180830381865afa1580156109b8573d6000803e3d6000fd5b505050506040513d601f19601f820116820180604052508101906109dc9190610e7f565b6001600160a01b038416600090815260046020526040902054909150811115610a1a57506001600160a01b0382166000908152600460205260409020545b6001600160a01b038316600090815260046020526040902054821115610a795760405162461bcd60e51b8152602060048201526014602482015273496e73756666696369656e742062616c616e636560601b6044820152606401610366565b6001600160a01b03831660009081526004602052604081208054849290610aa1908490610e98565b90915550610abb90506001600160a01b0384163384610b6d565b6040518281526001600160a01b0384169033907f9b1bfa7fa9ee420a16e124f794c35ac9f90472acc99140eb2f6447c714cad8eb9060200160405180910390a35061055960018055565b6000610b1a6001600160a01b03841683610b9e565b90508051600014158015610b3f575080806020019051810190610b3d9190610eab565b155b15610b6857604051635274afe760e01b81526001600160a01b0384166004820152602401610366565b505050565b6040516001600160a01b03838116602483015260448201839052610b6891859182169063a9059cbb90606401610761565b6060610bac83836000610bb5565b90505b92915050565b606081471015610bda5760405163cd78605960e01b8152306004820152602401610366565b600080856001600160a01b03168486604051610bf69190610ec8565b60006040518083038185875af1925050503d8060008114610c33576040519150601f19603f3d011682016040523d82523d6000602084013e610c38565b606091505b5091509150610c48868383610c54565b925050505b9392505050565b606082610c6957610c6482610cb0565b610c4d565b8151158015610c8057506001600160a01b0384163b155b15610ca957604051639996b31560e01b81526001600160a01b0385166004820152602401610366565b5080610c4d565b805115610cc05780518082602001fd5b604051630a12f52160e11b815260040160405180910390fd5b80356001600160a01b0381168114610cf057600080fd5b919050565b600060208284031215610d0757600080fd5b610bac82610cd9565b6020808252825182820181905260009190848201906040850190845b81811015610d515783516001600160a01b031683529284019291840191600101610d2c565b50909695505050505050565b600060208284031215610d6f57600080fd5b5035919050565b60008060408385031215610d8957600080fd5b610d9283610cd9565b946020939093013593505050565b80151581146104aa57600080fd5b600080600060608486031215610dc357600080fd5b8335610dce81610da0565b9250610ddc60208501610cd9565b9150610dea60408501610cd9565b90509250925092565b6020808252601d908201527f416d6f756e74206d7573742062652067726561746572207468616e2030000000604082015260600190565b634e487b7160e01b600052601160045260246000fd5b80820180821115610baf57610baf610e2a565b602080825260129082015271151bdad95b881b9bdd081858d8d95c1d195960721b604082015260600190565b600060208284031215610e9157600080fd5b5051919050565b81810381811115610baf57610baf610e2a565b600060208284031215610ebd57600080fd5b8151610c4d81610da0565b6000825160005b81811015610ee95760208186018101518583015201610ecf565b50600092019182525091905056fea26469706673582212207d23ab96b56a4d52cb1b85dadeb9d3d1a7073d01b2ab9af00c0f6b1d79999f8364736f6c63430008190033","linkReferences":{}},"methodIdentifiers":{"acceptedTokens(uint256)":"36c87754","autoSave(uint256)":"32469ffe","autoSaveEnabled()":"81684db5","defaultToken()":"74c13fda","deposit(address,uint256)":"47e7ef24","getAcceptedTokens()":"2f757006","getBalance(address)":"f8b2cb4f","isTokenAccepted(address)":"0560bd96","operator()":"570ca735","owner()":"8da5cb5b","renounceOwnership()":"715018a6","savingsCompatible()":"84bfd0df","toggleAutoSave(bool,address,address)":"a6227521","tokenSavings(address)":"18a029cf","tokenTargets(address)":"2a2d613c","transferOwnership(address)":"f2fde38b","withdraw(address,uint256)":"f3fef3a3"},"id":107}