{"abi":[{"type":"constructor","inputs":[{"name":"_owner","type":"address","internalType":"address"},{"name":"_acceptedTokens","type":"address[]","internalType":"address[]"},{"name":"_yieldStrategyManager","type":"address","internalType":"address"},{"name":"_investmentPercentage","type":"uint256","internalType":"uint256"}],"stateMutability":"nonpayable"},{"type":"function","name":"BASE","inputs":[],"outputs":[{"name":"","type":"uint256","internalType":"uint256"}],"stateMutability":"view"},{"type":"function","name":"acceptedTokens","inputs":[{"name":"","type":"uint256","internalType":"uint256"}],"outputs":[{"name":"","type":"address","internalType":"address"}],"stateMutability":"view"},{"type":"function","name":"autoSave","inputs":[{"name":"_amount","type":"uint256","internalType":"uint256"}],"outputs":[],"stateMutability":"nonpayable"},{"type":"function","name":"autoSaveEnabled","inputs":[],"outputs":[{"name":"","type":"bool","internalType":"bool"}],"stateMutability":"view"},{"type":"function","name":"defaultToken","inputs":[],"outputs":[{"name":"","type":"address","internalType":"address"}],"stateMutability":"view"},{"type":"function","name":"deposit","inputs":[{"name":"_token","type":"address","internalType":"address"},{"name":"_amount","type":"uint256","internalType":"uint256"}],"outputs":[],"stateMutability":"nonpayable"},{"type":"function","name":"getAcceptedTokens","inputs":[],"outputs":[{"name":"","type":"address[]","internalType":"address[]"}],"stateMutability":"view"},{"type":"function","name":"getBalance","inputs":[{"name":"_token","type":"address","internalType":"address"}],"outputs":[{"name":"","type":"uint256","internalType":"uint256"}],"stateMutability":"view"},{"type":"function","name":"getTotalBalance","inputs":[{"name":"_token","type":"address","internalType":"address"}],"outputs":[{"name":"","type":"uint256","internalType":"uint256"}],"stateMutability":"view"},{"type":"function","name":"investmentPercentage","inputs":[],"outputs":[{"name":"","type":"uint256","internalType":"uint256"}],"stateMutability":"view"},{"type":"function","name":"investmentToken","inputs":[],"outputs":[{"name":"","type":"address","internalType":"address"}],"stateMutability":"view"},{"type":"function","name":"isInvestmentToken","inputs":[{"name":"_token","type":"address","internalType":"address"}],"outputs":[{"name":"","type":"bool","internalType":"bool"}],"stateMutability":"view"},{"type":"function","name":"isTokenAccepted","inputs":[{"name":"","type":"address","internalType":"address"}],"outputs":[{"name":"","type":"bool","internalType":"bool"}],"stateMutability":"view"},{"type":"function","name":"operator","inputs":[],"outputs":[{"name":"","type":"address","internalType":"address"}],"stateMutability":"view"},{"type":"function","name":"owner","inputs":[],"outputs":[{"name":"","type":"address","internalType":"address"}],"stateMutability":"view"},{"type":"function","name":"renounceOwnership","inputs":[],"outputs":[],"stateMutability":"nonpayable"},{"type":"function","name":"savingsCompatible","inputs":[],"outputs":[{"name":"","type":"bool","internalType":"bool"}],"stateMutability":"pure"},{"type":"function","name":"toggleAutoSave","inputs":[{"name":"_enabled","type":"bool","internalType":"bool"},{"name":"_defaultToken","type":"address","internalType":"address"},{"name":"_operator","type":"address","internalType":"address"}],"outputs":[],"stateMutability":"nonpayable"},{"type":"function","name":"tokenSavings","inputs":[{"name":"","type":"address","internalType":"address"}],"outputs":[{"name":"","type":"uint256","internalType":"uint256"}],"stateMutability":"view"},{"type":"function","name":"transferOwnership","inputs":[{"name":"newOwner","type":"address","internalType":"address"}],"outputs":[],"stateMutability":"nonpayable"},{"type":"function","name":"withdraw","inputs":[{"name":"_token","type":"address","internalType":"address"},{"name":"_amount","type":"uint256","internalType":"uint256"}],"outputs":[],"stateMutability":"nonpayable"},{"type":"function","name":"yieldStrategyManager","inputs":[],"outputs":[{"name":"","type":"address","internalType":"contract IERC4626"}],"stateMutability":"view"},{"type":"event","name":"AutoSaveToggled","inputs":[{"name":"enabled","type":"bool","indexed":false,"internalType":"bool"},{"name":"defaultToken","type":"address","indexed":false,"internalType":"address"},{"name":"operator","type":"address","indexed":false,"internalType":"address"}],"anonymous":false},{"type":"event","name":"Deposit","inputs":[{"name":"user","type":"address","indexed":true,"internalType":"address"},{"name":"token","type":"address","indexed":true,"internalType":"address"},{"name":"amount","type":"uint256","indexed":false,"internalType":"uint256"}],"anonymous":false},{"type":"event","name":"Divested","inputs":[{"name":"token","type":"address","indexed":true,"internalType":"address"},{"name":"amount","type":"uint256","indexed":false,"internalType":"uint256"}],"anonymous":false},{"type":"event","name":"Invested","inputs":[{"name":"token","type":"address","indexed":true,"internalType":"address"},{"name":"amount","type":"uint256","indexed":false,"internalType":"uint256"}],"anonymous":false},{"type":"event","name":"InvestmentPercentageSet","inputs":[{"name":"percentage","type":"uint256","indexed":false,"internalType":"uint256"}],"anonymous":false},{"type":"event","name":"OwnershipTransferred","inputs":[{"name":"previousOwner","type":"address","indexed":true,"internalType":"address"},{"name":"newOwner","type":"address","indexed":true,"internalType":"address"}],"anonymous":false},{"type":"event","name":"Withdraw","inputs":[{"name":"user","type":"address","indexed":true,"internalType":"address"},{"name":"token","type":"address","indexed":true,"internalType":"address"},{"name":"amount","type":"uint256","indexed":false,"internalType":"uint256"}],"anonymous":false},{"type":"error","name":"AddressEmptyCode","inputs":[{"name":"target","type":"address","internalType":"address"}]},{"type":"error","name":"AddressInsufficientBalance","inputs":[{"name":"account","type":"address","internalType":"address"}]},{"type":"error","name":"FailedInnerCall","inputs":[]},{"type":"error","name":"OwnableInvalidOwner","inputs":[{"name":"owner","type":"address","internalType":"address"}]},{"type":"error","name":"OwnableUnauthorizedAccount","inputs":[{"name":"account","type":"address","internalType":"address"}]},{"type":"error","name":"ReentrancyGuardReentrantCall","inputs":[]},{"type":"error","name":"SafeERC20FailedOperation","inputs":[{"name":"token","type":"address","internalType":"address"}]}],"bytecode":{"object":"0x6080604052612710600a5534801561001657600080fd5b506040516119a53803806119a583398101604081905261003591610445565b8383816001600160a01b03811661006757604051631e4fbdf760e01b8152600060048201526024015b60405180910390fd5b610070816102a1565b506001805560005b81518110156100b1576100a982828151811061009657610096610536565b60200260200101516102f160201b60201c565b600101610078565b505050600a548111156101065760405162461bcd60e51b815260206004820152601d60248201527f496e76616c696420696e766573746d656e742070657263656e74616765000000604482015260640161005e565b600780546001600160a01b0319166001600160a01b038416908117909155604080516338d52e0f60e01b815290516338d52e0f916004808201926020929091908290030181865afa15801561015f573d6000803e3d6000fd5b505050506040513d601f19601f82011682018060405250810190610183919061054c565b600960006101000a8154816001600160a01b0302191690836001600160a01b03160217905550826000815181106101bc576101bc610536565b60209081029190910101516009546001600160a01b039081169116146102605760405162461bcd60e51b815260206004820152604d60248201527f53747261746567794d616e61676572206173736574206d75737420626520616d60448201527f6f6e6720616363657074656420746f6b656e7320616e6420626520746865206660648201526c6972737420696e20617272617960981b608482015260a40161005e565b60088190556040518181527f98132183cba89b5fe478033097f47dd829659cc7a27740b25ec997747f9481499060200160405180910390a15050505061056e565b600080546001600160a01b038381166001600160a01b0319831681178455604051919092169283917f8be0079c531659141344cd1fd0a4f28419497f9722a3daafe3b4186f6b6457e09190a35050565b6001600160a01b03811660009081526006602052604090205460ff161561035a5760405162461bcd60e51b815260206004820152601660248201527f546f6b656e20616c726561647920616363657074656400000000000000000000604482015260640161005e565b6005546020116103ac5760405162461bcd60e51b815260206004820152601b60248201527f4d6178696d756d20746f6b656e206c696d697420726561636865640000000000604482015260640161005e565b6005805460018181019092557f036b6384b5eca791c62761152d0c79bb0604c104a5fb6f4eb0703f3154bb3db00180546001600160a01b039093166001600160a01b031990931683179055600091825260066020526040909120805460ff19169091179055565b80516001600160a01b038116811461042a57600080fd5b919050565b634e487b7160e01b600052604160045260246000fd5b6000806000806080858703121561045b57600080fd5b61046485610413565b602086810151919550906001600160401b038082111561048357600080fd5b818801915088601f83011261049757600080fd5b8151818111156104a9576104a961042f565b8060051b604051601f19603f830116810181811085821117156104ce576104ce61042f565b60405291825284820192508381018501918b8311156104ec57600080fd5b938501935b828510156105115761050285610413565b845293850193928501926104f1565b80985050505050505061052660408601610413565b6060959095015193969295505050565b634e487b7160e01b600052603260045260246000fd5b60006020828403121561055e57600080fd5b61056782610413565b9392505050565b6114288061057d6000396000f3fe608060405234801561001057600080fd5b50600436106101415760003560e01c806381684db5116100b8578063d3d381931161007c578063d3d38193146102bd578063d965183d146102d0578063ec342ad0146102e3578063f2fde38b146102ec578063f3fef3a3146102ff578063f8b2cb4f1461031257600080fd5b806381684db51461027c57806384bfd0df146102895780638da5cb5b146102905780639b49969b146102a1578063a6227521146102aa57600080fd5b806336c877541161010a57806336c877541461020157806347e7ef2414610214578063570ca73514610227578063715018a61461023f57806374c13fda146102475780637d5ed9bd1461025a57600080fd5b80622703a2146101465780630560bd961461017657806318a029cf146101a95780632f757006146101d757806332469ffe146101ec575b600080fd5b600954610159906001600160a01b031681565b6040516001600160a01b0390911681526020015b60405180910390f35b6101996101843660046111b7565b60066020526000908152604090205460ff1681565b604051901515815260200161016d565b6101c96101b73660046111b7565b60046020526000908152604090205481565b60405190815260200161016d565b6101df61033b565b60405161016d91906111d2565b6101ff6101fa36600461121f565b61039d565b005b61015961020f36600461121f565b610530565b6101ff610222366004611238565b61055a565b6002546101599061010090046001600160a01b031681565b6101ff6106f5565b600354610159906001600160a01b031681565b6101996102683660046111b7565b6009546001600160a01b0391821691161490565b6002546101999060ff1681565b6001610199565b6000546001600160a01b0316610159565b6101c960085481565b6101ff6102b8366004611270565b610709565b6101c96102cb3660046111b7565b6107dd565b600754610159906001600160a01b031681565b6101c9600a5481565b6101ff6102fa3660046111b7565b610957565b6101ff61030d366004611238565b610992565b6101c96103203660046111b7565b6001600160a01b031660009081526004602052604090205490565b6060600580548060200260200160405190810160405280929190818152602001828054801561039357602002820191906000526020600020905b81546001600160a01b03168152600190910190602001808311610375575b5050505050905090565b60025461010090046001600160a01b031633146103f25760405162461bcd60e51b815260206004820152600e60248201526d139bdd08185d5d1a1bdc9a5e995960921b60448201526064015b60405180910390fd5b6103fa610bc8565b60025460ff1661044c5760405162461bcd60e51b815260206004820152601860248201527f4175746f2d73617665206973206e6f7420656e61626c6564000000000000000060448201526064016103e9565b6000811161046c5760405162461bcd60e51b81526004016103e9906112b5565b6104956104816000546001600160a01b031690565b6003546001600160a01b0316903084610bf2565b6003546001600160a01b0316600090815260046020526040812080548392906104bf908490611302565b90915550506003546001600160a01b03166104e26000546001600160a01b031690565b6001600160a01b03167f5548c837ab068cf56a2c2479df0882a4922fd203edb7517321831d95078c5f628360405161051c91815260200190565b60405180910390a361052d60018055565b50565b6005818154811061054057600080fd5b6000918252602090912001546001600160a01b0316905081565b610562610c5f565b61056a610bc8565b6105748282610c8c565b6000600a54600854836105879190611315565b610591919061132c565b90506000811180156105b057506009546001600160a01b038481169116145b156106e75760075460405163095ea7b360e01b81526001600160a01b039182166004820152602481018390529084169063095ea7b3906044016020604051808303816000875af1158015610608573d6000803e3d6000fd5b505050506040513d601f19601f8201168201806040525081019061062c919061134e565b50600754604051636e553f6560e01b8152600481018390523060248201526001600160a01b0390911690636e553f65906044016020604051808303816000875af115801561067e573d6000803e3d6000fd5b505050506040513d601f19601f820116820180604052508101906106a2919061136b565b50826001600160a01b03167fc3f75dfc78f6efac88ad5abb5e606276b903647d97b2a62a1ef89840a658bbc3826040516106de91815260200190565b60405180910390a25b506106f160018055565b5050565b6106fd610c5f565b6107076000610d7f565b565b610711610c5f565b6001600160a01b03821660009081526006602052604090205460ff166107495760405162461bcd60e51b81526004016103e990611384565b60028054600380546001600160a01b0319166001600160a01b038681169182179092556001600160a81b0319909216861515610100600160a81b031981169190911761010092861692830217909355604080519384526020840192909252908201527f629a66e9009f2689e67705f82a8e844ebd3be4c0168030a4727bc4b90663e15d9060600160405180910390a1505050565b6040516370a0823160e01b815230600482015260009081906001600160a01b038416906370a0823190602401602060405180830381865afa158015610826573d6000803e3d6000fd5b505050506040513d601f19601f8201168201806040525081019061084a919061136b565b9050610864836009546001600160a01b0391821691161490565b15610951576007546040516370a0823160e01b81523060048201526000916001600160a01b0316906307a2d13a9082906370a0823190602401602060405180830381865afa1580156108ba573d6000803e3d6000fd5b505050506040513d601f19601f820116820180604052508101906108de919061136b565b6040518263ffffffff1660e01b81526004016108fc91815260200190565b602060405180830381865afa158015610919573d6000803e3d6000fd5b505050506040513d601f19601f8201168201806040525081019061093d919061136b565b90506109498183611302565b949350505050565b92915050565b61095f610c5f565b6001600160a01b03811661098957604051631e4fbdf760e01b8152600060048201526024016103e9565b61052d81610d7f565b61099a610c5f565b6109a2610bc8565b6040516370a0823160e01b81523060048201526000906001600160a01b038416906370a0823190602401602060405180830381865afa1580156109e9573d6000803e3d6000fd5b505050506040513d601f19601f82011682018060405250810190610a0d919061136b565b90508181108015610a2b57506009546001600160a01b038481169116145b15610b77576000610a3c82846113b0565b6007546040516363737ac960e11b8152600481018390529192506000916001600160a01b039091169063c6e6f59290602401602060405180830381865afa158015610a8b573d6000803e3d6000fd5b505050506040513d601f19601f82011682018060405250810190610aaf919061136b565b600754604051635d043b2960e11b815260048101839052306024820181905260448201529192506001600160a01b03169063ba087652906064016020604051808303816000875af1158015610b08573d6000803e3d6000fd5b505050506040513d601f19601f82011682018060405250810190610b2c919061136b565b50846001600160a01b03167f2253aebe2fe8682635bbe60d9b78df72efaf785a596910a8ad66e8c6e37584fd83604051610b6891815260200190565b60405180910390a25050610bbe565b81811015610bbe5760405162461bcd60e51b8152602060048201526014602482015273496e73756666696369656e742062616c616e636560601b60448201526064016103e9565b6106e78383610dcf565b600260015403610beb57604051633ee5aeb560e01b815260040160405180910390fd5b6002600155565b6040516001600160a01b038481166024830152838116604483015260648201839052610c599186918216906323b872dd906084015b604051602081830303815290604052915060e01b6020820180516001600160e01b038381831617835250505050610fcb565b50505050565b6000546001600160a01b031633146107075760405163118cdaa760e01b81523360048201526024016103e9565b610c94610c5f565b610c9c610bc8565b6001600160a01b03821660009081526006602052604090205460ff16610cd45760405162461bcd60e51b81526004016103e990611384565b60008111610cf45760405162461bcd60e51b81526004016103e9906112b5565b610d096001600160a01b038316333084610bf2565b6001600160a01b03821660009081526004602052604081208054839290610d31908490611302565b90915550506040518181526001600160a01b0383169033907f5548c837ab068cf56a2c2479df0882a4922fd203edb7517321831d95078c5f629060200160405180910390a36106f160018055565b600080546001600160a01b038381166001600160a01b0319831681178455604051919092169283917f8be0079c531659141344cd1fd0a4f28419497f9722a3daafe3b4186f6b6457e09190a35050565b610dd7610c5f565b610ddf610bc8565b6001600160a01b03821660009081526006602052604090205460ff16610e175760405162461bcd60e51b81526004016103e990611384565b60008111610e375760405162461bcd60e51b81526004016103e9906112b5565b6040516370a0823160e01b81523060048201526000906001600160a01b038416906370a0823190602401602060405180830381865afa158015610e7e573d6000803e3d6000fd5b505050506040513d601f19601f82011682018060405250810190610ea2919061136b565b6001600160a01b038416600090815260046020526040902054909150811115610ee057506001600160a01b0382166000908152600460205260409020545b6001600160a01b038316600090815260046020526040902054821115610f3f5760405162461bcd60e51b8152602060048201526014602482015273496e73756666696369656e742062616c616e636560601b60448201526064016103e9565b6001600160a01b03831660009081526004602052604081208054849290610f679084906113b0565b90915550610f8190506001600160a01b0384163384611033565b6040518281526001600160a01b0384169033907f9b1bfa7fa9ee420a16e124f794c35ac9f90472acc99140eb2f6447c714cad8eb9060200160405180910390a3506106f160018055565b6000610fe06001600160a01b03841683611064565b90508051600014158015611005575080806020019051810190611003919061134e565b155b1561102e57604051635274afe760e01b81526001600160a01b03841660048201526024016103e9565b505050565b6040516001600160a01b0383811660248301526044820183905261102e91859182169063a9059cbb90606401610c27565b606061107283836000611079565b9392505050565b60608147101561109e5760405163cd78605960e01b81523060048201526024016103e9565b600080856001600160a01b031684866040516110ba91906113c3565b60006040518083038185875af1925050503d80600081146110f7576040519150601f19603f3d011682016040523d82523d6000602084013e6110fc565b606091505b509150915061110c868383611116565b9695505050505050565b60608261112b5761112682611172565b611072565b815115801561114257506001600160a01b0384163b155b1561116b57604051639996b31560e01b81526001600160a01b03851660048201526024016103e9565b5080611072565b8051156111825780518082602001fd5b604051630a12f52160e11b815260040160405180910390fd5b80356001600160a01b03811681146111b257600080fd5b919050565b6000602082840312156111c957600080fd5b6110728261119b565b6020808252825182820181905260009190848201906040850190845b818110156112135783516001600160a01b0316835292840192918401916001016111ee565b50909695505050505050565b60006020828403121561123157600080fd5b5035919050565b6000806040838503121561124b57600080fd5b6112548361119b565b946020939093013593505050565b801515811461052d57600080fd5b60008060006060848603121561128557600080fd5b833561129081611262565b925061129e6020850161119b565b91506112ac6040850161119b565b90509250925092565b6020808252601d908201527f416d6f756e74206d7573742062652067726561746572207468616e2030000000604082015260600190565b634e487b7160e01b600052601160045260246000fd5b80820180821115610951576109516112ec565b8082028115828204841417610951576109516112ec565b60008261134957634e487b7160e01b600052601260045260246000fd5b500490565b60006020828403121561136057600080fd5b815161107281611262565b60006020828403121561137d57600080fd5b5051919050565b602080825260129082015271151bdad95b881b9bdd081858d8d95c1d195960721b604082015260600190565b81810381811115610951576109516112ec565b6000825160005b818110156113e457602081860181015185830152016113ca565b50600092019182525091905056fea2646970667358221220f4fa839ba2795dce5917928be198ec540b09f6a8b1a9a19703688cca6c1db13e64736f6c63430008190033","linkReferences":{}},"methodIdentifiers":{"BASE()":"ec342ad0","acceptedTokens(uint256)":"36c87754","autoSave(uint256)":"32469ffe","autoSaveEnabled()":"81684db5","defaultToken()":"74c13fda","deposit(address,uint256)":"47e7ef24","getAcceptedTokens()":"2f757006","getBalance(address)":"f8b2cb4f","getTotalBalance(address)":"d3d38193","investmentPercentage()":"9b49969b","investmentToken()":"002703a2","isInvestmentToken(address)":"7d5ed9bd","isTokenAccepted(address)":"0560bd96","operator()":"570ca735","owner()":"8da5cb5b","renounceOwnership()":"715018a6","savingsCompatible()":"84bfd0df","toggleAutoSave(bool,address,address)":"a6227521","tokenSavings(address)":"18a029cf","transferOwnership(address)":"f2fde38b","withdraw(address,uint256)":"f3fef3a3","yieldStrategyManager()":"d965183d"},"id":106}