{"abi":[{"type":"constructor","inputs":[],"stateMutability":"nonpayable"},{"type":"function","name":"acceptableTokens","inputs":[{"name":"","type":"uint256","internalType":"uint256"}],"outputs":[{"name":"","type":"address","internalType":"address"}],"stateMutability":"view"},{"type":"function","name":"createBaseSavings","inputs":[{"name":"_acceptedTokens","type":"address[]","internalType":"address[]"}],"outputs":[{"name":"","type":"address","internalType":"address"}],"stateMutability":"nonpayable"},{"type":"function","name":"createChallengeSavings","inputs":[{"name":"_acceptedTokens","type":"address[]","internalType":"address[]"}],"outputs":[{"name":"","type":"address","internalType":"address"}],"stateMutability":"nonpayable"},{"type":"function","name":"createTargetSavings","inputs":[{"name":"_acceptedTokens","type":"address[]","internalType":"address[]"},{"name":"_targets","type":"uint256[]","internalType":"uint256[]"}],"outputs":[{"name":"","type":"address","internalType":"address"}],"stateMutability":"nonpayable"},{"type":"function","name":"createVaultSavings","inputs":[{"name":"_acceptedTokens","type":"address[]","internalType":"address[]"},{"name":"_lockPeriod","type":"uint256","internalType":"uint256"}],"outputs":[{"name":"","type":"address","internalType":"address"}],"stateMutability":"nonpayable"},{"type":"function","name":"getAcceptableTokens","inputs":[],"outputs":[{"name":"","type":"address[]","internalType":"address[]"}],"stateMutability":"view"},{"type":"function","name":"isTokenAcceptable","inputs":[{"name":"","type":"address","internalType":"address"}],"outputs":[{"name":"","type":"bool","internalType":"bool"}],"stateMutability":"view"},{"type":"function","name":"owner","inputs":[],"outputs":[{"name":"","type":"address","internalType":"address"}],"stateMutability":"view"},{"type":"function","name":"renounceOwnership","inputs":[],"outputs":[],"stateMutability":"nonpayable"},{"type":"function","name":"transferOwnership","inputs":[{"name":"newOwner","type":"address","internalType":"address"}],"outputs":[],"stateMutability":"nonpayable"},{"type":"function","name":"updateAcceptableTokens","inputs":[{"name":"_acceptedTokens","type":"address[]","internalType":"address[]"}],"outputs":[],"stateMutability":"nonpayable"},{"type":"event","name":"OwnershipTransferred","inputs":[{"name":"previousOwner","type":"address","indexed":true,"internalType":"address"},{"name":"newOwner","type":"address","indexed":true,"internalType":"address"}],"anonymous":false},{"type":"event","name":"SavingsCreated","inputs":[{"name":"owner","type":"address","indexed":true,"internalType":"address"},{"name":"savingsContract","type":"address","indexed":false,"internalType":"address"},{"name":"acceptedTokens","type":"address[]","indexed":false,"internalType":"address[]"},{"name":"savingsType","type":"string","indexed":false,"internalType":"string"}],"anonymous":false},{"type":"error","name":"OwnableInvalidOwner","inputs":[{"name":"owner","type":"address","internalType":"address"}]},{"type":"error","name":"OwnableUnauthorizedAccount","inputs":[{"name":"account","type":"address","internalType":"address"}]}],"bytecode":{"object":"0x6080604052348015600f57600080fd5b503380603557604051631e4fbdf760e01b81526000600482015260240160405180910390fd5b603c816041565b506091565b600080546001600160a01b038381166001600160a01b0319831681178455604051919092169283917f8be0079c531659141344cd1fd0a4f28419497f9722a3daafe3b4186f6b6457e09190a35050565b615b81806100a06000396000f3fe608060405234801561001057600080fd5b50600436106100a95760003560e01c80638da5cb5b116100715780638da5cb5b14610141578063948610b414610152578063bb09bdd414610165578063ce34dcc414610178578063e6c83db51461018b578063f2fde38b146101a057600080fd5b806308328887146100ae57806321a30e72146100de57806359f06623146100f357806360e0e2b414610106578063715018a614610139575b600080fd5b6100c16100bc36600461083b565b6101b3565b6040516001600160a01b0390911681526020015b60405180910390f35b6100f16100ec366004610887565b61026d565b005b6100c1610101366004610887565b610367565b6101296101143660046108e5565b60026020526000908152604090205460ff1681565b60405190151581526020016100d5565b6100f1610415565b6000546001600160a01b03166100c1565b6100c1610160366004610907565b610429565b6100c1610173366004610973565b610537565b6100c1610186366004610887565b610561565b610193610600565b6040516100d5919061098c565b6100f16101ae3660046108e5565b610662565b600082158015906101c5575060208311155b6101ea5760405162461bcd60e51b81526004016101e1906109d9565b60405180910390fd5b6101f484846106a0565b600033858585604051610206906107bb565b6102139493929190610a57565b604051809103906000f08015801561022f573d6000803e3d6000fd5b509050336001600160a01b0316600080516020615b2c83398151915282878760405161025d93929190610a8d565b60405180910390a2949350505050565b61027561073e565b8015801590610285575060208111155b6102a15760405162461bcd60e51b81526004016101e1906109d9565b60005b818110156103625760008383838181106102c0576102c0610ad9565b90506020020160208101906102d591906108e5565b6001600160a01b03811660009081526002602052604090205490915060ff16610359576001805480820182557fb10e2d527612073b26eecdfd717e6a320cf44b4afac2b0732d9fcbe2b7fa0cf60180546001600160a01b0319166001600160a01b0384169081179091556000908152600260205260409020805460ff191690911790555b506001016102a4565b505050565b60008115801590610379575060208211155b6103955760405162461bcd60e51b81526004016101e1906109d9565b61039f83836106a0565b60003384846040516103b0906107c8565b6103bc93929190610aef565b604051809103906000f0801580156103d8573d6000803e3d6000fd5b509050336001600160a01b0316600080516020615b2c83398151915282868660405161040693929190610b1d565b60405180910390a29392505050565b61041d61073e565b610427600061076b565b565b6000831580159061043b575060208411155b6104575760405162461bcd60e51b81526004016101e1906109d9565b8382146104b15760405162461bcd60e51b815260206004820152602260248201527f546f6b656e7320616e642074617267657473206c656e677468206d69736d61746044820152610c6d60f31b60648201526084016101e1565b6104bb85856106a0565b600033868686866040516104ce906107d5565b6104dc959493929190610b6d565b604051809103906000f0801580156104f8573d6000803e3d6000fd5b509050336001600160a01b0316600080516020615b2c83398151915282888860405161052693929190610bcb565b60405180910390a295945050505050565b6001818154811061054757600080fd5b6000918252602090912001546001600160a01b0316905081565b60008115801590610573575060208211155b61058f5760405162461bcd60e51b81526004016101e1906109d9565b61059983836106a0565b60003384846040516105aa906107e2565b6105b693929190610aef565b604051809103906000f0801580156105d2573d6000803e3d6000fd5b509050336001600160a01b0316600080516020615b2c83398151915282868660405161040693929190610c18565b6060600180548060200260200160405190810160405280929190818152602001828054801561065857602002820191906000526020600020905b81546001600160a01b0316815260019091019060200180831161063a575b5050505050905090565b61066a61073e565b6001600160a01b03811661069457604051631e4fbdf760e01b8152600060048201526024016101e1565b61069d8161076b565b50565b60005b8181101561036257600260008484848181106106c1576106c1610ad9565b90506020020160208101906106d691906108e5565b6001600160a01b0316815260208101919091526040016000205460ff166107365760405162461bcd60e51b8152602060048201526014602482015273546f6b656e206e6f742061636365707461626c6560601b60448201526064016101e1565b6001016106a3565b6000546001600160a01b031633146104275760405163118cdaa760e01b81523360048201526024016101e1565b600080546001600160a01b038381166001600160a01b0319831681178455604051919092169283917f8be0079c531659141344cd1fd0a4f28419497f9722a3daafe3b4186f6b6457e09190a35050565b6112fb80610c6483390190565b6115f880611f5f83390190565b6114848061355783390190565b611151806149db83390190565b60008083601f84011261080157600080fd5b50813567ffffffffffffffff81111561081957600080fd5b6020830191508360208260051b850101111561083457600080fd5b9250929050565b60008060006040848603121561085057600080fd5b833567ffffffffffffffff81111561086757600080fd5b610873868287016107ef565b909790965060209590950135949350505050565b6000806020838503121561089a57600080fd5b823567ffffffffffffffff8111156108b157600080fd5b6108bd858286016107ef565b90969095509350505050565b80356001600160a01b03811681146108e057600080fd5b919050565b6000602082840312156108f757600080fd5b610900826108c9565b9392505050565b6000806000806040858703121561091d57600080fd5b843567ffffffffffffffff8082111561093557600080fd5b610941888389016107ef565b9096509450602087013591508082111561095a57600080fd5b50610967878288016107ef565b95989497509550505050565b60006020828403121561098557600080fd5b5035919050565b6020808252825182820181905260009190848201906040850190845b818110156109cd5783516001600160a01b0316835292840192918401916001016109a8565b50909695505050505050565b60208082526018908201527f496e76616c6964206e756d626572206f6620746f6b656e730000000000000000604082015260600190565b8183526000602080850194508260005b85811015610a4c576001600160a01b03610a39836108c9565b1687529582019590820190600101610a20565b509495945050505050565b6001600160a01b0385168152606060208201819052600090610a7c9083018587610a10565b905082604083015295945050505050565b6001600160a01b0384168152606060208201819052600090610ab29083018486610a10565b828103604093840152600581526415985d5b1d60da1b602082015291909101949350505050565b634e487b7160e01b600052603260045260246000fd5b6001600160a01b0384168152604060208201819052600090610b149083018486610a10565b95945050505050565b6001600160a01b0384168152606060208201819052600090610b429083018486610a10565b82810360409384015260098152684368616c6c656e676560b81b602082015291909101949350505050565b6001600160a01b0386168152606060208201819052600090610b929083018688610a10565b82810360408401528381526001600160fb1b03841115610bb157600080fd5b8360051b8086602084013701602001979650505050505050565b6001600160a01b0384168152606060208201819052600090610bf09083018486610a10565b828103604093840152600681526515185c99d95d60d21b602082015291909101949350505050565b6001600160a01b0384168152606060208201819052600090610c3d9083018486610a10565b82810360409384015260048152634261736560e01b60208201529190910194935050505056fe608060405234801561001057600080fd5b506040516112fb3803806112fb83398101604081905261002f91610296565b8282816001600160a01b03811661006157604051631e4fbdf760e01b8152600060048201526024015b60405180910390fd5b61006a816100f2565b506001805560005b81518110156100ab576100a382828151811061009057610090610378565b602002602001015161014260201b60201c565b600101610072565b5050506007819055426008556040518181527fd32a4cc27f52edbb5e071e05b29c1cdb120172bb012b7031894db8be82ad71fc9060200160405180910390a150505061038e565b600080546001600160a01b038381166001600160a01b0319831681178455604051919092169283917f8be0079c531659141344cd1fd0a4f28419497f9722a3daafe3b4186f6b6457e09190a35050565b6001600160a01b03811660009081526006602052604090205460ff16156101ab5760405162461bcd60e51b815260206004820152601660248201527f546f6b656e20616c7265616479206163636570746564000000000000000000006044820152606401610058565b6005546020116101fd5760405162461bcd60e51b815260206004820152601b60248201527f4d6178696d756d20746f6b656e206c696d6974207265616368656400000000006044820152606401610058565b6005805460018181019092557f036b6384b5eca791c62761152d0c79bb0604c104a5fb6f4eb0703f3154bb3db00180546001600160a01b039093166001600160a01b031990931683179055600091825260066020526040909120805460ff19169091179055565b80516001600160a01b038116811461027b57600080fd5b919050565b634e487b7160e01b600052604160045260246000fd5b6000806000606084860312156102ab57600080fd5b6102b484610264565b602085810151919450906001600160401b03808211156102d357600080fd5b818701915087601f8301126102e757600080fd5b8151818111156102f9576102f9610280565b8060051b604051601f19603f8301168101818110858211171561031e5761031e610280565b60405291825284820192508381018501918a83111561033c57600080fd5b938501935b828510156103615761035285610264565b84529385019392850192610341565b809750505050505050604084015190509250925092565b634e487b7160e01b600052603260045260246000fd5b610f5e8061039d6000396000f3fe608060405234801561001057600080fd5b50600436106101215760003560e01c8063715018a6116100ad5780638da5cb5b116100715780638da5cb5b1461026d578063a62275211461027e578063f2fde38b14610291578063f3fef3a3146102a4578063f8b2cb4f146102b757600080fd5b8063715018a61461023557806374c13fda1461023d57806378e979251461025057806381684db51461025957806384bfd0df1461026657600080fd5b806336c87754116100f457806336c87754146101b65780633fd8b02f146101e157806347e7ef24146101ea5780634de5120e146101fd578063570ca7351461021d57600080fd5b80630560bd961461012657806318a029cf1461015e5780632f7570061461018c57806332469ffe146101a1575b600080fd5b610149610134366004610d26565b60066020526000908152604090205460ff1681565b60405190151581526020015b60405180910390f35b61017e61016c366004610d26565b60046020526000908152604090205481565b604051908152602001610155565b6101946102e0565b6040516101559190610d41565b6101b46101af366004610d8e565b610342565b005b6101c96101c4366004610d8e565b6104d5565b6040516001600160a01b039091168152602001610155565b61017e60075481565b6101b46101f8366004610da7565b6104ff565b61017e61020b366004610d26565b60096020526000908152604090205481565b6002546101c99061010090046001600160a01b031681565b6101b46105f6565b6003546101c9906001600160a01b031681565b61017e60085481565b6002546101499060ff1681565b6001610149565b6000546001600160a01b03166101c9565b6101b461028c366004610ddf565b61060a565b6101b461029f366004610d26565b6106de565b6101b46102b2366004610da7565b610719565b61017e6102c5366004610d26565b6001600160a01b031660009081526004602052604090205490565b6060600580548060200260200160405190810160405280929190818152602001828054801561033857602002820191906000526020600020905b81546001600160a01b0316815260019091019060200180831161031a575b5050505050905090565b60025461010090046001600160a01b031633146103975760405162461bcd60e51b815260206004820152600e60248201526d139bdd08185d5d1a1bdc9a5e995960921b60448201526064015b60405180910390fd5b61039f610826565b60025460ff166103f15760405162461bcd60e51b815260206004820152601860248201527f4175746f2d73617665206973206e6f7420656e61626c65640000000000000000604482015260640161038e565b600081116104115760405162461bcd60e51b815260040161038e90610e24565b61043a6104266000546001600160a01b031690565b6003546001600160a01b0316903084610850565b6003546001600160a01b031660009081526004602052604081208054839290610464908490610e71565b90915550506003546001600160a01b03166104876000546001600160a01b031690565b6001600160a01b03167f5548c837ab068cf56a2c2479df0882a4922fd203edb7517321831d95078c5f62836040516104c191815260200190565b60405180910390a36104d260018055565b50565b600581815481106104e557600080fd5b6000918252602090912001546001600160a01b0316905081565b6105076108bd565b61050f610826565b6001600160a01b03821660009081526006602052604090205460ff166105475760405162461bcd60e51b815260040161038e90610e84565b600081116105675760405162461bcd60e51b815260040161038e90610e24565b61057c6001600160a01b038316333084610850565b6001600160a01b038216600090815260046020526040812080548392906105a4908490610e71565b90915550506040518181526001600160a01b0383169033907f5548c837ab068cf56a2c2479df0882a4922fd203edb7517321831d95078c5f629060200160405180910390a36105f260018055565b5050565b6105fe6108bd565b61060860006108ea565b565b6106126108bd565b6001600160a01b03821660009081526006602052604090205460ff1661064a5760405162461bcd60e51b815260040161038e90610e84565b60028054600380546001600160a01b0319166001600160a01b038681169182179092556001600160a81b0319909216861515610100600160a81b031981169190911761010092861692830217909355604080519384526020840192909252908201527f629a66e9009f2689e67705f82a8e844ebd3be4c0168030a4727bc4b90663e15d9060600160405180910390a1505050565b6106e66108bd565b6001600160a01b03811661071057604051631e4fbdf760e01b81526000600482015260240161038e565b6104d2816108ea565b6107216108bd565b610729610826565b6001600160a01b0382166000908152600960205260408120549003610765576008546001600160a01b0383166000908152600960205260409020555b6007546001600160a01b03831660009081526009602052604090205461078b9190610e71565b4210156107d25760405162461bcd60e51b8152602060048201526015602482015274131bd8dac81c195c9a5bd9081b9bdd08195b991959605a1b604482015260640161038e565b6107dc828261093a565b6001600160a01b038216600081815260096020526040808220429055517fa2afae4cf1376a97acf4741ea1e1c9f9f33cf1b757ba8bd478ee1667d5815e219190a26105f260018055565b60026001540361084957604051633ee5aeb560e01b815260040160405180910390fd5b6002600155565b6040516001600160a01b0384811660248301528381166044830152606482018390526108b79186918216906323b872dd906084015b604051602081830303815290604052915060e01b6020820180516001600160e01b038381831617835250505050610b36565b50505050565b6000546001600160a01b031633146106085760405163118cdaa760e01b815233600482015260240161038e565b600080546001600160a01b038381166001600160a01b0319831681178455604051919092169283917f8be0079c531659141344cd1fd0a4f28419497f9722a3daafe3b4186f6b6457e09190a35050565b6109426108bd565b61094a610826565b6001600160a01b03821660009081526006602052604090205460ff166109825760405162461bcd60e51b815260040161038e90610e84565b600081116109a25760405162461bcd60e51b815260040161038e90610e24565b6040516370a0823160e01b81523060048201526000906001600160a01b038416906370a0823190602401602060405180830381865afa1580156109e9573d6000803e3d6000fd5b505050506040513d601f19601f82011682018060405250810190610a0d9190610eb0565b6001600160a01b038416600090815260046020526040902054909150811115610a4b57506001600160a01b0382166000908152600460205260409020545b6001600160a01b038316600090815260046020526040902054821115610aaa5760405162461bcd60e51b8152602060048201526014602482015273496e73756666696369656e742062616c616e636560601b604482015260640161038e565b6001600160a01b03831660009081526004602052604081208054849290610ad2908490610ec9565b90915550610aec90506001600160a01b0384163384610b9e565b6040518281526001600160a01b0384169033907f9b1bfa7fa9ee420a16e124f794c35ac9f90472acc99140eb2f6447c714cad8eb9060200160405180910390a3506105f260018055565b6000610b4b6001600160a01b03841683610bcf565b90508051600014158015610b70575080806020019051810190610b6e9190610edc565b155b15610b9957604051635274afe760e01b81526001600160a01b038416600482015260240161038e565b505050565b6040516001600160a01b03838116602483015260448201839052610b9991859182169063a9059cbb90606401610885565b6060610bdd83836000610be6565b90505b92915050565b606081471015610c0b5760405163cd78605960e01b815230600482015260240161038e565b600080856001600160a01b03168486604051610c279190610ef9565b60006040518083038185875af1925050503d8060008114610c64576040519150601f19603f3d011682016040523d82523d6000602084013e610c69565b606091505b5091509150610c79868383610c85565b925050505b9392505050565b606082610c9a57610c9582610ce1565b610c7e565b8151158015610cb157506001600160a01b0384163b155b15610cda57604051639996b31560e01b81526001600160a01b038516600482015260240161038e565b5080610c7e565b805115610cf15780518082602001fd5b604051630a12f52160e11b815260040160405180910390fd5b80356001600160a01b0381168114610d2157600080fd5b919050565b600060208284031215610d3857600080fd5b610bdd82610d0a565b6020808252825182820181905260009190848201906040850190845b81811015610d825783516001600160a01b031683529284019291840191600101610d5d565b50909695505050505050565b600060208284031215610da057600080fd5b5035919050565b60008060408385031215610dba57600080fd5b610dc383610d0a565b946020939093013593505050565b80151581146104d257600080fd5b600080600060608486031215610df457600080fd5b8335610dff81610dd1565b9250610e0d60208501610d0a565b9150610e1b60408501610d0a565b90509250925092565b6020808252601d908201527f416d6f756e74206d7573742062652067726561746572207468616e2030000000604082015260600190565b634e487b7160e01b600052601160045260246000fd5b80820180821115610be057610be0610e5b565b602080825260129082015271151bdad95b881b9bdd081858d8d95c1d195960721b604082015260600190565b600060208284031215610ec257600080fd5b5051919050565b81810381811115610be057610be0610e5b565b600060208284031215610eee57600080fd5b8151610c7e81610dd1565b6000825160005b81811015610f1a5760208186018101518583015201610f00565b50600092019182525091905056fea2646970667358221220df7db88e4ee34cc92a213bd8f2514d22538eaf4afe03414482ab16618e6b206264736f6c63430008190033608060405234801561001057600080fd5b506040516115f83803806115f883398101604081905261002f91610268565b8181816001600160a01b03811661006157604051631e4fbdf760e01b8152600060048201526024015b60405180910390fd5b61006a816100c4565b506001805560005b81518110156100ab576100a382828151811061009057610090610341565b602002602001015161011460201b60201c565b600101610072565b5050506100bd826100c460201b60201c565b5050610357565b600080546001600160a01b038381166001600160a01b0319831681178455604051919092169283917f8be0079c531659141344cd1fd0a4f28419497f9722a3daafe3b4186f6b6457e09190a35050565b6001600160a01b03811660009081526006602052604090205460ff161561017d5760405162461bcd60e51b815260206004820152601660248201527f546f6b656e20616c7265616479206163636570746564000000000000000000006044820152606401610058565b6005546020116101cf5760405162461bcd60e51b815260206004820152601b60248201527f4d6178696d756d20746f6b656e206c696d6974207265616368656400000000006044820152606401610058565b6005805460018181019092557f036b6384b5eca791c62761152d0c79bb0604c104a5fb6f4eb0703f3154bb3db00180546001600160a01b039093166001600160a01b031990931683179055600091825260066020526040909120805460ff19169091179055565b80516001600160a01b038116811461024d57600080fd5b919050565b634e487b7160e01b600052604160045260246000fd5b6000806040838503121561027b57600080fd5b61028483610236565b602084810151919350906001600160401b03808211156102a357600080fd5b818601915086601f8301126102b757600080fd5b8151818111156102c9576102c9610252565b8060051b604051601f19603f830116810181811085821117156102ee576102ee610252565b60405291825284820192508381018501918983111561030c57600080fd5b938501935b828510156103315761032285610236565b84529385019392850192610311565b8096505050505050509250929050565b634e487b7160e01b600052603260045260246000fd5b611292806103666000396000f3fe608060405234801561001057600080fd5b50600436106101215760003560e01c8063570ca735116100ad5780638da5cb5b116100715780638da5cb5b146102d9578063a6227521146102ea578063f2fde38b146102fd578063f3fef3a314610310578063f8b2cb4f1461032357600080fd5b8063570ca73514610292578063715018a6146102aa57806374c13fda146102b257806381684db5146102c557806384bfd0df146102d257600080fd5b80632f757006116100f45780632f7570061461021757806332469ffe1461022c57806336c877541461024157806347e7ef241461026c5780634ad06e461461027f57600080fd5b80630560bd961461012657806308b43a191461015e57806318a029cf146101ad5780632ce9f4ca146101db575b600080fd5b610149610134366004611010565b60066020526000908152604090205460ff1681565b60405190151581526020015b60405180910390f35b61019061016c366004611010565b60076020526000908152604090208054600182015460029092015490919060ff1683565b604080519384526020840192909252151590820152606001610155565b6101cd6101bb366004611010565b60046020526000908152604090205481565b604051908152602001610155565b6101906101e9366004611010565b6001600160a01b0316600090815260076020526040902080546001820154600290920154909260ff90911690565b61021f61034c565b604051610155919061102b565b61023f61023a366004611078565b6103ae565b005b61025461024f366004611078565b610435565b6040516001600160a01b039091168152602001610155565b61023f61027a366004611091565b61045f565b61023f61028d3660046110bb565b61048f565b6002546102549061010090046001600160a01b031681565b61023f61061c565b600354610254906001600160a01b031681565b6002546101499060ff1681565b6001610149565b6000546001600160a01b0316610254565b61023f6102f83660046110fc565b610630565b61023f61030b366004611010565b610704565b61023f61031e366004611091565b61073f565b6101cd610331366004611010565b6001600160a01b031660009081526004602052604090205490565b606060058054806020026020016040519081016040528092919081815260200182805480156103a457602002820191906000526020600020905b81546001600160a01b03168152600190910190602001808311610386575b5050505050905090565b60025461010090046001600160a01b031633146104035760405162461bcd60e51b815260206004820152600e60248201526d139bdd08185d5d1a1bdc9a5e995960921b60448201526064015b60405180910390fd5b61040b610800565b6104148161082a565b600354610429906001600160a01b03166109b5565b61043260018055565b50565b6005818154811061044557600080fd5b6000918252602090912001546001600160a01b0316905081565b610467610a47565b61046f610800565b6104798282610a74565b610482826109b5565b61048b60018055565b5050565b610497610a47565b6001600160a01b03831660009081526006602052604090205460ff166104cf5760405162461bcd60e51b81526004016103fa90611141565b6000821161051f5760405162461bcd60e51b815260206004820152601d60248201527f546172676574206d7573742062652067726561746572207468616e203000000060448201526064016103fa565b6000811161056f5760405162461bcd60e51b815260206004820152601f60248201527f4475726174696f6e206d7573742062652067726561746572207468616e20300060448201526064016103fa565b600061057e8262015180611183565b610588904261119a565b60408051606081018252858152602080820184815260008385018181526001600160a01b038b168083526007855291869020945185559151600185015590516002909301805460ff1916931515939093179092558251878152908101849052929350917f95cfc8daa181e686d14ea373e0fa93457a03e05c990e4b069e4aa84a43632c8c910160405180910390a250505050565b610624610a47565b61062e6000610b67565b565b610638610a47565b6001600160a01b03821660009081526006602052604090205460ff166106705760405162461bcd60e51b81526004016103fa90611141565b60028054600380546001600160a01b0319166001600160a01b038681169182179092556001600160a81b0319909216861515610100600160a81b031981169190911761010092861692830217909355604080519384526020840192909252908201527f629a66e9009f2689e67705f82a8e844ebd3be4c0168030a4727bc4b90663e15d9060600160405180910390a1505050565b61070c610a47565b6001600160a01b03811661073657604051631e4fbdf760e01b8152600060048201526024016103fa565b61043281610b67565b610747610a47565b61074f610800565b6001600160a01b0382166000908152600760205260409020600281015460ff168061077d5750806001015442115b8061078757508054155b6107ec5760405162461bcd60e51b815260206004820152603060248201527f4368616c6c656e6765206e6f7420636f6d706c6574656420616e64206465616460448201526f1b1a5b99481b9bdd081c995858da195960821b60648201526084016103fa565b6107f68383610bb7565b5061048b60018055565b60026001540361082357604051633ee5aeb560e01b815260040160405180910390fd5b6002600155565b60025461010090046001600160a01b0316331461087a5760405162461bcd60e51b815260206004820152600e60248201526d139bdd08185d5d1a1bdc9a5e995960921b60448201526064016103fa565b610882610800565b60025460ff166108d45760405162461bcd60e51b815260206004820152601860248201527f4175746f2d73617665206973206e6f7420656e61626c6564000000000000000060448201526064016103fa565b600081116108f45760405162461bcd60e51b81526004016103fa906111ad565b61091d6109096000546001600160a01b031690565b6003546001600160a01b0316903084610db3565b6003546001600160a01b03166000908152600460205260408120805483929061094790849061119a565b90915550506003546001600160a01b031661096a6000546001600160a01b031690565b6001600160a01b03167f5548c837ab068cf56a2c2479df0882a4922fd203edb7517321831d95078c5f62836040516109a491815260200190565b60405180910390a361043260018055565b6001600160a01b0381166000908152600760205260409020600281015460ff161580156109fb575080546001600160a01b03831660009081526004602052604090205410155b1561048b5760028101805460ff191660011790556040516001600160a01b038316907f7dd697fad89cdc5a0e8c25ec0d7e47927473ff89d5b1f2dccf638f2d8dbea5a990600090a25050565b6000546001600160a01b0316331461062e5760405163118cdaa760e01b81523360048201526024016103fa565b610a7c610a47565b610a84610800565b6001600160a01b03821660009081526006602052604090205460ff16610abc5760405162461bcd60e51b81526004016103fa90611141565b60008111610adc5760405162461bcd60e51b81526004016103fa906111ad565b610af16001600160a01b038316333084610db3565b6001600160a01b03821660009081526004602052604081208054839290610b1990849061119a565b90915550506040518181526001600160a01b0383169033907f5548c837ab068cf56a2c2479df0882a4922fd203edb7517321831d95078c5f629060200160405180910390a361048b60018055565b600080546001600160a01b038381166001600160a01b0319831681178455604051919092169283917f8be0079c531659141344cd1fd0a4f28419497f9722a3daafe3b4186f6b6457e09190a35050565b610bbf610a47565b610bc7610800565b6001600160a01b03821660009081526006602052604090205460ff16610bff5760405162461bcd60e51b81526004016103fa90611141565b60008111610c1f5760405162461bcd60e51b81526004016103fa906111ad565b6040516370a0823160e01b81523060048201526000906001600160a01b038416906370a0823190602401602060405180830381865afa158015610c66573d6000803e3d6000fd5b505050506040513d601f19601f82011682018060405250810190610c8a91906111e4565b6001600160a01b038416600090815260046020526040902054909150811115610cc857506001600160a01b0382166000908152600460205260409020545b6001600160a01b038316600090815260046020526040902054821115610d275760405162461bcd60e51b8152602060048201526014602482015273496e73756666696369656e742062616c616e636560601b60448201526064016103fa565b6001600160a01b03831660009081526004602052604081208054849290610d4f9084906111fd565b90915550610d6990506001600160a01b0384163384610e20565b6040518281526001600160a01b0384169033907f9b1bfa7fa9ee420a16e124f794c35ac9f90472acc99140eb2f6447c714cad8eb9060200160405180910390a35061048b60018055565b6040516001600160a01b038481166024830152838116604483015260648201839052610e1a9186918216906323b872dd906084015b604051602081830303815290604052915060e01b6020820180516001600160e01b038381831617835250505050610e56565b50505050565b6040516001600160a01b03838116602483015260448201839052610e5191859182169063a9059cbb90606401610de8565b505050565b6000610e6b6001600160a01b03841683610eb9565b90508051600014158015610e90575080806020019051810190610e8e9190611210565b155b15610e5157604051635274afe760e01b81526001600160a01b03841660048201526024016103fa565b6060610ec783836000610ed0565b90505b92915050565b606081471015610ef55760405163cd78605960e01b81523060048201526024016103fa565b600080856001600160a01b03168486604051610f11919061122d565b60006040518083038185875af1925050503d8060008114610f4e576040519150601f19603f3d011682016040523d82523d6000602084013e610f53565b606091505b5091509150610f63868383610f6f565b925050505b9392505050565b606082610f8457610f7f82610fcb565b610f68565b8151158015610f9b57506001600160a01b0384163b155b15610fc457604051639996b31560e01b81526001600160a01b03851660048201526024016103fa565b5080610f68565b805115610fdb5780518082602001fd5b604051630a12f52160e11b815260040160405180910390fd5b80356001600160a01b038116811461100b57600080fd5b919050565b60006020828403121561102257600080fd5b610ec782610ff4565b6020808252825182820181905260009190848201906040850190845b8181101561106c5783516001600160a01b031683529284019291840191600101611047565b50909695505050505050565b60006020828403121561108a57600080fd5b5035919050565b600080604083850312156110a457600080fd5b6110ad83610ff4565b946020939093013593505050565b6000806000606084860312156110d057600080fd5b6110d984610ff4565b95602085013595506040909401359392505050565b801515811461043257600080fd5b60008060006060848603121561111157600080fd5b833561111c816110ee565b925061112a60208501610ff4565b915061113860408501610ff4565b90509250925092565b602080825260129082015271151bdad95b881b9bdd081858d8d95c1d195960721b604082015260600190565b634e487b7160e01b600052601160045260246000fd5b8082028115828204841417610eca57610eca61116d565b80820180821115610eca57610eca61116d565b6020808252601d908201527f416d6f756e74206d7573742062652067726561746572207468616e2030000000604082015260600190565b6000602082840312156111f657600080fd5b5051919050565b81810381811115610eca57610eca61116d565b60006020828403121561122257600080fd5b8151610f68816110ee565b6000825160005b8181101561124e5760208186018101518583015201611234565b50600092019182525091905056fea2646970667358221220a4ef4cf13d77e6867e3fb2d43ca40a531f8535c0069b173c73d1326d3fccbb5964736f6c63430008190033608060405234801561001057600080fd5b5060405161148438038061148483398101604081905261002f9161045e565b8282816001600160a01b03811661006157604051631e4fbdf760e01b8152600060048201526024015b60405180910390fd5b61006a816101f8565b506001805560005b81518110156100ab576100a382828151811061009057610090610532565b602002602001015161024860201b60201c565b600101610072565b505050805182511461010a5760405162461bcd60e51b815260206004820152602260248201527f546f6b656e7320616e642074617267657473206c656e677468206d69736d61746044820152610c6d60f31b6064820152608401610058565b60005b82518110156101ef5781818151811061012857610128610532565b60200260200101516007600085848151811061014657610146610532565b60200260200101516001600160a01b03166001600160a01b031681526020019081526020016000208190555082818151811061018457610184610532565b60200260200101516001600160a01b03167fa8b7afa9a4a9f8516362fefb2d061847f8f017d1406d0c2c8bc12273ae4f450a8383815181106101c8576101c8610532565b60200260200101516040516101df91815260200190565b60405180910390a260010161010d565b50505050610548565b600080546001600160a01b038381166001600160a01b0319831681178455604051919092169283917f8be0079c531659141344cd1fd0a4f28419497f9722a3daafe3b4186f6b6457e09190a35050565b6001600160a01b03811660009081526006602052604090205460ff16156102b15760405162461bcd60e51b815260206004820152601660248201527f546f6b656e20616c7265616479206163636570746564000000000000000000006044820152606401610058565b6005546020116103035760405162461bcd60e51b815260206004820152601b60248201527f4d6178696d756d20746f6b656e206c696d6974207265616368656400000000006044820152606401610058565b6005805460018181019092557f036b6384b5eca791c62761152d0c79bb0604c104a5fb6f4eb0703f3154bb3db00180546001600160a01b039093166001600160a01b031990931683179055600091825260066020526040909120805460ff19169091179055565b80516001600160a01b038116811461038157600080fd5b919050565b634e487b7160e01b600052604160045260246000fd5b604051601f8201601f191681016001600160401b03811182821017156103c4576103c4610386565b604052919050565b60006001600160401b038211156103e5576103e5610386565b5060051b60200190565b600082601f83011261040057600080fd5b81516020610415610410836103cc565b61039c565b8083825260208201915060208460051b87010193508684111561043757600080fd5b602086015b84811015610453578051835291830191830161043c565b509695505050505050565b60008060006060848603121561047357600080fd5b61047c8461036a565b602085810151919450906001600160401b038082111561049b57600080fd5b818701915087601f8301126104af57600080fd5b81516104bd610410826103cc565b81815260059190911b8301840190848101908a8311156104dc57600080fd5b938501935b82851015610501576104f28561036a565b825293850193908501906104e1565b60408a0151909750945050508083111561051a57600080fd5b5050610528868287016103ef565b9150509250925092565b634e487b7160e01b600052603260045260246000fd5b610f2d806105576000396000f3fe608060405234801561001057600080fd5b506004361061010b5760003560e01c8063715018a6116100a25780638da5cb5b116100715780638da5cb5b14610245578063a622752114610256578063f2fde38b14610269578063f3fef3a31461027c578063f8b2cb4f1461028f57600080fd5b8063715018a61461021657806374c13fda1461021e57806381684db51461023157806384bfd0df1461023e57600080fd5b806332469ffe116100de57806332469ffe146101ab57806336c87754146101c057806347e7ef24146101eb578063570ca735146101fe57600080fd5b80630560bd961461011057806318a029cf146101485780632a2d613c146101765780632f75700614610196575b600080fd5b61013361011e366004610cf5565b60066020526000908152604090205460ff1681565b60405190151581526020015b60405180910390f35b610168610156366004610cf5565b60046020526000908152604090205481565b60405190815260200161013f565b610168610184366004610cf5565b60076020526000908152604090205481565b61019e6102b8565b60405161013f9190610d10565b6101be6101b9366004610d5d565b61031a565b005b6101d36101ce366004610d5d565b6104ad565b6040516001600160a01b03909116815260200161013f565b6101be6101f9366004610d76565b6104d7565b6002546101d39061010090046001600160a01b031681565b6101be61055d565b6003546101d3906001600160a01b031681565b6002546101339060ff1681565b6001610133565b6000546001600160a01b03166101d3565b6101be610264366004610dae565b610571565b6101be610277366004610cf5565b610645565b6101be61028a366004610d76565b610680565b61016861029d366004610cf5565b6001600160a01b031660009081526004602052604090205490565b6060600580548060200260200160405190810160405280929190818152602001828054801561031057602002820191906000526020600020905b81546001600160a01b031681526001909101906020018083116102f2575b5050505050905090565b60025461010090046001600160a01b0316331461036f5760405162461bcd60e51b815260206004820152600e60248201526d139bdd08185d5d1a1bdc9a5e995960921b60448201526064015b60405180910390fd5b610377610702565b60025460ff166103c95760405162461bcd60e51b815260206004820152601860248201527f4175746f2d73617665206973206e6f7420656e61626c656400000000000000006044820152606401610366565b600081116103e95760405162461bcd60e51b815260040161036690610df3565b6104126103fe6000546001600160a01b031690565b6003546001600160a01b031690308461072c565b6003546001600160a01b03166000908152600460205260408120805483929061043c908490610e40565b90915550506003546001600160a01b031661045f6000546001600160a01b031690565b6001600160a01b03167f5548c837ab068cf56a2c2479df0882a4922fd203edb7517321831d95078c5f628360405161049991815260200190565b60405180910390a36104aa60018055565b50565b600581815481106104bd57600080fd5b6000918252602090912001546001600160a01b0316905081565b6104df610799565b6104e7610702565b6104f182826107c6565b6001600160a01b03821660009081526007602090815260408083205460049092529091205410610550576040516001600160a01b038316907f5f3dc439f5dac30845c9521c66d83b1358993f0affa96a556ec90c0478a65d8590600090a25b61055960018055565b5050565b610565610799565b61056f60006108b9565b565b610579610799565b6001600160a01b03821660009081526006602052604090205460ff166105b15760405162461bcd60e51b815260040161036690610e53565b60028054600380546001600160a01b0319166001600160a01b038681169182179092556001600160a81b0319909216861515610100600160a81b031981169190911761010092861692830217909355604080519384526020840192909252908201527f629a66e9009f2689e67705f82a8e844ebd3be4c0168030a4727bc4b90663e15d9060600160405180910390a1505050565b61064d610799565b6001600160a01b03811661067757604051631e4fbdf760e01b815260006004820152602401610366565b6104aa816108b9565b610688610799565b610690610702565b6001600160a01b03821660009081526007602090815260408083205460049092529091205410156106f85760405162461bcd60e51b815260206004820152601260248201527115185c99d95d081b9bdd081c995858da195960721b6044820152606401610366565b6105508282610909565b60026001540361072557604051633ee5aeb560e01b815260040160405180910390fd5b6002600155565b6040516001600160a01b0384811660248301528381166044830152606482018390526107939186918216906323b872dd906084015b604051602081830303815290604052915060e01b6020820180516001600160e01b038381831617835250505050610b05565b50505050565b6000546001600160a01b0316331461056f5760405163118cdaa760e01b8152336004820152602401610366565b6107ce610799565b6107d6610702565b6001600160a01b03821660009081526006602052604090205460ff1661080e5760405162461bcd60e51b815260040161036690610e53565b6000811161082e5760405162461bcd60e51b815260040161036690610df3565b6108436001600160a01b03831633308461072c565b6001600160a01b0382166000908152600460205260408120805483929061086b908490610e40565b90915550506040518181526001600160a01b0383169033907f5548c837ab068cf56a2c2479df0882a4922fd203edb7517321831d95078c5f629060200160405180910390a361055960018055565b600080546001600160a01b038381166001600160a01b0319831681178455604051919092169283917f8be0079c531659141344cd1fd0a4f28419497f9722a3daafe3b4186f6b6457e09190a35050565b610911610799565b610919610702565b6001600160a01b03821660009081526006602052604090205460ff166109515760405162461bcd60e51b815260040161036690610e53565b600081116109715760405162461bcd60e51b815260040161036690610df3565b6040516370a0823160e01b81523060048201526000906001600160a01b038416906370a0823190602401602060405180830381865afa1580156109b8573d6000803e3d6000fd5b505050506040513d601f19601f820116820180604052508101906109dc9190610e7f565b6001600160a01b038416600090815260046020526040902054909150811115610a1a57506001600160a01b0382166000908152600460205260409020545b6001600160a01b038316600090815260046020526040902054821115610a795760405162461bcd60e51b8152602060048201526014602482015273496e73756666696369656e742062616c616e636560601b6044820152606401610366565b6001600160a01b03831660009081526004602052604081208054849290610aa1908490610e98565b90915550610abb90506001600160a01b0384163384610b6d565b6040518281526001600160a01b0384169033907f9b1bfa7fa9ee420a16e124f794c35ac9f90472acc99140eb2f6447c714cad8eb9060200160405180910390a35061055960018055565b6000610b1a6001600160a01b03841683610b9e565b90508051600014158015610b3f575080806020019051810190610b3d9190610eab565b155b15610b6857604051635274afe760e01b81526001600160a01b0384166004820152602401610366565b505050565b6040516001600160a01b03838116602483015260448201839052610b6891859182169063a9059cbb90606401610761565b6060610bac83836000610bb5565b90505b92915050565b606081471015610bda5760405163cd78605960e01b8152306004820152602401610366565b600080856001600160a01b03168486604051610bf69190610ec8565b60006040518083038185875af1925050503d8060008114610c33576040519150601f19603f3d011682016040523d82523d6000602084013e610c38565b606091505b5091509150610c48868383610c54565b925050505b9392505050565b606082610c6957610c6482610cb0565b610c4d565b8151158015610c8057506001600160a01b0384163b155b15610ca957604051639996b31560e01b81526001600160a01b0385166004820152602401610366565b5080610c4d565b805115610cc05780518082602001fd5b604051630a12f52160e11b815260040160405180910390fd5b80356001600160a01b0381168114610cf057600080fd5b919050565b600060208284031215610d0757600080fd5b610bac82610cd9565b6020808252825182820181905260009190848201906040850190845b81811015610d515783516001600160a01b031683529284019291840191600101610d2c565b50909695505050505050565b600060208284031215610d6f57600080fd5b5035919050565b60008060408385031215610d8957600080fd5b610d9283610cd9565b946020939093013593505050565b80151581146104aa57600080fd5b600080600060608486031215610dc357600080fd5b8335610dce81610da0565b9250610ddc60208501610cd9565b9150610dea60408501610cd9565b90509250925092565b6020808252601d908201527f416d6f756e74206d7573742062652067726561746572207468616e2030000000604082015260600190565b634e487b7160e01b600052601160045260246000fd5b80820180821115610baf57610baf610e2a565b602080825260129082015271151bdad95b881b9bdd081858d8d95c1d195960721b604082015260600190565b600060208284031215610e9157600080fd5b5051919050565b81810381811115610baf57610baf610e2a565b600060208284031215610ebd57600080fd5b8151610c4d81610da0565b6000825160005b81811015610ee95760208186018101518583015201610ecf565b50600092019182525091905056fea26469706673582212207d23ab96b56a4d52cb1b85dadeb9d3d1a7073d01b2ab9af00c0f6b1d79999f8364736f6c63430008190033608060405234801561001057600080fd5b5060405161115138038061115183398101604081905261002f91610255565b816001600160a01b03811661005f57604051631e4fbdf760e01b8152600060048201526024015b60405180910390fd5b610068816100b1565b506001805560005b81518110156100a9576100a182828151811061008e5761008e61032e565b602002602001015161010160201b60201c565b600101610070565b505050610344565b600080546001600160a01b038381166001600160a01b0319831681178455604051919092169283917f8be0079c531659141344cd1fd0a4f28419497f9722a3daafe3b4186f6b6457e09190a35050565b6001600160a01b03811660009081526006602052604090205460ff161561016a5760405162461bcd60e51b815260206004820152601660248201527f546f6b656e20616c7265616479206163636570746564000000000000000000006044820152606401610056565b6005546020116101bc5760405162461bcd60e51b815260206004820152601b60248201527f4d6178696d756d20746f6b656e206c696d6974207265616368656400000000006044820152606401610056565b6005805460018181019092557f036b6384b5eca791c62761152d0c79bb0604c104a5fb6f4eb0703f3154bb3db00180546001600160a01b039093166001600160a01b031990931683179055600091825260066020526040909120805460ff19169091179055565b80516001600160a01b038116811461023a57600080fd5b919050565b634e487b7160e01b600052604160045260246000fd5b6000806040838503121561026857600080fd5b61027183610223565b602084810151919350906001600160401b038082111561029057600080fd5b818601915086601f8301126102a457600080fd5b8151818111156102b6576102b661023f565b8060051b604051601f19603f830116810181811085821117156102db576102db61023f565b6040529182528482019250838101850191898311156102f957600080fd5b938501935b8285101561031e5761030f85610223565b845293850193928501926102fe565b8096505050505050509250929050565b634e487b7160e01b600052603260045260246000fd5b610dfe806103536000396000f3fe608060405234801561001057600080fd5b50600436106101005760003560e01c806374c13fda11610097578063a622752111610066578063a62275211461022b578063f2fde38b1461023e578063f3fef3a314610251578063f8b2cb4f1461026457600080fd5b806374c13fda146101f357806381684db51461020657806384bfd0df146102135780638da5cb5b1461021a57600080fd5b806336c87754116100d357806336c877541461019557806347e7ef24146101c0578063570ca735146101d3578063715018a6146101eb57600080fd5b80630560bd961461010557806318a029cf1461013d5780632f7570061461016b57806332469ffe14610180575b600080fd5b610128610113366004610bc6565b60066020526000908152604090205460ff1681565b60405190151581526020015b60405180910390f35b61015d61014b366004610bc6565b60046020526000908152604090205481565b604051908152602001610134565b61017361028d565b6040516101349190610be1565b61019361018e366004610c2e565b6102ef565b005b6101a86101a3366004610c2e565b610482565b6040516001600160a01b039091168152602001610134565b6101936101ce366004610c47565b6104ac565b6002546101a89061010090046001600160a01b031681565b6101936105a3565b6003546101a8906001600160a01b031681565b6002546101289060ff1681565b6001610128565b6000546001600160a01b03166101a8565b610193610239366004610c7f565b6105b7565b61019361024c366004610bc6565b61068b565b61019361025f366004610c47565b6106c6565b61015d610272366004610bc6565b6001600160a01b031660009081526004602052604090205490565b606060058054806020026020016040519081016040528092919081815260200182805480156102e557602002820191906000526020600020905b81546001600160a01b031681526001909101906020018083116102c7575b5050505050905090565b60025461010090046001600160a01b031633146103445760405162461bcd60e51b815260206004820152600e60248201526d139bdd08185d5d1a1bdc9a5e995960921b60448201526064015b60405180910390fd5b61034c6108c2565b60025460ff1661039e5760405162461bcd60e51b815260206004820152601860248201527f4175746f2d73617665206973206e6f7420656e61626c65640000000000000000604482015260640161033b565b600081116103be5760405162461bcd60e51b815260040161033b90610cc4565b6103e76103d36000546001600160a01b031690565b6003546001600160a01b03169030846108ec565b6003546001600160a01b031660009081526004602052604081208054839290610411908490610d11565b90915550506003546001600160a01b03166104346000546001600160a01b031690565b6001600160a01b03167f5548c837ab068cf56a2c2479df0882a4922fd203edb7517321831d95078c5f628360405161046e91815260200190565b60405180910390a361047f60018055565b50565b6005818154811061049257600080fd5b6000918252602090912001546001600160a01b0316905081565b6104b4610959565b6104bc6108c2565b6001600160a01b03821660009081526006602052604090205460ff166104f45760405162461bcd60e51b815260040161033b90610d24565b600081116105145760405162461bcd60e51b815260040161033b90610cc4565b6105296001600160a01b0383163330846108ec565b6001600160a01b03821660009081526004602052604081208054839290610551908490610d11565b90915550506040518181526001600160a01b0383169033907f5548c837ab068cf56a2c2479df0882a4922fd203edb7517321831d95078c5f629060200160405180910390a361059f60018055565b5050565b6105ab610959565b6105b56000610986565b565b6105bf610959565b6001600160a01b03821660009081526006602052604090205460ff166105f75760405162461bcd60e51b815260040161033b90610d24565b60028054600380546001600160a01b0319166001600160a01b038681169182179092556001600160a81b0319909216861515610100600160a81b031981169190911761010092861692830217909355604080519384526020840192909252908201527f629a66e9009f2689e67705f82a8e844ebd3be4c0168030a4727bc4b90663e15d9060600160405180910390a1505050565b610693610959565b6001600160a01b0381166106bd57604051631e4fbdf760e01b81526000600482015260240161033b565b61047f81610986565b6106ce610959565b6106d66108c2565b6001600160a01b03821660009081526006602052604090205460ff1661070e5760405162461bcd60e51b815260040161033b90610d24565b6000811161072e5760405162461bcd60e51b815260040161033b90610cc4565b6040516370a0823160e01b81523060048201526000906001600160a01b038416906370a0823190602401602060405180830381865afa158015610775573d6000803e3d6000fd5b505050506040513d601f19601f820116820180604052508101906107999190610d50565b6001600160a01b0384166000908152600460205260409020549091508111156107d757506001600160a01b0382166000908152600460205260409020545b6001600160a01b0383166000908152600460205260409020548211156108365760405162461bcd60e51b8152602060048201526014602482015273496e73756666696369656e742062616c616e636560601b604482015260640161033b565b6001600160a01b0383166000908152600460205260408120805484929061085e908490610d69565b9091555061087890506001600160a01b03841633846109d6565b6040518281526001600160a01b0384169033907f9b1bfa7fa9ee420a16e124f794c35ac9f90472acc99140eb2f6447c714cad8eb9060200160405180910390a35061059f60018055565b6002600154036108e557604051633ee5aeb560e01b815260040160405180910390fd5b6002600155565b6040516001600160a01b0384811660248301528381166044830152606482018390526109539186918216906323b872dd906084015b604051602081830303815290604052915060e01b6020820180516001600160e01b038381831617835250505050610a0c565b50505050565b6000546001600160a01b031633146105b55760405163118cdaa760e01b815233600482015260240161033b565b600080546001600160a01b038381166001600160a01b0319831681178455604051919092169283917f8be0079c531659141344cd1fd0a4f28419497f9722a3daafe3b4186f6b6457e09190a35050565b6040516001600160a01b03838116602483015260448201839052610a0791859182169063a9059cbb90606401610921565b505050565b6000610a216001600160a01b03841683610a6f565b90508051600014158015610a46575080806020019051810190610a449190610d7c565b155b15610a0757604051635274afe760e01b81526001600160a01b038416600482015260240161033b565b6060610a7d83836000610a86565b90505b92915050565b606081471015610aab5760405163cd78605960e01b815230600482015260240161033b565b600080856001600160a01b03168486604051610ac79190610d99565b60006040518083038185875af1925050503d8060008114610b04576040519150601f19603f3d011682016040523d82523d6000602084013e610b09565b606091505b5091509150610b19868383610b25565b925050505b9392505050565b606082610b3a57610b3582610b81565b610b1e565b8151158015610b5157506001600160a01b0384163b155b15610b7a57604051639996b31560e01b81526001600160a01b038516600482015260240161033b565b5080610b1e565b805115610b915780518082602001fd5b604051630a12f52160e11b815260040160405180910390fd5b80356001600160a01b0381168114610bc157600080fd5b919050565b600060208284031215610bd857600080fd5b610a7d82610baa565b6020808252825182820181905260009190848201906040850190845b81811015610c225783516001600160a01b031683529284019291840191600101610bfd565b50909695505050505050565b600060208284031215610c4057600080fd5b5035919050565b60008060408385031215610c5a57600080fd5b610c6383610baa565b946020939093013593505050565b801515811461047f57600080fd5b600080600060608486031215610c9457600080fd5b8335610c9f81610c71565b9250610cad60208501610baa565b9150610cbb60408501610baa565b90509250925092565b6020808252601d908201527f416d6f756e74206d7573742062652067726561746572207468616e2030000000604082015260600190565b634e487b7160e01b600052601160045260246000fd5b80820180821115610a8057610a80610cfb565b602080825260129082015271151bdad95b881b9bdd081858d8d95c1d195960721b604082015260600190565b600060208284031215610d6257600080fd5b5051919050565b81810381811115610a8057610a80610cfb565b600060208284031215610d8e57600080fd5b8151610b1e81610c71565b6000825160005b81811015610dba5760208186018101518583015201610da0565b50600092019182525091905056fea26469706673582212200dbbe626ff365a0c975f2a2b0847ab7c32a34958de68aa76a97d5c0097fc5bc564736f6c63430008190033916a0fb4a04cc0ff6ad55718200c0742807696951d50bb55f5a2ea2af79a063da264697066735822122028483d1784d492334852f2d3c765b053a50eef2caddd2bcf85556d6a909783ac64736f6c63430008190033","linkReferences":{}},"methodIdentifiers":{"acceptableTokens(uint256)":"bb09bdd4","createBaseSavings(address[])":"ce34dcc4","createChallengeSavings(address[])":"59f06623","createTargetSavings(address[],uint256[])":"948610b4","createVaultSavings(address[],uint256)":"08328887","getAcceptableTokens()":"e6c83db5","isTokenAcceptable(address)":"60e0e2b4","owner()":"8da5cb5b","renounceOwnership()":"715018a6","transferOwnership(address)":"f2fde38b","updateAcceptableTokens(address[])":"21a30e72"},"id":109}