{"abi":[{"type":"constructor","inputs":[{"name":"_owner","type":"address","internalType":"address"},{"name":"_acceptedTokens","type":"address[]","internalType":"address[]"},{"name":"_protocolCrossChainManager","type":"address","internalType":"address"}],"stateMutability":"nonpayable"},{"type":"function","name":"acceptedTokens","inputs":[{"name":"","type":"uint256","internalType":"uint256"}],"outputs":[{"name":"","type":"address","internalType":"address"}],"stateMutability":"view"},{"type":"function","name":"autoSave","inputs":[{"name":"_amount","type":"uint256","internalType":"uint256"}],"outputs":[],"stateMutability":"nonpayable"},{"type":"function","name":"autoSaveEnabled","inputs":[],"outputs":[{"name":"","type":"bool","internalType":"bool"}],"stateMutability":"view"},{"type":"function","name":"defaultToken","inputs":[],"outputs":[{"name":"","type":"address","internalType":"address"}],"stateMutability":"view"},{"type":"function","name":"deposit","inputs":[{"name":"_token","type":"address","internalType":"address"},{"name":"_amount","type":"uint256","internalType":"uint256"}],"outputs":[],"stateMutability":"nonpayable"},{"type":"function","name":"getAcceptedTokens","inputs":[],"outputs":[{"name":"","type":"address[]","internalType":"address[]"}],"stateMutability":"view"},{"type":"function","name":"getBalance","inputs":[{"name":"_token","type":"address","internalType":"address"}],"outputs":[{"name":"","type":"uint256","internalType":"uint256"}],"stateMutability":"view"},{"type":"function","name":"initiateCrossChainTransfer","inputs":[{"name":"_dstChainId","type":"uint64","internalType":"uint64"},{"name":"_token","type":"address","internalType":"address"},{"name":"_amount","type":"uint256","internalType":"uint256"},{"name":"_to","type":"address","internalType":"address"},{"name":"_useZro","type":"bool","internalType":"bool"},{"name":"_adapterParams","type":"bytes","internalType":"bytes"}],"outputs":[],"stateMutability":"payable"},{"type":"function","name":"isTokenAccepted","inputs":[{"name":"","type":"address","internalType":"address"}],"outputs":[{"name":"","type":"bool","internalType":"bool"}],"stateMutability":"view"},{"type":"function","name":"operator","inputs":[],"outputs":[{"name":"","type":"address","internalType":"address"}],"stateMutability":"view"},{"type":"function","name":"owner","inputs":[],"outputs":[{"name":"","type":"address","internalType":"address"}],"stateMutability":"view"},{"type":"function","name":"protocolCrossChainManager","inputs":[],"outputs":[{"name":"","type":"address","internalType":"contract IProtocolCrossChainManager"}],"stateMutability":"view"},{"type":"function","name":"receiveCrossChainTransfer","inputs":[{"name":"_token","type":"address","internalType":"address"},{"name":"_amount","type":"uint256","internalType":"uint256"},{"name":"_from","type":"address","internalType":"address"},{"name":"_srcChainId","type":"uint16","internalType":"uint16"}],"outputs":[],"stateMutability":"nonpayable"},{"type":"function","name":"renounceOwnership","inputs":[],"outputs":[],"stateMutability":"nonpayable"},{"type":"function","name":"savingsCompatible","inputs":[],"outputs":[{"name":"","type":"bool","internalType":"bool"}],"stateMutability":"pure"},{"type":"function","name":"setProtocolCrossChainManager","inputs":[{"name":"_protocolCrossChainManager","type":"address","internalType":"address"}],"outputs":[],"stateMutability":"nonpayable"},{"type":"function","name":"toggleAutoSave","inputs":[{"name":"_enabled","type":"bool","internalType":"bool"},{"name":"_defaultToken","type":"address","internalType":"address"},{"name":"_operator","type":"address","internalType":"address"}],"outputs":[],"stateMutability":"nonpayable"},{"type":"function","name":"tokenSavings","inputs":[{"name":"","type":"address","internalType":"address"}],"outputs":[{"name":"","type":"uint256","internalType":"uint256"}],"stateMutability":"view"},{"type":"function","name":"transferOwnership","inputs":[{"name":"newOwner","type":"address","internalType":"address"}],"outputs":[],"stateMutability":"nonpayable"},{"type":"function","name":"withdraw","inputs":[{"name":"_token","type":"address","internalType":"address"},{"name":"_amount","type":"uint256","internalType":"uint256"}],"outputs":[],"stateMutability":"nonpayable"},{"type":"event","name":"AutoSaveToggled","inputs":[{"name":"enabled","type":"bool","indexed":false,"internalType":"bool"},{"name":"defaultToken","type":"address","indexed":false,"internalType":"address"},{"name":"operator","type":"address","indexed":false,"internalType":"address"}],"anonymous":false},{"type":"event","name":"CrossChainTransferInitiated","inputs":[{"name":"dstChainId","type":"uint64","indexed":true,"internalType":"uint64"},{"name":"token","type":"address","indexed":true,"internalType":"address"},{"name":"amount","type":"uint256","indexed":false,"internalType":"uint256"}],"anonymous":false},{"type":"event","name":"CrossChainTransferReceived","inputs":[{"name":"srcChainId","type":"uint64","indexed":true,"internalType":"uint64"},{"name":"token","type":"address","indexed":true,"internalType":"address"},{"name":"amount","type":"uint256","indexed":false,"internalType":"uint256"},{"name":"from","type":"address","indexed":true,"internalType":"address"}],"anonymous":false},{"type":"event","name":"Deposit","inputs":[{"name":"user","type":"address","indexed":true,"internalType":"address"},{"name":"token","type":"address","indexed":true,"internalType":"address"},{"name":"amount","type":"uint256","indexed":false,"internalType":"uint256"}],"anonymous":false},{"type":"event","name":"OwnershipTransferred","inputs":[{"name":"previousOwner","type":"address","indexed":true,"internalType":"address"},{"name":"newOwner","type":"address","indexed":true,"internalType":"address"}],"anonymous":false},{"type":"event","name":"Withdraw","inputs":[{"name":"user","type":"address","indexed":true,"internalType":"address"},{"name":"token","type":"address","indexed":true,"internalType":"address"},{"name":"amount","type":"uint256","indexed":false,"internalType":"uint256"}],"anonymous":false},{"type":"error","name":"AddressEmptyCode","inputs":[{"name":"target","type":"address","internalType":"address"}]},{"type":"error","name":"AddressInsufficientBalance","inputs":[{"name":"account","type":"address","internalType":"address"}]},{"type":"error","name":"FailedInnerCall","inputs":[]},{"type":"error","name":"OwnableInvalidOwner","inputs":[{"name":"owner","type":"address","internalType":"address"}]},{"type":"error","name":"OwnableUnauthorizedAccount","inputs":[{"name":"account","type":"address","internalType":"address"}]},{"type":"error","name":"ReentrancyGuardReentrantCall","inputs":[]},{"type":"error","name":"SafeERC20FailedOperation","inputs":[{"name":"token","type":"address","internalType":"address"}]}],"bytecode":{"object":"0x608060405234801561001057600080fd5b50604051611a34380380611a3483398101604081905261002f9161027b565b8282816001600160a01b03811661006157604051631e4fbdf760e01b8152600060048201526024015b60405180910390fd5b61006a816100d7565b506001805560005b81518110156100ab576100a382828151811061009057610090610364565b602002602001015161012760201b60201c565b600101610072565b5050600780546001600160a01b0319166001600160a01b0393909316929092179091555061037a915050565b600080546001600160a01b038381166001600160a01b0319831681178455604051919092169283917f8be0079c531659141344cd1fd0a4f28419497f9722a3daafe3b4186f6b6457e09190a35050565b6001600160a01b03811660009081526006602052604090205460ff16156101905760405162461bcd60e51b815260206004820152601660248201527f546f6b656e20616c7265616479206163636570746564000000000000000000006044820152606401610058565b6005546020116101e25760405162461bcd60e51b815260206004820152601b60248201527f4d6178696d756d20746f6b656e206c696d6974207265616368656400000000006044820152606401610058565b6005805460018181019092557f036b6384b5eca791c62761152d0c79bb0604c104a5fb6f4eb0703f3154bb3db00180546001600160a01b039093166001600160a01b031990931683179055600091825260066020526040909120805460ff19169091179055565b80516001600160a01b038116811461026057600080fd5b919050565b634e487b7160e01b600052604160045260246000fd5b60008060006060848603121561029057600080fd5b61029984610249565b602085810151919450906001600160401b03808211156102b857600080fd5b818701915087601f8301126102cc57600080fd5b8151818111156102de576102de610265565b8060051b604051601f19603f8301168101818110858211171561030357610303610265565b60405291825284820192508381018501918a83111561032157600080fd5b938501935b828510156103465761033785610249565b84529385019392850192610326565b80975050505050505061035b60408501610249565b90509250925092565b634e487b7160e01b600052603260045260246000fd5b6116ab806103896000396000f3fe60806040526004361061011f5760003560e01c806381684db5116100a0578063c0d0503411610064578063c0d0503414610339578063f2fde38b14610359578063f3fef3a314610379578063f8b2cb4f14610399578063fae165e0146103cf57600080fd5b806381684db5146102ad57806384bfd0df146102c75780638da5cb5b146102db578063a6227521146102f9578063b94e27dc1461031957600080fd5b806336c87754116100e757806336c87754146101fb57806347e7ef2414610233578063570ca73514610253578063715018a61461027857806374c13fda1461028d57600080fd5b80630560bd96146101245780630689b7d11461016957806318a029cf1461017e5780632f757006146101b957806332469ffe146101db575b600080fd5b34801561013057600080fd5b5061015461013f3660046111d1565b60066020526000908152604090205460ff1681565b60405190151581526020015b60405180910390f35b61017c610177366004611210565b6103ef565b005b34801561018a57600080fd5b506101ab6101993660046111d1565b60046020526000908152604090205481565b604051908152602001610160565b3480156101c557600080fd5b506101ce6106f6565b604051610160919061131a565b3480156101e757600080fd5b5061017c6101f6366004611367565b610758565b34801561020757600080fd5b5061021b610216366004611367565b6108e6565b6040516001600160a01b039091168152602001610160565b34801561023f57600080fd5b5061017c61024e366004611380565b610910565b34801561025f57600080fd5b5060025461021b9061010090046001600160a01b031681565b34801561028457600080fd5b5061017c610a07565b34801561029957600080fd5b5060035461021b906001600160a01b031681565b3480156102b957600080fd5b506002546101549060ff1681565b3480156102d357600080fd5b506001610154565b3480156102e757600080fd5b506000546001600160a01b031661021b565b34801561030557600080fd5b5061017c6103143660046113aa565b610a1b565b34801561032557600080fd5b5061017c6103343660046113ef565b610aef565b34801561034557600080fd5b5060075461021b906001600160a01b031681565b34801561036557600080fd5b5061017c6103743660046111d1565b610c6c565b34801561038557600080fd5b5061017c610394366004611380565b610ca7565b3480156103a557600080fd5b506101ab6103b43660046111d1565b6001600160a01b031660009081526004602052604090205490565b3480156103db57600080fd5b5061017c6103ea3660046111d1565b610ea3565b6103f7610ecd565b6001600160a01b03851660009081526006602052604090205460ff166104385760405162461bcd60e51b815260040161042f90611445565b60405180910390fd5b600084116104585760405162461bcd60e51b815260040161042f90611471565b6001600160a01b0385166000908152600460205260409020548411156104b75760405162461bcd60e51b8152602060048201526014602482015273496e73756666696369656e742062616c616e636560601b604482015260640161042f565b600754604051632129f15760e21b81526000916001600160a01b0316906384a7c55c906104f4908a908a908a9030908b908b908b906004016114f8565b6040805180830381865afa158015610510573d6000803e3d6000fd5b505050506040513d601f19601f820116820180604052508101906105349190611558565b509050803410156105875760405162461bcd60e51b815260206004820152601a60248201527f496e73756666696369656e74204c617965725a65726f20666565000000000000604482015260640161042f565b6001600160a01b038616600090815260046020526040812080548792906105af908490611592565b909155505060075460405163095ea7b360e01b81526001600160a01b039182166004820152602481018790529087169063095ea7b3906044016020604051808303816000875af1158015610607573d6000803e3d6000fd5b505050506040513d601f19601f8201168201806040525081019061062b91906115a5565b5060075460405163365b9aeb60e11b81526001600160a01b0390911690636cb735d690349061066d908b908b908b9030908c9033906000908d906004016115c2565b6000604051808303818588803b15801561068657600080fd5b505af115801561069a573d6000803e3d6000fd5b5050505050856001600160a01b03168767ffffffffffffffff167f9b07e1f27506b5eeaf4d35aff032bc47d96dbc2fa7a35621b52d1d202bef8bb2876040516106e591815260200190565b60405180910390a350505050505050565b6060600580548060200260200160405190810160405280929190818152602001828054801561074e57602002820191906000526020600020905b81546001600160a01b03168152600190910190602001808311610730575b5050505050905090565b60025461010090046001600160a01b031633146107a85760405162461bcd60e51b815260206004820152600e60248201526d139bdd08185d5d1a1bdc9a5e995960921b604482015260640161042f565b6107b0610efa565b60025460ff166108025760405162461bcd60e51b815260206004820152601860248201527f4175746f2d73617665206973206e6f7420656e61626c65640000000000000000604482015260640161042f565b600081116108225760405162461bcd60e51b815260040161042f90611471565b61084b6108376000546001600160a01b031690565b6003546001600160a01b0316903084610f24565b6003546001600160a01b03166000908152600460205260408120805483929061087590849061162d565b90915550506003546001600160a01b03166108986000546001600160a01b031690565b6001600160a01b03167f5548c837ab068cf56a2c2479df0882a4922fd203edb7517321831d95078c5f62836040516108d291815260200190565b60405180910390a36108e360018055565b50565b600581815481106108f657600080fd5b6000918252602090912001546001600160a01b0316905081565b610918610ecd565b610920610efa565b6001600160a01b03821660009081526006602052604090205460ff166109585760405162461bcd60e51b815260040161042f90611445565b600081116109785760405162461bcd60e51b815260040161042f90611471565b61098d6001600160a01b038316333084610f24565b6001600160a01b038216600090815260046020526040812080548392906109b590849061162d565b90915550506040518181526001600160a01b0383169033907f5548c837ab068cf56a2c2479df0882a4922fd203edb7517321831d95078c5f629060200160405180910390a3610a0360018055565b5050565b610a0f610ecd565b610a196000610f91565b565b610a23610ecd565b6001600160a01b03821660009081526006602052604090205460ff16610a5b5760405162461bcd60e51b815260040161042f90611445565b60028054600380546001600160a01b0319166001600160a01b038681169182179092556001600160a81b0319909216861515610100600160a81b031981169190911761010092861692830217909355604080519384526020840192909252908201527f629a66e9009f2689e67705f82a8e844ebd3be4c0168030a4727bc4b90663e15d9060600160405180910390a1505050565b6007546001600160a01b03163314610b385760405162461bcd60e51b815260206004820152600c60248201526b155b985d5d1a1bdc9a5e995960a21b604482015260640161042f565b6001600160a01b03841660009081526006602052604090205460ff16610b705760405162461bcd60e51b815260040161042f90611445565b60008311610b905760405162461bcd60e51b815260040161042f90611471565b610ba56001600160a01b038516333086610f24565b6001600160a01b03841660009081526004602052604081208054859290610bcd90849061162d565b92505081905550816001600160a01b0316846001600160a01b03168261ffff167f362af0c49b581bed192ece5099d586defdfe3ff2698290069a5097523f43d13886604051610c1e91815260200190565b60405180910390a46040518381526001600160a01b0385169033907f5548c837ab068cf56a2c2479df0882a4922fd203edb7517321831d95078c5f629060200160405180910390a350505050565b610c74610ecd565b6001600160a01b038116610c9e57604051631e4fbdf760e01b81526000600482015260240161042f565b6108e381610f91565b610caf610ecd565b610cb7610efa565b6001600160a01b03821660009081526006602052604090205460ff16610cef5760405162461bcd60e51b815260040161042f90611445565b60008111610d0f5760405162461bcd60e51b815260040161042f90611471565b6040516370a0823160e01b81523060048201526000906001600160a01b038416906370a0823190602401602060405180830381865afa158015610d56573d6000803e3d6000fd5b505050506040513d601f19601f82011682018060405250810190610d7a9190611640565b6001600160a01b038416600090815260046020526040902054909150811115610db857506001600160a01b0382166000908152600460205260409020545b6001600160a01b038316600090815260046020526040902054821115610e175760405162461bcd60e51b8152602060048201526014602482015273496e73756666696369656e742062616c616e636560601b604482015260640161042f565b6001600160a01b03831660009081526004602052604081208054849290610e3f908490611592565b90915550610e5990506001600160a01b0384163384610fe1565b6040518281526001600160a01b0384169033907f9b1bfa7fa9ee420a16e124f794c35ac9f90472acc99140eb2f6447c714cad8eb9060200160405180910390a350610a0360018055565b610eab610ecd565b600780546001600160a01b0319166001600160a01b0392909216919091179055565b6000546001600160a01b03163314610a195760405163118cdaa760e01b815233600482015260240161042f565b600260015403610f1d57604051633ee5aeb560e01b815260040160405180910390fd5b6002600155565b6040516001600160a01b038481166024830152838116604483015260648201839052610f8b9186918216906323b872dd906084015b604051602081830303815290604052915060e01b6020820180516001600160e01b038381831617835250505050611017565b50505050565b600080546001600160a01b038381166001600160a01b0319831681178455604051919092169283917f8be0079c531659141344cd1fd0a4f28419497f9722a3daafe3b4186f6b6457e09190a35050565b6040516001600160a01b0383811660248301526044820183905261101291859182169063a9059cbb90606401610f59565b505050565b600061102c6001600160a01b0384168361107a565b9050805160001415801561105157508080602001905181019061104f91906115a5565b155b1561101257604051635274afe760e01b81526001600160a01b038416600482015260240161042f565b606061108883836000611091565b90505b92915050565b6060814710156110b65760405163cd78605960e01b815230600482015260240161042f565b600080856001600160a01b031684866040516110d29190611659565b60006040518083038185875af1925050503d806000811461110f576040519150601f19603f3d011682016040523d82523d6000602084013e611114565b606091505b5091509150611124868383611130565b925050505b9392505050565b606082611145576111408261118c565b611129565b815115801561115c57506001600160a01b0384163b155b1561118557604051639996b31560e01b81526001600160a01b038516600482015260240161042f565b5080611129565b80511561119c5780518082602001fd5b604051630a12f52160e11b815260040160405180910390fd5b80356001600160a01b03811681146111cc57600080fd5b919050565b6000602082840312156111e357600080fd5b611088826111b5565b80151581146108e357600080fd5b634e487b7160e01b600052604160045260246000fd5b60008060008060008060c0878903121561122957600080fd5b863567ffffffffffffffff808216821461124257600080fd5b81975061125160208a016111b5565b96506040890135955061126660608a016111b5565b945060808901359150611278826111ec565b90925060a0880135908082111561128e57600080fd5b818901915089601f8301126112a257600080fd5b8135818111156112b4576112b46111fa565b604051601f8201601f19908116603f011681019083821181831017156112dc576112dc6111fa565b816040528281528c60208487010111156112f557600080fd5b8260208601602083013760006020848301015280955050505050509295509295509295565b6020808252825182820181905260009190848201906040850190845b8181101561135b5783516001600160a01b031683529284019291840191600101611336565b50909695505050505050565b60006020828403121561137957600080fd5b5035919050565b6000806040838503121561139357600080fd5b61139c836111b5565b946020939093013593505050565b6000806000606084860312156113bf57600080fd5b83356113ca816111ec565b92506113d8602085016111b5565b91506113e6604085016111b5565b90509250925092565b6000806000806080858703121561140557600080fd5b61140e856111b5565b935060208501359250611423604086016111b5565b9150606085013561ffff8116811461143a57600080fd5b939692955090935050565b602080825260129082015271151bdad95b881b9bdd081858d8d95c1d195960721b604082015260600190565b6020808252601d908201527f416d6f756e74206d7573742062652067726561746572207468616e2030000000604082015260600190565b60005b838110156114c35781810151838201526020016114ab565b50506000910152565b600081518084526114e48160208601602086016114a8565b601f01601f19169290920160200192915050565b67ffffffffffffffff881681526001600160a01b0387811660208301526040820187905285811660608301528416608082015282151560a082015260e060c0820181905260009061154b908301846114cc565b9998505050505050505050565b6000806040838503121561156b57600080fd5b505080516020909101519092909150565b634e487b7160e01b600052601160045260246000fd5b8181038181111561108b5761108b61157c565b6000602082840312156115b757600080fd5b8151611129816111ec565b67ffffffffffffffff891681526001600160a01b038881166020830152604082018890528681166060830152858116608083015284811660a0830152831660c082015261010060e0820181905260009061161e838201856114cc565b9b9a5050505050505050505050565b8082018082111561108b5761108b61157c565b60006020828403121561165257600080fd5b5051919050565b6000825161166b8184602087016114a8565b919091019291505056fea2646970667358221220e0ae7ce25793dced56bb386968648fd71b743ca9dde354249d7f897cab37ba3364736f6c63430008190033","linkReferences":{}},"methodIdentifiers":{"acceptedTokens(uint256)":"36c87754","autoSave(uint256)":"32469ffe","autoSaveEnabled()":"81684db5","defaultToken()":"74c13fda","deposit(address,uint256)":"47e7ef24","getAcceptedTokens()":"2f757006","getBalance(address)":"f8b2cb4f","initiateCrossChainTransfer(uint64,address,uint256,address,bool,bytes)":"0689b7d1","isTokenAccepted(address)":"0560bd96","operator()":"570ca735","owner()":"8da5cb5b","protocolCrossChainManager()":"c0d05034","receiveCrossChainTransfer(address,uint256,address,uint16)":"b94e27dc","renounceOwnership()":"715018a6","savingsCompatible()":"84bfd0df","setProtocolCrossChainManager(address)":"fae165e0","toggleAutoSave(bool,address,address)":"a6227521","tokenSavings(address)":"18a029cf","transferOwnership(address)":"f2fde38b","withdraw(address,uint256)":"f3fef3a3"},"id":103}