{"abi":[{"type":"constructor","inputs":[{"name":"_token","type":"address","internalType":"address"},{"name":"_admin","type":"address","internalType":"address"},{"name":"_taxCollector","type":"address","internalType":"address"},{"name":"_periodDuration","type":"uint256","internalType":"uint256"},{"name":"_protocolTaxRate","type":"uint256","internalType":"uint256"},{"name":"_vrfCoordinator","type":"address","internalType":"address"},{"name":"_subscriptionId","type":"uint64","internalType":"uint64"},{"name":"_keyHash","type":"bytes32","internalType":"bytes32"}],"stateMutability":"nonpayable"},{"type":"function","name":"MIN_PERIOD_DURATION","inputs":[],"outputs":[{"name":"","type":"uint256","internalType":"uint256"}],"stateMutability":"view"},{"type":"function","name":"addMember","inputs":[{"name":"_member","type":"address","internalType":"address"}],"outputs":[],"stateMutability":"nonpayable"},{"type":"function","name":"contribute","inputs":[],"outputs":[],"stateMutability":"nonpayable"},{"type":"function","name":"contributionAmount","inputs":[],"outputs":[{"name":"","type":"uint256","internalType":"uint256"}],"stateMutability":"view"},{"type":"function","name":"currentPeriod","inputs":[],"outputs":[{"name":"","type":"uint256","internalType":"uint256"}],"stateMutability":"view"},{"type":"function","name":"cycleLength","inputs":[],"outputs":[{"name":"","type":"uint256","internalType":"uint256"}],"stateMutability":"view"},{"type":"function","name":"getCurrentPeriod","inputs":[],"outputs":[{"name":"","type":"uint256","internalType":"uint256"}],"stateMutability":"view"},{"type":"function","name":"getEligibleWithdrawer","inputs":[],"outputs":[{"name":"","type":"address","internalType":"address"}],"stateMutability":"view"},{"type":"function","name":"getMemberCount","inputs":[],"outputs":[{"name":"","type":"uint256","internalType":"uint256"}],"stateMutability":"view"},{"type":"function","name":"memberList","inputs":[{"name":"","type":"uint256","internalType":"uint256"}],"outputs":[{"name":"","type":"address","internalType":"address"}],"stateMutability":"view"},{"type":"function","name":"members","inputs":[{"name":"","type":"address","internalType":"address"}],"outputs":[{"name":"isActive","type":"bool","internalType":"bool"},{"name":"isFrozen","type":"bool","internalType":"bool"},{"name":"lastContributionPeriod","type":"uint256","internalType":"uint256"},{"name":"lastWithdrawn","type":"uint256","internalType":"uint256"}],"stateMutability":"view"},{"type":"function","name":"owner","inputs":[],"outputs":[{"name":"","type":"address","internalType":"address"}],"stateMutability":"view"},{"type":"function","name":"periodDuration","inputs":[],"outputs":[{"name":"","type":"uint256","internalType":"uint256"}],"stateMutability":"view"},{"type":"function","name":"protocolTaxRate","inputs":[],"outputs":[{"name":"","type":"uint256","internalType":"uint256"}],"stateMutability":"view"},{"type":"function","name":"randomResult","inputs":[],"outputs":[{"name":"","type":"uint256","internalType":"uint256"}],"stateMutability":"view"},{"type":"function","name":"rawFulfillRandomWords","inputs":[{"name":"requestId","type":"uint256","internalType":"uint256"},{"name":"randomWords","type":"uint256[]","internalType":"uint256[]"}],"outputs":[],"stateMutability":"nonpayable"},{"type":"function","name":"removeMember","inputs":[{"name":"_member","type":"address","internalType":"address"}],"outputs":[],"stateMutability":"nonpayable"},{"type":"function","name":"renounceOwnership","inputs":[],"outputs":[],"stateMutability":"nonpayable"},{"type":"function","name":"selected","inputs":[{"name":"","type":"address","internalType":"address"}],"outputs":[{"name":"","type":"bool","internalType":"bool"}],"stateMutability":"view"},{"type":"function","name":"selectedWithdrawer","inputs":[],"outputs":[{"name":"","type":"address","internalType":"address"}],"stateMutability":"view"},{"type":"function","name":"setPeriodDuration","inputs":[{"name":"_newDuration","type":"uint256","internalType":"uint256"}],"outputs":[],"stateMutability":"nonpayable"},{"type":"function","name":"setToken","inputs":[{"name":"_newToken","type":"address","internalType":"address"}],"outputs":[],"stateMutability":"nonpayable"},{"type":"function","name":"startCycle","inputs":[{"name":"_contributionAmount","type":"uint256","internalType":"uint256"}],"outputs":[],"stateMutability":"nonpayable"},{"type":"function","name":"startTime","inputs":[],"outputs":[{"name":"","type":"uint256","internalType":"uint256"}],"stateMutability":"view"},{"type":"function","name":"taxCollector","inputs":[],"outputs":[{"name":"","type":"address","internalType":"address"}],"stateMutability":"view"},{"type":"function","name":"token","inputs":[],"outputs":[{"name":"","type":"address","internalType":"contract IERC20"}],"stateMutability":"view"},{"type":"function","name":"totalContributed","inputs":[],"outputs":[{"name":"","type":"uint256","internalType":"uint256"}],"stateMutability":"view"},{"type":"function","name":"transferOwnership","inputs":[{"name":"newOwner","type":"address","internalType":"address"}],"outputs":[],"stateMutability":"nonpayable"},{"type":"function","name":"triggerAutoSave","inputs":[{"name":"_member","type":"address","internalType":"address"}],"outputs":[],"stateMutability":"nonpayable"},{"type":"function","name":"updateCallbackGasLimit","inputs":[{"name":"_callbackGasLimit","type":"uint32","internalType":"uint32"}],"outputs":[],"stateMutability":"nonpayable"},{"type":"function","name":"updateVRFSubscription","inputs":[{"name":"_subscriptionId","type":"uint64","internalType":"uint64"}],"outputs":[],"stateMutability":"nonpayable"},{"type":"function","name":"withdraw","inputs":[],"outputs":[],"stateMutability":"nonpayable"},{"type":"function","name":"withdrawerSelected","inputs":[],"outputs":[{"name":"","type":"bool","internalType":"bool"}],"stateMutability":"view"},{"type":"event","name":"ContributionMade","inputs":[{"name":"member","type":"address","indexed":false,"internalType":"address"},{"name":"amount","type":"uint256","indexed":false,"internalType":"uint256"},{"name":"period","type":"uint256","indexed":false,"internalType":"uint256"}],"anonymous":false},{"type":"event","name":"CycleStarted","inputs":[{"name":"startTime","type":"uint256","indexed":false,"internalType":"uint256"},{"name":"cycleLength","type":"uint256","indexed":false,"internalType":"uint256"},{"name":"contributionAmount","type":"uint256","indexed":false,"internalType":"uint256"}],"anonymous":false},{"type":"event","name":"MemberAdded","inputs":[{"name":"member","type":"address","indexed":false,"internalType":"address"}],"anonymous":false},{"type":"event","name":"MemberFrozen","inputs":[{"name":"member","type":"address","indexed":false,"internalType":"address"}],"anonymous":false},{"type":"event","name":"MemberRemoved","inputs":[{"name":"member","type":"address","indexed":false,"internalType":"address"}],"anonymous":false},{"type":"event","name":"MemberUnfrozen","inputs":[{"name":"member","type":"address","indexed":false,"internalType":"address"}],"anonymous":false},{"type":"event","name":"OwnershipTransferred","inputs":[{"name":"previousOwner","type":"address","indexed":true,"internalType":"address"},{"name":"newOwner","type":"address","indexed":true,"internalType":"address"}],"anonymous":false},{"type":"event","name":"PayoutMade","inputs":[{"name":"member","type":"address","indexed":false,"internalType":"address"},{"name":"amount","type":"uint256","indexed":false,"internalType":"uint256"},{"name":"period","type":"uint256","indexed":false,"internalType":"uint256"}],"anonymous":false},{"type":"event","name":"PeriodDurationUpdated","inputs":[{"name":"newDuration","type":"uint256","indexed":false,"internalType":"uint256"}],"anonymous":false},{"type":"event","name":"PeriodEnded","inputs":[{"name":"period","type":"uint256","indexed":false,"internalType":"uint256"}],"anonymous":false},{"type":"event","name":"ProtocolTaxRateUpdated","inputs":[{"name":"newRate","type":"uint256","indexed":false,"internalType":"uint256"}],"anonymous":false},{"type":"event","name":"TokenUpdated","inputs":[{"name":"newToken","type":"address","indexed":false,"internalType":"address"}],"anonymous":false},{"type":"event","name":"WithdrawerSelected","inputs":[{"name":"withdrawer","type":"address","indexed":false,"internalType":"address"}],"anonymous":false},{"type":"error","name":"AddressEmptyCode","inputs":[{"name":"target","type":"address","internalType":"address"}]},{"type":"error","name":"AddressInsufficientBalance","inputs":[{"name":"account","type":"address","internalType":"address"}]},{"type":"error","name":"FailedInnerCall","inputs":[]},{"type":"error","name":"OnlyCoordinatorCanFulfill","inputs":[{"name":"have","type":"address","internalType":"address"},{"name":"want","type":"address","internalType":"address"}]},{"type":"error","name":"OwnableInvalidOwner","inputs":[{"name":"owner","type":"address","internalType":"address"}]},{"type":"error","name":"OwnableUnauthorizedAccount","inputs":[{"name":"account","type":"address","internalType":"address"}]},{"type":"error","name":"ReentrancyGuardReentrantCall","inputs":[]},{"type":"error","name":"SafeERC20FailedOperation","inputs":[{"name":"token","type":"address","internalType":"address"}]}],"bytecode":{"object":"0x60a0604052601080546001600160501b03191666010003000186a017905534801561002957600080fd5b5060405161207738038061207783398101604081905261004891610211565b600160005582876001600160a01b03811661007e57604051631e4fbdf760e01b8152600060048201526024015b60405180910390fd5b610087816101a3565b506001600160a01b0316608052620151808510156100e75760405162461bcd60e51b815260206004820152601960248201527f506572696f64206475726174696f6e20746f6f2073686f7274000000000000006044820152606401610075565b6103e884111561012d5760405162461bcd60e51b81526020600482015260116024820152700a8c2f040e4c2e8ca40e8dede40d0d2ced607b1b6044820152606401610075565b600280546001600160a01b03998a166001600160a01b031991821617909155600395909555600c93909355600d80549588169590941694909417909255600e80546001600160401b03909416600160a01b026001600160e01b031990941692909516919091179190911790925550600f556102a4565b600180546001600160a01b038381166001600160a01b0319831681179093556040519116919082907f8be0079c531659141344cd1fd0a4f28419497f9722a3daafe3b4186f6b6457e090600090a35050565b80516001600160a01b038116811461020c57600080fd5b919050565b600080600080600080600080610100898b03121561022e57600080fd5b610237896101f5565b975061024560208a016101f5565b965061025360408a016101f5565b9550606089015194506080890151935061026f60a08a016101f5565b60c08a01519093506001600160401b038116811461028c57600080fd5b8092505060e089015190509295985092959890939650565b608051611db16102c6600039600081816107e9015261082b0152611db16000f3fe608060405234801561001057600080fd5b50600436106101fb5760003560e01c80637c2d6e011161011a578063bb806659116100ad578063d7bb99ba1161007c578063d7bb99ba14610424578063e50b9ecd1461042c578063eac471a01461043f578063f2fde38b14610448578063fc0c546a1461045b57600080fd5b8063bb806659146103d2578063bea1dcf8146103db578063c88290cd146103ee578063ca6d56dc1461041157600080fd5b8063ab58b17e116100e9578063ab58b17e14610390578063b0e8d086146103a3578063b307fc6d146103b6578063b470aade146103c957600080fd5b80637c2d6e01146103405780638da5cb5b14610353578063997072f714610364578063a92017071461036c57600080fd5b80631fe543e3116101925780635fa0b65f116101615780635fa0b65f14610313578063715018a61461031c57806375a43aa31461032457806378e979251461033757600080fd5b80631fe543e3146102cf5780633ccfd60b146102e257806342619f66146102ea57806349afeaa5146102f357600080fd5b806308ae4b0c116101ce57806308ae4b0c146102375780630b1ca49a14610294578063144fa6d7146102a95780631e9d7065146102bc57600080fd5b80630235e7e714610200578063023f41471461021d5780630604061814610226578063086146d21461022f575b600080fd5b61020a6201518081565b6040519081526020015b60405180910390f35b61020a600b5481565b61020a60065481565b61020a61046e565b610272610245366004611a9f565b60096020526000908152604090208054600182015460029092015460ff8083169361010090930416919084565b6040805194151585529215156020850152918301526060820152608001610214565b6102a76102a2366004611a9f565b6104c0565b005b6102a76102b7366004611a9f565b610704565b6102a76102ca366004611ac8565b6107a8565b6102a76102dd366004611b08565b6107de565b6102a7610866565b61020a60115481565b6102fb610c36565b6040516001600160a01b039091168152602001610214565b61020a60045481565b6102a7610c67565b6102a7610332366004611a9f565b610c79565b61020a60055481565b6102a761034e366004611bd2565b610c9f565b6001546001600160a01b03166102fb565b60085461020a565b60125461038090600160a01b900460ff1681565b6040519015158152602001610214565b6012546102fb906001600160a01b031681565b6102a76103b1366004611beb565b610d92565b6102fb6103c4366004611bd2565b610db6565b61020a60035481565b61020a600c5481565b600d546102fb906001600160a01b031681565b6103806103fc366004611a9f565b600a6020526000908152604090205460ff1681565b6102a761041f366004611a9f565b610de0565b6102a7610f93565b6102a761043a366004611bd2565b610fae565b61020a60075481565b6102a7610456366004611a9f565b611109565b6002546102fb906001600160a01b031681565b60006005546000036104805750600090565b6000600354600554426104939190611c27565b61049d9190611c50565b905060075481106104af5760006104ba565b6104ba816001611c64565b91505090565b6104c8611144565b6001600160a01b03811660009081526009602052604090205460ff1661052d5760405162461bcd60e51b815260206004820152601560248201527413595b58995c88191bd95cc81b9bdd08195e1a5cdd605a1b60448201526064015b60405180910390fd5b600554158061053c5750600654155b6105995760405162461bcd60e51b815260206004820152602860248201527f43616e6e6f742072656d6f7665206d656d62657220647572696e6720616374696044820152677665206379636c6560c01b6064820152608401610524565b60005b60085481101561069757816001600160a01b0316600882815481106105c3576105c3611c77565b6000918252602090912001546001600160a01b03160361068f57600880546105ed90600190611c27565b815481106105fd576105fd611c77565b600091825260209091200154600880546001600160a01b03909216918390811061062957610629611c77565b9060005260206000200160006101000a8154816001600160a01b0302191690836001600160a01b03160217905550600880548061066857610668611c8d565b600082815260209020810160001990810180546001600160a01b0319169055019055610697565b60010161059c565b506001600160a01b0381166000818152600960209081526040808320805461ffff19168155600181018490556002019290925560085460075590519182527f6e76fb4c77256006d9c38ec7d82b45a8c8f3c27b1d6766fffc42dfb8de68449291015b60405180910390a150565b61070c611144565b6001600160a01b03811661075a5760405162461bcd60e51b8152602060048201526015602482015274496e76616c696420746f6b656e206164647265737360581b6044820152606401610524565b600280546001600160a01b0319166001600160a01b0383169081179091556040519081527f5ba6b30cd4b2f9e9e67f4feb9b9df10d5da3b057598e6901b217b7d590345e30906020016106f9565b6107b0611144565b600e805467ffffffffffffffff909216600160a01b0267ffffffffffffffff60a01b19909216919091179055565b336001600160a01b037f000000000000000000000000000000000000000000000000000000000000000016146108585760405163073e64fd60e21b81523360048201526001600160a01b037f0000000000000000000000000000000000000000000000000000000000000000166024820152604401610524565b6108628282611171565b5050565b61086e61119a565b6000600554116108b45760405162461bcd60e51b815260206004820152601160248201527010de58db19481b9bdd081cdd185c9d1959607a1b6044820152606401610524565b60075460065411156108fa5760405162461bcd60e51b815260206004820152600f60248201526e10de58db194818dbdb5c1b195d1959608a1b6044820152606401610524565b60075460045461090a9190611ca3565b600b541461095a5760405162461bcd60e51b815260206004820152601e60248201527f4e6f7420616c6c20636f6e747269627574696f6e7320726563656976656400006044820152606401610524565b601254600160a01b900460ff166109b35760405162461bcd60e51b815260206004820152601b60248201527f57697468647261776572206e6f742073656c65637465642079657400000000006044820152606401610524565b6012546001600160a01b03163314610a095760405162461bcd60e51b81526020600482015260196024820152784e6f7420796f7572207475726e20746f20776974686472617760381b6044820152606401610524565b33600090815260096020526040902054610100900460ff1615610a3e5760405162461bcd60e51b815260040161052490611cba565b6005543360009081526009602052604090206002015410610aa15760405162461bcd60e51b815260206004820152601c60248201527f416c72656164792077697468647261776e2074686973206379636c65000000006044820152606401610524565b6012546001600160a01b0316338114610af85760405162461bcd60e51b81526020600482015260196024820152784e6f7420796f7572207475726e20746f20776974686472617760381b6044820152606401610524565b6001600160a01b038116600090815260096020526040902054610100900460ff1615610b365760405162461bcd60e51b815260040161052490611cba565b6000600754600454610b489190611ca3565b90506000612710600c5483610b5d9190611ca3565b610b679190611c50565b90506000610b758284611c27565b33600090815260096020526040902042600291820155601280546001600160a81b031916905554909150610bb3906001600160a01b031685836111c4565b600d54600254610bd0916001600160a01b039182169116846111c4565b600654604080516001600160a01b03871681526020810184905280820192909252517f072c40752b50e77bf22285251805c7f7884a12a4c07f29697909bea49b30571e9181900360600190a1610c266000611228565b50505050610c346001600055565b565b600060065460001480610c4c5750600754600654115b15610c575750600090565b506012546001600160a01b031690565b610c6f611144565b610c34600061136f565b610c81611144565b610c8961119a565b610c92816113c1565b610c9c6001600055565b50565b610ca7611144565b62015180811015610cfa5760405162461bcd60e51b815260206004820152601960248201527f506572696f64206475726174696f6e20746f6f2073686f7274000000000000006044820152606401610524565b60055415610d5d5760405162461bcd60e51b815260206004820152602a60248201527f43616e6e6f74206368616e6765206475726174696f6e20647572696e6720616360448201526974697665206379636c6560b01b6064820152608401610524565b60038190556040518181527fbd6eb9cf4d6e2902587c57e3163aaafdb46e3b3f2086bdfa75c790228930a9d7906020016106f9565b610d9a611144565b6010805463ffffffff191663ffffffff92909216919091179055565b60088181548110610dc657600080fd5b6000918252602090912001546001600160a01b0316905081565b610de8611144565b6001600160a01b03811660009081526009602052604090205460ff1615610e495760405162461bcd60e51b81526020600482015260156024820152744d656d62657220616c72656164792065786973747360581b6044820152606401610524565b6005541580610e585750600654155b610eb25760405162461bcd60e51b815260206004820152602560248201527f43616e6e6f7420616464206d656d62657220647572696e6720616374697665206044820152646379636c6560d81b6064820152608401610524565b60088054600180820183557ff3f7a9fe364faab93b216da50a3214154f22a0a2b415b23a84c8169e8b636ee390910180546001600160a01b0319166001600160a01b038516908117909155604080516080810182528381526000602080830182815283850183815260608501848152878552600984529386902094518554925161ffff1990931690151561ff0019161761010092151592909202919091178455519583019590955551600290910155925460075591519182527fb251eb052afc73ffd02ffe85ad79990a8b3fed60d76dbc2fa2fdd7123dffd91491016106f9565b610f9b61119a565b610fa4336113c1565b610c346001600055565b610fb6611144565b60055415610ffe5760405162461bcd60e51b815260206004820152601560248201527410de58db1948185b1c9958591e481cdd185c9d1959605a1b6044820152606401610524565b6008546001106110505760405162461bcd60e51b815260206004820152601960248201527f4e656564206174206c656173742074776f206d656d62657273000000000000006044820152606401610524565b600081116110b35760405162461bcd60e51b815260206004820152602a60248201527f436f6e747269627574696f6e20616d6f756e74206d75737420626520677265616044820152690746572207468616e20360b41b6064820152608401610524565b42600581905560016006556008546007819055600483905560408051928352602083019190915281018290527f0e41c903d4f464af8fdd82a2a195fb81a5b17cfe3a20585d2f10d0eeb1f1d33c906060016106f9565b611111611144565b6001600160a01b03811661113b57604051631e4fbdf760e01b815260006004820152602401610524565b610c9c8161136f565b6001546001600160a01b03163314610c345760405163118cdaa760e01b8152336004820152602401610524565b8060008151811061118457611184611c77565b60200260200101516011819055506108626116e2565b6002600054036111bd57604051633ee5aeb560e01b815260040160405180910390fd5b6002600055565b6040516001600160a01b0383811660248301526044820183905261122391859182169063a9059cbb906064015b604051602081830303815290604052915060e01b6020820180516001600160e01b038381831617835250505050611807565b505050565b7f95357e1b81128b2e56387f7f29ae51b03ce299a9784c0714c6401291f27e517460065460405161125b91815260200190565b60405180910390a16000600b819055600680549161127883611ce4565b9190505550600754600654111561129157600060055550565b60005b600854811015611360576000600882815481106112b3576112b3611c77565b6000918252602090912001546006546001600160a01b0390911691506112db90600190611c27565b6001600160a01b0382166000908152600960205260409020600101541015611357576001600160a01b038116600081815260096020908152604091829020805461ff00191661010017905590519182527f2b53dfd20eeb9ad336276df9c2fa376b6f9ad57640a33b56181333660b0de6c4910160405180910390a15b50600101611294565b508015610c9c57610c9c61186a565b600180546001600160a01b038381166001600160a01b0319831681179093556040519116919082907f8be0079c531659141344cd1fd0a4f28419497f9722a3daafe3b4186f6b6457e090600090a35050565b6000600554116114075760405162461bcd60e51b815260206004820152601160248201527010de58db19481b9bdd081cdd185c9d1959607a1b6044820152606401610524565b6001600160a01b03811660009081526009602052604090205460ff1661145e5760405162461bcd60e51b815260206004820152600c60248201526b2737ba10309036b2b6b132b960a11b6044820152606401610524565b6001600160a01b038116600090815260096020526040902054610100900460ff161561149c5760405162461bcd60e51b815260040161052490611cba565b60075460065411156114e25760405162461bcd60e51b815260206004820152600f60248201526e10de58db194818dbdb5c1b195d1959608a1b6044820152606401610524565b6006546001600160a01b0382166000908152600960205260409020600101541061154e5760405162461bcd60e51b815260206004820152601f60248201527f416c726561647920636f6e7472696275746564207468697320706572696f64006044820152606401610524565b60045460025461156d916001600160a01b039091169083903090611925565b6001600160a01b038116600090815260096020526040902060019081015461159491611c64565b6001600160a01b038216600090815260096020526040812060010191909155600454600b8054919290916115c9908490611c64565b90915550506001600160a01b038116600090815260096020526040902054610100900460ff16801561161757506006546001600160a01b038216600090815260096020526040902060010154145b15611672576001600160a01b038116600081815260096020908152604091829020805461ff001916905590519182527f9592f55c896a756ec61c21bf4c9b9b947f7f76a40ae7502c917f00c884435b82910160405180910390a15b600454600654604080516001600160a01b038516815260208101939093528201527f5dc1fe5ab986a852c4eda8e8bb94247d13307065c593fb83f1a09be2736793829060600160405180910390a16007546004546116d09190611ca3565b600b5403610c9c57610c9c6001611228565b6008546011546000916116f491611cfd565b905060005b6008548110156117fe576008546000906117138385611c64565b61171d9190611cfd565b905060006008828154811061173457611734611c77565b60009182526020808320909101546001600160a01b0316808352600990915260409091205490915060ff6101009091041615801561178e57506005546001600160a01b038216600090815260096020526040902060020154105b156117f457601280546001600160a81b0319166001600160a01b0383811691909117600160a01b1791829055604051911681527fa58c1125f34593f5a1f6dcca751cb0e3240afcf17101eb4d8ebf404da9b2ba209060200160405180910390a150505050565b50506001016116f9565b50610c9c61186a565b600061181c6001600160a01b03841683611964565b9050805160001415801561184157508080602001905181019061183f9190611d11565b155b1561122357604051635274afe760e01b81526001600160a01b0384166004820152602401610524565b600e54600f546010546040516305d3b1d360e41b81526004810192909252600160a01b830467ffffffffffffffff166024830152640100000000810461ffff16604483015263ffffffff808216606484015266010000000000009091041660848201526001600160a01b0390911690635d3b1d309060a4016020604051808303816000875af1158015611901573d6000803e3d6000fd5b505050506040513d601f19601f82011682018060405250810190610c9c9190611d33565b6040516001600160a01b03848116602483015283811660448301526064820183905261195e9186918216906323b872dd906084016111f1565b50505050565b60606119728383600061197b565b90505b92915050565b6060814710156119a05760405163cd78605960e01b8152306004820152602401610524565b600080856001600160a01b031684866040516119bc9190611d4c565b60006040518083038185875af1925050503d80600081146119f9576040519150601f19603f3d011682016040523d82523d6000602084013e6119fe565b606091505b5091509150611a0e868383611a1a565b925050505b9392505050565b606082611a2f57611a2a82611a76565b611a13565b8151158015611a4657506001600160a01b0384163b155b15611a6f57604051639996b31560e01b81526001600160a01b0385166004820152602401610524565b5080611a13565b805115611a865780518082602001fd5b604051630a12f52160e11b815260040160405180910390fd5b600060208284031215611ab157600080fd5b81356001600160a01b0381168114611a1357600080fd5b600060208284031215611ada57600080fd5b813567ffffffffffffffff81168114611a1357600080fd5b634e487b7160e01b600052604160045260246000fd5b60008060408385031215611b1b57600080fd5b8235915060208084013567ffffffffffffffff80821115611b3b57600080fd5b818601915086601f830112611b4f57600080fd5b813581811115611b6157611b61611af2565b8060051b604051601f19603f83011681018181108582111715611b8657611b86611af2565b604052918252848201925083810185019189831115611ba457600080fd5b938501935b82851015611bc257843584529385019392850192611ba9565b8096505050505050509250929050565b600060208284031215611be457600080fd5b5035919050565b600060208284031215611bfd57600080fd5b813563ffffffff81168114611a1357600080fd5b634e487b7160e01b600052601160045260246000fd5b8181038181111561197557611975611c11565b634e487b7160e01b600052601260045260246000fd5b600082611c5f57611c5f611c3a565b500490565b8082018082111561197557611975611c11565b634e487b7160e01b600052603260045260246000fd5b634e487b7160e01b600052603160045260246000fd5b808202811582820484141761197557611975611c11565b60208082526010908201526f26b2b6b132b91034b990333937bd32b760811b604082015260600190565b600060018201611cf657611cf6611c11565b5060010190565b600082611d0c57611d0c611c3a565b500690565b600060208284031215611d2357600080fd5b81518015158114611a1357600080fd5b600060208284031215611d4557600080fd5b5051919050565b6000825160005b81811015611d6d5760208186018101518583015201611d53565b50600092019182525091905056fea2646970667358221220daf6448535935615ca59dbaec8ef87f7bf87ac2d156d5dff692f69e24d47f15e64736f6c63430008190033","linkReferences":{}},"methodIdentifiers":{"MIN_PERIOD_DURATION()":"0235e7e7","addMember(address)":"ca6d56dc","contribute()":"d7bb99ba","contributionAmount()":"5fa0b65f","currentPeriod()":"06040618","cycleLength()":"eac471a0","getCurrentPeriod()":"086146d2","getEligibleWithdrawer()":"49afeaa5","getMemberCount()":"997072f7","memberList(uint256)":"b307fc6d","members(address)":"08ae4b0c","owner()":"8da5cb5b","periodDuration()":"b470aade","protocolTaxRate()":"bb806659","randomResult()":"42619f66","rawFulfillRandomWords(uint256,uint256[])":"1fe543e3","removeMember(address)":"0b1ca49a","renounceOwnership()":"715018a6","selected(address)":"c88290cd","selectedWithdrawer()":"ab58b17e","setPeriodDuration(uint256)":"7c2d6e01","setToken(address)":"144fa6d7","startCycle(uint256)":"e50b9ecd","startTime()":"78e97925","taxCollector()":"bea1dcf8","token()":"fc0c546a","totalContributed()":"023f4147","transferOwnership(address)":"f2fde38b","triggerAutoSave(address)":"75a43aa3","updateCallbackGasLimit(uint32)":"b0e8d086","updateVRFSubscription(uint64)":"1e9d7065","withdraw()":"3ccfd60b","withdrawerSelected()":"a9201707"},"id":102}