{"abi":[{"type":"constructor","inputs":[{"name":"_admin","type":"address","internalType":"address"},{"name":"_lendingToken","type":"address","internalType":"address"},{"name":"_contributionAmount","type":"uint256","internalType":"uint256"},{"name":"_contributionPeriod","type":"uint256","internalType":"uint256"},{"name":"_votingPeriod","type":"uint256","internalType":"uint256"},{"name":"_interestRate","type":"uint256","internalType":"uint256"}],"stateMutability":"nonpayable"},{"type":"function","name":"ADMIN_ROLE","inputs":[],"outputs":[{"name":"","type":"bytes32","internalType":"bytes32"}],"stateMutability":"view"},{"type":"function","name":"DEFAULT_ADMIN_ROLE","inputs":[],"outputs":[{"name":"","type":"bytes32","internalType":"bytes32"}],"stateMutability":"view"},{"type":"function","name":"MEMBER_ROLE","inputs":[],"outputs":[{"name":"","type":"bytes32","internalType":"bytes32"}],"stateMutability":"view"},{"type":"function","name":"approveMembership","inputs":[{"name":"_requester","type":"address","internalType":"address"}],"outputs":[],"stateMutability":"nonpayable"},{"type":"function","name":"contribute","inputs":[],"outputs":[],"stateMutability":"nonpayable"},{"type":"function","name":"contributionAmount","inputs":[],"outputs":[{"name":"","type":"uint256","internalType":"uint256"}],"stateMutability":"view"},{"type":"function","name":"contributionPeriod","inputs":[],"outputs":[{"name":"","type":"uint256","internalType":"uint256"}],"stateMutability":"view"},{"type":"function","name":"executeLoan","inputs":[{"name":"_loanId","type":"uint256","internalType":"uint256"}],"outputs":[],"stateMutability":"nonpayable"},{"type":"function","name":"getRoleAdmin","inputs":[{"name":"role","type":"bytes32","internalType":"bytes32"}],"outputs":[{"name":"","type":"bytes32","internalType":"bytes32"}],"stateMutability":"view"},{"type":"function","name":"grantRole","inputs":[{"name":"role","type":"bytes32","internalType":"bytes32"},{"name":"account","type":"address","internalType":"address"}],"outputs":[],"stateMutability":"nonpayable"},{"type":"function","name":"hasRole","inputs":[{"name":"role","type":"bytes32","internalType":"bytes32"},{"name":"account","type":"address","internalType":"address"}],"outputs":[{"name":"","type":"bool","internalType":"bool"}],"stateMutability":"view"},{"type":"function","name":"interestRate","inputs":[],"outputs":[{"name":"","type":"uint256","internalType":"uint256"}],"stateMutability":"view"},{"type":"function","name":"isContributionUpToDate","inputs":[{"name":"_member","type":"address","internalType":"address"}],"outputs":[{"name":"","type":"bool","internalType":"bool"}],"stateMutability":"view"},{"type":"function","name":"lastContributionTime","inputs":[{"name":"","type":"address","internalType":"address"}],"outputs":[{"name":"","type":"uint256","internalType":"uint256"}],"stateMutability":"view"},{"type":"function","name":"lendingToken","inputs":[],"outputs":[{"name":"","type":"address","internalType":"contract IERC20"}],"stateMutability":"view"},{"type":"function","name":"loanRequestCount","inputs":[],"outputs":[{"name":"","type":"uint256","internalType":"uint256"}],"stateMutability":"view"},{"type":"function","name":"loanRequests","inputs":[{"name":"","type":"uint256","internalType":"uint256"}],"outputs":[{"name":"borrower","type":"address","internalType":"address"},{"name":"amount","type":"uint256","internalType":"uint256"},{"name":"duration","type":"uint256","internalType":"uint256"},{"name":"votesFor","type":"uint256","internalType":"uint256"},{"name":"votesAgainst","type":"uint256","internalType":"uint256"},{"name":"votingDeadline","type":"uint256","internalType":"uint256"},{"name":"executed","type":"bool","internalType":"bool"},{"name":"amountRepaid","type":"uint256","internalType":"uint256"}],"stateMutability":"view"},{"type":"function","name":"memberBalance","inputs":[{"name":"","type":"address","internalType":"address"}],"outputs":[{"name":"","type":"uint256","internalType":"uint256"}],"stateMutability":"view"},{"type":"function","name":"memberCount","inputs":[],"outputs":[{"name":"","type":"uint256","internalType":"uint256"}],"stateMutability":"view"},{"type":"function","name":"membershipRequests","inputs":[{"name":"","type":"address","internalType":"address"}],"outputs":[{"name":"","type":"bool","internalType":"bool"}],"stateMutability":"view"},{"type":"function","name":"rejectMembership","inputs":[{"name":"_requester","type":"address","internalType":"address"}],"outputs":[],"stateMutability":"nonpayable"},{"type":"function","name":"renounceRole","inputs":[{"name":"role","type":"bytes32","internalType":"bytes32"},{"name":"callerConfirmation","type":"address","internalType":"address"}],"outputs":[],"stateMutability":"nonpayable"},{"type":"function","name":"repayLoan","inputs":[{"name":"_loanId","type":"uint256","internalType":"uint256"},{"name":"_amount","type":"uint256","internalType":"uint256"}],"outputs":[],"stateMutability":"nonpayable"},{"type":"function","name":"requestLoan","inputs":[{"name":"_amount","type":"uint256","internalType":"uint256"},{"name":"_duration","type":"uint256","internalType":"uint256"}],"outputs":[],"stateMutability":"nonpayable"},{"type":"function","name":"requestMembership","inputs":[],"outputs":[],"stateMutability":"nonpayable"},{"type":"function","name":"revokeRole","inputs":[{"name":"role","type":"bytes32","internalType":"bytes32"},{"name":"account","type":"address","internalType":"address"}],"outputs":[],"stateMutability":"nonpayable"},{"type":"function","name":"setContributionAmount","inputs":[{"name":"_newAmount","type":"uint256","internalType":"uint256"}],"outputs":[],"stateMutability":"nonpayable"},{"type":"function","name":"setContributionPeriod","inputs":[{"name":"_newPeriod","type":"uint256","internalType":"uint256"}],"outputs":[],"stateMutability":"nonpayable"},{"type":"function","name":"setInterestRate","inputs":[{"name":"_newRate","type":"uint256","internalType":"uint256"}],"outputs":[],"stateMutability":"nonpayable"},{"type":"function","name":"setVotingPeriod","inputs":[{"name":"_newPeriod","type":"uint256","internalType":"uint256"}],"outputs":[],"stateMutability":"nonpayable"},{"type":"function","name":"supportsInterface","inputs":[{"name":"interfaceId","type":"bytes4","internalType":"bytes4"}],"outputs":[{"name":"","type":"bool","internalType":"bool"}],"stateMutability":"view"},{"type":"function","name":"totalInterestEarned","inputs":[],"outputs":[{"name":"","type":"uint256","internalType":"uint256"}],"stateMutability":"view"},{"type":"function","name":"vote","inputs":[{"name":"_loanId","type":"uint256","internalType":"uint256"},{"name":"_inFavor","type":"bool","internalType":"bool"}],"outputs":[],"stateMutability":"nonpayable"},{"type":"function","name":"votingPeriod","inputs":[],"outputs":[{"name":"","type":"uint256","internalType":"uint256"}],"stateMutability":"view"},{"type":"function","name":"withdrawBalance","inputs":[{"name":"_amount","type":"uint256","internalType":"uint256"}],"outputs":[],"stateMutability":"nonpayable"},{"type":"function","name":"withdrawInterest","inputs":[],"outputs":[],"stateMutability":"nonpayable"},{"type":"event","name":"ContributionMade","inputs":[{"name":"member","type":"address","indexed":true,"internalType":"address"},{"name":"amount","type":"uint256","indexed":false,"internalType":"uint256"}],"anonymous":false},{"type":"event","name":"FullWithdrawal","inputs":[{"name":"member","type":"address","indexed":true,"internalType":"address"},{"name":"amount","type":"uint256","indexed":false,"internalType":"uint256"}],"anonymous":false},{"type":"event","name":"InterestWithdrawn","inputs":[{"name":"member","type":"address","indexed":true,"internalType":"address"},{"name":"amount","type":"uint256","indexed":false,"internalType":"uint256"}],"anonymous":false},{"type":"event","name":"LoanExecuted","inputs":[{"name":"loanId","type":"uint256","indexed":true,"internalType":"uint256"},{"name":"borrower","type":"address","indexed":true,"internalType":"address"},{"name":"amount","type":"uint256","indexed":false,"internalType":"uint256"}],"anonymous":false},{"type":"event","name":"LoanRepaid","inputs":[{"name":"loanId","type":"uint256","indexed":true,"internalType":"uint256"},{"name":"borrower","type":"address","indexed":true,"internalType":"address"},{"name":"amount","type":"uint256","indexed":false,"internalType":"uint256"}],"anonymous":false},{"type":"event","name":"LoanRequested","inputs":[{"name":"loanId","type":"uint256","indexed":true,"internalType":"uint256"},{"name":"borrower","type":"address","indexed":true,"internalType":"address"},{"name":"amount","type":"uint256","indexed":false,"internalType":"uint256"},{"name":"duration","type":"uint256","indexed":false,"internalType":"uint256"}],"anonymous":false},{"type":"event","name":"MembershipApproved","inputs":[{"name":"member","type":"address","indexed":true,"internalType":"address"}],"anonymous":false},{"type":"event","name":"MembershipRejected","inputs":[{"name":"requester","type":"address","indexed":true,"internalType":"address"}],"anonymous":false},{"type":"event","name":"MembershipRequested","inputs":[{"name":"requester","type":"address","indexed":true,"internalType":"address"}],"anonymous":false},{"type":"event","name":"MembershipRevoked","inputs":[{"name":"member","type":"address","indexed":true,"internalType":"address"}],"anonymous":false},{"type":"event","name":"PartialWithdrawal","inputs":[{"name":"member","type":"address","indexed":true,"internalType":"address"},{"name":"amount","type":"uint256","indexed":false,"internalType":"uint256"}],"anonymous":false},{"type":"event","name":"RoleAdminChanged","inputs":[{"name":"role","type":"bytes32","indexed":true,"internalType":"bytes32"},{"name":"previousAdminRole","type":"bytes32","indexed":true,"internalType":"bytes32"},{"name":"newAdminRole","type":"bytes32","indexed":true,"internalType":"bytes32"}],"anonymous":false},{"type":"event","name":"RoleGranted","inputs":[{"name":"role","type":"bytes32","indexed":true,"internalType":"bytes32"},{"name":"account","type":"address","indexed":true,"internalType":"address"},{"name":"sender","type":"address","indexed":true,"internalType":"address"}],"anonymous":false},{"type":"event","name":"RoleRevoked","inputs":[{"name":"role","type":"bytes32","indexed":true,"internalType":"bytes32"},{"name":"account","type":"address","indexed":true,"internalType":"address"},{"name":"sender","type":"address","indexed":true,"internalType":"address"}],"anonymous":false},{"type":"event","name":"VoteCast","inputs":[{"name":"loanId","type":"uint256","indexed":true,"internalType":"uint256"},{"name":"voter","type":"address","indexed":true,"internalType":"address"},{"name":"inFavor","type":"bool","indexed":false,"internalType":"bool"}],"anonymous":false},{"type":"error","name":"AccessControlBadConfirmation","inputs":[]},{"type":"error","name":"AccessControlUnauthorizedAccount","inputs":[{"name":"account","type":"address","internalType":"address"},{"name":"neededRole","type":"bytes32","internalType":"bytes32"}]},{"type":"error","name":"AddressEmptyCode","inputs":[{"name":"target","type":"address","internalType":"address"}]},{"type":"error","name":"AddressInsufficientBalance","inputs":[{"name":"account","type":"address","internalType":"address"}]},{"type":"error","name":"FailedInnerCall","inputs":[]},{"type":"error","name":"ReentrancyGuardReentrantCall","inputs":[]},{"type":"error","name":"SafeERC20FailedOperation","inputs":[{"name":"token","type":"address","internalType":"address"}]}],"bytecode":{"object":"0x60a060405234801561001057600080fd5b50604051611daf380380611daf83398101604081905261002f91610155565b6001805561003e60008761008d565b506100697fa49807205ce4d355092ef5a8a18f56e8913cf4a201fbe287825b095693c217758761008d565b506001600160a01b03909416608052600292909255600355600455600555506101ad565b6000828152602081815260408083206001600160a01b038516845290915281205460ff1661012f576000838152602081815260408083206001600160a01b03861684529091529020805460ff191660011790556100e73390565b6001600160a01b0316826001600160a01b0316847f2f8788117e7eff1d82e926ec794901d17c78024a50270940304540a733656f0d60405160405180910390a4506001610133565b5060005b92915050565b80516001600160a01b038116811461015057600080fd5b919050565b60008060008060008060c0878903121561016e57600080fd5b61017787610139565b955061018560208801610139565b945060408701519350606087015192506080870151915060a087015190509295509295509295565b608051611bc46101eb600039600081816103f001528181610646015281816108de01528181610cc701528181611215015261148e0152611bc46000f3fe608060405234801561001057600080fd5b506004361061021b5760003560e01c806391d1485411610125578063b7d93f34116100ad578063d547741f1161007c578063d547741f1461052a578063d7bb99ba1461053d578063d896bf4d14610545578063da76d5cd14610558578063ea0217cf1461056b57600080fd5b8063b7d93f3414610446578063c9d27afe1461044f578063d1b332f414610462578063d39a99751461050a57600080fd5b8063a8bdd1bf116100f4578063a8bdd1bf146103c5578063aa452fa6146103d8578063aaaca558146103eb578063afff059c1461042a578063b786f9781461043d57600080fd5b806391d1485414610375578063a03039c214610388578063a10f469e146103a8578063a217fddf146103bd57600080fd5b806336568abe116101a857806375b238fc1161017757806375b238fc1461032957806379a68cf11461033e5780637b10b293146103515780637c3a00fd146103595780638a700b531461036257600080fd5b806336568abe146102e75780635f84f302146102fa5780635fa0b65f1461030d57806370e92c2f1461031657600080fd5b806311aee380116101ef57806311aee3801461027c5780631753fac114610285578063248a9ca31461028e578063268257fa146102b15780632f2ff15d146102d457600080fd5b806263750c1461022057806301ffc9a71461022a57806302a251a3146102525780630838475e14610269575b600080fd5b61022861057e565b005b61023d610238366004611957565b6106c4565b60405190151581526020015b60405180910390f35b61025b60045481565b604051908152602001610249565b610228610277366004611981565b6106fb565b61025b60075481565b61025b60035481565b61025b61029c366004611981565b60009081526020819052604090206001015490565b61023d6102bf3660046119b6565b60086020526000908152604090205460ff1681565b6102286102e23660046119d1565b610719565b6102286102f53660046119d1565b610744565b610228610308366004611981565b61077c565b61025b60025481565b610228610324366004611981565b61079a565b61025b600080516020611b4f83398151915281565b61022861034c3660046119b6565b610964565b610228610a5f565b61025b60055481565b6102286103703660046119fd565b610b59565b61023d6103833660046119d1565b610d99565b61025b6103963660046119b6565b60096020526000908152604090205481565b61025b600080516020611b6f83398151915281565b61025b600081565b6102286103d3366004611981565b610dc2565b6102286103e63660046119fd565b610de0565b6104127f000000000000000000000000000000000000000000000000000000000000000081565b6040516001600160a01b039091168152602001610249565b61023d6104383660046119b6565b610fdc565b61025b600c5481565b61025b60065481565b61022861045d366004611a2d565b61100c565b6104c3610470366004611981565b600b60205260009081526040902080546001820154600283015460038401546004850154600586015460068701546007909701546001600160a01b03909616969495939492939192909160ff9091169088565b604080516001600160a01b0390991689526020890197909752958701949094526060860192909252608085015260a0840152151560c083015260e082015261010001610249565b61025b6105183660046119b6565b600a6020526000908152604090205481565b6102286105383660046119d1565b611153565b610228611178565b6102286105533660046119b6565b6112b5565b610228610566366004611981565b611374565b610228610579366004611981565b61159d565b600080516020611b6f833981519152610596816115bb565b61059e6115c5565b6105a733610fdc565b6105f85760405162461bcd60e51b815260206004820152601c60248201527f436f6e747269627574696f6e73206e6f7420757020746f20646174650000000060448201526064015b60405180910390fd5b600060075460065461060a9190611a73565b9050806006600082825461061e9190611a95565b90915550506007805490600061063383611aa8565b9091555061066d90506001600160a01b037f00000000000000000000000000000000000000000000000000000000000000001633836115ef565b6007805490600061067d83611abf565b909155505060405181815233907f0fb2ffd41401cdebe76e1a7cdcaed20ad31cf8d215f8209b73ec00525cb8d6869060200160405180910390a2506106c160018055565b50565b60006001600160e01b03198216637965db0b60e01b14806106f557506301ffc9a760e01b6001600160e01b03198316145b92915050565b600080516020611b4f833981519152610713816115bb565b50600355565b600082815260208190526040902060010154610734816115bb565b61073e838361164e565b50505050565b6001600160a01b038116331461076d5760405163334bd91960e11b815260040160405180910390fd5b61077782826116e0565b505050565b600080516020611b4f833981519152610794816115bb565b50600555565b6107a26115c5565b600080516020611b6f8339815191526107ba816115bb565b6000828152600b60205260409020600581015442101561081c5760405162461bcd60e51b815260206004820152601b60248201527f566f74696e6720706572696f6420686173206e6f7420656e646564000000000060448201526064016105ef565b600681015460ff16156108715760405162461bcd60e51b815260206004820152601e60248201527f4c6f616e2068617320616c7265616479206265656e206578656375746564000060448201526064016105ef565b80600401548160030154116108c05760405162461bcd60e51b8152602060048201526015602482015274131bd85b881dd85cc81b9bdd08185c1c1c9bdd9959605a1b60448201526064016105ef565b60068101805460ff19166001908117909155815490820154610911917f00000000000000000000000000000000000000000000000000000000000000006001600160a01b03908116929116906115ef565b805460018201546040519081526001600160a01b039091169084907fa011b2785690efb5096b43da5748112820ca8c9a089537f24dcddc6376ed76d09060200160405180910390a350506106c160018055565b600080516020611b4f83398151915261097c816115bb565b6001600160a01b03821660009081526008602052604090205460ff166109d95760405162461bcd60e51b8152602060048201526012602482015271139bc81c195b991a5b99c81c995c5d595cdd60721b60448201526064016105ef565b6001600160a01b0382166000908152600860205260409020805460ff19169055610a11600080516020611b6f8339815191528361164e565b5060078054906000610a2283611abf565b90915550506040516001600160a01b038316907ffd8645a300811a1fef6b63545c5e56270846836d8175f40b442a5ca5f24f54c890600090a25050565b610a77600080516020611b6f83398151915233610d99565b15610ab75760405162461bcd60e51b815260206004820152601060248201526f20b63932b0b23c90309036b2b6b132b960811b60448201526064016105ef565b3360009081526008602052604090205460ff1615610b175760405162461bcd60e51b815260206004820152601760248201527f5265717565737420616c72656164792070656e64696e6700000000000000000060448201526064016105ef565b33600081815260086020526040808220805460ff19166001179055517f9bd57f6afb218f82d59754ec3ef81702d404e85484f3908c6a594f2a9a1162769190a2565b610b616115c5565b600080516020611b6f833981519152610b79816115bb565b6000838152600b60205260409020600681015460ff16610bd05760405162461bcd60e51b81526020600482015260126024820152714c6f616e206973206e6f742061637469766560701b60448201526064016105ef565b80546001600160a01b03163314610c295760405162461bcd60e51b815260206004820152601760248201527f4f6e6c7920626f72726f7765722063616e20726570617900000000000000000060448201526064016105ef565b60006127106005548360010154610c409190611ad8565b610c4a9190611a73565b8260010154610c599190611aef565b905080848360070154610c6c9190611aef565b1115610cba5760405162461bcd60e51b815260206004820152601960248201527f52657061796d656e7420616d6f756e7420746f6f20686967680000000000000060448201526064016105ef565b610cef6001600160a01b037f00000000000000000000000000000000000000000000000000000000000000001633308761174b565b600061271060055486610d029190611ad8565b610d0c9190611a73565b9050610d188186611a95565b836007016000828254610d2b9190611aef565b925050819055508060066000828254610d449190611aef565b90915550339050867f512d3e65b3e58c2187bb1872aa435dba5bd09c1c03823ba56ab70aac411e4a21610d778489611a95565b60405190815260200160405180910390a350505050610d9560018055565b5050565b6000918252602082815260408084206001600160a01b0393909316845291905290205460ff1690565b600080516020611b4f833981519152610dda816115bb565b50600255565b600080516020611b6f833981519152610df8816115bb565b60008311610e535760405162461bcd60e51b815260206004820152602260248201527f4c6f616e20616d6f756e74206d7573742062652067726561746572207468616e604482015261020360f41b60648201526084016105ef565b60008211610eaf5760405162461bcd60e51b8152602060048201526024808201527f4c6f616e206475726174696f6e206d75737420626520677265617465722074686044820152630616e20360e41b60648201526084016105ef565b604051806101000160405280336001600160a01b03168152602001848152602001838152602001600081526020016000815260200160045442610ef29190611aef565b8152600060208083018290526040928301829052600c80548352600b825291839020845181546001600160a01b0319166001600160a01b03909116178155848201516001820155848401516002820155606085015160038201556080850151600482015560a0850151600582015560c085015160068201805460ff191691151591909117905560e090940151600790940193909355548151868152928301859052339290917f68595dbe887ae7f496f2c88735019a8918919a1decfdee6bdb460480ab87decb910160405180910390a3600c8054906000610fd283611abf565b9190505550505050565b6003546001600160a01b038216600090815260096020526040812054909161100391611aef565b42111592915050565b600080516020611b6f833981519152611024816115bb565b6000838152600b60205260409020600581015442106110855760405162461bcd60e51b815260206004820152601760248201527f566f74696e6720706572696f642068617320656e64656400000000000000000060448201526064016105ef565b600681015460ff16156110da5760405162461bcd60e51b815260206004820152601e60248201527f4c6f616e2068617320616c7265616479206265656e206578656375746564000060448201526064016105ef565b82156110fc576003810180549060006110f283611abf565b9190505550611114565b60048101805490600061110e83611abf565b91905055505b6040518315158152339085907fe71fcdac32df1877c1700e7bda2a03157e20993363a28fc35ac495cefc76e4d49060200160405180910390a350505050565b60008281526020819052604090206001015461116e816115bb565b61073e83836116e0565b600080516020611b6f833981519152611190816115bb565b6111986115c5565b600354336000908152600960205260409020546111b59190611aef565b4210156112045760405162461bcd60e51b815260206004820152601760248201527f546f6f206561726c7920746f20636f6e7472696275746500000000000000000060448201526064016105ef565b60025461123f906001600160a01b037f000000000000000000000000000000000000000000000000000000000000000016903390309061174b565b336000908152600960209081526040808320429055600254600a909252822080549192909161126f908490611aef565b909155505060025460405190815233907f6770260ea820d2f539364e7617e021543aaf6d192f2fd2a47c20db6bd99a4eb99060200160405180910390a26106c160018055565b600080516020611b4f8339815191526112cd816115bb565b6001600160a01b03821660009081526008602052604090205460ff1661132a5760405162461bcd60e51b8152602060048201526012602482015271139bc81c195b991a5b99c81c995c5d595cdd60721b60448201526064016105ef565b6001600160a01b038216600081815260086020526040808220805460ff19169055517f0b90b22de375dba732fc0ce6d299c1048a59a853896f06c35f43ea255a3c5ec99190a25050565b600080516020611b6f83398151915261138c816115bb565b6113946115c5565b61139d33610fdc565b6113e95760405162461bcd60e51b815260206004820152601c60248201527f436f6e747269627574696f6e73206e6f7420757020746f20646174650000000060448201526064016105ef565b6000821180156114085750336000908152600a60205260409020548211155b6114545760405162461bcd60e51b815260206004820152601960248201527f496e76616c6964207769746864726177616c20616d6f756e740000000000000060448201526064016105ef565b61145c61057e565b336000908152600a60205260408120805484929061147b908490611a95565b909155506114b590506001600160a01b037f00000000000000000000000000000000000000000000000000000000000000001633846115ef565b336000908152600a6020526040812054900361155e576114e3600080516020611b6f833981519152336116e0565b50600780549060006114f483611aa8565b909155505060405133907fdb4f86f4e3926c467d3434a00cc562d038163012ae34dcc94fca7c85246f1bbe90600090a260405182815233907f779c86999fb727ca861d0288aa11ed4104347721c571e4f0da5172afb607d8859060200160405180910390a2611594565b60405182815233907f8468f8fa62fc679cf8165eab7662a1fa977705b501dd787e9ec07884885425f19060200160405180910390a25b610d9560018055565b600080516020611b4f8339815191526115b5816115bb565b50600455565b6106c18133611784565b6002600154036115e857604051633ee5aeb560e01b815260040160405180910390fd5b6002600155565b6040516001600160a01b0383811660248301526044820183905261077791859182169063a9059cbb906064015b604051602081830303815290604052915060e01b6020820180516001600160e01b0383818316178352505050506117bd565b600061165a8383610d99565b6116d8576000838152602081815260408083206001600160a01b03861684529091529020805460ff191660011790556116903390565b6001600160a01b0316826001600160a01b0316847f2f8788117e7eff1d82e926ec794901d17c78024a50270940304540a733656f0d60405160405180910390a45060016106f5565b5060006106f5565b60006116ec8383610d99565b156116d8576000838152602081815260408083206001600160a01b0386168085529252808320805460ff1916905551339286917ff6391f5c32d9c69d2a47ea670b442974b53935d1edc7fd64eb21e047a839171b9190a45060016106f5565b6040516001600160a01b03848116602483015283811660448301526064820183905261073e9186918216906323b872dd9060840161161c565b61178e8282610d99565b610d955760405163e2517d3f60e01b81526001600160a01b0382166004820152602481018390526044016105ef565b60006117d26001600160a01b03841683611820565b905080516000141580156117f75750808060200190518101906117f59190611b02565b155b1561077757604051635274afe760e01b81526001600160a01b03841660048201526024016105ef565b606061182e83836000611835565b9392505050565b60608147101561185a5760405163cd78605960e01b81523060048201526024016105ef565b600080856001600160a01b031684866040516118769190611b1f565b60006040518083038185875af1925050503d80600081146118b3576040519150601f19603f3d011682016040523d82523d6000602084013e6118b8565b606091505b50915091506118c88683836118d2565b9695505050505050565b6060826118e7576118e28261192e565b61182e565b81511580156118fe57506001600160a01b0384163b155b1561192757604051639996b31560e01b81526001600160a01b03851660048201526024016105ef565b508061182e565b80511561193e5780518082602001fd5b604051630a12f52160e11b815260040160405180910390fd5b60006020828403121561196957600080fd5b81356001600160e01b03198116811461182e57600080fd5b60006020828403121561199357600080fd5b5035919050565b80356001600160a01b03811681146119b157600080fd5b919050565b6000602082840312156119c857600080fd5b61182e8261199a565b600080604083850312156119e457600080fd5b823591506119f46020840161199a565b90509250929050565b60008060408385031215611a1057600080fd5b50508035926020909101359150565b80151581146106c157600080fd5b60008060408385031215611a4057600080fd5b823591506020830135611a5281611a1f565b809150509250929050565b634e487b7160e01b600052601160045260246000fd5b600082611a9057634e487b7160e01b600052601260045260246000fd5b500490565b818103818111156106f5576106f5611a5d565b600081611ab757611ab7611a5d565b506000190190565b600060018201611ad157611ad1611a5d565b5060010190565b80820281158282048414176106f5576106f5611a5d565b808201808211156106f5576106f5611a5d565b600060208284031215611b1457600080fd5b815161182e81611a1f565b6000825160005b81811015611b405760208186018101518583015201611b26565b50600092019182525091905056fea49807205ce4d355092ef5a8a18f56e8913cf4a201fbe287825b095693c21775829b824e2329e205435d941c9f13baf578548505283d29261236d8e6596d4636a2646970667358221220685b7f6598a9907b2c01f275b3e7487e259d33c0be9c51aa94c367104f58d23d64736f6c63430008190033","linkReferences":{}},"methodIdentifiers":{"ADMIN_ROLE()":"75b238fc","DEFAULT_ADMIN_ROLE()":"a217fddf","MEMBER_ROLE()":"a10f469e","approveMembership(address)":"79a68cf1","contribute()":"d7bb99ba","contributionAmount()":"5fa0b65f","contributionPeriod()":"1753fac1","executeLoan(uint256)":"70e92c2f","getRoleAdmin(bytes32)":"248a9ca3","grantRole(bytes32,address)":"2f2ff15d","hasRole(bytes32,address)":"91d14854","interestRate()":"7c3a00fd","isContributionUpToDate(address)":"afff059c","lastContributionTime(address)":"a03039c2","lendingToken()":"aaaca558","loanRequestCount()":"b786f978","loanRequests(uint256)":"d1b332f4","memberBalance(address)":"d39a9975","memberCount()":"11aee380","membershipRequests(address)":"268257fa","rejectMembership(address)":"d896bf4d","renounceRole(bytes32,address)":"36568abe","repayLoan(uint256,uint256)":"8a700b53","requestLoan(uint256,uint256)":"aa452fa6","requestMembership()":"7b10b293","revokeRole(bytes32,address)":"d547741f","setContributionAmount(uint256)":"a8bdd1bf","setContributionPeriod(uint256)":"0838475e","setInterestRate(uint256)":"5f84f302","setVotingPeriod(uint256)":"ea0217cf","supportsInterface(bytes4)":"01ffc9a7","totalInterestEarned()":"b7d93f34","vote(uint256,bool)":"c9d27afe","votingPeriod()":"02a251a3","withdrawBalance(uint256)":"da76d5cd","withdrawInterest()":"0063750c"},"id":96}