{"abi":[{"type":"constructor","inputs":[{"name":"_token","type":"address","internalType":"address"},{"name":"_admin","type":"address","internalType":"address"},{"name":"_taxCollector","type":"address","internalType":"address"},{"name":"_periodDuration","type":"uint256","internalType":"uint256"},{"name":"_protocolTaxRate","type":"uint256","internalType":"uint256"},{"name":"_vrfCoordinator","type":"address","internalType":"address"},{"name":"_subscriptionId","type":"uint64","internalType":"uint64"},{"name":"_keyHash","type":"bytes32","internalType":"bytes32"},{"name":"_kintoIDAddress","type":"address","internalType":"address"}],"stateMutability":"nonpayable"},{"type":"function","name":"MIN_PERIOD_DURATION","inputs":[],"outputs":[{"name":"","type":"uint256","internalType":"uint256"}],"stateMutability":"view"},{"type":"function","name":"addMember","inputs":[{"name":"_member","type":"address","internalType":"address"}],"outputs":[],"stateMutability":"nonpayable"},{"type":"function","name":"contribute","inputs":[],"outputs":[],"stateMutability":"nonpayable"},{"type":"function","name":"contributionAmount","inputs":[],"outputs":[{"name":"","type":"uint256","internalType":"uint256"}],"stateMutability":"view"},{"type":"function","name":"currentPeriod","inputs":[],"outputs":[{"name":"","type":"uint256","internalType":"uint256"}],"stateMutability":"view"},{"type":"function","name":"cycleLength","inputs":[],"outputs":[{"name":"","type":"uint256","internalType":"uint256"}],"stateMutability":"view"},{"type":"function","name":"getCurrentPeriod","inputs":[],"outputs":[{"name":"","type":"uint256","internalType":"uint256"}],"stateMutability":"view"},{"type":"function","name":"getEligibleWithdrawer","inputs":[],"outputs":[{"name":"","type":"address","internalType":"address"}],"stateMutability":"view"},{"type":"function","name":"getMemberCount","inputs":[],"outputs":[{"name":"","type":"uint256","internalType":"uint256"}],"stateMutability":"view"},{"type":"function","name":"kintoID","inputs":[],"outputs":[{"name":"","type":"address","internalType":"contract IKintoID"}],"stateMutability":"view"},{"type":"function","name":"memberList","inputs":[{"name":"","type":"uint256","internalType":"uint256"}],"outputs":[{"name":"","type":"address","internalType":"address"}],"stateMutability":"view"},{"type":"function","name":"members","inputs":[{"name":"","type":"address","internalType":"address"}],"outputs":[{"name":"isActive","type":"bool","internalType":"bool"},{"name":"isFrozen","type":"bool","internalType":"bool"},{"name":"lastContributionPeriod","type":"uint256","internalType":"uint256"},{"name":"lastWithdrawn","type":"uint256","internalType":"uint256"}],"stateMutability":"view"},{"type":"function","name":"owner","inputs":[],"outputs":[{"name":"","type":"address","internalType":"address"}],"stateMutability":"view"},{"type":"function","name":"periodDuration","inputs":[],"outputs":[{"name":"","type":"uint256","internalType":"uint256"}],"stateMutability":"view"},{"type":"function","name":"protocolTaxRate","inputs":[],"outputs":[{"name":"","type":"uint256","internalType":"uint256"}],"stateMutability":"view"},{"type":"function","name":"randomResult","inputs":[],"outputs":[{"name":"","type":"uint256","internalType":"uint256"}],"stateMutability":"view"},{"type":"function","name":"rawFulfillRandomWords","inputs":[{"name":"requestId","type":"uint256","internalType":"uint256"},{"name":"randomWords","type":"uint256[]","internalType":"uint256[]"}],"outputs":[],"stateMutability":"nonpayable"},{"type":"function","name":"removeMember","inputs":[{"name":"_member","type":"address","internalType":"address"}],"outputs":[],"stateMutability":"nonpayable"},{"type":"function","name":"renounceOwnership","inputs":[],"outputs":[],"stateMutability":"nonpayable"},{"type":"function","name":"selected","inputs":[{"name":"","type":"address","internalType":"address"}],"outputs":[{"name":"","type":"bool","internalType":"bool"}],"stateMutability":"view"},{"type":"function","name":"selectedWithdrawer","inputs":[],"outputs":[{"name":"","type":"address","internalType":"address"}],"stateMutability":"view"},{"type":"function","name":"setPeriodDuration","inputs":[{"name":"_newDuration","type":"uint256","internalType":"uint256"}],"outputs":[],"stateMutability":"nonpayable"},{"type":"function","name":"setToken","inputs":[{"name":"_newToken","type":"address","internalType":"address"}],"outputs":[],"stateMutability":"nonpayable"},{"type":"function","name":"startCycle","inputs":[{"name":"_contributionAmount","type":"uint256","internalType":"uint256"}],"outputs":[],"stateMutability":"nonpayable"},{"type":"function","name":"startTime","inputs":[],"outputs":[{"name":"","type":"uint256","internalType":"uint256"}],"stateMutability":"view"},{"type":"function","name":"taxCollector","inputs":[],"outputs":[{"name":"","type":"address","internalType":"address"}],"stateMutability":"view"},{"type":"function","name":"token","inputs":[],"outputs":[{"name":"","type":"address","internalType":"contract IERC20"}],"stateMutability":"view"},{"type":"function","name":"totalContributed","inputs":[],"outputs":[{"name":"","type":"uint256","internalType":"uint256"}],"stateMutability":"view"},{"type":"function","name":"transferOwnership","inputs":[{"name":"newOwner","type":"address","internalType":"address"}],"outputs":[],"stateMutability":"nonpayable"},{"type":"function","name":"triggerAutoSave","inputs":[{"name":"_member","type":"address","internalType":"address"}],"outputs":[],"stateMutability":"nonpayable"},{"type":"function","name":"updateCallbackGasLimit","inputs":[{"name":"_callbackGasLimit","type":"uint32","internalType":"uint32"}],"outputs":[],"stateMutability":"nonpayable"},{"type":"function","name":"updateVRFSubscription","inputs":[{"name":"_subscriptionId","type":"uint64","internalType":"uint64"}],"outputs":[],"stateMutability":"nonpayable"},{"type":"function","name":"withdraw","inputs":[],"outputs":[],"stateMutability":"nonpayable"},{"type":"function","name":"withdrawerSelected","inputs":[],"outputs":[{"name":"","type":"bool","internalType":"bool"}],"stateMutability":"view"},{"type":"event","name":"ContributionMade","inputs":[{"name":"member","type":"address","indexed":false,"internalType":"address"},{"name":"amount","type":"uint256","indexed":false,"internalType":"uint256"},{"name":"period","type":"uint256","indexed":false,"internalType":"uint256"}],"anonymous":false},{"type":"event","name":"CycleStarted","inputs":[{"name":"startTime","type":"uint256","indexed":false,"internalType":"uint256"},{"name":"cycleLength","type":"uint256","indexed":false,"internalType":"uint256"},{"name":"contributionAmount","type":"uint256","indexed":false,"internalType":"uint256"}],"anonymous":false},{"type":"event","name":"MemberAdded","inputs":[{"name":"member","type":"address","indexed":false,"internalType":"address"}],"anonymous":false},{"type":"event","name":"MemberFrozen","inputs":[{"name":"member","type":"address","indexed":false,"internalType":"address"}],"anonymous":false},{"type":"event","name":"MemberRemoved","inputs":[{"name":"member","type":"address","indexed":false,"internalType":"address"}],"anonymous":false},{"type":"event","name":"MemberUnfrozen","inputs":[{"name":"member","type":"address","indexed":false,"internalType":"address"}],"anonymous":false},{"type":"event","name":"OwnershipTransferred","inputs":[{"name":"previousOwner","type":"address","indexed":true,"internalType":"address"},{"name":"newOwner","type":"address","indexed":true,"internalType":"address"}],"anonymous":false},{"type":"event","name":"PayoutMade","inputs":[{"name":"member","type":"address","indexed":false,"internalType":"address"},{"name":"amount","type":"uint256","indexed":false,"internalType":"uint256"},{"name":"period","type":"uint256","indexed":false,"internalType":"uint256"}],"anonymous":false},{"type":"event","name":"PeriodDurationUpdated","inputs":[{"name":"newDuration","type":"uint256","indexed":false,"internalType":"uint256"}],"anonymous":false},{"type":"event","name":"PeriodEnded","inputs":[{"name":"period","type":"uint256","indexed":false,"internalType":"uint256"}],"anonymous":false},{"type":"event","name":"ProtocolTaxRateUpdated","inputs":[{"name":"newRate","type":"uint256","indexed":false,"internalType":"uint256"}],"anonymous":false},{"type":"event","name":"TokenUpdated","inputs":[{"name":"newToken","type":"address","indexed":false,"internalType":"address"}],"anonymous":false},{"type":"event","name":"WithdrawerSelected","inputs":[{"name":"withdrawer","type":"address","indexed":false,"internalType":"address"}],"anonymous":false},{"type":"error","name":"AddressEmptyCode","inputs":[{"name":"target","type":"address","internalType":"address"}]},{"type":"error","name":"AddressInsufficientBalance","inputs":[{"name":"account","type":"address","internalType":"address"}]},{"type":"error","name":"FailedInnerCall","inputs":[]},{"type":"error","name":"OnlyCoordinatorCanFulfill","inputs":[{"name":"have","type":"address","internalType":"address"},{"name":"want","type":"address","internalType":"address"}]},{"type":"error","name":"OwnableInvalidOwner","inputs":[{"name":"owner","type":"address","internalType":"address"}]},{"type":"error","name":"OwnableUnauthorizedAccount","inputs":[{"name":"account","type":"address","internalType":"address"}]},{"type":"error","name":"ReentrancyGuardReentrantCall","inputs":[]},{"type":"error","name":"SafeERC20FailedOperation","inputs":[{"name":"token","type":"address","internalType":"address"}]}],"bytecode":{"object":"0x60c0604052601080546001600160501b03191666010003000186a017905534801561002957600080fd5b506040516123323803806123328339810160408190526100489161027a565b6001600055888888888888888882876001600160a01b03811661008657604051631e4fbdf760e01b8152600060048201526024015b60405180910390fd5b61008f8161020c565b506001600160a01b0316608052620151808510156100ef5760405162461bcd60e51b815260206004820152601960248201527f506572696f64206475726174696f6e20746f6f2073686f727400000000000000604482015260640161007d565b6103e88411156101355760405162461bcd60e51b81526020600482015260116024820152700a8c2f040e4c2e8ca40e8dede40d0d2ced607b1b604482015260640161007d565b600280546001600160a01b03998a166001600160a01b031991821617909155600395909555600c93909355600d80549588169590941694909417909255600e80546001600160401b03909416600160a01b026001600160e01b031990941692861692909217929092179055600f555081166101f25760405162461bcd60e51b815260206004820152601760248201527f496e76616c6964204b696e746f49442061646472657373000000000000000000604482015260640161007d565b6001600160a01b031660a0525061031d9650505050505050565b600180546001600160a01b038381166001600160a01b0319831681179093556040519116919082907f8be0079c531659141344cd1fd0a4f28419497f9722a3daafe3b4186f6b6457e090600090a35050565b80516001600160a01b038116811461027557600080fd5b919050565b60008060008060008060008060006101208a8c03121561029957600080fd5b6102a28a61025e565b98506102b060208b0161025e565b97506102be60408b0161025e565b965060608a0151955060808a015194506102da60a08b0161025e565b60c08b01519094506001600160401b03811681146102f757600080fd5b60e08b0151909350915061030e6101008b0161025e565b90509295985092959850929598565b60805160a051611fd461035e6000396000818161037c015281816108b50152818161094401526109d301526000818161081b015261085d0152611fd46000f3fe608060405234801561001057600080fd5b50600436106102065760003560e01c80638da5cb5b1161011a578063bb806659116100ad578063d7bb99ba1161007c578063d7bb99ba14610456578063e50b9ecd1461045e578063eac471a014610471578063f2fde38b1461047a578063fc0c546a1461048d57600080fd5b8063bb80665914610404578063bea1dcf81461040d578063c88290cd14610420578063ca6d56dc1461044357600080fd5b8063ab58b17e116100e9578063ab58b17e146103c2578063b0e8d086146103d5578063b307fc6d146103e8578063b470aade146103fb57600080fd5b80638da5cb5b1461035e578063997072f71461036f57806399a6cddd14610377578063a92017071461039e57600080fd5b80631fe543e31161019d5780635fa0b65f1161016c5780635fa0b65f1461031e578063715018a61461032757806375a43aa31461032f57806378e97925146103425780637c2d6e011461034b57600080fd5b80631fe543e3146102da5780633ccfd60b146102ed57806342619f66146102f557806349afeaa5146102fe57600080fd5b806308ae4b0c116101d957806308ae4b0c146102425780630b1ca49a1461029f578063144fa6d7146102b45780631e9d7065146102c757600080fd5b80630235e7e71461020b578063023f4147146102285780630604061814610231578063086146d21461023a575b600080fd5b6102156201518081565b6040519081526020015b60405180910390f35b610215600b5481565b61021560065481565b6102156104a0565b61027d610250366004611cc2565b60096020526000908152604090208054600182015460029092015460ff8083169361010090930416919084565b604080519415158552921515602085015291830152606082015260800161021f565b6102b26102ad366004611cc2565b6104f2565b005b6102b26102c2366004611cc2565b610736565b6102b26102d5366004611ceb565b6107da565b6102b26102e8366004611d2b565b610810565b6102b2610898565b61021560115481565b610306610a95565b6040516001600160a01b03909116815260200161021f565b61021560045481565b6102b2610ac6565b6102b261033d366004611cc2565b610ad8565b61021560055481565b6102b2610359366004611df5565b610afe565b6001546001600160a01b0316610306565b600854610215565b6103067f000000000000000000000000000000000000000000000000000000000000000081565b6012546103b290600160a01b900460ff1681565b604051901515815260200161021f565b601254610306906001600160a01b031681565b6102b26103e3366004611e0e565b610bf1565b6103066103f6366004611df5565b610c15565b61021560035481565b610215600c5481565b600d54610306906001600160a01b031681565b6103b261042e366004611cc2565b600a6020526000908152604090205460ff1681565b6102b2610451366004611cc2565b610c3f565b6102b2610df2565b6102b261046c366004611df5565b610e03565b61021560075481565b6102b2610488366004611cc2565b610f5e565b600254610306906001600160a01b031681565b60006005546000036104b25750600090565b6000600354600554426104c59190611e4a565b6104cf9190611e73565b905060075481106104e15760006104ec565b6104ec816001611e87565b91505090565b6104fa610f99565b6001600160a01b03811660009081526009602052604090205460ff1661055f5760405162461bcd60e51b815260206004820152601560248201527413595b58995c88191bd95cc81b9bdd08195e1a5cdd605a1b60448201526064015b60405180910390fd5b600554158061056e5750600654155b6105cb5760405162461bcd60e51b815260206004820152602860248201527f43616e6e6f742072656d6f7665206d656d62657220647572696e6720616374696044820152677665206379636c6560c01b6064820152608401610556565b60005b6008548110156106c957816001600160a01b0316600882815481106105f5576105f5611e9a565b6000918252602090912001546001600160a01b0316036106c1576008805461061f90600190611e4a565b8154811061062f5761062f611e9a565b600091825260209091200154600880546001600160a01b03909216918390811061065b5761065b611e9a565b9060005260206000200160006101000a8154816001600160a01b0302191690836001600160a01b03160217905550600880548061069a5761069a611eb0565b600082815260209020810160001990810180546001600160a01b03191690550190556106c9565b6001016105ce565b506001600160a01b0381166000818152600960209081526040808320805461ffff19168155600181018490556002019290925560085460075590519182527f6e76fb4c77256006d9c38ec7d82b45a8c8f3c27b1d6766fffc42dfb8de68449291015b60405180910390a150565b61073e610f99565b6001600160a01b03811661078c5760405162461bcd60e51b8152602060048201526015602482015274496e76616c696420746f6b656e206164647265737360581b6044820152606401610556565b600280546001600160a01b0319166001600160a01b0383169081179091556040519081527f5ba6b30cd4b2f9e9e67f4feb9b9df10d5da3b057598e6901b217b7d590345e309060200161072b565b6107e2610f99565b600e805467ffffffffffffffff909216600160a01b0267ffffffffffffffff60a01b19909216919091179055565b336001600160a01b037f0000000000000000000000000000000000000000000000000000000000000000161461088a5760405163073e64fd60e21b81523360048201526001600160a01b037f0000000000000000000000000000000000000000000000000000000000000000166024820152604401610556565b6108948282610fc6565b5050565b6108a0610fef565b6040516313289ea360e31b81523360048201527f00000000000000000000000000000000000000000000000000000000000000006001600160a01b031690639944f51890602401602060405180830381865afa158015610904573d6000803e3d6000fd5b505050506040513d601f19601f820116820180604052508101906109289190611ec6565b80156109b75750604051630add9f7f60e01b81523360048201527f00000000000000000000000000000000000000000000000000000000000000006001600160a01b031690630add9f7f90602401602060405180830381865afa158015610993573d6000803e3d6000fd5b505050506040513d601f19601f820116820180604052508101906109b79190611ec6565b8015610a465750604051635020367160e11b81523360048201527f00000000000000000000000000000000000000000000000000000000000000006001600160a01b03169063a0406ce290602401602060405180830381865afa158015610a22573d6000803e3d6000fd5b505050506040513d601f19601f82011682018060405250810190610a469190611ec6565b610a815760405162461bcd60e51b815260206004820152600c60248201526b12d650c81c995c5d5a5c995960a21b6044820152606401610556565b610a89611019565b610a936001600055565b565b600060065460001480610aab5750600754600654115b15610ab65750600090565b506012546001600160a01b031690565b610ace610f99565b610a9360006113e7565b610ae0610f99565b610ae8610fef565b610af181611439565b610afb6001600055565b50565b610b06610f99565b62015180811015610b595760405162461bcd60e51b815260206004820152601960248201527f506572696f64206475726174696f6e20746f6f2073686f7274000000000000006044820152606401610556565b60055415610bbc5760405162461bcd60e51b815260206004820152602a60248201527f43616e6e6f74206368616e6765206475726174696f6e20647572696e6720616360448201526974697665206379636c6560b01b6064820152608401610556565b60038190556040518181527fbd6eb9cf4d6e2902587c57e3163aaafdb46e3b3f2086bdfa75c790228930a9d79060200161072b565b610bf9610f99565b6010805463ffffffff191663ffffffff92909216919091179055565b60088181548110610c2557600080fd5b6000918252602090912001546001600160a01b0316905081565b610c47610f99565b6001600160a01b03811660009081526009602052604090205460ff1615610ca85760405162461bcd60e51b81526020600482015260156024820152744d656d62657220616c72656164792065786973747360581b6044820152606401610556565b6005541580610cb75750600654155b610d115760405162461bcd60e51b815260206004820152602560248201527f43616e6e6f7420616464206d656d62657220647572696e6720616374697665206044820152646379636c6560d81b6064820152608401610556565b60088054600180820183557ff3f7a9fe364faab93b216da50a3214154f22a0a2b415b23a84c8169e8b636ee390910180546001600160a01b0319166001600160a01b038516908117909155604080516080810182528381526000602080830182815283850183815260608501848152878552600984529386902094518554925161ffff1990931690151561ff0019161761010092151592909202919091178455519583019590955551600290910155925460075591519182527fb251eb052afc73ffd02ffe85ad79990a8b3fed60d76dbc2fa2fdd7123dffd914910161072b565b610dfa610fef565b610a8933611439565b610e0b610f99565b60055415610e535760405162461bcd60e51b815260206004820152601560248201527410de58db1948185b1c9958591e481cdd185c9d1959605a1b6044820152606401610556565b600854600110610ea55760405162461bcd60e51b815260206004820152601960248201527f4e656564206174206c656173742074776f206d656d62657273000000000000006044820152606401610556565b60008111610f085760405162461bcd60e51b815260206004820152602a60248201527f436f6e747269627574696f6e20616d6f756e74206d75737420626520677265616044820152690746572207468616e20360b41b6064820152608401610556565b42600581905560016006556008546007819055600483905560408051928352602083019190915281018290527f0e41c903d4f464af8fdd82a2a195fb81a5b17cfe3a20585d2f10d0eeb1f1d33c9060600161072b565b610f66610f99565b6001600160a01b038116610f9057604051631e4fbdf760e01b815260006004820152602401610556565b610afb816113e7565b6001546001600160a01b03163314610a935760405163118cdaa760e01b8152336004820152602401610556565b80600081518110610fd957610fd9611e9a565b602002602001015160118190555061089461175a565b60026000540361101257604051633ee5aeb560e01b815260040160405180910390fd5b6002600055565b611021610fef565b6000600554116110675760405162461bcd60e51b815260206004820152601160248201527010de58db19481b9bdd081cdd185c9d1959607a1b6044820152606401610556565b60075460065411156110ad5760405162461bcd60e51b815260206004820152600f60248201526e10de58db194818dbdb5c1b195d1959608a1b6044820152606401610556565b6007546004546110bd9190611ee8565b600b541461110d5760405162461bcd60e51b815260206004820152601e60248201527f4e6f7420616c6c20636f6e747269627574696f6e7320726563656976656400006044820152606401610556565b601254600160a01b900460ff166111665760405162461bcd60e51b815260206004820152601b60248201527f57697468647261776572206e6f742073656c65637465642079657400000000006044820152606401610556565b6012546001600160a01b031633146111bc5760405162461bcd60e51b81526020600482015260196024820152784e6f7420796f7572207475726e20746f20776974686472617760381b6044820152606401610556565b33600090815260096020526040902054610100900460ff16156111f15760405162461bcd60e51b815260040161055690611eff565b60055433600090815260096020526040902060020154106112545760405162461bcd60e51b815260206004820152601c60248201527f416c72656164792077697468647261776e2074686973206379636c65000000006044820152606401610556565b6012546001600160a01b03163381146112ab5760405162461bcd60e51b81526020600482015260196024820152784e6f7420796f7572207475726e20746f20776974686472617760381b6044820152606401610556565b6001600160a01b038116600090815260096020526040902054610100900460ff16156112e95760405162461bcd60e51b815260040161055690611eff565b60006007546004546112fb9190611ee8565b90506000612710600c54836113109190611ee8565b61131a9190611e73565b905060006113288284611e4a565b33600090815260096020526040902042600291820155601280546001600160a81b031916905554909150611366906001600160a01b0316858361187f565b600d54600254611383916001600160a01b0391821691168461187f565b600654604080516001600160a01b03871681526020810184905280820192909252517f072c40752b50e77bf22285251805c7f7884a12a4c07f29697909bea49b30571e9181900360600190a16113d960006118e3565b50505050610a936001600055565b600180546001600160a01b038381166001600160a01b0319831681179093556040519116919082907f8be0079c531659141344cd1fd0a4f28419497f9722a3daafe3b4186f6b6457e090600090a35050565b60006005541161147f5760405162461bcd60e51b815260206004820152601160248201527010de58db19481b9bdd081cdd185c9d1959607a1b6044820152606401610556565b6001600160a01b03811660009081526009602052604090205460ff166114d65760405162461bcd60e51b815260206004820152600c60248201526b2737ba10309036b2b6b132b960a11b6044820152606401610556565b6001600160a01b038116600090815260096020526040902054610100900460ff16156115145760405162461bcd60e51b815260040161055690611eff565b600754600654111561155a5760405162461bcd60e51b815260206004820152600f60248201526e10de58db194818dbdb5c1b195d1959608a1b6044820152606401610556565b6006546001600160a01b038216600090815260096020526040902060010154106115c65760405162461bcd60e51b815260206004820152601f60248201527f416c726561647920636f6e7472696275746564207468697320706572696f64006044820152606401610556565b6004546002546115e5916001600160a01b039091169083903090611a2a565b6001600160a01b038116600090815260096020526040902060019081015461160c91611e87565b6001600160a01b038216600090815260096020526040812060010191909155600454600b805491929091611641908490611e87565b90915550506001600160a01b038116600090815260096020526040902054610100900460ff16801561168f57506006546001600160a01b038216600090815260096020526040902060010154145b156116ea576001600160a01b038116600081815260096020908152604091829020805461ff001916905590519182527f9592f55c896a756ec61c21bf4c9b9b947f7f76a40ae7502c917f00c884435b82910160405180910390a15b600454600654604080516001600160a01b038516815260208101939093528201527f5dc1fe5ab986a852c4eda8e8bb94247d13307065c593fb83f1a09be2736793829060600160405180910390a16007546004546117489190611ee8565b600b5403610afb57610afb60016118e3565b60085460115460009161176c91611f29565b905060005b6008548110156118765760085460009061178b8385611e87565b6117959190611f29565b90506000600882815481106117ac576117ac611e9a565b60009182526020808320909101546001600160a01b0316808352600990915260409091205490915060ff6101009091041615801561180657506005546001600160a01b038216600090815260096020526040902060020154105b1561186c57601280546001600160a81b0319166001600160a01b0383811691909117600160a01b1791829055604051911681527fa58c1125f34593f5a1f6dcca751cb0e3240afcf17101eb4d8ebf404da9b2ba209060200160405180910390a150505050565b5050600101611771565b50610afb611a69565b6040516001600160a01b038381166024830152604482018390526118de91859182169063a9059cbb906064015b604051602081830303815290604052915060e01b6020820180516001600160e01b038381831617835250505050611b24565b505050565b7f95357e1b81128b2e56387f7f29ae51b03ce299a9784c0714c6401291f27e517460065460405161191691815260200190565b60405180910390a16000600b819055600680549161193383611f3d565b9190505550600754600654111561194c57600060055550565b60005b600854811015611a1b5760006008828154811061196e5761196e611e9a565b6000918252602090912001546006546001600160a01b03909116915061199690600190611e4a565b6001600160a01b0382166000908152600960205260409020600101541015611a12576001600160a01b038116600081815260096020908152604091829020805461ff00191661010017905590519182527f2b53dfd20eeb9ad336276df9c2fa376b6f9ad57640a33b56181333660b0de6c4910160405180910390a15b5060010161194f565b508015610afb57610afb611a69565b6040516001600160a01b038481166024830152838116604483015260648201839052611a639186918216906323b872dd906084016118ac565b50505050565b600e54600f546010546040516305d3b1d360e41b81526004810192909252600160a01b830467ffffffffffffffff166024830152640100000000810461ffff16604483015263ffffffff808216606484015266010000000000009091041660848201526001600160a01b0390911690635d3b1d309060a4016020604051808303816000875af1158015611b00573d6000803e3d6000fd5b505050506040513d601f19601f82011682018060405250810190610afb9190611f56565b6000611b396001600160a01b03841683611b87565b90508051600014158015611b5e575080806020019051810190611b5c9190611ec6565b155b156118de57604051635274afe760e01b81526001600160a01b0384166004820152602401610556565b6060611b9583836000611b9e565b90505b92915050565b606081471015611bc35760405163cd78605960e01b8152306004820152602401610556565b600080856001600160a01b03168486604051611bdf9190611f6f565b60006040518083038185875af1925050503d8060008114611c1c576040519150601f19603f3d011682016040523d82523d6000602084013e611c21565b606091505b5091509150611c31868383611c3d565b925050505b9392505050565b606082611c5257611c4d82611c99565b611c36565b8151158015611c6957506001600160a01b0384163b155b15611c9257604051639996b31560e01b81526001600160a01b0385166004820152602401610556565b5080611c36565b805115611ca95780518082602001fd5b604051630a12f52160e11b815260040160405180910390fd5b600060208284031215611cd457600080fd5b81356001600160a01b0381168114611c3657600080fd5b600060208284031215611cfd57600080fd5b813567ffffffffffffffff81168114611c3657600080fd5b634e487b7160e01b600052604160045260246000fd5b60008060408385031215611d3e57600080fd5b8235915060208084013567ffffffffffffffff80821115611d5e57600080fd5b818601915086601f830112611d7257600080fd5b813581811115611d8457611d84611d15565b8060051b604051601f19603f83011681018181108582111715611da957611da9611d15565b604052918252848201925083810185019189831115611dc757600080fd5b938501935b82851015611de557843584529385019392850192611dcc565b8096505050505050509250929050565b600060208284031215611e0757600080fd5b5035919050565b600060208284031215611e2057600080fd5b813563ffffffff81168114611c3657600080fd5b634e487b7160e01b600052601160045260246000fd5b81810381811115611b9857611b98611e34565b634e487b7160e01b600052601260045260246000fd5b600082611e8257611e82611e5d565b500490565b80820180821115611b9857611b98611e34565b634e487b7160e01b600052603260045260246000fd5b634e487b7160e01b600052603160045260246000fd5b600060208284031215611ed857600080fd5b81518015158114611c3657600080fd5b8082028115828204841417611b9857611b98611e34565b60208082526010908201526f26b2b6b132b91034b990333937bd32b760811b604082015260600190565b600082611f3857611f38611e5d565b500690565b600060018201611f4f57611f4f611e34565b5060010190565b600060208284031215611f6857600080fd5b5051919050565b6000825160005b81811015611f905760208186018101518583015201611f76565b50600092019182525091905056fea26469706673582212204952f5d8ff8dc5b459e4a68957dc7fffe5a817da89bca0cc361710b34a81963264736f6c63430008190033","linkReferences":{}},"methodIdentifiers":{"MIN_PERIOD_DURATION()":"0235e7e7","addMember(address)":"ca6d56dc","contribute()":"d7bb99ba","contributionAmount()":"5fa0b65f","currentPeriod()":"06040618","cycleLength()":"eac471a0","getCurrentPeriod()":"086146d2","getEligibleWithdrawer()":"49afeaa5","getMemberCount()":"997072f7","kintoID()":"99a6cddd","memberList(uint256)":"b307fc6d","members(address)":"08ae4b0c","owner()":"8da5cb5b","periodDuration()":"b470aade","protocolTaxRate()":"bb806659","randomResult()":"42619f66","rawFulfillRandomWords(uint256,uint256[])":"1fe543e3","removeMember(address)":"0b1ca49a","renounceOwnership()":"715018a6","selected(address)":"c88290cd","selectedWithdrawer()":"ab58b17e","setPeriodDuration(uint256)":"7c2d6e01","setToken(address)":"144fa6d7","startCycle(uint256)":"e50b9ecd","startTime()":"78e97925","taxCollector()":"bea1dcf8","token()":"fc0c546a","totalContributed()":"023f4147","transferOwnership(address)":"f2fde38b","triggerAutoSave(address)":"75a43aa3","updateCallbackGasLimit(uint32)":"b0e8d086","updateVRFSubscription(uint64)":"1e9d7065","withdraw()":"3ccfd60b","withdrawerSelected()":"a9201707"},"id":94}