{"abi":[{"type":"function","name":"createMicroInsurance","inputs":[{"name":"_paymentToken","type":"address","internalType":"address"},{"name":"_monthlyPremium","type":"uint256","internalType":"uint256"},{"name":"_votingPeriod","type":"uint256","internalType":"uint256"},{"name":"_claimVotingThreshold","type":"uint256","internalType":"uint256"},{"name":"_maxClaimAmount","type":"uint256","internalType":"uint256"}],"outputs":[{"name":"","type":"address","internalType":"address"}],"stateMutability":"nonpayable"},{"type":"event","name":"MicroInsuranceCreated","inputs":[{"name":"lendingContract","type":"address","indexed":true,"internalType":"address"},{"name":"admin","type":"address","indexed":true,"internalType":"address"}],"anonymous":false}],"bytecode":{"object":"0x6080604052348015600f57600080fd5b50611b268061001f6000396000f3fe608060405234801561001057600080fd5b506004361061002b5760003560e01c806346a0360814610030575b600080fd5b61004361003e366004610111565b61005f565b6040516001600160a01b03909116815260200160405180910390f35b60008033878787878760405161007490610104565b6001600160a01b03968716815295909416602086015260408501929092526060840152608083015260a082015260c001604051809103906000f0801580156100c0573d6000803e3d6000fd5b5060405190915033906001600160a01b038316907fd4f9aa4000bf6b46189056ed37b449235bfe5a14a2f3f0adb0ece1af00e0923690600090a39695505050505050565b61198f8061016283390190565b600080600080600060a0868803121561012957600080fd5b85356001600160a01b038116811461014057600080fd5b9760208701359750604087013596606081013596506080013594509250505056fe60a060405234801561001057600080fd5b5060405161198f38038061198f83398101604081905261002f91610155565b6001805561003e60008761008d565b506100697fa49807205ce4d355092ef5a8a18f56e8913cf4a201fbe287825b095693c217758761008d565b506001600160a01b03909416608052600292909255600355600455600555506101ad565b6000828152602081815260408083206001600160a01b038516845290915281205460ff1661012f576000838152602081815260408083206001600160a01b03861684529091529020805460ff191660011790556100e73390565b6001600160a01b0316826001600160a01b0316847f2f8788117e7eff1d82e926ec794901d17c78024a50270940304540a733656f0d60405160405180910390a4506001610133565b5060005b92915050565b80516001600160a01b038116811461015057600080fd5b919050565b60008060008060008060c0878903121561016e57600080fd5b61017787610139565b955061018560208801610139565b945060408701519350606087015192506080870151915060a087015190509295509295509295565b6080516117b96101d6600039600081816102ef015281816107ec015261124b01526117b96000f3fe608060405234801561001057600080fd5b50600436106101f05760003560e01c80637b352f8e1161010f578063aeef6439116100a2578063e4e2b38a11610071578063e4e2b38a146104d7578063e540cae0146104ea578063ea0217cf146104f3578063fc58b54a1461050657600080fd5b8063aeef643914610495578063b1adb4321461049e578063d547741f146104b1578063d896bf4d146104c457600080fd5b806396365d44116100de57806396365d44146103d3578063a10f469e146103dc578063a217fddf146103f1578063a888c2cd146103f957600080fd5b80637b352f8e1461039157806385f09f3d146103a45780638da4d3c9146103b757806391d14854146103c057600080fd5b80633013ce291161018757806375b238fc1161015657806375b238fc1461035857806376e925591461036d57806379a68cf1146103765780637b10b2931461038957600080fd5b80633013ce29146102ea57806336568abe1461032957806351902ec21461033c5780636aa14a961461034557600080fd5b80630ed6a89c116101c35780630ed6a89c14610297578063248a9ca3146102ac57806329c08ba2146102cf5780632f2ff15d146102d757600080fd5b806301ffc9a7146101f557806302a251a31461021d57806308ae4b0c146102345780630e7985d414610284575b600080fd5b610208610203366004611528565b610519565b60405190151581526020015b60405180910390f35b61022660035481565b604051908152602001610214565b61026761024236600461156e565b60066020526000908152604090208054600182015460029092015460ff909116919083565b604080519315158452602084019290925290820152606001610214565b61020861029236600461156e565b610550565b6102aa6102a5366004611597565b610582565b005b6102266102ba3660046115c7565b60009081526020819052604090206001015490565b6102aa610735565b6102aa6102e53660046115e0565b6108a4565b6103117f000000000000000000000000000000000000000000000000000000000000000081565b6040516001600160a01b039091168152602001610214565b6102aa6103373660046115e0565b6108cf565b61022660045481565b6102aa6103533660046115c7565b610907565b61022660008051602061174483398151915281565b61022660095481565b6102aa61038436600461156e565b610b1f565b6102aa610c01565b6102aa61039f3660046115c7565b610c81565b6102aa6103b23660046115c7565b610c9f565b61022660085481565b6102086103ce3660046115e0565b610cbd565b610226600a5481565b61022660008051602061176483398151915281565b610226600081565b6104526104073660046115c7565b6007602052600090815260409020805460018201546002830154600384015460048501546005909501546001600160a01b039094169492939192909160ff8082169161010090041687565b604080516001600160a01b03909816885260208801969096529486019390935260608501919091526080840152151560a0830152151560c082015260e001610214565b61022660055481565b6102aa6104ac3660046115c7565b610ce6565b6102aa6104bf3660046115e0565b610d56565b6102aa6104d236600461156e565b610d7b565b6102aa6104e53660046115c7565b610dcb565b61022660025481565b6102aa6105013660046115c7565b610ece565b6102aa6105143660046115c7565b610eec565b60006001600160e01b03198216637965db0b60e01b148061054a57506301ffc9a760e01b6001600160e01b03198316145b92915050565b6001600160a01b0381166000908152600660205260408120600101546105799062278d00611622565b42111592915050565b60008051602061176483398151915261059a81610f1f565b3360009081526006602052604090205460ff166105d25760405162461bcd60e51b81526004016105c990611635565b60405180910390fd5b6105db33610550565b6106205760405162461bcd60e51b81526020600482015260166024820152755072656d69756d206e6f7420757020746f206461746560501b60448201526064016105c9565b6000838152600760205260409020600481015442106106815760405162461bcd60e51b815260206004820152601760248201527f566f74696e6720706572696f642068617320656e64656400000000000000000060448201526064016105c9565b600581015460ff161580156106a057506005810154610100900460ff16155b6106bc5760405162461bcd60e51b81526004016105c99061165b565b82156106de576002810180549060006106d483611692565b91905055506106f6565b6003810180549060006106f083611692565b91905055505b6040518315158152339085907fe6e389be687266e05fa9763f32b239b384671c0216642d718b5c6332f9d799019060200160405180910390a350505050565b61073d610f29565b3360009081526006602052604090205460ff1661076c5760405162461bcd60e51b81526004016105c990611635565b3360009081526006602052604090206001015461078c9062278d00611622565b4210156107db5760405162461bcd60e51b815260206004820152601f60248201527f5072656d69756d20616c726561647920706169642074686973206d6f6e74680060448201526064016105c9565b600254610816906001600160a01b037f0000000000000000000000000000000000000000000000000000000000000000169033903090610f53565b336000908152600660205260408120426001820155600280549101805491929091610842908490611622565b9091555050600254600a805460009061085c908490611622565b909155505060025460405190815233907fa21795436a9f6a3b412fd6780f01a49907f2181e76e938496b0a41991d99b61c9060200160405180910390a26108a260018055565b565b6000828152602081905260409020600101546108bf81610f1f565b6108c98383610fba565b50505050565b6001600160a01b03811633146108f85760405163334bd91960e11b815260040160405180910390fd5b610902828261104c565b505050565b61090f610f29565b60008051602061176483398151915261092781610f1f565b3360009081526006602052604090205460ff166109565760405162461bcd60e51b81526004016105c990611635565b6005548211156109a85760405162461bcd60e51b815260206004820152601c60248201527f436c61696d20616d6f756e742065786365656473206d6178696d756d0000000060448201526064016105c9565b6109b133610550565b6109f65760405162461bcd60e51b81526020600482015260166024820152755072656d69756d206e6f7420757020746f206461746560501b60448201526064016105c9565b6040518060e00160405280336001600160a01b03168152602001838152602001600081526020016000815260200160035442610a329190611622565b81526000602080830182905260409283018290526008805483526007825291839020845181546001600160a01b039091166001600160a01b0319909116178155848201516001820155848401516002820155606085015160038201556080850151600482015560a08501516005909101805460c09096015115156101000261ff00199215159290921661ffff19909616959095171790935554905184815233927f01bc0f9d4f6b0c66e2bda5f433d9760d7eb48e89b73ffea517a7ba5e4fe0657d910160405180910390a360088054906000610b0d83611692565b919050555050610b1c60018055565b50565b600080516020611744833981519152610b3781610f1f565b6001600160a01b03821660009081526006602052604090205460ff1615610b935760405162461bcd60e51b815260206004820152601060248201526f20b63932b0b23c90309036b2b6b132b960811b60448201526064016105c9565b6001600160a01b0382166000908152600660205260408120805460ff191660011790556009805491610bc483611692565b90915550506040516001600160a01b038316907ffd8645a300811a1fef6b63545c5e56270846836d8175f40b442a5ca5f24f54c890600090a25050565b3360009081526006602052604090205460ff1615610c545760405162461bcd60e51b815260206004820152601060248201526f20b63932b0b23c90309036b2b6b132b960811b60448201526064016105c9565b60405133907f9bd57f6afb218f82d59754ec3ef81702d404e85484f3908c6a594f2a9a11627690600090a2565b600080516020611744833981519152610c9981610f1f565b50600555565b600080516020611744833981519152610cb781610f1f565b50600255565b6000918252602082815260408084206001600160a01b0393909316845291905290205460ff1690565b600080516020611744833981519152610cfe81610f1f565b612710821115610d505760405162461bcd60e51b815260206004820152601c60248201527f5468726573686f6c642063616e6e6f742065786365656420313030250000000060448201526064016105c9565b50600455565b600082815260208190526040902060010154610d7181610f1f565b6108c9838361104c565b600080516020611744833981519152610d9381610f1f565b6040516001600160a01b038316907f0b90b22de375dba732fc0ce6d299c1048a59a853896f06c35f43ea255a3c5ec990600090a25050565b600080516020611744833981519152610de381610f1f565b6000828152600760205260409020600581015460ff16158015610e1057506005810154610100900460ff16155b610e2c5760405162461bcd60e51b81526004016105c99061165b565b806003015481600201541115610e845760405162461bcd60e51b815260206004820152601a60248201527f43616e6e6f74207665746f20617070726f76656420636c61696d00000000000060448201526064016105c9565b60058101805461ff001916610100179055610e9e836110b7565b60405183907f23ab33e9709f0d90f45c3ab3ca3df8fcd62f8130acd99d3c1a70029fb5bf8b7790600090a2505050565b600080516020611744833981519152610ee681610f1f565b50600355565b610ef4610f29565b600080516020611764833981519152610f0c81610f1f565b610f15826110b7565b50610b1c60018055565b610b1c8133611320565b600260015403610f4c57604051633ee5aeb560e01b815260040160405180910390fd5b6002600155565b6040516001600160a01b0384811660248301528381166044830152606482018390526108c99186918216906323b872dd906084015b604051602081830303815290604052915060e01b6020820180516001600160e01b03838183161783525050505061135d565b6000610fc68383610cbd565b611044576000838152602081815260408083206001600160a01b03861684529091529020805460ff19166001179055610ffc3390565b6001600160a01b0316826001600160a01b0316847f2f8788117e7eff1d82e926ec794901d17c78024a50270940304540a733656f0d60405160405180910390a450600161054a565b50600061054a565b60006110588383610cbd565b15611044576000838152602081815260408083206001600160a01b0386168085529252808320805460ff1916905551339286917ff6391f5c32d9c69d2a47ea670b442974b53935d1edc7fd64eb21e047a839171b9190a450600161054a565b6110bf610f29565b600081815260076020526040902060048101544210156111215760405162461bcd60e51b815260206004820152601b60248201527f566f74696e6720706572696f6420686173206e6f7420656e646564000000000060448201526064016105c9565b600581015460ff1615801561114057506005810154610100900460ff16155b61115c5760405162461bcd60e51b81526004016105c99061165b565b6000816003015482600201546111729190611622565b9050600061271060045460095461118991906116ab565b61119391906116c2565b9050826003015483600201541180156111ac5750808210155b806111c057506005830154610100900460ff165b156112d9578260010154600a54101561121b5760405162461bcd60e51b815260206004820152601960248201527f496e73756666696369656e7420706f6f6c2062616c616e63650000000000000060448201526064016105c9565b8260010154600a600082825461123191906116e4565b909155505082546001840154611275916001600160a01b037f00000000000000000000000000000000000000000000000000000000000000008116929116906113c0565b60058301805460ff191660019081179091558354908401546040516001600160a01b039092169186917faf3c8fdd75d667f71d36d7840b8ef9086c516c9b047ad6a83a5a66151342123a916112cc91815260200190565b60405180910390a3611314565b60058301805460ff1916600117905560405184907f2aa44a1bb19392ef6a2fd220d2b1649a6dc1bebbfa2a6f2c496e2d39a3339d0e90600090a25b505050610b1c60018055565b61132a8282610cbd565b6113595760405163e2517d3f60e01b81526001600160a01b0382166004820152602481018390526044016105c9565b5050565b60006113726001600160a01b038416836113f1565b9050805160001415801561139757508080602001905181019061139591906116f7565b155b1561090257604051635274afe760e01b81526001600160a01b03841660048201526024016105c9565b6040516001600160a01b0383811660248301526044820183905261090291859182169063a9059cbb90606401610f88565b60606113ff83836000611406565b9392505050565b60608147101561142b5760405163cd78605960e01b81523060048201526024016105c9565b600080856001600160a01b031684866040516114479190611714565b60006040518083038185875af1925050503d8060008114611484576040519150601f19603f3d011682016040523d82523d6000602084013e611489565b606091505b50915091506114998683836114a3565b9695505050505050565b6060826114b8576114b3826114ff565b6113ff565b81511580156114cf57506001600160a01b0384163b155b156114f857604051639996b31560e01b81526001600160a01b03851660048201526024016105c9565b50806113ff565b80511561150f5780518082602001fd5b604051630a12f52160e11b815260040160405180910390fd5b60006020828403121561153a57600080fd5b81356001600160e01b0319811681146113ff57600080fd5b80356001600160a01b038116811461156957600080fd5b919050565b60006020828403121561158057600080fd5b6113ff82611552565b8015158114610b1c57600080fd5b600080604083850312156115aa57600080fd5b8235915060208301356115bc81611589565b809150509250929050565b6000602082840312156115d957600080fd5b5035919050565b600080604083850312156115f357600080fd5b8235915061160360208401611552565b90509250929050565b634e487b7160e01b600052601160045260246000fd5b8082018082111561054a5761054a61160c565b6020808252600c908201526b2737ba10309036b2b6b132b960a11b604082015260600190565b60208082526017908201527f436c61696d20616c72656164792070726f636573736564000000000000000000604082015260600190565b6000600182016116a4576116a461160c565b5060010190565b808202811582820484141761054a5761054a61160c565b6000826116df57634e487b7160e01b600052601260045260246000fd5b500490565b8181038181111561054a5761054a61160c565b60006020828403121561170957600080fd5b81516113ff81611589565b6000825160005b81811015611735576020818601810151858301520161171b565b50600092019182525091905056fea49807205ce4d355092ef5a8a18f56e8913cf4a201fbe287825b095693c21775829b824e2329e205435d941c9f13baf578548505283d29261236d8e6596d4636a2646970667358221220c61ae075ab15451e2d744b45553c79d23295142e1f76d6f2909988e02139421364736f6c63430008190033a2646970667358221220fb4a7bf33abeed41298afe67449dfe0334049c6dadd45010c834f0998bac4ca564736f6c63430008190033","linkReferences":{}},"methodIdentifiers":{"createMicroInsurance(address,uint256,uint256,uint256,uint256)":"46a03608"},"id":86}