{"abi":[{"type":"constructor","inputs":[{"name":"initialOwner","type":"address","internalType":"address"}],"stateMutability":"nonpayable"},{"type":"function","name":"USER_ROLE","inputs":[],"outputs":[{"name":"","type":"bytes32","internalType":"bytes32"}],"stateMutability":"view"},{"type":"function","name":"createStrategyManager","inputs":[{"name":"asset","type":"address","internalType":"contract IERC20"},{"name":"name","type":"string","internalType":"string"},{"name":"symbol","type":"string","internalType":"string"},{"name":"aaveStrategy","type":"address","internalType":"address"},{"name":"morphoStrategy","type":"address","internalType":"address"},{"name":"uniswapStrategy","type":"address","internalType":"address"},{"name":"aaveAllocation","type":"uint256","internalType":"uint256"},{"name":"morphoAllocation","type":"uint256","internalType":"uint256"},{"name":"uniswapAllocation","type":"uint256","internalType":"uint256"}],"outputs":[{"name":"","type":"address","internalType":"address"}],"stateMutability":"nonpayable"},{"type":"function","name":"owner","inputs":[],"outputs":[{"name":"","type":"address","internalType":"address"}],"stateMutability":"view"},{"type":"function","name":"renounceOwnership","inputs":[],"outputs":[],"stateMutability":"nonpayable"},{"type":"function","name":"transferOwnership","inputs":[{"name":"newOwner","type":"address","internalType":"address"}],"outputs":[],"stateMutability":"nonpayable"},{"type":"event","name":"OwnershipTransferred","inputs":[{"name":"previousOwner","type":"address","indexed":true,"internalType":"address"},{"name":"newOwner","type":"address","indexed":true,"internalType":"address"}],"anonymous":false},{"type":"event","name":"StrategyManagerCreated","inputs":[{"name":"strategyManager","type":"address","indexed":true,"internalType":"address"},{"name":"asset","type":"address","indexed":true,"internalType":"address"}],"anonymous":false},{"type":"error","name":"OwnableInvalidOwner","inputs":[{"name":"owner","type":"address","internalType":"address"}]},{"type":"error","name":"OwnableUnauthorizedAccount","inputs":[{"name":"account","type":"address","internalType":"address"}]}],"bytecode":{"object":"0x608060405234801561001057600080fd5b5060405161319238038061319283398101604081905261002f91610135565b806001600160a01b03811661005f57604051631e4fbdf760e01b8152600060048201526024015b60405180910390fd5b61006881610078565b50610072816100c8565b50610165565b600080546001600160a01b038381166001600160a01b0319831681178455604051919092169283917f8be0079c531659141344cd1fd0a4f28419497f9722a3daafe3b4186f6b6457e09190a35050565b6100d0610106565b6001600160a01b0381166100fa57604051631e4fbdf760e01b815260006004820152602401610056565b61010381610078565b50565b6000546001600160a01b031633146101335760405163118cdaa760e01b8152336004820152602401610056565b565b60006020828403121561014757600080fd5b81516001600160a01b038116811461015e57600080fd5b9392505050565b61301e806101746000396000f3fe608060405234801561001057600080fd5b50600436106100575760003560e01c8063131191611461005c578063715018a6146100845780638da5cb5b1461008e578063ea3e98c3146100b3578063f2fde38b146100c6575b600080fd5b610071600080516020612fc983398151915281565b6040519081526020015b60405180910390f35b61008c6100d9565b005b6000546001600160a01b03165b6040516001600160a01b03909116815260200161007b565b61009b6100c1366004610462565b6100ed565b61008c6100d436600461052a565b6102cd565b6100e1610310565b6100eb600061033d565b565b6000808a8a8a8a8a8a8a8a8a336040516101069061038d565b6101199a99989796959493929190610594565b604051809103906000f080158015610135573d6000803e3d6000fd5b50604051632f2ff15d60e01b8152600080516020612fc983398151915260048201526001600160a01b03808316602483015291925090891690632f2ff15d90604401600060405180830381600087803b15801561019157600080fd5b505af11580156101a5573d6000803e3d6000fd5b5050604051632f2ff15d60e01b8152600080516020612fc983398151915260048201526001600160a01b0384811660248301528a169250632f2ff15d9150604401600060405180830381600087803b15801561020057600080fd5b505af1158015610214573d6000803e3d6000fd5b5050604051632f2ff15d60e01b8152600080516020612fc983398151915260048201526001600160a01b03848116602483015289169250632f2ff15d9150604401600060405180830381600087803b15801561026f57600080fd5b505af1158015610283573d6000803e3d6000fd5b50506040516001600160a01b03808f169350841691507f8b8a26c8d2f2954e5206d75634d586a507369e8dffeb56f76c2097d83477328a90600090a39a9950505050505050505050565b6102d5610310565b6001600160a01b03811661030457604051631e4fbdf760e01b8152600060048201526024015b60405180910390fd5b61030d8161033d565b50565b6000546001600160a01b031633146100eb5760405163118cdaa760e01b81523360048201526024016102fb565b600080546001600160a01b038381166001600160a01b0319831681178455604051919092169283917f8be0079c531659141344cd1fd0a4f28419497f9722a3daafe3b4186f6b6457e09190a35050565b6129b98061061083390190565b6001600160a01b038116811461030d57600080fd5b634e487b7160e01b600052604160045260246000fd5b600082601f8301126103d657600080fd5b813567ffffffffffffffff808211156103f1576103f16103af565b604051601f8301601f19908116603f01168101908282118183101715610419576104196103af565b8160405283815286602085880101111561043257600080fd5b836020870160208301376000602085830101528094505050505092915050565b803561045d8161039a565b919050565b60008060008060008060008060006101208a8c03121561048157600080fd5b893561048c8161039a565b985060208a013567ffffffffffffffff808211156104a957600080fd5b6104b58d838e016103c5565b995060408c01359150808211156104cb57600080fd5b506104d88c828d016103c5565b97505060608a01356104e98161039a565b95506104f760808b01610452565b945061050560a08b01610452565b935060c08a0135925060e08a013591506101008a013590509295985092959850929598565b60006020828403121561053c57600080fd5b81356105478161039a565b9392505050565b6000815180845260005b8181101561057457602081850181015186830182015201610558565b506000602082860101526020601f19601f83011685010191505092915050565b6001600160a01b038b81168252610140602083018190526000916105ba8483018e61054e565b915083820360408501526105ce828d61054e565b9a811660608501529889166080840152505094861660a086015260c085019390935260e084019190915261010083015290911661012090910152939250505056fe60c060405234801561001057600080fd5b506040516129b93803806129b983398101604081905261002f91610396565b808a8a8a600361003f83826104f7565b50600461004c82826104f7565b5050506000806100618361011e60201b60201c565b9150915081610071576012610073565b805b60ff1660a05250506001600160a01b0390811660805281166100b057604051631e4fbdf760e01b8152600060048201526024015b60405180910390fd5b6100b9816101fa565b506001600655600780546001600160a01b03808a166001600160a01b0319928316179092556008805489841690831617905560098054928816929091169190911790556101058161024c565b50600a92909255600b55600c55506105eb945050505050565b60408051600481526024810182526020810180516001600160e01b031663313ce56760e01b17905290516000918291829182916001600160a01b03871691610165916105b6565b600060405180830381855afa9150503d80600081146101a0576040519150601f19603f3d011682016040523d82523d6000602084013e6101a5565b606091505b50915091508180156101b957506020815110155b156101ed576000818060200190518101906101d491906105d2565b905060ff81116101eb576001969095509350505050565b505b5060009485945092505050565b600580546001600160a01b038381166001600160a01b0319831681179093556040519116919082907f8be0079c531659141344cd1fd0a4f28419497f9722a3daafe3b4186f6b6457e090600090a35050565b61025461028a565b6001600160a01b03811661027e57604051631e4fbdf760e01b8152600060048201526024016100a7565b610287816101fa565b50565b6005546001600160a01b031633146102b75760405163118cdaa760e01b81523360048201526024016100a7565b565b80516001600160a01b03811681146102d057600080fd5b919050565b634e487b7160e01b600052604160045260246000fd5b60005b838110156103065781810151838201526020016102ee565b50506000910152565b600082601f83011261032057600080fd5b81516001600160401b038082111561033a5761033a6102d5565b604051601f8301601f19908116603f01168101908282118183101715610362576103626102d5565b8160405283815286602085880101111561037b57600080fd5b61038c8460208301602089016102eb565b9695505050505050565b6000806000806000806000806000806101408b8d0312156103b657600080fd5b6103bf8b6102b9565b60208c0151909a506001600160401b03808211156103dc57600080fd5b6103e88e838f0161030f565b9a5060408d01519150808211156103fe57600080fd5b5061040b8d828e0161030f565b98505061041a60608c016102b9565b965061042860808c016102b9565b955061043660a08c016102b9565b945060c08b0151935060e08b015192506101008b0151915061045b6101208c016102b9565b90509295989b9194979a5092959850565b600181811c9082168061048057607f821691505b6020821081036104a057634e487b7160e01b600052602260045260246000fd5b50919050565b601f8211156104f2576000816000526020600020601f850160051c810160208610156104cf5750805b601f850160051c820191505b818110156104ee578281556001016104db565b5050505b505050565b81516001600160401b03811115610510576105106102d5565b6105248161051e845461046c565b846104a6565b602080601f83116001811461055957600084156105415750858301515b600019600386901b1c1916600185901b1785556104ee565b600085815260208120601f198616915b8281101561058857888601518255948401946001909101908401610569565b50858210156105a65787850151600019600388901b60f8161c191681555b5050505050600190811b01905550565b600082516105c88184602087016102eb565b9190910192915050565b6000602082840312156105e457600080fd5b5051919050565b60805160a051612363610656600039600061060d01526000818161033e0152818161098301528181610b4e01528181610c9e01528181610d9b01528181610e980152818161129b015281816113980152818161149501528181611a300152611ae201526123636000f3fe608060405234801561001057600080fd5b506004361061023d5760003560e01c806385504fce1161013b578063c63d75b6116100b8578063d905777e1161007c578063d905777e146104a3578063dd62ed3e146104b6578063ef8b30f714610462578063f2fde38b146104ef578063fda277361461050257600080fd5b8063c63d75b61461036b578063c6e6f59214610462578063cd2b882814610475578063ce96cb771461047d578063d8ec9c671461049057600080fd5b806395d89b41116100ff57806395d89b411461040e578063a9059cbb14610416578063b3d7f6b914610429578063b460af941461043c578063ba0876521461044f57600080fd5b806385504fce146103c65780638da5cb5b146103cf5780638e57fd9d146103e057806394722c93146103e857806394bf804d146103fb57600080fd5b806323b872dd116101c9578063402d267d1161018d578063402d267d1461036b5780634cdad5061461026e5780636e553f651461038057806370a0823114610393578063715018a6146103bc57600080fd5b806323b872dd146102fc57806325e68ca11461030f578063313ce5671461032257806338d52e0f1461033c5780633ddf22a61461036257600080fd5b80630a28a477116102105780630a28a477146102a45780630dc2187d146102b75780631738e42d146102e257806318160ddd146102eb5780631a704dca146102f357600080fd5b806301e1d1141461024257806306fdde031461025957806307a2d13a1461026e578063095ea7b314610281575b600080fd5b600d545b6040519081526020015b60405180910390f35b610261610515565b6040516102509190611ee7565b61024661027c366004611f1a565b6105a7565b61029461028f366004611f4f565b6105ba565b6040519015158152602001610250565b6102466102b2366004611f1a565b6105d2565b6009546102ca906001600160a01b031681565b6040516001600160a01b039091168152602001610250565b610246600d5481565b600254610246565b610246600a5481565b61029461030a366004611f79565b6105df565b6008546102ca906001600160a01b031681565b61032a610605565b60405160ff9091168152602001610250565b7f00000000000000000000000000000000000000000000000000000000000000006102ca565b610246600c5481565b610246610379366004611fb5565b5060001990565b61024661038e366004611fd0565b610636565b6102466103a1366004611fb5565b6001600160a01b031660009081526020819052604090205490565b6103c461066a565b005b610246600b5481565b6005546001600160a01b03166102ca565b61024661067e565b6103c46103f6366004611ffc565b6107ee565b610246610409366004611fd0565b61087b565b610261610899565b610294610424366004611f4f565b6108a8565b610246610437366004611f1a565b6108b6565b61024661044a36600461203f565b6108c3565b61024661045d36600461203f565b61091b565b610246610470366004611f1a565b61096a565b6103c4610977565b61024661048b366004611fb5565b610f9d565b6007546102ca906001600160a01b031681565b6102466104b1366004611fb5565b610fc1565b6102466104c4366004612064565b6001600160a01b03918216600090815260016020908152604080832093909416825291909152205490565b6103c46104fd366004611fb5565b610fdf565b6103c461051036600461208e565b61101d565b606060038054610524906120ba565b80601f0160208091040260200160405190810160405280929190818152602001828054610550906120ba565b801561059d5780601f106105725761010080835404028352916020019161059d565b820191906000526020600020905b81548152906001019060200180831161058057829003601f168201915b5050505050905090565b60006105b48260006110d7565b92915050565b6000336105c8818585611112565b5060019392505050565b60006105b4826001611124565b6000336105ed85828561114f565b6105f88585856111ba565b60019150505b9392505050565b6000610631817f000000000000000000000000000000000000000000000000000000000000000061210a565b905090565b6000600019610649565b60405180910390fd5b60006106548561096a565b905061066233858784611219565b949350505050565b610672611593565b61067c60006115c0565b565b600954604080516332a9922d60e21b815290516000926001600160a01b03169163caa648b49160048083019260209291908290030181865afa1580156106c8573d6000803e3d6000fd5b505050506040513d601f19601f820116820180604052508101906106ec9190612144565b600860009054906101000a90046001600160a01b03166001600160a01b031663caa648b46040518163ffffffff1660e01b8152600401602060405180830381865afa15801561073f573d6000803e3d6000fd5b505050506040513d601f19601f820116820180604052508101906107639190612144565b600760009054906101000a90046001600160a01b03166001600160a01b031663caa648b46040518163ffffffff1660e01b8152600401602060405180830381865afa1580156107b6573d6000803e3d6000fd5b505050506040513d601f19601f820116820180604052508101906107da9190612144565b6107e4919061215d565b610631919061215d565b6107f6611593565b600780546001600160a01b038581166001600160a01b0319928316811790935560088054868316908416811790915560098054928616929093168217909255604080519384526020840192909252908201527f8d993b4a8f00104f38a4544259a84e84eb742a26372556348105d8a615baba89906060015b60405180910390a1505050565b6000600019600061088b856108b6565b905061066233858388611219565b606060048054610524906120ba565b6000336105c88185856111ba565b60006105b48260016110d7565b6000806108cf83610f9d565b9050808511156108f857828582604051633fa733bb60e21b815260040161064093929190612123565b6000610903866105d2565b90506109123386868985611612565b95945050505050565b60008061092783610fc1565b90508085111561095057828582604051632e52afbb60e21b815260040161064093929190612123565b600061095b866105a7565b9050610912338686848a611612565b60006105b4826000611124565b61097f6117c6565b60007f00000000000000000000000000000000000000000000000000000000000000006040516370a0823160e01b81523060048201526001600160a01b0391909116906370a0823190602401602060405180830381865afa1580156109e8573d6000803e3d6000fd5b505050506040513d601f19601f82011682018060405250810190610a0c9190612144565b9050600760009054906101000a90046001600160a01b03166001600160a01b031663e8d991d16040518163ffffffff1660e01b8152600401600060405180830381600087803b158015610a5e57600080fd5b505af1158015610a72573d6000803e3d6000fd5b50505050600860009054906101000a90046001600160a01b03166001600160a01b031663e8d991d16040518163ffffffff1660e01b8152600401600060405180830381600087803b158015610ac657600080fd5b505af1158015610ada573d6000803e3d6000fd5b50505050600960009054906101000a90046001600160a01b03166001600160a01b031663e8d991d16040518163ffffffff1660e01b8152600401600060405180830381600087803b158015610b2e57600080fd5b505af1158015610b42573d6000803e3d6000fd5b50505050600081610b707f000000000000000000000000000000000000000000000000000000000000000090565b6040516370a0823160e01b81523060048201526001600160a01b0391909116906370a0823190602401602060405180830381865afa158015610bb6573d6000803e3d6000fd5b505050506040513d601f19601f82011682018060405250810190610bda9190612144565b610be49190612170565b905060008111610bf5575050610f93565b80600d6000828254610c07919061215d565b90915550506040518181527feb2d114a827fe0da3db4c0e374010959cf461f7ed76987aeff51666dea9add9b9060200160405180910390a16000612710600a5483610c529190612183565b610c5c91906121b0565b90506000612710600b5484610c719190612183565b610c7b91906121b0565b9050600081610c8a8486612170565b610c949190612170565b90508215610d93577f000000000000000000000000000000000000000000000000000000000000000060075460405163095ea7b360e01b81526001600160a01b0391821660048201526024810186905291169063095ea7b3906044016020604051808303816000875af1158015610d0f573d6000803e3d6000fd5b505050506040513d601f19601f82011682018060405250810190610d3391906121c4565b5060075460405163b6b55f2560e01b8152600481018590526001600160a01b039091169063b6b55f2590602401600060405180830381600087803b158015610d7a57600080fd5b505af1158015610d8e573d6000803e3d6000fd5b505050505b8115610e90577f000000000000000000000000000000000000000000000000000000000000000060085460405163095ea7b360e01b81526001600160a01b0391821660048201526024810185905291169063095ea7b3906044016020604051808303816000875af1158015610e0c573d6000803e3d6000fd5b505050506040513d601f19601f82011682018060405250810190610e3091906121c4565b5060085460405163b6b55f2560e01b8152600481018490526001600160a01b039091169063b6b55f2590602401600060405180830381600087803b158015610e7757600080fd5b505af1158015610e8b573d6000803e3d6000fd5b505050505b8015610f8d577f000000000000000000000000000000000000000000000000000000000000000060095460405163095ea7b360e01b81526001600160a01b0391821660048201526024810184905291169063095ea7b3906044016020604051808303816000875af1158015610f09573d6000803e3d6000fd5b505050506040513d601f19601f82011682018060405250810190610f2d91906121c4565b5060095460405163b6b55f2560e01b8152600481018390526001600160a01b039091169063b6b55f2590602401600060405180830381600087803b158015610f7457600080fd5b505af1158015610f88573d6000803e3d6000fd5b505050505b50505050505b61067c6001600655565b6001600160a01b0381166000908152602081905260408120546105b49060006110d7565b6001600160a01b0381166000908152602081905260408120546105b4565b610fe7611593565b6001600160a01b03811661101157604051631e4fbdf760e01b815260006004820152602401610640565b61101a816115c0565b50565b611025611593565b80611030838561215d565b61103a919061215d565b6127101461108a5760405162461bcd60e51b815260206004820152601c60248201527f416c6c6f636174696f6e73206d7573742073756d20746f2031303025000000006044820152606401610640565b600a839055600b829055600c81905560408051848152602081018490529081018290527f7ac4f85230181c33e38028a62708509dcfe21b74e6305253b01d63ca3c28602d9060600161086e565b60006105fe6110e5600d5490565b6110f090600161215d565b6110fc6000600a6122ca565b600254611109919061215d565b859190856117f0565b61111f838383600161183f565b505050565b60006105fe61113482600a6122ca565b600254611141919061215d565b600d5461110990600161215d565b6001600160a01b0383811660009081526001602090815260408083209386168352929052205460001981146111b457818110156111a557828183604051637dc7a0d960e11b815260040161064093929190612123565b6111b48484848403600061183f565b50505050565b6001600160a01b0383166111e457604051634b637e8f60e11b815260006004820152602401610640565b6001600160a01b03821661120e5760405163ec442f0560e01b815260006004820152602401610640565b61111f838383611914565b61122584848484611a2b565b6000612710600a54846112389190612183565b61124291906121b0565b90506000612710600b54856112579190612183565b61126191906121b0565b90506000816112708487612170565b61127a9190612170565b905084600d600082825461128e919061215d565b90915550508215611390577f000000000000000000000000000000000000000000000000000000000000000060075460405163095ea7b360e01b81526001600160a01b0391821660048201526024810186905291169063095ea7b3906044016020604051808303816000875af115801561130c573d6000803e3d6000fd5b505050506040513d601f19601f8201168201806040525081019061133091906121c4565b5060075460405163b6b55f2560e01b8152600481018590526001600160a01b039091169063b6b55f2590602401600060405180830381600087803b15801561137757600080fd5b505af115801561138b573d6000803e3d6000fd5b505050505b811561148d577f000000000000000000000000000000000000000000000000000000000000000060085460405163095ea7b360e01b81526001600160a01b0391821660048201526024810185905291169063095ea7b3906044016020604051808303816000875af1158015611409573d6000803e3d6000fd5b505050506040513d601f19601f8201168201806040525081019061142d91906121c4565b5060085460405163b6b55f2560e01b8152600481018490526001600160a01b039091169063b6b55f2590602401600060405180830381600087803b15801561147457600080fd5b505af1158015611488573d6000803e3d6000fd5b505050505b801561158a577f000000000000000000000000000000000000000000000000000000000000000060095460405163095ea7b360e01b81526001600160a01b0391821660048201526024810184905291169063095ea7b3906044016020604051808303816000875af1158015611506573d6000803e3d6000fd5b505050506040513d601f19601f8201168201806040525081019061152a91906121c4565b5060095460405163b6b55f2560e01b8152600481018390526001600160a01b039091169063b6b55f2590602401600060405180830381600087803b15801561157157600080fd5b505af1158015611585573d6000803e3d6000fd5b505050505b50505050505050565b6005546001600160a01b0316331461067c5760405163118cdaa760e01b8152336004820152602401610640565b600580546001600160a01b038381166001600160a01b0319831681179093556040519116919082907f8be0079c531659141344cd1fd0a4f28419497f9722a3daafe3b4186f6b6457e090600090a35050565b61161f8585858585611aaf565b6000612710600a54846116329190612183565b61163c91906121b0565b90506000612710600b54856116519190612183565b61165b91906121b0565b905060008161166a8487612170565b6116749190612170565b905084600d6000828254611688919061215d565b909155505082156116f257600754604051632e1a7d4d60e01b8152600481018590526001600160a01b0390911690632e1a7d4d90602401600060405180830381600087803b1580156116d957600080fd5b505af11580156116ed573d6000803e3d6000fd5b505050505b811561175757600854604051632e1a7d4d60e01b8152600481018490526001600160a01b0390911690632e1a7d4d90602401600060405180830381600087803b15801561173e57600080fd5b505af1158015611752573d6000803e3d6000fd5b505050505b80156117bc57600954604051632e1a7d4d60e01b8152600481018390526001600160a01b0390911690632e1a7d4d90602401600060405180830381600087803b1580156117a357600080fd5b505af11580156117b7573d6000803e3d6000fd5b505050505b5050505050505050565b6002600654036117e957604051633ee5aeb560e01b815260040160405180910390fd5b6002600655565b6000806117fe868686611b6f565b905061180983611c33565b80156118255750600084806118205761182061219a565b868809115b156109125761183560018261215d565b9695505050505050565b6001600160a01b0384166118695760405163e602df0560e01b815260006004820152602401610640565b6001600160a01b03831661189357604051634a1406b160e11b815260006004820152602401610640565b6001600160a01b03808516600090815260016020908152604080832093871683529290522082905580156111b457826001600160a01b0316846001600160a01b03167f8c5be1e5ebec7d5bd14f71427d1e84f3dd0314c0f7b2291e5b200ac8c7c3b9258460405161190691815260200190565b60405180910390a350505050565b6001600160a01b03831661193f578060026000828254611934919061215d565b9091555061199e9050565b6001600160a01b0383166000908152602081905260409020548181101561197f5783818360405163391434e360e21b815260040161064093929190612123565b6001600160a01b03841660009081526020819052604090209082900390555b6001600160a01b0382166119ba576002805482900390556119d9565b6001600160a01b03821660009081526020819052604090208054820190555b816001600160a01b0316836001600160a01b03167fddf252ad1be2c89b69c2b068fc378daa952ba7f163c4a11628f55a4df523b3ef83604051611a1e91815260200190565b60405180910390a3505050565b611a577f0000000000000000000000000000000000000000000000000000000000000000853085611c60565b611a618382611cc7565b826001600160a01b0316846001600160a01b03167fdcbc1c05240f31ff3ad067ef1ee35ce4997762752e3a095284754544f4c709d78484604051611906929190918252602082015260400190565b826001600160a01b0316856001600160a01b031614611ad357611ad383868361114f565b611add8382611d01565b611b087f00000000000000000000000000000000000000000000000000000000000000008584611d37565b826001600160a01b0316846001600160a01b0316866001600160a01b03167ffbde797d201c681b91056529119e0b02407c7bb96a4a2c75c01fc9667232c8db8585604051611b60929190918252602082015260400190565b60405180910390a45050505050565b6000838302816000198587098281108382030391505080600003611ba657838281611b9c57611b9c61219a565b04925050506105fe565b808411611bc65760405163227bc15360e01b815260040160405180910390fd5b6000848688096000868103871696879004966002600389028118808a02820302808a02820302808a02820302808a02820302808a02820302808a02909103029181900381900460010186841190950394909402919094039290920491909117919091029150509392505050565b60006002826003811115611c4957611c496122d9565b611c5391906122ef565b60ff166001149050919050565b6040516001600160a01b0384811660248301528381166044830152606482018390526111b49186918216906323b872dd906084015b604051602081830303815290604052915060e01b6020820180516001600160e01b038381831617835250505050611d68565b6001600160a01b038216611cf15760405163ec442f0560e01b815260006004820152602401610640565b611cfd60008383611914565b5050565b6001600160a01b038216611d2b57604051634b637e8f60e11b815260006004820152602401610640565b611cfd82600083611914565b6040516001600160a01b0383811660248301526044820183905261111f91859182169063a9059cbb90606401611c95565b6000611d7d6001600160a01b03841683611dcb565b90508051600014158015611da2575080806020019051810190611da091906121c4565b155b1561111f57604051635274afe760e01b81526001600160a01b0384166004820152602401610640565b60606105fe8383600084600080856001600160a01b03168486604051611df19190612311565b60006040518083038185875af1925050503d8060008114611e2e576040519150601f19603f3d011682016040523d82523d6000602084013e611e33565b606091505b5091509150611835868383606082611e5357611e4e82611e9a565b6105fe565b8151158015611e6a57506001600160a01b0384163b155b15611e9357604051639996b31560e01b81526001600160a01b0385166004820152602401610640565b50806105fe565b805115611eaa5780518082602001fd5b604051630a12f52160e11b815260040160405180910390fd5b60005b83811015611ede578181015183820152602001611ec6565b50506000910152565b6020815260008251806020840152611f06816040850160208701611ec3565b601f01601f19169190910160400192915050565b600060208284031215611f2c57600080fd5b5035919050565b80356001600160a01b0381168114611f4a57600080fd5b919050565b60008060408385031215611f6257600080fd5b611f6b83611f33565b946020939093013593505050565b600080600060608486031215611f8e57600080fd5b611f9784611f33565b9250611fa560208501611f33565b9150604084013590509250925092565b600060208284031215611fc757600080fd5b6105fe82611f33565b60008060408385031215611fe357600080fd5b82359150611ff360208401611f33565b90509250929050565b60008060006060848603121561201157600080fd5b61201a84611f33565b925061202860208501611f33565b915061203660408501611f33565b90509250925092565b60008060006060848603121561205457600080fd5b8335925061202860208501611f33565b6000806040838503121561207757600080fd5b61208083611f33565b9150611ff360208401611f33565b6000806000606084860312156120a357600080fd5b505081359360208301359350604090920135919050565b600181811c908216806120ce57607f821691505b6020821081036120ee57634e487b7160e01b600052602260045260246000fd5b50919050565b634e487b7160e01b600052601160045260246000fd5b60ff81811683821601908111156105b4576105b46120f4565b6001600160a01b039390931683526020830191909152604082015260600190565b60006020828403121561215657600080fd5b5051919050565b808201808211156105b4576105b46120f4565b818103818111156105b4576105b46120f4565b80820281158282048414176105b4576105b46120f4565b634e487b7160e01b600052601260045260246000fd5b6000826121bf576121bf61219a565b500490565b6000602082840312156121d657600080fd5b815180151581146105fe57600080fd5b600181815b80851115612221578160001904821115612207576122076120f4565b8085161561221457918102915b93841c93908002906121eb565b509250929050565b600082612238575060016105b4565b81612245575060006105b4565b816001811461225b576002811461226557612281565b60019150506105b4565b60ff841115612276576122766120f4565b50506001821b6105b4565b5060208310610133831016604e8410600b84101617156122a4575081810a6105b4565b6122ae83836121e6565b80600019048211156122c2576122c26120f4565b029392505050565b60006105fe60ff841683612229565b634e487b7160e01b600052602160045260246000fd5b600060ff8316806123025761230261219a565b8060ff84160691505092915050565b60008251612323818460208701611ec3565b919091019291505056fea2646970667358221220818c4887de1f330291e8fd256d7917e5217cda070a77dad2bd8221dcebbb363764736f6c6343000819003314823911f2da1b49f045a0929a60b8c1f2a7fc8c06c7284ca3e8ab4e193a08c8a26469706673582212201ccc9e0212190a311b1186d46cdda7259368a3067c7476a385639090aae2ce6864736f6c63430008190033","linkReferences":{}},"methodIdentifiers":{"USER_ROLE()":"13119161","createStrategyManager(address,string,string,address,address,address,uint256,uint256,uint256)":"ea3e98c3","owner()":"8da5cb5b","renounceOwnership()":"715018a6","transferOwnership(address)":"f2fde38b"},"id":88}