{"abi":[{"type":"constructor","inputs":[{"name":"_creator","type":"address","internalType":"address"},{"name":"_recipient","type":"address","internalType":"address"},{"name":"_acceptedTokens","type":"address[]","internalType":"address[]"},{"name":"_unlockTime","type":"uint256","internalType":"uint256"},{"name":"_kintoIDAddress","type":"address","internalType":"address"}],"stateMutability":"nonpayable"},{"type":"function","name":"acceptedTokens","inputs":[{"name":"","type":"uint256","internalType":"uint256"}],"outputs":[{"name":"","type":"address","internalType":"address"}],"stateMutability":"view"},{"type":"function","name":"autoSave","inputs":[{"name":"_amount","type":"uint256","internalType":"uint256"}],"outputs":[],"stateMutability":"nonpayable"},{"type":"function","name":"autoSaveEnabled","inputs":[],"outputs":[{"name":"","type":"bool","internalType":"bool"}],"stateMutability":"view"},{"type":"function","name":"creator","inputs":[],"outputs":[{"name":"","type":"address","internalType":"address"}],"stateMutability":"view"},{"type":"function","name":"defaultToken","inputs":[],"outputs":[{"name":"","type":"address","internalType":"address"}],"stateMutability":"view"},{"type":"function","name":"deposit","inputs":[{"name":"_token","type":"address","internalType":"address"},{"name":"_amount","type":"uint256","internalType":"uint256"}],"outputs":[],"stateMutability":"nonpayable"},{"type":"function","name":"getAcceptedTokens","inputs":[],"outputs":[{"name":"","type":"address[]","internalType":"address[]"}],"stateMutability":"view"},{"type":"function","name":"getBalance","inputs":[{"name":"_token","type":"address","internalType":"address"}],"outputs":[{"name":"","type":"uint256","internalType":"uint256"}],"stateMutability":"view"},{"type":"function","name":"isTokenAccepted","inputs":[{"name":"","type":"address","internalType":"address"}],"outputs":[{"name":"","type":"bool","internalType":"bool"}],"stateMutability":"view"},{"type":"function","name":"kintoID","inputs":[],"outputs":[{"name":"","type":"address","internalType":"contract IKintoID"}],"stateMutability":"view"},{"type":"function","name":"operator","inputs":[],"outputs":[{"name":"","type":"address","internalType":"address"}],"stateMutability":"view"},{"type":"function","name":"owner","inputs":[],"outputs":[{"name":"","type":"address","internalType":"address"}],"stateMutability":"view"},{"type":"function","name":"recipient","inputs":[],"outputs":[{"name":"","type":"address","internalType":"address"}],"stateMutability":"view"},{"type":"function","name":"recipientChanged","inputs":[],"outputs":[{"name":"","type":"bool","internalType":"bool"}],"stateMutability":"view"},{"type":"function","name":"renounceOwnership","inputs":[],"outputs":[],"stateMutability":"nonpayable"},{"type":"function","name":"savingsCompatible","inputs":[],"outputs":[{"name":"","type":"bool","internalType":"bool"}],"stateMutability":"pure"},{"type":"function","name":"setRecipient","inputs":[{"name":"_newRecipient","type":"address","internalType":"address"}],"outputs":[],"stateMutability":"nonpayable"},{"type":"function","name":"toggleAutoSave","inputs":[{"name":"_enabled","type":"bool","internalType":"bool"},{"name":"_defaultToken","type":"address","internalType":"address"},{"name":"_operator","type":"address","internalType":"address"}],"outputs":[],"stateMutability":"nonpayable"},{"type":"function","name":"tokenSavings","inputs":[{"name":"","type":"address","internalType":"address"}],"outputs":[{"name":"","type":"uint256","internalType":"uint256"}],"stateMutability":"view"},{"type":"function","name":"transferOwnership","inputs":[{"name":"newOwner","type":"address","internalType":"address"}],"outputs":[],"stateMutability":"nonpayable"},{"type":"function","name":"unlockTime","inputs":[],"outputs":[{"name":"","type":"uint256","internalType":"uint256"}],"stateMutability":"view"},{"type":"function","name":"withdraw","inputs":[{"name":"_token","type":"address","internalType":"address"}],"outputs":[],"stateMutability":"nonpayable"},{"type":"function","name":"withdraw","inputs":[{"name":"_token","type":"address","internalType":"address"},{"name":"_amount","type":"uint256","internalType":"uint256"}],"outputs":[],"stateMutability":"nonpayable"},{"type":"event","name":"AutoSaveToggled","inputs":[{"name":"enabled","type":"bool","indexed":false,"internalType":"bool"},{"name":"defaultToken","type":"address","indexed":false,"internalType":"address"},{"name":"operator","type":"address","indexed":false,"internalType":"address"}],"anonymous":false},{"type":"event","name":"Deposit","inputs":[{"name":"user","type":"address","indexed":true,"internalType":"address"},{"name":"token","type":"address","indexed":true,"internalType":"address"},{"name":"amount","type":"uint256","indexed":false,"internalType":"uint256"}],"anonymous":false},{"type":"event","name":"FundsWithdrawn","inputs":[{"name":"recipient","type":"address","indexed":true,"internalType":"address"},{"name":"token","type":"address","indexed":true,"internalType":"address"},{"name":"amount","type":"uint256","indexed":false,"internalType":"uint256"}],"anonymous":false},{"type":"event","name":"OwnershipTransferred","inputs":[{"name":"previousOwner","type":"address","indexed":true,"internalType":"address"},{"name":"newOwner","type":"address","indexed":true,"internalType":"address"}],"anonymous":false},{"type":"event","name":"RecipientChanged","inputs":[{"name":"oldRecipient","type":"address","indexed":true,"internalType":"address"},{"name":"newRecipient","type":"address","indexed":true,"internalType":"address"}],"anonymous":false},{"type":"event","name":"Withdraw","inputs":[{"name":"user","type":"address","indexed":true,"internalType":"address"},{"name":"token","type":"address","indexed":true,"internalType":"address"},{"name":"amount","type":"uint256","indexed":false,"internalType":"uint256"}],"anonymous":false},{"type":"error","name":"AddressEmptyCode","inputs":[{"name":"target","type":"address","internalType":"address"}]},{"type":"error","name":"AddressInsufficientBalance","inputs":[{"name":"account","type":"address","internalType":"address"}]},{"type":"error","name":"FailedInnerCall","inputs":[]},{"type":"error","name":"OwnableInvalidOwner","inputs":[{"name":"owner","type":"address","internalType":"address"}]},{"type":"error","name":"OwnableUnauthorizedAccount","inputs":[{"name":"account","type":"address","internalType":"address"}]},{"type":"error","name":"ReentrancyGuardReentrantCall","inputs":[]},{"type":"error","name":"SafeERC20FailedOperation","inputs":[{"name":"token","type":"address","internalType":"address"}]}],"bytecode":{"object":"0x60e060405234801561001057600080fd5b5060405161165c38038061165c83398101604081905261002f91610396565b848484848382816001600160a01b03811661006557604051631e4fbdf760e01b8152600060048201526024015b60405180910390fd5b61006e816101f2565b506001805560005b81518110156100af576100a782828151811061009457610094610499565b602002602001015161024260201b60201c565b600101610076565b505050826001600160a01b0316846001600160a01b0316036101135760405162461bcd60e51b815260206004820152601b60248201527f43726561746f722063616e6e6f7420626520726563697069656e740000000000604482015260640161005c565b4281116101625760405162461bcd60e51b815260206004820152601a60248201527f756e6c6f636b2074696d6520697320696e207468652070617374000000000000604482015260640161005c565b6001600160a01b039384166080526007805460a0929092529284166001600160a81b0319909116179091555081166101dc5760405162461bcd60e51b815260206004820152601760248201527f496e76616c6964204b696e746f49442061646472657373000000000000000000604482015260640161005c565b6001600160a01b031660c052506104af92505050565b600080546001600160a01b038381166001600160a01b0319831681178455604051919092169283917f8be0079c531659141344cd1fd0a4f28419497f9722a3daafe3b4186f6b6457e09190a35050565b6001600160a01b03811660009081526006602052604090205460ff16156102ab5760405162461bcd60e51b815260206004820152601660248201527f546f6b656e20616c726561647920616363657074656400000000000000000000604482015260640161005c565b6005546020116102fd5760405162461bcd60e51b815260206004820152601b60248201527f4d6178696d756d20746f6b656e206c696d697420726561636865640000000000604482015260640161005c565b6005805460018181019092557f036b6384b5eca791c62761152d0c79bb0604c104a5fb6f4eb0703f3154bb3db00180546001600160a01b039093166001600160a01b031990931683179055600091825260066020526040909120805460ff19169091179055565b80516001600160a01b038116811461037b57600080fd5b919050565b634e487b7160e01b600052604160045260246000fd5b600080600080600060a086880312156103ae57600080fd5b6103b786610364565b945060206103c6818801610364565b60408801519095506001600160401b03808211156103e357600080fd5b818901915089601f8301126103f757600080fd5b81518181111561040957610409610380565b8060051b604051601f19603f8301168101818110858211171561042e5761042e610380565b60405291825284820192508381018501918c83111561044c57600080fd5b938501935b828510156104715761046285610364565b84529385019392850192610451565b8098505050505050506060860151915061048d60808701610364565b90509295509295909350565b634e487b7160e01b600052603260045260246000fd5b60805160a05160c0516111696104f36000396000818161030401526108bc0152600081816101fc0152610bf701526000818161015701526106c901526111696000f3fe608060405234801561001057600080fd5b506004361061014d5760003560e01c806366d003ac116100c357806399a6cddd1161007c57806399a6cddd146102ff578063a622752114610326578063a68947df14610339578063f2fde38b1461034d578063f3fef3a314610360578063f8b2cb4f1461037357600080fd5b806366d003ac146102ac578063715018a6146102bf57806374c13fda146102c757806381684db5146102da57806384bfd0df146102e75780638da5cb5b146102ee57600080fd5b806332469ffe1161011557806332469ffe1461023357806336c87754146102485780633bbed4a01461025b57806347e7ef241461026e57806351cff8d914610281578063570ca7351461029457600080fd5b806302d05d3f146101525780630560bd961461019657806318a029cf146101c9578063251c1aa3146101f75780632f7570061461021e575b600080fd5b6101797f000000000000000000000000000000000000000000000000000000000000000081565b6040516001600160a01b0390911681526020015b60405180910390f35b6101b96101a4366004610f9c565b60066020526000908152604090205460ff1681565b604051901515815260200161018d565b6101e96101d7366004610f9c565b60046020526000908152604090205481565b60405190815260200161018d565b6101e97f000000000000000000000000000000000000000000000000000000000000000081565b61022661039c565b60405161018d9190610fb7565b610246610241366004611004565b6103fe565b005b610179610256366004611004565b6105c1565b610246610269366004610f9c565b6105eb565b61024661027c36600461101d565b610798565b61024661028f366004610f9c565b6108a7565b6002546101799061010090046001600160a01b031681565b600754610179906001600160a01b031681565b610246610973565b600354610179906001600160a01b031681565b6002546101b99060ff1681565b60016101b9565b6000546001600160a01b0316610179565b6101797f000000000000000000000000000000000000000000000000000000000000000081565b610246610334366004611055565b610987565b6007546101b990600160a01b900460ff1681565b61024661035b366004610f9c565b610a5b565b61024661036e36600461101d565b610a96565b6101e9610381366004610f9c565b6001600160a01b031660009081526004602052604090205490565b606060058054806020026020016040519081016040528092919081815260200182805480156103f457602002820191906000526020600020905b81546001600160a01b031681526001909101906020018083116103d6575b5050505050905090565b60025461010090046001600160a01b031633146104535760405162461bcd60e51b815260206004820152600e60248201526d139bdd08185d5d1a1bdc9a5e995960921b60448201526064015b60405180910390fd5b61045b610ad7565b60025460ff166104ad5760405162461bcd60e51b815260206004820152601860248201527f4175746f2d73617665206973206e6f7420656e61626c65640000000000000000604482015260640161044a565b600081116104fd5760405162461bcd60e51b815260206004820152601d60248201527f416d6f756e74206d7573742062652067726561746572207468616e2030000000604482015260640161044a565b6105266105126000546001600160a01b031690565b6003546001600160a01b0316903084610b01565b6003546001600160a01b03166000908152600460205260408120805483929061055090849061109a565b90915550506003546001600160a01b03166105736000546001600160a01b031690565b6001600160a01b03167f5548c837ab068cf56a2c2479df0882a4922fd203edb7517321831d95078c5f62836040516105ad91815260200190565b60405180910390a36105be60018055565b50565b600581815481106105d157600080fd5b6000918252602090912001546001600160a01b0316905081565b6105f3610b6e565b600754600160a01b900460ff16156106585760405162461bcd60e51b815260206004820152602260248201527f526563697069656e742063616e206f6e6c79206265206368616e676564206f6e604482015261636560f01b606482015260840161044a565b6001600160a01b0381166106ae5760405162461bcd60e51b815260206004820152601960248201527f496e76616c696420726563697069656e74206164647265737300000000000000604482015260640161044a565b6000546001600160a01b038281169116148015906106fe57507f00000000000000000000000000000000000000000000000000000000000000006001600160a01b0316816001600160a01b031614155b61073e5760405162461bcd60e51b8152602060048201526011602482015270125b9d985b1a59081c9958da5c1a595b9d607a1b604482015260640161044a565b600780546001600160a81b031981166001600160a01b03848116918217600160a01b17909355604051929091169182907f4a9d367b1b0cd787be10021f1c55cb49c9f2302334e6df35c9621005eb22251490600090a35050565b6001600160a01b03821660009081526006602052604090205460ff166107d05760405162461bcd60e51b815260040161044a906110bb565b600081116108205760405162461bcd60e51b815260206004820152601d60248201527f416d6f756e74206d7573742062652067726561746572207468616e2030000000604482015260640161044a565b6108356001600160a01b038316333084610b01565b6001600160a01b0382166000908152600460205260408120805483929061085d90849061109a565b90915550506040518181526001600160a01b0383169033907f5548c837ab068cf56a2c2479df0882a4922fd203edb7517321831d95078c5f62906020015b60405180910390a35050565b6040516313289ea360e31b81523360048201527f00000000000000000000000000000000000000000000000000000000000000006001600160a01b031690639944f51890602401602060405180830381865afa15801561090b573d6000803e3d6000fd5b505050506040513d601f19601f8201168201806040525081019061092f91906110e7565b61096a5760405162461bcd60e51b815260206004820152600c60248201526b12d650c81c995c5d5a5c995960a21b604482015260640161044a565b6105be81610b9b565b61097b610b6e565b6109856000610d5c565b565b61098f610b6e565b6001600160a01b03821660009081526006602052604090205460ff166109c75760405162461bcd60e51b815260040161044a906110bb565b60028054600380546001600160a01b0319166001600160a01b038681169182179092556001600160a81b0319909216861515610100600160a81b031981169190911761010092861692830217909355604080519384526020840192909252908201527f629a66e9009f2689e67705f82a8e844ebd3be4c0168030a4727bc4b90663e15d9060600160405180910390a1505050565b610a63610b6e565b6001600160a01b038116610a8d57604051631e4fbdf760e01b81526000600482015260240161044a565b6105be81610d5c565b60405162461bcd60e51b815260206004820152601660248201527515da5d1a191c985dd85b081b9bdd08185b1b1bddd95960521b604482015260640161044a565b600260015403610afa57604051633ee5aeb560e01b815260040160405180910390fd5b6002600155565b6040516001600160a01b038481166024830152838116604483015260648201839052610b689186918216906323b872dd906084015b604051602081830303815290604052915060e01b6020820180516001600160e01b038381831617835250505050610dac565b50505050565b6000546001600160a01b031633146109855760405163118cdaa760e01b815233600482015260240161044a565b6007546001600160a01b03163314610bf55760405162461bcd60e51b815260206004820152601b60248201527f4f6e6c7920726563697069656e742063616e2077697468647261770000000000604482015260640161044a565b7f0000000000000000000000000000000000000000000000000000000000000000421015610c5e5760405162461bcd60e51b8152602060048201526016602482015275119d5b991cc8185c99481cdd1a5b1b081b1bd8dad95960521b604482015260640161044a565b6001600160a01b03811660009081526006602052604090205460ff16610c965760405162461bcd60e51b815260040161044a906110bb565b6001600160a01b03811660009081526004602052604090205480610cf35760405162461bcd60e51b81526020600482015260146024820152734e6f2066756e647320746f20776974686472617760601b604482015260640161044a565b6001600160a01b03808316600081815260046020526040812055600754610d1b921683610e14565b6007546040518281526001600160a01b038481169216907fa92ff919b850e4909ab2261d907ef955f11bc1716733a6cbece38d163a69af8a9060200161089b565b600080546001600160a01b038381166001600160a01b0319831681178455604051919092169283917f8be0079c531659141344cd1fd0a4f28419497f9722a3daafe3b4186f6b6457e09190a35050565b6000610dc16001600160a01b03841683610e45565b90508051600014158015610de6575080806020019051810190610de491906110e7565b155b15610e0f57604051635274afe760e01b81526001600160a01b038416600482015260240161044a565b505050565b6040516001600160a01b03838116602483015260448201839052610e0f91859182169063a9059cbb90606401610b36565b6060610e5383836000610e5c565b90505b92915050565b606081471015610e815760405163cd78605960e01b815230600482015260240161044a565b600080856001600160a01b03168486604051610e9d9190611104565b60006040518083038185875af1925050503d8060008114610eda576040519150601f19603f3d011682016040523d82523d6000602084013e610edf565b606091505b5091509150610eef868383610efb565b925050505b9392505050565b606082610f1057610f0b82610f57565b610ef4565b8151158015610f2757506001600160a01b0384163b155b15610f5057604051639996b31560e01b81526001600160a01b038516600482015260240161044a565b5080610ef4565b805115610f675780518082602001fd5b604051630a12f52160e11b815260040160405180910390fd5b80356001600160a01b0381168114610f9757600080fd5b919050565b600060208284031215610fae57600080fd5b610e5382610f80565b6020808252825182820181905260009190848201906040850190845b81811015610ff85783516001600160a01b031683529284019291840191600101610fd3565b50909695505050505050565b60006020828403121561101657600080fd5b5035919050565b6000806040838503121561103057600080fd5b61103983610f80565b946020939093013593505050565b80151581146105be57600080fd5b60008060006060848603121561106a57600080fd5b833561107581611047565b925061108360208501610f80565b915061109160408501610f80565b90509250925092565b80820180821115610e5657634e487b7160e01b600052601160045260246000fd5b602080825260129082015271151bdad95b881b9bdd081858d8d95c1d195960721b604082015260600190565b6000602082840312156110f957600080fd5b8151610ef481611047565b6000825160005b81811015611125576020818601810151858301520161110b565b50600092019182525091905056fea2646970667358221220297016282aa5dbed87da3bebcee40308f2cf4331e7068bba0b9dcf89297c1af564736f6c63430008190033","linkReferences":{}},"methodIdentifiers":{"acceptedTokens(uint256)":"36c87754","autoSave(uint256)":"32469ffe","autoSaveEnabled()":"81684db5","creator()":"02d05d3f","defaultToken()":"74c13fda","deposit(address,uint256)":"47e7ef24","getAcceptedTokens()":"2f757006","getBalance(address)":"f8b2cb4f","isTokenAccepted(address)":"0560bd96","kintoID()":"99a6cddd","operator()":"570ca735","owner()":"8da5cb5b","recipient()":"66d003ac","recipientChanged()":"a68947df","renounceOwnership()":"715018a6","savingsCompatible()":"84bfd0df","setRecipient(address)":"3bbed4a0","toggleAutoSave(bool,address,address)":"a6227521","tokenSavings(address)":"18a029cf","transferOwnership(address)":"f2fde38b","unlockTime()":"251c1aa3","withdraw(address)":"51cff8d9","withdraw(address,uint256)":"f3fef3a3"},"id":95}