{"abi":[{"type":"constructor","inputs":[{"name":"_usdtToken","type":"address","internalType":"address"},{"name":"_wethToken","type":"address","internalType":"address"},{"name":"_pool","type":"address","internalType":"address"},{"name":"_nonfungiblePositionManager","type":"address","internalType":"address"},{"name":"_swapRouter","type":"address","internalType":"address"},{"name":"_fee","type":"uint24","internalType":"uint24"},{"name":"_owner","type":"address","internalType":"address"}],"stateMutability":"nonpayable"},{"type":"function","name":"DEFAULT_ADMIN_ROLE","inputs":[],"outputs":[{"name":"","type":"bytes32","internalType":"bytes32"}],"stateMutability":"view"},{"type":"function","name":"TICK_RANGE","inputs":[],"outputs":[{"name":"","type":"uint24","internalType":"uint24"}],"stateMutability":"view"},{"type":"function","name":"USER_ROLE","inputs":[],"outputs":[{"name":"","type":"bytes32","internalType":"bytes32"}],"stateMutability":"view"},{"type":"function","name":"USER_ROLE_ADMIN","inputs":[],"outputs":[{"name":"","type":"bytes32","internalType":"bytes32"}],"stateMutability":"view"},{"type":"function","name":"deposit","inputs":[{"name":"amount","type":"uint256","internalType":"uint256"}],"outputs":[],"stateMutability":"nonpayable"},{"type":"function","name":"fee","inputs":[],"outputs":[{"name":"","type":"uint24","internalType":"uint24"}],"stateMutability":"view"},{"type":"function","name":"getRoleAdmin","inputs":[{"name":"role","type":"bytes32","internalType":"bytes32"}],"outputs":[{"name":"","type":"bytes32","internalType":"bytes32"}],"stateMutability":"view"},{"type":"function","name":"getTotalValue","inputs":[],"outputs":[{"name":"totalValue","type":"uint256","internalType":"uint256"}],"stateMutability":"view"},{"type":"function","name":"grantRole","inputs":[{"name":"role","type":"bytes32","internalType":"bytes32"},{"name":"account","type":"address","internalType":"address"}],"outputs":[],"stateMutability":"nonpayable"},{"type":"function","name":"harvestYield","inputs":[],"outputs":[],"stateMutability":"nonpayable"},{"type":"function","name":"hasRole","inputs":[{"name":"role","type":"bytes32","internalType":"bytes32"},{"name":"account","type":"address","internalType":"address"}],"outputs":[{"name":"","type":"bool","internalType":"bool"}],"stateMutability":"view"},{"type":"function","name":"nonfungiblePositionManager","inputs":[],"outputs":[{"name":"","type":"address","internalType":"contract INonfungiblePositionManager"}],"stateMutability":"view"},{"type":"function","name":"onERC721Received","inputs":[{"name":"","type":"address","internalType":"address"},{"name":"","type":"address","internalType":"address"},{"name":"","type":"uint256","internalType":"uint256"},{"name":"","type":"bytes","internalType":"bytes"}],"outputs":[{"name":"","type":"bytes4","internalType":"bytes4"}],"stateMutability":"view"},{"type":"function","name":"pool","inputs":[],"outputs":[{"name":"","type":"address","internalType":"contract IUniswapV3Pool"}],"stateMutability":"view"},{"type":"function","name":"renounceRole","inputs":[{"name":"role","type":"bytes32","internalType":"bytes32"},{"name":"callerConfirmation","type":"address","internalType":"address"}],"outputs":[],"stateMutability":"nonpayable"},{"type":"function","name":"revokeRole","inputs":[{"name":"role","type":"bytes32","internalType":"bytes32"},{"name":"account","type":"address","internalType":"address"}],"outputs":[],"stateMutability":"nonpayable"},{"type":"function","name":"supportsInterface","inputs":[{"name":"interfaceId","type":"bytes4","internalType":"bytes4"}],"outputs":[{"name":"","type":"bool","internalType":"bool"}],"stateMutability":"view"},{"type":"function","name":"swapRouter","inputs":[],"outputs":[{"name":"","type":"address","internalType":"contract ISwapRouter"}],"stateMutability":"view"},{"type":"function","name":"tickLower","inputs":[],"outputs":[{"name":"","type":"int24","internalType":"int24"}],"stateMutability":"view"},{"type":"function","name":"tickUpper","inputs":[],"outputs":[{"name":"","type":"int24","internalType":"int24"}],"stateMutability":"view"},{"type":"function","name":"tokenId","inputs":[],"outputs":[{"name":"","type":"uint256","internalType":"uint256"}],"stateMutability":"view"},{"type":"function","name":"usdtToken","inputs":[],"outputs":[{"name":"","type":"address","internalType":"contract IERC20"}],"stateMutability":"view"},{"type":"function","name":"wethToken","inputs":[],"outputs":[{"name":"","type":"address","internalType":"contract IERC20"}],"stateMutability":"view"},{"type":"function","name":"withdraw","inputs":[{"name":"amount","type":"uint256","internalType":"uint256"}],"outputs":[],"stateMutability":"nonpayable"},{"type":"event","name":"Deposited","inputs":[{"name":"user","type":"address","indexed":true,"internalType":"address"},{"name":"amountUsdt","type":"uint256","indexed":false,"internalType":"uint256"},{"name":"amountWeth","type":"uint256","indexed":false,"internalType":"uint256"}],"anonymous":false},{"type":"event","name":"RoleAdminChanged","inputs":[{"name":"role","type":"bytes32","indexed":true,"internalType":"bytes32"},{"name":"previousAdminRole","type":"bytes32","indexed":true,"internalType":"bytes32"},{"name":"newAdminRole","type":"bytes32","indexed":true,"internalType":"bytes32"}],"anonymous":false},{"type":"event","name":"RoleGranted","inputs":[{"name":"role","type":"bytes32","indexed":true,"internalType":"bytes32"},{"name":"account","type":"address","indexed":true,"internalType":"address"},{"name":"sender","type":"address","indexed":true,"internalType":"address"}],"anonymous":false},{"type":"event","name":"RoleRevoked","inputs":[{"name":"role","type":"bytes32","indexed":true,"internalType":"bytes32"},{"name":"account","type":"address","indexed":true,"internalType":"address"},{"name":"sender","type":"address","indexed":true,"internalType":"address"}],"anonymous":false},{"type":"event","name":"Withdrawn","inputs":[{"name":"user","type":"address","indexed":true,"internalType":"address"},{"name":"amountUsdt","type":"uint256","indexed":false,"internalType":"uint256"},{"name":"amountWeth","type":"uint256","indexed":false,"internalType":"uint256"}],"anonymous":false},{"type":"event","name":"YieldHarvested","inputs":[{"name":"user","type":"address","indexed":true,"internalType":"address"},{"name":"amountUsdt","type":"uint256","indexed":false,"internalType":"uint256"},{"name":"amountWeth","type":"uint256","indexed":false,"internalType":"uint256"}],"anonymous":false},{"type":"error","name":"AccessControlBadConfirmation","inputs":[]},{"type":"error","name":"AccessControlUnauthorizedAccount","inputs":[{"name":"account","type":"address","internalType":"address"},{"name":"neededRole","type":"bytes32","internalType":"bytes32"}]},{"type":"error","name":"ReentrancyGuardReentrantCall","inputs":[]},{"type":"error","name":"T","inputs":[]}],"bytecode":{"object":"0x61014060405234801561001157600080fd5b50604051612e17380380612e17833981016040819052610030916101ec565b60016000556001600160a01b0380881660e0528681166101005285811660805284811660a052831660c05262ffffff82166101205261008b600080516020612df7833981519152600080516020612dd78339815191526100ee565b61009660008261013b565b506100af600080516020612df78339815191528261013b565b506100c8600080516020612dd78339815191528261013b565b506100e1600080516020612df78339815191523361013b565b505050505050505061027c565b6000828152600160208190526040808320909101805490849055905190918391839186917fbd79b86ffe0ab8e8776151514217cd7cacd52c909f66475c3af44e129f0b00ff9190a4505050565b60008281526001602090815260408083206001600160a01b038516845290915281205460ff166101c65760008381526001602081815260408084206001600160a01b0387168086529252808420805460ff19169093179092559051339286917f2f8788117e7eff1d82e926ec794901d17c78024a50270940304540a733656f0d9190a45060016101ca565b5060005b92915050565b80516001600160a01b03811681146101e757600080fd5b919050565b600080600080600080600060e0888a03121561020757600080fd5b610210886101d0565b965061021e602089016101d0565b955061022c604089016101d0565b945061023a606089016101d0565b9350610248608089016101d0565b925060a088015162ffffff8116811461026057600080fd5b915061026e60c089016101d0565b905092959891949750929550565b60805160a05160c05160e0516101005161012051612a096103ce600039600081816103dc01528181610ac901528181610cdf01526117c90152600081816102a70152818161077501528181610a9b01528181610c3401528181610cb401528181611322015261179a0152600081816103390152818161074a015281816109c401528181610a1b01528181610a7601528181610be001528181610c8f015281816112f7015261176b01526000818161039a01528181610a3c0152610b690152600081816103600152818161044a015281816105820152818161068201528181610c0101528181610c5501528181610d7001528181610ed801528181610fb901528181611232015281816114cb01528181611549015281816115eb015281816116e20152611835015260008181610200015281816108de0152818161105e015281816113ca0152611ae80152612a096000f3fe608060405234801561001057600080fd5b50600436106101585760003560e01c806355b812a8116100c3578063b6b55f251161007c578063b6b55f2514610382578063c31c9c0714610395578063caa648b4146103bc578063d547741f146103c4578063ddca3f43146103d7578063e8d991d1146103fe57600080fd5b806355b812a8146102e557806359c4f9051461030d57806391d1485414610319578063a217fddf1461032c578063a98ad46c14610334578063b44a27221461035b57600080fd5b8063248a9ca311610115578063248a9ca3146102435780632e1a7d4d146102675780632f2ff15d1461027c57806336568abe1461028f5780634b57b0be146102a25780634ccaace1146102c957600080fd5b806301ffc9a71461015d578063131191611461018557806313b3c60d146101a8578063150b7a02146101cf57806316f0115b146101fb57806317d70f7c1461023a575b600080fd5b61017061016b366004612328565b610406565b60405190151581526020015b60405180910390f35b61019a6000805160206129b483398151915281565b60405190815260200161017c565b61019a7fb73487ee776bea9709fd1aabda12d65672636aa359648814e956b4e282c695f181565b6101e26101dd366004612367565b61043d565b6040516001600160e01b0319909116815260200161017c565b6102227f000000000000000000000000000000000000000000000000000000000000000081565b6040516001600160a01b03909116815260200161017c565b61019a60035481565b61019a610251366004612406565b6000908152600160208190526040909120015490565b61027a610275366004612406565b6104bc565b005b61027a61028a36600461241f565b6107e9565b61027a61029d36600461241f565b610815565b6102227f000000000000000000000000000000000000000000000000000000000000000081565b6102d1606481565b60405162ffffff909116815260200161017c565b600280546102fa916301000000909104900b81565b60405160029190910b815260200161017c565b600280546102fa910b81565b61017061032736600461241f565b61084d565b61019a600081565b6102227f000000000000000000000000000000000000000000000000000000000000000081565b6102227f000000000000000000000000000000000000000000000000000000000000000081565b61027a610390366004612406565b610878565b6102227f000000000000000000000000000000000000000000000000000000000000000081565b61019a610f9d565b61027a6103d236600461241f565b611169565b6102d17f000000000000000000000000000000000000000000000000000000000000000081565b61027a61118f565b60006001600160e01b03198216637965db0b60e01b148061043757506301ffc9a760e01b6001600160e01b03198316145b92915050565b6000336001600160a01b037f000000000000000000000000000000000000000000000000000000000000000016146104aa5760405162461bcd60e51b815260206004820152600b60248201526a1253959053125117d3919560aa1b60448201526064015b60405180910390fd5b50630a85bd0160e11b95945050505050565b6000805160206129b48339815191526104d481611392565b6104dc61139c565b60035460000361051c5760405162461bcd60e51b815260206004820152600b60248201526a2727afa827a9a4aa24a7a760a91b60448201526064016104a1565b6000821161055d5760405162461bcd60e51b815260206004820152600e60248201526d1253959053125117d05353d5539560921b60448201526064016104a1565b6105656113c6565b60035460405163133f757160e31b81526000916001600160a01b037f000000000000000000000000000000000000000000000000000000000000000016916399fbab88916105b99160040190815260200190565b61018060405180830381865afa1580156105d7573d6000803e3d6000fd5b505050506040513d601f19601f820116820180604052508101906105fb919061249b565b505050509750505050505050506000610612610f9d565b90508084111561065b5760405162461bcd60e51b8152602060048201526014602482015273494e53554646494349454e545f42414c414e434560601b60448201526064016104a1565b600081610671866001600160801b038616612592565b61067b91906125bf565b90506000807f00000000000000000000000000000000000000000000000000000000000000006001600160a01b0316630c49ccbe6040518060a001604052806003548152602001866001600160801b031681526020016000815260200160008152602001428152506040518263ffffffff1660e01b81526004016106ff91906125d3565b60408051808303816000875af115801561071d573d6000803e3d6000fd5b505050506040513d601f19601f820116820180604052508101906107419190612616565b915091506107707f000000000000000000000000000000000000000000000000000000000000000033846118fb565b61079b7f000000000000000000000000000000000000000000000000000000000000000033836118fb565b604080518381526020810183905233917f92ccf450a286a957af52509bc1c9939d1a6a481783e142e41e2499f0bb66ebc6910160405180910390a250505050506107e56001600055565b5050565b6000828152600160208190526040909120015461080581611392565b61080f83836119fb565b50505050565b6001600160a01b038116331461083e5760405163334bd91960e11b815260040160405180910390fd5b6108488282611a74565b505050565b60009182526001602090815260408084206001600160a01b0393909316845291905290205460ff1690565b6000805160206129b483398151915261089081611392565b61089861139c565b600082116108d95760405162461bcd60e51b815260206004820152600e60248201526d1253959053125117d05353d5539560921b60448201526064016104a1565b6000807f00000000000000000000000000000000000000000000000000000000000000006001600160a01b0316633850c7bd6040518163ffffffff1660e01b815260040160e060405180830381865afa15801561093a573d6000803e3d6000fd5b505050506040513d601f19601f8201168201806040525081019061095e919061265c565b5050600280549597509395505050500b15801561098557506002805463010000009004900b155b156109bf5761099381611ae1565b6002805465ffffffffffff1916630100000062ffffff9384160262ffffff191617929091169190911790555b6109eb7f0000000000000000000000000000000000000000000000000000000000000000333087611bbf565b60006109f86002866125bf565b90506000612710610a0a8360fa612592565b610a1491906125bf565b9050610a617f00000000000000000000000000000000000000000000000000000000000000007f000000000000000000000000000000000000000000000000000000000000000084611cc9565b60408051610100810182526001600160a01b037f0000000000000000000000000000000000000000000000000000000000000000811682527f000000000000000000000000000000000000000000000000000000000000000081166020830190815262ffffff7f000000000000000000000000000000000000000000000000000000000000000081168486019081523060608601908152426080870190815260a087018a815260c088018a8152600060e08a018181529a5163414bf38960e01b81528a518a166004820152975189166024890152945190951660448701529151861660648601525160848501525160a4840152905160c48301529351821660e48201529192917f00000000000000000000000000000000000000000000000000000000000000009091169063414bf38990610104016020604051808303816000875af1158015610bb5573d6000803e3d6000fd5b505050506040513d601f19601f82011682018060405250810190610bd991906126ec565b9050610c2f7f00000000000000000000000000000000000000000000000000000000000000007f0000000000000000000000000000000000000000000000000000000000000000610c2a878c612705565b611cc9565b610c7a7f00000000000000000000000000000000000000000000000000000000000000007f000000000000000000000000000000000000000000000000000000000000000083611cc9565b60408051610160810182526001600160a01b037f0000000000000000000000000000000000000000000000000000000000000000811682527f000000000000000000000000000000000000000000000000000000000000000016602082015262ffffff7f000000000000000000000000000000000000000000000000000000000000000016918101919091526002805480820b606084015263010000009004900b608082015260009060a08101610d31878c612705565b81526020018381526020016000815260200160008152602001306001600160a01b03168152602001428152509050600354600003610e4e5760008060007f00000000000000000000000000000000000000000000000000000000000000006001600160a01b03166388316456856040518263ffffffff1660e01b8152600401610dba9190612718565b6080604051808303816000875af1158015610dd9573d6000803e3d6000fd5b505050506040513d601f19601f82011682018060405250810190610dfd91906127dc565b60038490556040805183815260208101839052949750919550935033927f73a19dd210f1a7f902193214c0ee91dd35ee5b4d920cba8d519eca65a7b488ca92500160405180910390a2505050610f8c565b610e566113c6565b6040805160c08082018352600354825260a08085015160208401908152918501518385019081526000606085018181526080860182815242948701948552965163219f5d1760e01b81529551600487015293516024860152905160448501529151606484015292516084830152915160a4820152819081906001600160a01b037f0000000000000000000000000000000000000000000000000000000000000000169063219f5d179060c4016060604051808303816000875af1158015610f21573d6000803e3d6000fd5b505050506040513d601f19601f82011682018060405250810190610f459190612818565b6040805183815260208101839052939650919450925033917f73a19dd210f1a7f902193214c0ee91dd35ee5b4d920cba8d519eca65a7b488ca910160405180910390a25050505b505050505050506107e56001600055565b6000600354600003610faf5750600090565b60008060008060007f00000000000000000000000000000000000000000000000000000000000000006001600160a01b03166399fbab886003546040518263ffffffff1660e01b815260040161100791815260200190565b61018060405180830381865afa158015611025573d6000803e3d6000fd5b505050506040513d601f19601f82011682018060405250810190611049919061249b565b9b509b509b509b509b505050505050505060007f00000000000000000000000000000000000000000000000000000000000000006001600160a01b0316633850c7bd6040518163ffffffff1660e01b815260040160e060405180830381865afa1580156110ba573d6000803e3d6000fd5b505050506040513d601f19601f820116820180604052508101906110de919061265c565b505050505050905060008061112283611105600260009054906101000a900460020b611dc2565b6002805461111c916301000000909104900b611dc2565b8b6120e5565b909250905061113a6001600160801b0386168361284d565b915061114f6001600160801b0385168261284d565b905061115c826002612592565b9850505050505050505090565b6000828152600160208190526040909120015461118581611392565b61080f8383611a74565b6000805160206129b48339815191526111a781611392565b6111af61139c565b6003546000036111ef5760405162461bcd60e51b815260206004820152600b60248201526a2727afa827a9a4aa24a7a760a91b60448201526064016104a1565b6040805160808101825260035481523060208201526001600160801b038183018190526060820152905163fc6f786560e01b815260009182916001600160a01b037f0000000000000000000000000000000000000000000000000000000000000000169163fc6f7865916112669190600401612860565b60408051808303816000875af1158015611284573d6000803e3d6000fd5b505050506040513d601f19601f820116820180604052508101906112a89190612616565b9150915060008211806112bb5750600081115b6112f25760405162461bcd60e51b81526020600482015260086024820152671393d7d65251531160c21b60448201526064016104a1565b61131d7f000000000000000000000000000000000000000000000000000000000000000033846118fb565b6113487f000000000000000000000000000000000000000000000000000000000000000033836118fb565b604080518381526020810183905233917ff343dfc1e44c65296fb907b287e6e12133eb7945ba79ec463d65ef129757c2ff910160405180910390a2505061138f6001600055565b50565b61138f8133612181565b6002600054036113bf57604051633ee5aeb560e01b815260040160405180910390fd5b6002600055565b60007f00000000000000000000000000000000000000000000000000000000000000006001600160a01b0316633850c7bd6040518163ffffffff1660e01b815260040160e060405180830381865afa158015611426573d6000803e3d6000fd5b505050506040513d601f19601f8201168201806040525081019061144a919061265c565b5050505050915050600260009054906101000a900460020b60020b8160020b128061148357506002805463010000009004810b9082900b135b1561138f576040805160808101825260035481523060208201526001600160801b038183018190526060820152905163fc6f786560e01b815260009182916001600160a01b037f0000000000000000000000000000000000000000000000000000000000000000169163fc6f7865916114ff9190600401612860565b60408051808303816000875af115801561151d573d6000803e3d6000fd5b505050506040513d601f19601f820116820180604052508101906115419190612616565b9150915060007f00000000000000000000000000000000000000000000000000000000000000006001600160a01b03166399fbab886003546040518263ffffffff1660e01b815260040161159791815260200190565b61018060405180830381865afa1580156115b5573d6000803e3d6000fd5b505050506040513d601f19601f820116820180604052508101906115d9919061249b565b505050509750505050505050506000807f00000000000000000000000000000000000000000000000000000000000000006001600160a01b0316630c49ccbe6040518060a001604052806003548152602001866001600160801b031681526020016000815260200160008152602001428152506040518263ffffffff1660e01b815260040161166891906125d3565b60408051808303816000875af1158015611686573d6000803e3d6000fd5b505050506040513d601f19601f820116820180604052508101906116aa9190612616565b90925090506116b9828661284d565b94506116c5818561284d565b600354604051630852cd8d60e31b81529195506001600160a01b037f000000000000000000000000000000000000000000000000000000000000000016916342966c68916117199160040190815260200190565b600060405180830381600087803b15801561173357600080fd5b505af1158015611747573d6000803e3d6000fd5b5050505060008061175788611ae1565b9150915060006040518061016001604052807f00000000000000000000000000000000000000000000000000000000000000006001600160a01b031681526020017f00000000000000000000000000000000000000000000000000000000000000006001600160a01b031681526020017f000000000000000000000000000000000000000000000000000000000000000062ffffff1681526020018460020b81526020018360020b81526020018981526020018881526020016000815260200160008152602001306001600160a01b031681526020014281525090507f00000000000000000000000000000000000000000000000000000000000000006001600160a01b03166388316456826040518263ffffffff1660e01b815260040161187f9190612718565b6080604051808303816000875af115801561189e573d6000803e3d6000fd5b505050506040513d601f19601f820116820180604052508101906118c291906127dc565b505050600355506002805462ffffff92831663010000000265ffffffffffff199091169290931691909117919091179055505050505050565b604080516001600160a01b038481166024830152604480830185905283518084039091018152606490920183526020820180516001600160e01b031663a9059cbb60e01b179052915160009283929087169161195791906128a3565b6000604051808303816000865af19150503d8060008114611994576040519150601f19603f3d011682016040523d82523d6000602084013e611999565b606091505b50915091508180156119c35750805115806119c35750808060200190518101906119c391906128d2565b6119f45760405162461bcd60e51b815260206004820152600260248201526114d560f21b60448201526064016104a1565b5050505050565b6000611a07838361084d565b611a6c5760008381526001602081815260408084206001600160a01b0387168086529252808420805460ff19169093179092559051339286917f2f8788117e7eff1d82e926ec794901d17c78024a50270940304540a733656f0d9190a4506001610437565b506000610437565b6000611a80838361084d565b15611a6c5760008381526001602090815260408083206001600160a01b0386168085529252808320805460ff1916905551339286917ff6391f5c32d9c69d2a47ea670b442974b53935d1edc7fd64eb21e047a839171b9190a4506001610437565b60008060007f00000000000000000000000000000000000000000000000000000000000000006001600160a01b031663d0c93a7c6040518163ffffffff1660e01b8152600401602060405180830381865afa158015611b44573d6000803e3d6000fd5b505050506040513d601f19601f82011682018060405250810190611b6891906128ed565b905060008180611b79606488612908565b611b83919061292d565b611b8d9190612967565b905060008280611b9e60648961298e565b611ba8919061292d565b611bb29190612967565b9196919550909350505050565b604080516001600160a01b0385811660248301528481166044830152606480830185905283518084039091018152608490920183526020820180516001600160e01b03166323b872dd60e01b1790529151600092839290881691611c2391906128a3565b6000604051808303816000865af19150503d8060008114611c60576040519150601f19603f3d011682016040523d82523d6000602084013e611c65565b606091505b5091509150818015611c8f575080511580611c8f575080806020019051810190611c8f91906128d2565b611cc15760405162461bcd60e51b815260206004820152600360248201526229aa2360e91b60448201526064016104a1565b505050505050565b604080516001600160a01b038481166024830152604480830185905283518084039091018152606490920183526020820180516001600160e01b031663095ea7b360e01b1790529151600092839290871691611d2591906128a3565b6000604051808303816000865af19150503d8060008114611d62576040519150601f19603f3d011682016040523d82523d6000602084013e611d67565b606091505b5091509150818015611d91575080511580611d91575080806020019051810190611d9191906128d2565b6119f45760405162461bcd60e51b8152602060048201526002602482015261534160f01b60448201526064016104a1565b60008060008360020b12611dd9578260020b611de1565b8260020b6000035b9050620d89e8811115611e07576040516315e4079d60e11b815260040160405180910390fd5b600081600116600003611e1e57600160801b611e30565b6ffffcb933bd6fad37aa2d162d1a5940015b70ffffffffffffffffffffffffffffffffff1690506002821615611e64576ffff97272373d413259a46990580e213a0260801c5b6004821615611e83576ffff2e50f5f656932ef12357cf3c7fdcc0260801c5b6008821615611ea2576fffe5caca7e10e4e61c3624eaa0941cd00260801c5b6010821615611ec1576fffcb9843d60f6159c9db58835c9266440260801c5b6020821615611ee0576fff973b41fa98c081472e6896dfb254c00260801c5b6040821615611eff576fff2ea16466c96a3843ec78b326b528610260801c5b6080821615611f1e576ffe5dee046a99a2a811c461f1969c30530260801c5b610100821615611f3e576ffcbe86c7900a88aedcffc83b479aa3a40260801c5b610200821615611f5e576ff987a7253ac413176f2b074cf7815e540260801c5b610400821615611f7e576ff3392b0822b70005940c7a398e4b70f30260801c5b610800821615611f9e576fe7159475a2c29b7443b29c7fa6e889d90260801c5b611000821615611fbe576fd097f3bdfd2022b8845ad8f792aa58250260801c5b612000821615611fde576fa9f746462d870fdf8a65dc1f90e061e50260801c5b614000821615611ffe576f70d869a156d2a1b890bb3df62baf32f70260801c5b61800082161561201e576f31be135f97d08fd981231505542fcfa60260801c5b6201000082161561203f576f09aa508b5b7a84e1c677de54f3e99bc90260801c5b6202000082161561205f576e5d6af8dedb81196699c329225ee6040260801c5b6204000082161561207e576d2216e584f5fa1ea926041bedfe980260801c5b6208000082161561209b576b048a170391f7dc42444e8fa20260801c5b60008460020b13156120bc5780600019816120b8576120b86125a9565b0490505b6401000000008106156120d05760016120d3565b60005b60ff16602082901c0192505050919050565b600080836001600160a01b0316856001600160a01b03161115612106579293925b846001600160a01b0316866001600160a01b0316116121315761212a8585856121ba565b9150612178565b836001600160a01b0316866001600160a01b0316101561216a576121568685856121ba565b915061216385878561222b565b9050612178565b61217585858561222b565b90505b94509492505050565b61218b828261084d565b6107e55760405163e2517d3f60e01b81526001600160a01b0382166004820152602481018390526044016104a1565b6000826001600160a01b0316846001600160a01b031611156121da579192915b836001600160a01b0316612213606060ff16846001600160801b0316901b8686036001600160a01b0316866001600160a01b0316612276565b81612220576122206125a9565b0490505b9392505050565b6000826001600160a01b0316846001600160a01b0316111561224b579192915b61226e826001600160801b03168585036001600160a01b0316600160601b612276565b949350505050565b60008080600019858709858702925082811083820303915050806000036122af57600084116122a457600080fd5b508290049050612224565b8084116122bb57600080fd5b6000848688096000868103871696879004966002600389028118808a02820302808a02820302808a02820302808a02820302808a02820302808a02909103029181900381900460010186841190950394909402919094039290920491909117919091029150509392505050565b60006020828403121561233a57600080fd5b81356001600160e01b03198116811461222457600080fd5b6001600160a01b038116811461138f57600080fd5b60008060008060006080868803121561237f57600080fd5b853561238a81612352565b9450602086013561239a81612352565b935060408601359250606086013567ffffffffffffffff808211156123be57600080fd5b818801915088601f8301126123d257600080fd5b8135818111156123e157600080fd5b8960208285010111156123f357600080fd5b9699959850939650602001949392505050565b60006020828403121561241857600080fd5b5035919050565b6000806040838503121561243257600080fd5b82359150602083013561244481612352565b809150509250929050565b805161245a81612352565b919050565b805162ffffff8116811461245a57600080fd5b8051600281900b811461245a57600080fd5b80516001600160801b038116811461245a57600080fd5b6000806000806000806000806000806000806101808d8f0312156124be57600080fd5b8c516bffffffffffffffffffffffff811681146124da57600080fd5b9b506124e860208e0161244f565b9a506124f660408e0161244f565b995061250460608e0161244f565b985061251260808e0161245f565b975061252060a08e01612472565b965061252e60c08e01612472565b955061253c60e08e01612484565b94506101008d015193506101208d0151925061255b6101408e01612484565b915061256a6101608e01612484565b90509295989b509295989b509295989b565b634e487b7160e01b600052601160045260246000fd5b80820281158282048414176104375761043761257c565b634e487b7160e01b600052601260045260246000fd5b6000826125ce576125ce6125a9565b500490565b600060a082019050825182526001600160801b03602084015116602083015260408301516040830152606083015160608301526080830151608083015292915050565b6000806040838503121561262957600080fd5b505080516020909101519092909150565b805161ffff8116811461245a57600080fd5b8051801515811461245a57600080fd5b600080600080600080600060e0888a03121561267757600080fd5b875161268281612352565b965061269060208901612472565b955061269e6040890161263a565b94506126ac6060890161263a565b93506126ba6080890161263a565b925060a088015160ff811681146126d057600080fd5b91506126de60c0890161264c565b905092959891949750929550565b6000602082840312156126fe57600080fd5b5051919050565b818103818111156104375761043761257c565b81516001600160a01b031681526101608101602083015161274460208401826001600160a01b03169052565b50604083015161275b604084018262ffffff169052565b506060830151612770606084018260020b9052565b506080830151612785608084018260020b9052565b5060a083015160a083015260c083015160c083015260e083015160e0830152610100808401518184015250610120808401516127cb828501826001600160a01b03169052565b505061014092830151919092015290565b600080600080608085870312156127f257600080fd5b8451935061280260208601612484565b6040860151606090960151949790965092505050565b60008060006060848603121561282d57600080fd5b61283684612484565b925060208401519150604084015190509250925092565b808201808211156104375761043761257c565b815181526020808301516001600160a01b0316908201526040808301516001600160801b0390811691830191909152606092830151169181019190915260800190565b6000825160005b818110156128c457602081860181015185830152016128aa565b506000920191825250919050565b6000602082840312156128e457600080fd5b6122248261264c565b6000602082840312156128ff57600080fd5b61222482612472565b600282810b9082900b03627fffff198112627fffff821317156104375761043761257c565b60008160020b8360020b80612944576129446125a9565b627fffff1982146000198214161561295e5761295e61257c565b90059392505050565b60008260020b8260020b028060020b91508082146129875761298761257c565b5092915050565b600281810b9083900b01627fffff8113627fffff19821217156104375761043761257c56fe14823911f2da1b49f045a0929a60b8c1f2a7fc8c06c7284ca3e8ab4e193a08c8a26469706673582212209c93101b5ddc5955af2edd9ce7c9896349b25a0ffa9db8363f512c4be3a3612764736f6c63430008190033b73487ee776bea9709fd1aabda12d65672636aa359648814e956b4e282c695f114823911f2da1b49f045a0929a60b8c1f2a7fc8c06c7284ca3e8ab4e193a08c8","linkReferences":{}},"methodIdentifiers":{"DEFAULT_ADMIN_ROLE()":"a217fddf","TICK_RANGE()":"4ccaace1","USER_ROLE()":"13119161","USER_ROLE_ADMIN()":"13b3c60d","deposit(uint256)":"b6b55f25","fee()":"ddca3f43","getRoleAdmin(bytes32)":"248a9ca3","getTotalValue()":"caa648b4","grantRole(bytes32,address)":"2f2ff15d","harvestYield()":"e8d991d1","hasRole(bytes32,address)":"91d14854","nonfungiblePositionManager()":"b44a2722","onERC721Received(address,address,uint256,bytes)":"150b7a02","pool()":"16f0115b","renounceRole(bytes32,address)":"36568abe","revokeRole(bytes32,address)":"d547741f","supportsInterface(bytes4)":"01ffc9a7","swapRouter()":"c31c9c07","tickLower()":"59c4f905","tickUpper()":"55b812a8","tokenId()":"17d70f7c","usdtToken()":"a98ad46c","wethToken()":"4b57b0be","withdraw(uint256)":"2e1a7d4d"},"id":91}