{"abi":[{"type":"constructor","inputs":[{"name":"_pool","type":"address","internalType":"address"},{"name":"_aToken","type":"address","internalType":"address"},{"name":"owner","type":"address","internalType":"address"}],"stateMutability":"nonpayable"},{"type":"function","name":"DEFAULT_ADMIN_ROLE","inputs":[],"outputs":[{"name":"","type":"bytes32","internalType":"bytes32"}],"stateMutability":"view"},{"type":"function","name":"USER_ROLE","inputs":[],"outputs":[{"name":"","type":"bytes32","internalType":"bytes32"}],"stateMutability":"view"},{"type":"function","name":"USER_ROLE_ADMIN","inputs":[],"outputs":[{"name":"","type":"bytes32","internalType":"bytes32"}],"stateMutability":"view"},{"type":"function","name":"aToken","inputs":[],"outputs":[{"name":"","type":"address","internalType":"contract IAToken"}],"stateMutability":"view"},{"type":"function","name":"deposit","inputs":[{"name":"amount","type":"uint256","internalType":"uint256"}],"outputs":[],"stateMutability":"nonpayable"},{"type":"function","name":"getRoleAdmin","inputs":[{"name":"role","type":"bytes32","internalType":"bytes32"}],"outputs":[{"name":"","type":"bytes32","internalType":"bytes32"}],"stateMutability":"view"},{"type":"function","name":"getTotalValue","inputs":[],"outputs":[{"name":"","type":"uint256","internalType":"uint256"}],"stateMutability":"view"},{"type":"function","name":"getYieldAmount","inputs":[],"outputs":[{"name":"","type":"uint256","internalType":"uint256"}],"stateMutability":"view"},{"type":"function","name":"grantRole","inputs":[{"name":"role","type":"bytes32","internalType":"bytes32"},{"name":"account","type":"address","internalType":"address"}],"outputs":[],"stateMutability":"nonpayable"},{"type":"function","name":"harvestYield","inputs":[],"outputs":[],"stateMutability":"nonpayable"},{"type":"function","name":"hasRole","inputs":[{"name":"role","type":"bytes32","internalType":"bytes32"},{"name":"account","type":"address","internalType":"address"}],"outputs":[{"name":"","type":"bool","internalType":"bool"}],"stateMutability":"view"},{"type":"function","name":"pool","inputs":[],"outputs":[{"name":"","type":"address","internalType":"contract IPool"}],"stateMutability":"view"},{"type":"function","name":"renounceRole","inputs":[{"name":"role","type":"bytes32","internalType":"bytes32"},{"name":"callerConfirmation","type":"address","internalType":"address"}],"outputs":[],"stateMutability":"nonpayable"},{"type":"function","name":"revokeRole","inputs":[{"name":"role","type":"bytes32","internalType":"bytes32"},{"name":"account","type":"address","internalType":"address"}],"outputs":[],"stateMutability":"nonpayable"},{"type":"function","name":"supportsInterface","inputs":[{"name":"interfaceId","type":"bytes4","internalType":"bytes4"}],"outputs":[{"name":"","type":"bool","internalType":"bool"}],"stateMutability":"view"},{"type":"function","name":"underlyingAsset","inputs":[],"outputs":[{"name":"","type":"address","internalType":"contract IERC20"}],"stateMutability":"view"},{"type":"function","name":"withdraw","inputs":[{"name":"amount","type":"uint256","internalType":"uint256"}],"outputs":[],"stateMutability":"nonpayable"},{"type":"event","name":"Deposited","inputs":[{"name":"user","type":"address","indexed":true,"internalType":"address"},{"name":"amount","type":"uint256","indexed":false,"internalType":"uint256"}],"anonymous":false},{"type":"event","name":"RoleAdminChanged","inputs":[{"name":"role","type":"bytes32","indexed":true,"internalType":"bytes32"},{"name":"previousAdminRole","type":"bytes32","indexed":true,"internalType":"bytes32"},{"name":"newAdminRole","type":"bytes32","indexed":true,"internalType":"bytes32"}],"anonymous":false},{"type":"event","name":"RoleGranted","inputs":[{"name":"role","type":"bytes32","indexed":true,"internalType":"bytes32"},{"name":"account","type":"address","indexed":true,"internalType":"address"},{"name":"sender","type":"address","indexed":true,"internalType":"address"}],"anonymous":false},{"type":"event","name":"RoleRevoked","inputs":[{"name":"role","type":"bytes32","indexed":true,"internalType":"bytes32"},{"name":"account","type":"address","indexed":true,"internalType":"address"},{"name":"sender","type":"address","indexed":true,"internalType":"address"}],"anonymous":false},{"type":"event","name":"Withdrawn","inputs":[{"name":"user","type":"address","indexed":true,"internalType":"address"},{"name":"amount","type":"uint256","indexed":false,"internalType":"uint256"}],"anonymous":false},{"type":"event","name":"YieldHarvested","inputs":[{"name":"user","type":"address","indexed":true,"internalType":"address"},{"name":"amount","type":"uint256","indexed":false,"internalType":"uint256"}],"anonymous":false},{"type":"error","name":"AccessControlBadConfirmation","inputs":[]},{"type":"error","name":"AccessControlUnauthorizedAccount","inputs":[{"name":"account","type":"address","internalType":"address"},{"name":"neededRole","type":"bytes32","internalType":"bytes32"}]},{"type":"error","name":"ReentrancyGuardReentrantCall","inputs":[]}],"bytecode":{"object":"0x60e060405234801561001057600080fd5b5060405161115138038061115183398101604081905261002f91610237565b60016000556001600160a01b03808416608052821660a0819052604080516358b50cef60e11b8152905163b16a19de916004808201926020929091908290030181865afa158015610084573d6000803e3d6000fd5b505050506040513d601f19601f820116820180604052508101906100a8919061027a565b6001600160a01b031660c0526100da600080516020611131833981519152600080516020611111833981519152610139565b6100e5600082610186565b506100fe60008051602061113183398151915282610186565b5061011760008051602061113183398151915233610186565b5061013060008051602061111183398151915282610186565b5050505061029c565b6000828152600160208190526040808320909101805490849055905190918391839186917fbd79b86ffe0ab8e8776151514217cd7cacd52c909f66475c3af44e129f0b00ff9190a4505050565b60008281526001602090815260408083206001600160a01b038516845290915281205460ff166102115760008381526001602081815260408084206001600160a01b0387168086529252808420805460ff19169093179092559051339286917f2f8788117e7eff1d82e926ec794901d17c78024a50270940304540a733656f0d9190a4506001610215565b5060005b92915050565b80516001600160a01b038116811461023257600080fd5b919050565b60008060006060848603121561024c57600080fd5b6102558461021b565b92506102636020850161021b565b91506102716040850161021b565b90509250925092565b60006020828403121561028c57600080fd5b6102958261021b565b9392505050565b60805160a05160c051610df261031f6000396000818161022d0152818161044a0152818161061f015281816107180152818161079d0152610a5c01526000818161026701528181610320015281816108a3015261097901526000818161018f01528181610482015281816106e9015281816107d90152610a970152610df26000f3fe608060405234801561001057600080fd5b506004361061010b5760003560e01c806336568abe116100a2578063a217fddf11610071578063a217fddf14610289578063b6b55f2514610291578063caa648b4146102a4578063d547741f146102ac578063e8d991d1146102bf57600080fd5b806336568abe146102155780637158da7c1461022857806391d148541461024f578063a0c1f15e1461026257600080fd5b806316f0115b116100de57806316f0115b1461018a578063248a9ca3146101c95780632e1a7d4d146101ed5780632f2ff15d1461020257600080fd5b806301ffc9a714610110578063121a23c114610138578063131191611461014e57806313b3c60d14610163575b600080fd5b61012361011e366004610c9f565b6102c7565b60405190151581526020015b60405180910390f35b6101406102fe565b60405190815260200161012f565b610140600080516020610d9d83398151915281565b6101407fb73487ee776bea9709fd1aabda12d65672636aa359648814e956b4e282c695f181565b6101b17f000000000000000000000000000000000000000000000000000000000000000081565b6040516001600160a01b03909116815260200161012f565b6101406101d7366004610cd0565b6000908152600160208190526040909120015490565b6102006101fb366004610cd0565b6103b0565b005b610200610210366004610ce9565b61054e565b610200610223366004610ce9565b61057a565b6101b17f000000000000000000000000000000000000000000000000000000000000000081565b61012361025d366004610ce9565b6105b2565b6101b17f000000000000000000000000000000000000000000000000000000000000000081565b610140600081565b61020061029f366004610cd0565b6105dd565b61014061088b565b6102006102ba366004610ce9565b61091b565b610200610941565b60006001600160e01b03198216637965db0b60e01b14806102f857506301ffc9a760e01b6001600160e01b03198316145b92915050565b6040516370a0823160e01b815230600482015260009081906001600160a01b037f000000000000000000000000000000000000000000000000000000000000000016906370a0823190602401602060405180830381865afa158015610367573d6000803e3d6000fd5b505050506040513d601f19601f8201168201806040525081019061038b9190610d25565b9050600254811161039d5760006103aa565b6002546103aa9082610d54565b91505090565b600080516020610d9d8339815191526103c881610b4c565b6103d0610b56565b6002548211156104335760405162461bcd60e51b815260206004820152602360248201527f43616e6e6f74207769746864726177206d6f7265207468616e206465706f73696044820152621d195960ea1b60648201526084015b60405180910390fd5b604051631a4ca37b60e21b81526001600160a01b037f000000000000000000000000000000000000000000000000000000000000000081166004830152602482018490523360448301526000917f0000000000000000000000000000000000000000000000000000000000000000909116906369328dec906064016020604051808303816000875af11580156104cd573d6000803e3d6000fd5b505050506040513d601f19601f820116820180604052508101906104f19190610d25565b905080600260008282546105059190610d54565b909155505060405181815233907f7084f5476618d8e60b11ef0d7d3f06914655adb8793e28ff7f018d4c76d505d59060200160405180910390a25061054a6001600055565b5050565b6000828152600160208190526040909120015461056a81610b4c565b6105748383610b80565b50505050565b6001600160a01b03811633146105a35760405163334bd91960e11b815260040160405180910390fd5b6105ad8282610bf9565b505050565b60009182526001602090815260408084206001600160a01b0393909316845291905290205460ff1690565b600080516020610d9d8339815191526105f581610b4c565b6105fd610b56565b6040516323b872dd60e01b8152336004820152306024820152604481018390527f00000000000000000000000000000000000000000000000000000000000000006001600160a01b0316906323b872dd906064016020604051808303816000875af1158015610670573d6000803e3d6000fd5b505050506040513d601f19601f820116820180604052508101906106949190610d67565b6106d25760405162461bcd60e51b815260206004820152600f60248201526e151c985b9cd9995c8819985a5b1959608a1b604482015260640161042a565b60405163095ea7b360e01b81526001600160a01b037f000000000000000000000000000000000000000000000000000000000000000081166004830152602482018490527f0000000000000000000000000000000000000000000000000000000000000000169063095ea7b3906044016020604051808303816000875af1158015610761573d6000803e3d6000fd5b505050506040513d601f19601f820116820180604052508101906107859190610d67565b5060405163617ba03760e01b81526001600160a01b037f00000000000000000000000000000000000000000000000000000000000000008116600483015260248201849052306044830152600060648301527f0000000000000000000000000000000000000000000000000000000000000000169063617ba03790608401600060405180830381600087803b15801561081d57600080fd5b505af1158015610831573d6000803e3d6000fd5b5050505081600260008282546108479190610d89565b909155505060405182815233907f2da466a7b24304f47e87fa2e1e5a81b9831ce54fec19055ce277ca2f39ba42c49060200160405180910390a261054a6001600055565b6040516370a0823160e01b81523060048201526000907f00000000000000000000000000000000000000000000000000000000000000006001600160a01b0316906370a0823190602401602060405180830381865afa1580156108f2573d6000803e3d6000fd5b505050506040513d601f19601f820116820180604052508101906109169190610d25565b905090565b6000828152600160208190526040909120015461093781610b4c565b6105748383610bf9565b600080516020610d9d83398151915261095981610b4c565b610961610b56565b6040516370a0823160e01b81523060048201526000907f00000000000000000000000000000000000000000000000000000000000000006001600160a01b0316906370a0823190602401602060405180830381865afa1580156109c8573d6000803e3d6000fd5b505050506040513d601f19601f820116820180604052508101906109ec9190610d25565b90506002548111610a355760405162461bcd60e51b8152602060048201526013602482015272139bc81e5a595b19081d1bc81a185c9d995cdd606a1b604482015260640161042a565b600060025482610a459190610d54565b604051631a4ca37b60e21b81526001600160a01b037f000000000000000000000000000000000000000000000000000000000000000081166004830152602482018390523360448301529192506000917f000000000000000000000000000000000000000000000000000000000000000016906369328dec906064016020604051808303816000875af1158015610ae0573d6000803e3d6000fd5b505050506040513d601f19601f82011682018060405250810190610b049190610d25565b60405181815290915033907faf070de27b945892aaad9c44ade61c1ac81cc8459711bba886304b1a2bf847a89060200160405180910390a2505050610b496001600055565b50565b610b498133610c66565b600260005403610b7957604051633ee5aeb560e01b815260040160405180910390fd5b6002600055565b6000610b8c83836105b2565b610bf15760008381526001602081815260408084206001600160a01b0387168086529252808420805460ff19169093179092559051339286917f2f8788117e7eff1d82e926ec794901d17c78024a50270940304540a733656f0d9190a45060016102f8565b5060006102f8565b6000610c0583836105b2565b15610bf15760008381526001602090815260408083206001600160a01b0386168085529252808320805460ff1916905551339286917ff6391f5c32d9c69d2a47ea670b442974b53935d1edc7fd64eb21e047a839171b9190a45060016102f8565b610c7082826105b2565b61054a5760405163e2517d3f60e01b81526001600160a01b03821660048201526024810183905260440161042a565b600060208284031215610cb157600080fd5b81356001600160e01b031981168114610cc957600080fd5b9392505050565b600060208284031215610ce257600080fd5b5035919050565b60008060408385031215610cfc57600080fd5b8235915060208301356001600160a01b0381168114610d1a57600080fd5b809150509250929050565b600060208284031215610d3757600080fd5b5051919050565b634e487b7160e01b600052601160045260246000fd5b818103818111156102f8576102f8610d3e565b600060208284031215610d7957600080fd5b81518015158114610cc957600080fd5b808201808211156102f8576102f8610d3e56fe14823911f2da1b49f045a0929a60b8c1f2a7fc8c06c7284ca3e8ab4e193a08c8a264697066735822122082b29272b30d0aa6dc51dffc34f9fac75fb685a2d98a88ebba488bd3698f11a064736f6c63430008190033b73487ee776bea9709fd1aabda12d65672636aa359648814e956b4e282c695f114823911f2da1b49f045a0929a60b8c1f2a7fc8c06c7284ca3e8ab4e193a08c8","linkReferences":{}},"methodIdentifiers":{"DEFAULT_ADMIN_ROLE()":"a217fddf","USER_ROLE()":"13119161","USER_ROLE_ADMIN()":"13b3c60d","aToken()":"a0c1f15e","deposit(uint256)":"b6b55f25","getRoleAdmin(bytes32)":"248a9ca3","getTotalValue()":"caa648b4","getYieldAmount()":"121a23c1","grantRole(bytes32,address)":"2f2ff15d","harvestYield()":"e8d991d1","hasRole(bytes32,address)":"91d14854","pool()":"16f0115b","renounceRole(bytes32,address)":"36568abe","revokeRole(bytes32,address)":"d547741f","supportsInterface(bytes4)":"01ffc9a7","underlyingAsset()":"7158da7c","withdraw(uint256)":"2e1a7d4d"},"id":89}