{"abi":[{"type":"constructor","inputs":[{"name":"_user","type":"address","internalType":"address"},{"name":"_acceptedTokens","type":"address[]","internalType":"address[]"}],"stateMutability":"nonpayable"},{"type":"function","name":"acceptedTokens","inputs":[{"name":"","type":"uint256","internalType":"uint256"}],"outputs":[{"name":"","type":"address","internalType":"address"}],"stateMutability":"view"},{"type":"function","name":"autoSave","inputs":[{"name":"_amount","type":"uint256","internalType":"uint256"}],"outputs":[],"stateMutability":"nonpayable"},{"type":"function","name":"autoSaveEnabled","inputs":[],"outputs":[{"name":"","type":"bool","internalType":"bool"}],"stateMutability":"view"},{"type":"function","name":"challenges","inputs":[{"name":"","type":"address","internalType":"address"}],"outputs":[{"name":"target","type":"uint256","internalType":"uint256"},{"name":"deadline","type":"uint256","internalType":"uint256"},{"name":"completed","type":"bool","internalType":"bool"}],"stateMutability":"view"},{"type":"function","name":"createChallenge","inputs":[{"name":"_token","type":"address","internalType":"address"},{"name":"_target","type":"uint256","internalType":"uint256"},{"name":"_durationInDays","type":"uint256","internalType":"uint256"}],"outputs":[],"stateMutability":"nonpayable"},{"type":"function","name":"defaultToken","inputs":[],"outputs":[{"name":"","type":"address","internalType":"address"}],"stateMutability":"view"},{"type":"function","name":"deposit","inputs":[{"name":"_token","type":"address","internalType":"address"},{"name":"_amount","type":"uint256","internalType":"uint256"}],"outputs":[],"stateMutability":"nonpayable"},{"type":"function","name":"getAcceptedTokens","inputs":[],"outputs":[{"name":"","type":"address[]","internalType":"address[]"}],"stateMutability":"view"},{"type":"function","name":"getBalance","inputs":[{"name":"_token","type":"address","internalType":"address"}],"outputs":[{"name":"","type":"uint256","internalType":"uint256"}],"stateMutability":"view"},{"type":"function","name":"getChallengeStatus","inputs":[{"name":"_token","type":"address","internalType":"address"}],"outputs":[{"name":"","type":"uint256","internalType":"uint256"},{"name":"","type":"uint256","internalType":"uint256"},{"name":"","type":"bool","internalType":"bool"}],"stateMutability":"view"},{"type":"function","name":"isTokenAccepted","inputs":[{"name":"","type":"address","internalType":"address"}],"outputs":[{"name":"","type":"bool","internalType":"bool"}],"stateMutability":"view"},{"type":"function","name":"operator","inputs":[],"outputs":[{"name":"","type":"address","internalType":"address"}],"stateMutability":"view"},{"type":"function","name":"owner","inputs":[],"outputs":[{"name":"","type":"address","internalType":"address"}],"stateMutability":"view"},{"type":"function","name":"renounceOwnership","inputs":[],"outputs":[],"stateMutability":"nonpayable"},{"type":"function","name":"savingsCompatible","inputs":[],"outputs":[{"name":"","type":"bool","internalType":"bool"}],"stateMutability":"pure"},{"type":"function","name":"toggleAutoSave","inputs":[{"name":"_enabled","type":"bool","internalType":"bool"},{"name":"_defaultToken","type":"address","internalType":"address"},{"name":"_operator","type":"address","internalType":"address"}],"outputs":[],"stateMutability":"nonpayable"},{"type":"function","name":"tokenSavings","inputs":[{"name":"","type":"address","internalType":"address"}],"outputs":[{"name":"","type":"uint256","internalType":"uint256"}],"stateMutability":"view"},{"type":"function","name":"transferOwnership","inputs":[{"name":"newOwner","type":"address","internalType":"address"}],"outputs":[],"stateMutability":"nonpayable"},{"type":"function","name":"withdraw","inputs":[{"name":"_token","type":"address","internalType":"address"},{"name":"_amount","type":"uint256","internalType":"uint256"}],"outputs":[],"stateMutability":"nonpayable"},{"type":"event","name":"AutoSaveToggled","inputs":[{"name":"enabled","type":"bool","indexed":false,"internalType":"bool"},{"name":"defaultToken","type":"address","indexed":false,"internalType":"address"},{"name":"operator","type":"address","indexed":false,"internalType":"address"}],"anonymous":false},{"type":"event","name":"ChallengeCompleted","inputs":[{"name":"token","type":"address","indexed":true,"internalType":"address"}],"anonymous":false},{"type":"event","name":"ChallengeCreated","inputs":[{"name":"token","type":"address","indexed":true,"internalType":"address"},{"name":"target","type":"uint256","indexed":false,"internalType":"uint256"},{"name":"deadline","type":"uint256","indexed":false,"internalType":"uint256"}],"anonymous":false},{"type":"event","name":"Deposit","inputs":[{"name":"user","type":"address","indexed":true,"internalType":"address"},{"name":"token","type":"address","indexed":true,"internalType":"address"},{"name":"amount","type":"uint256","indexed":false,"internalType":"uint256"}],"anonymous":false},{"type":"event","name":"OwnershipTransferred","inputs":[{"name":"previousOwner","type":"address","indexed":true,"internalType":"address"},{"name":"newOwner","type":"address","indexed":true,"internalType":"address"}],"anonymous":false},{"type":"event","name":"Withdraw","inputs":[{"name":"user","type":"address","indexed":true,"internalType":"address"},{"name":"token","type":"address","indexed":true,"internalType":"address"},{"name":"amount","type":"uint256","indexed":false,"internalType":"uint256"}],"anonymous":false},{"type":"error","name":"AddressEmptyCode","inputs":[{"name":"target","type":"address","internalType":"address"}]},{"type":"error","name":"AddressInsufficientBalance","inputs":[{"name":"account","type":"address","internalType":"address"}]},{"type":"error","name":"FailedInnerCall","inputs":[]},{"type":"error","name":"OwnableInvalidOwner","inputs":[{"name":"owner","type":"address","internalType":"address"}]},{"type":"error","name":"OwnableUnauthorizedAccount","inputs":[{"name":"account","type":"address","internalType":"address"}]},{"type":"error","name":"ReentrancyGuardReentrantCall","inputs":[]},{"type":"error","name":"SafeERC20FailedOperation","inputs":[{"name":"token","type":"address","internalType":"address"}]}],"bytecode":{"object":"0x608060405234801561001057600080fd5b506040516115f83803806115f883398101604081905261002f91610268565b8181816001600160a01b03811661006157604051631e4fbdf760e01b8152600060048201526024015b60405180910390fd5b61006a816100c4565b506001805560005b81518110156100ab576100a382828151811061009057610090610341565b602002602001015161011460201b60201c565b600101610072565b5050506100bd826100c460201b60201c565b5050610357565b600080546001600160a01b038381166001600160a01b0319831681178455604051919092169283917f8be0079c531659141344cd1fd0a4f28419497f9722a3daafe3b4186f6b6457e09190a35050565b6001600160a01b03811660009081526006602052604090205460ff161561017d5760405162461bcd60e51b815260206004820152601660248201527f546f6b656e20616c7265616479206163636570746564000000000000000000006044820152606401610058565b6005546020116101cf5760405162461bcd60e51b815260206004820152601b60248201527f4d6178696d756d20746f6b656e206c696d6974207265616368656400000000006044820152606401610058565b6005805460018181019092557f036b6384b5eca791c62761152d0c79bb0604c104a5fb6f4eb0703f3154bb3db00180546001600160a01b039093166001600160a01b031990931683179055600091825260066020526040909120805460ff19169091179055565b80516001600160a01b038116811461024d57600080fd5b919050565b634e487b7160e01b600052604160045260246000fd5b6000806040838503121561027b57600080fd5b61028483610236565b602084810151919350906001600160401b03808211156102a357600080fd5b818601915086601f8301126102b757600080fd5b8151818111156102c9576102c9610252565b8060051b604051601f19603f830116810181811085821117156102ee576102ee610252565b60405291825284820192508381018501918983111561030c57600080fd5b938501935b828510156103315761032285610236565b84529385019392850192610311565b8096505050505050509250929050565b634e487b7160e01b600052603260045260246000fd5b611292806103666000396000f3fe608060405234801561001057600080fd5b50600436106101215760003560e01c8063570ca735116100ad5780638da5cb5b116100715780638da5cb5b146102d9578063a6227521146102ea578063f2fde38b146102fd578063f3fef3a314610310578063f8b2cb4f1461032357600080fd5b8063570ca73514610292578063715018a6146102aa57806374c13fda146102b257806381684db5146102c557806384bfd0df146102d257600080fd5b80632f757006116100f45780632f7570061461021757806332469ffe1461022c57806336c877541461024157806347e7ef241461026c5780634ad06e461461027f57600080fd5b80630560bd961461012657806308b43a191461015e57806318a029cf146101ad5780632ce9f4ca146101db575b600080fd5b610149610134366004611010565b60066020526000908152604090205460ff1681565b60405190151581526020015b60405180910390f35b61019061016c366004611010565b60076020526000908152604090208054600182015460029092015490919060ff1683565b604080519384526020840192909252151590820152606001610155565b6101cd6101bb366004611010565b60046020526000908152604090205481565b604051908152602001610155565b6101906101e9366004611010565b6001600160a01b0316600090815260076020526040902080546001820154600290920154909260ff90911690565b61021f61034c565b604051610155919061102b565b61023f61023a366004611078565b6103ae565b005b61025461024f366004611078565b610435565b6040516001600160a01b039091168152602001610155565b61023f61027a366004611091565b61045f565b61023f61028d3660046110bb565b61048f565b6002546102549061010090046001600160a01b031681565b61023f61061c565b600354610254906001600160a01b031681565b6002546101499060ff1681565b6001610149565b6000546001600160a01b0316610254565b61023f6102f83660046110fc565b610630565b61023f61030b366004611010565b610704565b61023f61031e366004611091565b61073f565b6101cd610331366004611010565b6001600160a01b031660009081526004602052604090205490565b606060058054806020026020016040519081016040528092919081815260200182805480156103a457602002820191906000526020600020905b81546001600160a01b03168152600190910190602001808311610386575b5050505050905090565b60025461010090046001600160a01b031633146104035760405162461bcd60e51b815260206004820152600e60248201526d139bdd08185d5d1a1bdc9a5e995960921b60448201526064015b60405180910390fd5b61040b610800565b6104148161082a565b600354610429906001600160a01b03166109b5565b61043260018055565b50565b6005818154811061044557600080fd5b6000918252602090912001546001600160a01b0316905081565b610467610a47565b61046f610800565b6104798282610a74565b610482826109b5565b61048b60018055565b5050565b610497610a47565b6001600160a01b03831660009081526006602052604090205460ff166104cf5760405162461bcd60e51b81526004016103fa90611141565b6000821161051f5760405162461bcd60e51b815260206004820152601d60248201527f546172676574206d7573742062652067726561746572207468616e203000000060448201526064016103fa565b6000811161056f5760405162461bcd60e51b815260206004820152601f60248201527f4475726174696f6e206d7573742062652067726561746572207468616e20300060448201526064016103fa565b600061057e8262015180611183565b610588904261119a565b60408051606081018252858152602080820184815260008385018181526001600160a01b038b168083526007855291869020945185559151600185015590516002909301805460ff1916931515939093179092558251878152908101849052929350917f95cfc8daa181e686d14ea373e0fa93457a03e05c990e4b069e4aa84a43632c8c910160405180910390a250505050565b610624610a47565b61062e6000610b67565b565b610638610a47565b6001600160a01b03821660009081526006602052604090205460ff166106705760405162461bcd60e51b81526004016103fa90611141565b60028054600380546001600160a01b0319166001600160a01b038681169182179092556001600160a81b0319909216861515610100600160a81b031981169190911761010092861692830217909355604080519384526020840192909252908201527f629a66e9009f2689e67705f82a8e844ebd3be4c0168030a4727bc4b90663e15d9060600160405180910390a1505050565b61070c610a47565b6001600160a01b03811661073657604051631e4fbdf760e01b8152600060048201526024016103fa565b61043281610b67565b610747610a47565b61074f610800565b6001600160a01b0382166000908152600760205260409020600281015460ff168061077d5750806001015442115b8061078757508054155b6107ec5760405162461bcd60e51b815260206004820152603060248201527f4368616c6c656e6765206e6f7420636f6d706c6574656420616e64206465616460448201526f1b1a5b99481b9bdd081c995858da195960821b60648201526084016103fa565b6107f68383610bb7565b5061048b60018055565b60026001540361082357604051633ee5aeb560e01b815260040160405180910390fd5b6002600155565b60025461010090046001600160a01b0316331461087a5760405162461bcd60e51b815260206004820152600e60248201526d139bdd08185d5d1a1bdc9a5e995960921b60448201526064016103fa565b610882610800565b60025460ff166108d45760405162461bcd60e51b815260206004820152601860248201527f4175746f2d73617665206973206e6f7420656e61626c6564000000000000000060448201526064016103fa565b600081116108f45760405162461bcd60e51b81526004016103fa906111ad565b61091d6109096000546001600160a01b031690565b6003546001600160a01b0316903084610db3565b6003546001600160a01b03166000908152600460205260408120805483929061094790849061119a565b90915550506003546001600160a01b031661096a6000546001600160a01b031690565b6001600160a01b03167f5548c837ab068cf56a2c2479df0882a4922fd203edb7517321831d95078c5f62836040516109a491815260200190565b60405180910390a361043260018055565b6001600160a01b0381166000908152600760205260409020600281015460ff161580156109fb575080546001600160a01b03831660009081526004602052604090205410155b1561048b5760028101805460ff191660011790556040516001600160a01b038316907f7dd697fad89cdc5a0e8c25ec0d7e47927473ff89d5b1f2dccf638f2d8dbea5a990600090a25050565b6000546001600160a01b0316331461062e5760405163118cdaa760e01b81523360048201526024016103fa565b610a7c610a47565b610a84610800565b6001600160a01b03821660009081526006602052604090205460ff16610abc5760405162461bcd60e51b81526004016103fa90611141565b60008111610adc5760405162461bcd60e51b81526004016103fa906111ad565b610af16001600160a01b038316333084610db3565b6001600160a01b03821660009081526004602052604081208054839290610b1990849061119a565b90915550506040518181526001600160a01b0383169033907f5548c837ab068cf56a2c2479df0882a4922fd203edb7517321831d95078c5f629060200160405180910390a361048b60018055565b600080546001600160a01b038381166001600160a01b0319831681178455604051919092169283917f8be0079c531659141344cd1fd0a4f28419497f9722a3daafe3b4186f6b6457e09190a35050565b610bbf610a47565b610bc7610800565b6001600160a01b03821660009081526006602052604090205460ff16610bff5760405162461bcd60e51b81526004016103fa90611141565b60008111610c1f5760405162461bcd60e51b81526004016103fa906111ad565b6040516370a0823160e01b81523060048201526000906001600160a01b038416906370a0823190602401602060405180830381865afa158015610c66573d6000803e3d6000fd5b505050506040513d601f19601f82011682018060405250810190610c8a91906111e4565b6001600160a01b038416600090815260046020526040902054909150811115610cc857506001600160a01b0382166000908152600460205260409020545b6001600160a01b038316600090815260046020526040902054821115610d275760405162461bcd60e51b8152602060048201526014602482015273496e73756666696369656e742062616c616e636560601b60448201526064016103fa565b6001600160a01b03831660009081526004602052604081208054849290610d4f9084906111fd565b90915550610d6990506001600160a01b0384163384610e20565b6040518281526001600160a01b0384169033907f9b1bfa7fa9ee420a16e124f794c35ac9f90472acc99140eb2f6447c714cad8eb9060200160405180910390a35061048b60018055565b6040516001600160a01b038481166024830152838116604483015260648201839052610e1a9186918216906323b872dd906084015b604051602081830303815290604052915060e01b6020820180516001600160e01b038381831617835250505050610e56565b50505050565b6040516001600160a01b03838116602483015260448201839052610e5191859182169063a9059cbb90606401610de8565b505050565b6000610e6b6001600160a01b03841683610eb9565b90508051600014158015610e90575080806020019051810190610e8e9190611210565b155b15610e5157604051635274afe760e01b81526001600160a01b03841660048201526024016103fa565b6060610ec783836000610ed0565b90505b92915050565b606081471015610ef55760405163cd78605960e01b81523060048201526024016103fa565b600080856001600160a01b03168486604051610f11919061122d565b60006040518083038185875af1925050503d8060008114610f4e576040519150601f19603f3d011682016040523d82523d6000602084013e610f53565b606091505b5091509150610f63868383610f6f565b925050505b9392505050565b606082610f8457610f7f82610fcb565b610f68565b8151158015610f9b57506001600160a01b0384163b155b15610fc457604051639996b31560e01b81526001600160a01b03851660048201526024016103fa565b5080610f68565b805115610fdb5780518082602001fd5b604051630a12f52160e11b815260040160405180910390fd5b80356001600160a01b038116811461100b57600080fd5b919050565b60006020828403121561102257600080fd5b610ec782610ff4565b6020808252825182820181905260009190848201906040850190845b8181101561106c5783516001600160a01b031683529284019291840191600101611047565b50909695505050505050565b60006020828403121561108a57600080fd5b5035919050565b600080604083850312156110a457600080fd5b6110ad83610ff4565b946020939093013593505050565b6000806000606084860312156110d057600080fd5b6110d984610ff4565b95602085013595506040909401359392505050565b801515811461043257600080fd5b60008060006060848603121561111157600080fd5b833561111c816110ee565b925061112a60208501610ff4565b915061113860408501610ff4565b90509250925092565b602080825260129082015271151bdad95b881b9bdd081858d8d95c1d195960721b604082015260600190565b634e487b7160e01b600052601160045260246000fd5b8082028115828204841417610eca57610eca61116d565b80820180821115610eca57610eca61116d565b6020808252601d908201527f416d6f756e74206d7573742062652067726561746572207468616e2030000000604082015260600190565b6000602082840312156111f657600080fd5b5051919050565b81810381811115610eca57610eca61116d565b60006020828403121561122257600080fd5b8151610f68816110ee565b6000825160005b8181101561124e5760208186018101518583015201611234565b50600092019182525091905056fea2646970667358221220a4ef4cf13d77e6867e3fb2d43ca40a531f8535c0069b173c73d1326d3fccbb5964736f6c63430008190033","linkReferences":{}},"methodIdentifiers":{"acceptedTokens(uint256)":"36c87754","autoSave(uint256)":"32469ffe","autoSaveEnabled()":"81684db5","challenges(address)":"08b43a19","createChallenge(address,uint256,uint256)":"4ad06e46","defaultToken()":"74c13fda","deposit(address,uint256)":"47e7ef24","getAcceptedTokens()":"2f757006","getBalance(address)":"f8b2cb4f","getChallengeStatus(address)":"2ce9f4ca","isTokenAccepted(address)":"0560bd96","operator()":"570ca735","owner()":"8da5cb5b","renounceOwnership()":"715018a6","savingsCompatible()":"84bfd0df","toggleAutoSave(bool,address,address)":"a6227521","tokenSavings(address)":"18a029cf","transferOwnership(address)":"f2fde38b","withdraw(address,uint256)":"f3fef3a3"},"id":101}