{"abi":[{"type":"constructor","inputs":[{"name":"admin","type":"address","internalType":"address"},{"name":"_ccipRouter","type":"address","internalType":"address"}],"stateMutability":"nonpayable"},{"type":"fallback","stateMutability":"payable"},{"type":"receive","stateMutability":"payable"},{"type":"function","name":"CROSS_CHAIN_TRANSFER","inputs":[],"outputs":[{"name":"","type":"uint16","internalType":"uint16"}],"stateMutability":"view"},{"type":"function","name":"authorizedContracts","inputs":[{"name":"","type":"address","internalType":"address"}],"outputs":[{"name":"","type":"bool","internalType":"bool"}],"stateMutability":"view"},{"type":"function","name":"ccipReceive","inputs":[{"name":"any2EvmMessage","type":"tuple","internalType":"struct Client.Any2EVMMessage","components":[{"name":"messageId","type":"bytes32","internalType":"bytes32"},{"name":"sourceChainSelector","type":"uint64","internalType":"uint64"},{"name":"sender","type":"bytes","internalType":"bytes"},{"name":"data","type":"bytes","internalType":"bytes"},{"name":"destTokenAmounts","type":"tuple[]","internalType":"struct Client.EVMTokenAmount[]","components":[{"name":"token","type":"address","internalType":"address"},{"name":"amount","type":"uint256","internalType":"uint256"}]}]}],"outputs":[],"stateMutability":"nonpayable"},{"type":"function","name":"ccipRouter","inputs":[],"outputs":[{"name":"","type":"address","internalType":"contract IRouterClient"}],"stateMutability":"view"},{"type":"function","name":"crossChainTransfer","inputs":[{"name":"_destinationChainSelector","type":"uint64","internalType":"uint64"},{"name":"_receiver","type":"address","internalType":"address"},{"name":"_token","type":"address","internalType":"address"},{"name":"_amount","type":"uint256","internalType":"uint256"}],"outputs":[{"name":"messageId","type":"bytes32","internalType":"bytes32"}],"stateMutability":"payable"},{"type":"function","name":"deleteReceiverForDestinationChain","inputs":[{"name":"_destinationChainSelector","type":"uint64","internalType":"uint64"}],"outputs":[],"stateMutability":"nonpayable"},{"type":"function","name":"estimateCrossChainTransferFee","inputs":[{"name":"_dstChainId","type":"uint64","internalType":"uint64"},{"name":"_token","type":"address","internalType":"address"},{"name":"_amount","type":"uint256","internalType":"uint256"},{"name":"_to","type":"address","internalType":"address"},{"name":"_extraParams","type":"bytes","internalType":"bytes"}],"outputs":[{"name":"","type":"uint256","internalType":"uint256"}],"stateMutability":"view"},{"type":"function","name":"getFailedMessages","inputs":[{"name":"offset","type":"uint256","internalType":"uint256"},{"name":"limit","type":"uint256","internalType":"uint256"}],"outputs":[{"name":"","type":"tuple[]","internalType":"struct ProtocolCrossChainManager.FailedMessage[]","components":[{"name":"messageId","type":"bytes32","internalType":"bytes32"},{"name":"errorCode","type":"uint8","internalType":"enum ProtocolCrossChainManager.ErrorCode"}]}],"stateMutability":"view"},{"type":"function","name":"getRouter","inputs":[],"outputs":[{"name":"","type":"address","internalType":"address"}],"stateMutability":"view"},{"type":"function","name":"isSavingsAccount","inputs":[{"name":"_user","type":"address","internalType":"address"}],"outputs":[],"stateMutability":"view"},{"type":"function","name":"messageContents","inputs":[{"name":"","type":"bytes32","internalType":"bytes32"}],"outputs":[{"name":"messageId","type":"bytes32","internalType":"bytes32"},{"name":"sourceChainSelector","type":"uint64","internalType":"uint64"},{"name":"sender","type":"bytes","internalType":"bytes"},{"name":"data","type":"bytes","internalType":"bytes"}],"stateMutability":"view"},{"type":"function","name":"owner","inputs":[],"outputs":[{"name":"","type":"address","internalType":"address"}],"stateMutability":"view"},{"type":"function","name":"processMessage","inputs":[{"name":"any2EvmMessage","type":"tuple","internalType":"struct Client.Any2EVMMessage","components":[{"name":"messageId","type":"bytes32","internalType":"bytes32"},{"name":"sourceChainSelector","type":"uint64","internalType":"uint64"},{"name":"sender","type":"bytes","internalType":"bytes"},{"name":"data","type":"bytes","internalType":"bytes"},{"name":"destTokenAmounts","type":"tuple[]","internalType":"struct Client.EVMTokenAmount[]","components":[{"name":"token","type":"address","internalType":"address"},{"name":"amount","type":"uint256","internalType":"uint256"}]}]}],"outputs":[],"stateMutability":"nonpayable"},{"type":"function","name":"receivers","inputs":[{"name":"","type":"uint64","internalType":"uint64"}],"outputs":[{"name":"","type":"address","internalType":"address"}],"stateMutability":"view"},{"type":"function","name":"renounceOwnership","inputs":[],"outputs":[],"stateMutability":"nonpayable"},{"type":"function","name":"retryFailedMessage","inputs":[{"name":"messageId","type":"bytes32","internalType":"bytes32"},{"name":"beneficiary","type":"address","internalType":"address"}],"outputs":[],"stateMutability":"nonpayable"},{"type":"function","name":"setAuthorizedContract","inputs":[{"name":"_contract","type":"address","internalType":"address"},{"name":"_isAuthorized","type":"bool","internalType":"bool"}],"outputs":[],"stateMutability":"nonpayable"},{"type":"function","name":"setReceiverForDestinationChain","inputs":[{"name":"_destinationChainSelector","type":"uint64","internalType":"uint64"},{"name":"_receiver","type":"address","internalType":"address"}],"outputs":[],"stateMutability":"nonpayable"},{"type":"function","name":"supportsInterface","inputs":[{"name":"interfaceId","type":"bytes4","internalType":"bytes4"}],"outputs":[{"name":"","type":"bool","internalType":"bool"}],"stateMutability":"pure"},{"type":"function","name":"transferOwnership","inputs":[{"name":"newOwner","type":"address","internalType":"address"}],"outputs":[],"stateMutability":"nonpayable"},{"type":"function","name":"withdraw","inputs":[{"name":"amount","type":"uint256","internalType":"uint256"}],"outputs":[],"stateMutability":"nonpayable"},{"type":"event","name":"AuthorizedContractSet","inputs":[{"name":"contractAddress","type":"address","indexed":true,"internalType":"address"},{"name":"isAuthorized","type":"bool","indexed":false,"internalType":"bool"}],"anonymous":false},{"type":"event","name":"CrossChainTransferFailed","inputs":[{"name":"messageId","type":"bytes32","indexed":true,"internalType":"bytes32"},{"name":"reason","type":"bytes","indexed":false,"internalType":"bytes"}],"anonymous":false},{"type":"event","name":"CrossChainTransferInitiated","inputs":[{"name":"dstChainId","type":"uint256","indexed":true,"internalType":"uint256"},{"name":"token","type":"address","indexed":true,"internalType":"address"},{"name":"amount","type":"uint256","indexed":false,"internalType":"uint256"},{"name":"from","type":"address","indexed":true,"internalType":"address"}],"anonymous":false},{"type":"event","name":"CrossChainTransferReceived","inputs":[{"name":"messageId","type":"bytes32","indexed":true,"internalType":"bytes32"},{"name":"sourceChainSelector","type":"uint64","indexed":true,"internalType":"uint64"},{"name":"sender","type":"address","indexed":true,"internalType":"address"},{"name":"data","type":"bytes","indexed":false,"internalType":"bytes"},{"name":"token","type":"address","indexed":false,"internalType":"address"},{"name":"tokenAmount","type":"uint256","indexed":false,"internalType":"uint256"}],"anonymous":false},{"type":"event","name":"CrossChainTransferRecovered","inputs":[{"name":"messageId","type":"bytes32","indexed":true,"internalType":"bytes32"}],"anonymous":false},{"type":"event","name":"OwnershipTransferred","inputs":[{"name":"previousOwner","type":"address","indexed":true,"internalType":"address"},{"name":"newOwner","type":"address","indexed":true,"internalType":"address"}],"anonymous":false},{"type":"event","name":"TokensTransferred","inputs":[{"name":"messageId","type":"bytes32","indexed":true,"internalType":"bytes32"},{"name":"destinationChainSelector","type":"uint64","indexed":true,"internalType":"uint64"},{"name":"receiver","type":"address","indexed":false,"internalType":"address"},{"name":"token","type":"address","indexed":false,"internalType":"address"},{"name":"tokenAmount","type":"uint256","indexed":false,"internalType":"uint256"},{"name":"feeToken","type":"address","indexed":false,"internalType":"address"},{"name":"fees","type":"uint256","indexed":false,"internalType":"uint256"}],"anonymous":false},{"type":"error","name":"AddressEmptyCode","inputs":[{"name":"target","type":"address","internalType":"address"}]},{"type":"error","name":"AddressInsufficientBalance","inputs":[{"name":"account","type":"address","internalType":"address"}]},{"type":"error","name":"FailedInnerCall","inputs":[]},{"type":"error","name":"InvalidRouter","inputs":[{"name":"router","type":"address","internalType":"address"}]},{"type":"error","name":"OwnableInvalidOwner","inputs":[{"name":"owner","type":"address","internalType":"address"}]},{"type":"error","name":"OwnableUnauthorizedAccount","inputs":[{"name":"account","type":"address","internalType":"address"}]},{"type":"error","name":"SafeERC20FailedOperation","inputs":[{"name":"token","type":"address","internalType":"address"}]}],"bytecode":{"object":"0x60a060405234801561001057600080fd5b5060405161293d38038061293d83398101604081905261002f9161012c565b80826001600160a01b03811661006057604051631e4fbdf760e01b8152600060048201526024015b60405180910390fd5b610069816100c0565b506001600160a01b038116610094576040516335fdcccd60e21b815260006004820152602401610057565b6001600160a01b03908116608052600780546001600160a01b031916929091169190911790555061015f565b600080546001600160a01b038381166001600160a01b0319831681178455604051919092169283917f8be0079c531659141344cd1fd0a4f28419497f9722a3daafe3b4186f6b6457e09190a35050565b80516001600160a01b038116811461012757600080fd5b919050565b6000806040838503121561013f57600080fd5b61014883610110565b915061015660208401610110565b90509250929050565b6080516127bc610181600039600081816102e80152610c5e01526127bc6000f3fe6080604052600436106101225760003560e01c80638da5cb5b116100a5578063d5b9221b1161006c578063d5b9221b1461035c578063d765ba721461038c578063e6bf6472146103ac578063f2fa7392146103d4578063f2fde38b146103f4578063fbaa1fa41461041457005b80638da5cb5b1461029b5780639c18c570146102b9578063b0f479a1146102d9578063c9c093a21461030c578063cf6730f81461033c57005b80633f3b7a6f116100e95780633f3b7a6f14610206578063715018a6146102265780637ea736e21461023b57806385572ffb1461024e5780638d9d89fe1461026e57005b806301ffc9a71461012b57806306464cdc146101605780630de229841461018e5780632e1a7d4d146101c6578063369f7f66146101e657005b3661012957005b005b34801561013757600080fd5b5061014b610146366004611aa9565b61044a565b60405190151581526020015b60405180910390f35b34801561016c57600080fd5b5061018061017b366004611c0c565b610481565b604051908152602001610157565b34801561019a57600080fd5b506007546101ae906001600160a01b031681565b6040516001600160a01b039091168152602001610157565b3480156101d257600080fd5b506101296101e1366004611c8a565b61055b565b3480156101f257600080fd5b50610129610201366004611ca3565b6105c4565b34801561021257600080fd5b50610129610221366004611cd3565b610894565b34801561023257600080fd5b50610129610952565b610180610249366004611d01565b610966565b34801561025a57600080fd5b50610129610269366004611d52565b610c53565b34801561027a57600080fd5b5061028e610289366004611d8c565b610d8b565b6040516101579190611dc4565b3480156102a757600080fd5b506000546001600160a01b03166101ae565b3480156102c557600080fd5b506101296102d4366004611e31565b610eb0565b3480156102e557600080fd5b507f00000000000000000000000000000000000000000000000000000000000000006101ae565b34801561031857600080fd5b5061032c610327366004611c8a565b610f77565b6040516101579493929190611e9e565b34801561034857600080fd5b50610129610357366004611d52565b6110ba565b34801561036857600080fd5b5061014b610377366004611ee3565b60016020526000908152604090205460ff1681565b34801561039857600080fd5b506101296103a7366004611ee3565b611107565b3480156103b857600080fd5b506103c1600181565b60405161ffff9091168152602001610157565b3480156103e057600080fd5b506101296103ef366004611f0e565b6111b5565b34801561040057600080fd5b5061012961040f366004611ee3565b611215565b34801561042057600080fd5b506101ae61042f366004611e31565b6002602052600090815260409020546001600160a01b031681565b60006001600160e01b031982166385572ffb60e01b148061047b57506001600160e01b031982166301ffc9a760e01b145b92915050565b6001600160401b03851660009081526002602090815260408083205481516001600160a01b038781169482019490945284936104d693921691899189918691015b604051602081830303815290604052611250565b6007546040516320487ded60e01b81529192506000916001600160a01b03909116906320487ded9061050e908b908690600401611f3c565b602060405180830381865afa15801561052b573d6000803e3d6000fd5b505050506040513d601f19601f8201168201806040525081019061054f9190612018565b98975050505050505050565b6105636113b2565b6000546001600160a01b03166001600160a01b03168160405160006040518083038185875af1925050503d80600081146105b9576040519150601f19603f3d011682016040523d82523d6000602084013e6105be565b606091505b50505050565b6105cc6113b2565b60016105d96004846113df565b036106205760405162461bcd60e51b815260206004820152601260248201527113595cdcd859d948139bdd0811985a5b195960721b60448201526064015b60405180910390fd5b6106308260005b600491906113f2565b506000828152600360209081526040808320815160a0810183528154815260018201546001600160401b031693810193909352600281018054919284019161067790612031565b80601f01602080910402602001604051908101604052809291908181526020018280546106a390612031565b80156106f05780601f106106c5576101008083540402835291602001916106f0565b820191906000526020600020905b8154815290600101906020018083116106d357829003601f168201915b5050505050815260200160038201805461070990612031565b80601f016020809104026020016040519081016040528092919081815260200182805461073590612031565b80156107825780601f1061075757610100808354040283529160200191610782565b820191906000526020600020905b81548152906001019060200180831161076557829003601f168201915b5050505050815260200160048201805480602002602001604051908101604052809291908181526020016000905b828210156107f8576000848152602090819020604080518082019091526002850290910180546001600160a01b031682526001908101548284015290835290920191016107b0565b5050505081525050905061086482826080015160008151811061081d5761081d61206b565b60200260200101516020015183608001516000815181106108405761084061206b565b6020026020010151600001516001600160a01b03166114079092919063ffffffff16565b60405183907f77ee0b2fe5ae0f59afa14d61cebeed5545de3bb35b9cdf746b96b231676a900f90600090a2505050565b61089c6113b2565b816001600160401b038116156108c45760405162461bcd60e51b815260040161061790612081565b816001600160a01b038116156109175760405162461bcd60e51b8152602060048201526018602482015277496e76616c6964205265636569766572204164647265737360401b6044820152606401610617565b50506001600160401b0391909116600090815260026020526040902080546001600160a01b0319166001600160a01b03909216919091179055565b61095a6113b2565b610964600061145e565b565b6000846001600160401b038116156109905760405162461bcd60e51b815260040161061790612081565b846001600160a01b038116156109e35760405162461bcd60e51b8152602060048201526018602482015277496e76616c6964205265636569766572204164647265737360401b6044820152606401610617565b6109ec33611107565b6001600160401b03871660009081526002602090815260408083205481516001600160a01b038b811694820194909452610a309390911691899189918691016104c2565b6007546040516320487ded60e01b81529192506000916001600160a01b03909116906320487ded90610a68908c908690600401611f3c565b602060405180830381865afa158015610a85573d6000803e3d6000fd5b505050506040513d601f19601f82011682018060405250810190610aa99190612018565b9050348111610aef5760405162461bcd60e51b81526020600482015260126024820152714e6f7420456e6f7567682042616c616e636560701b6044820152606401610617565b60075460405163095ea7b360e01b81526001600160a01b039182166004820152602481018890529088169063095ea7b3906044016020604051808303816000875af1158015610b42573d6000803e3d6000fd5b505050506040513d601f19601f82011682018060405250810190610b6691906120b8565b506007546040516396f4e9f960e01b81526001600160a01b03909116906396f4e9f9908390610b9b908d908790600401611f3c565b60206040518083038185885af1158015610bb9573d6000803e3d6000fd5b50505050506040513d601f19601f82011682018060405250810190610bde9190612018565b604080516001600160a01b03808c1682528a16602082015290810188905260006060820152608081018390529095506001600160401b038a169086907fc15fb748c32ba4eb29c1c311e78533f93b4425eab49ea87c6fe4279ecadca0439060a00160405180910390a350505050949350505050565b336001600160a01b037f00000000000000000000000000000000000000000000000000000000000000001614610c9e576040516335fdcccd60e21b8152336004820152602401610617565b6040516319ece61f60e31b8152309063cf6730f890610cc1908490600401612196565b600060405180830381600087803b158015610cdb57600080fd5b505af1925050508015610cec575060015b610d88573d808015610d1a576040519150601f19603f3d011682016040523d82523d6000602084013e610d1f565b606091505b50610d2c82356001610627565b50813560009081526003602052604090208290610d4982826124cb565b50506040518235907f836bebdcffcd6341be2a77b913df6b14fe9c9eb1bef906fe4a4a8c68b9bd7eba90610d7e90849061258e565b60405180910390a2505b50565b60606000610d9960046114ae565b9050600081610da885876125a1565b11610db35783610dbd565b610dbd85836125b4565b90506000816001600160401b03811115610dd957610dd9611b0d565b604051908082528060200260200182016040528015610e1e57816020015b6040805180820190915260008082526020820152815260200190600190039081610df75790505b50905060005b82811015610ea657600080610e44610e3c848b6125a1565b6004906114b9565b915091506040518060400160405280838152602001826001811115610e6b57610e6b611dae565b6001811115610e7c57610e7c611dae565b815250848481518110610e9157610e9161206b565b60209081029190910101525050600101610e24565b5095945050505050565b610eb86113b2565b806001600160401b03811615610ee05760405162461bcd60e51b815260040161061790612081565b6001600160401b0382166000908152600260205260409020546001600160a01b031615610f4f5760405162461bcd60e51b815260206004820181905260248201527f4e6f205265636569766572204f6e2044657374696e6174696f6e20436861696e6044820152606401610617565b506001600160401b0316600090815260026020526040902080546001600160a01b0319169055565b60036020526000908152604090208054600182015460028301805492936001600160401b0390921692610fa990612031565b80601f0160208091040260200160405190810160405280929190818152602001828054610fd590612031565b80156110225780601f10610ff757610100808354040283529160200191611022565b820191906000526020600020905b81548152906001019060200180831161100557829003601f168201915b50505050509080600301805461103790612031565b80601f016020809104026020016040519081016040528092919081815260200182805461106390612031565b80156110b05780601f10611085576101008083540402835291602001916110b0565b820191906000526020600020905b81548152906001019060200180831161109357829003601f168201915b5050505050905084565b3033036110f65760405162461bcd60e51b815260206004820152600a6024820152691027b7363c9029b2b63360b11b6044820152606401610617565b610d8861110282612673565b6114d7565b806001600160a01b03166384bfd0df6040518163ffffffff1660e01b8152600401602060405180830381865afa158015611145573d6000803e3d6000fd5b505050506040513d601f19601f8201168201806040525081019061116991906120b8565b610d885760405162461bcd60e51b815260206004820181905260248201527f4e6f74206120636f6d70617469626c6520736176696e6773206163636f756e746044820152606401610617565b6111bd6113b2565b6001600160a01b038216600081815260016020908152604091829020805460ff191685151590811790915591519182527f9e332d211d74bf0f2703fcd38834004e77ced4c08da277cb45fb05e35ac5b2809101610d7e565b61121d6113b2565b6001600160a01b03811661124757604051631e4fbdf760e01b815260006004820152602401610617565b610d888161145e565b61128b6040518060a0016040528060608152602001606081526020016060815260200160006001600160a01b03168152602001606081525090565b604080516001808252818301909252600091816020015b60408051808201909152600080825260208201528152602001906001900390816112a25790505090506040518060400160405280876001600160a01b0316815260200186815250816000815181106112fc576112fc61206b565b60209081029190910101526040805160a081019091526001600160a01b03881660c08201528060e081016040516020818303038152906040528152602001848152602001828152602001856001600160a01b031681526020016113a56040518060200160405280600081525060408051915160248084019190915281518084039091018152604490920190526020810180516001600160e01b03166397a657c960e01b17905290565b9052979650505050505050565b6000546001600160a01b031633146109645760405163118cdaa760e01b8152336004820152602401610617565b60006113eb8383611794565b9392505050565b60006113ff848484611804565b949350505050565b604080516001600160a01b038416602482015260448082018490528251808303909101815260649091019091526020810180516001600160e01b031663a9059cbb60e01b179052611459908490611821565b505050565b600080546001600160a01b038381166001600160a01b0319831681178455604051919092169283917f8be0079c531659141344cd1fd0a4f28419497f9722a3daafe3b4186f6b6457e09190a35050565b600061047b82611884565b60008080806114c8868661188f565b909450925050505b9250929050565b6020808201516001600160401b03166000908152600290915260409020546001600160a01b03161561154b5760405162461bcd60e51b815260206004820181905260248201527f4e6f205265636569766572204f6e2044657374696e6174696f6e20436861696e6044820152606401610617565b6000816080015190506000816000815181106115695761156961206b565b6020026020010151905080600001516001600160a01b031663095ea7b3846060015180602001905181019061159e919061271f565b60208401516040516001600160e01b031960e085901b1681526001600160a01b03909216600483015260248201526044016020604051808303816000875af11580156115ee573d6000803e3d6000fd5b505050506040513d601f19601f8201168201806040525081019061161291906120b8565b50826060015180602001905181019061162b919061271f565b6001600160a01b031663494d11c982600001518360200151866040015180602001905181019061165b919061271f565b60208801516040516001600160e01b031960e087901b1681526001600160a01b0394851660048201526024810193909352921660448201526001600160401b039091166064820152608401600060405180830381600087803b1580156116c057600080fd5b505af11580156116d4573d6000803e3d6000fd5b5050505082604001518060200190518101906116f0919061271f565b6001600160a01b031683602001516001600160401b031684600001517f7b8c94d0993f2d1fd84fca76b5e06a28521aed41df98419c654dff1ca490c536866060015187608001516000815181106117495761174961206b565b602002602001015160000151886080015160008151811061176c5761176c61206b565b6020026020010151602001516040516117879392919061273c565b60405180910390a4505050565b6000818152600283016020526040812054801515806117b857506117b884846118ba565b6113eb5760405162461bcd60e51b815260206004820152601e60248201527f456e756d657261626c654d61703a206e6f6e6578697374656e74206b657900006044820152606401610617565b600082815260028401602052604081208290556113ff84846118c6565b60006118366001600160a01b038416836118d2565b9050805160001415801561185b57508080602001905181019061185991906120b8565b155b1561145957604051635274afe760e01b81526001600160a01b0384166004820152602401610617565b600061047b826118e0565b6000808061189d85856118ea565b600081815260029690960160205260409095205494959350505050565b60006113eb83836118f6565b60006113eb838361190e565b60606113eb8383600061195d565b600061047b825490565b60006113eb83836119fa565b600081815260018301602052604081205415156113eb565b60008181526001830160205260408120546119555750815460018181018455600084815260208082209093018490558454848252828601909352604090209190915561047b565b50600061047b565b6060814710156119825760405163cd78605960e01b8152306004820152602401610617565b600080856001600160a01b0316848660405161199e919061276a565b60006040518083038185875af1925050503d80600081146119db576040519150601f19603f3d011682016040523d82523d6000602084013e6119e0565b606091505b50915091506119f0868383611a24565b9695505050505050565b6000826000018281548110611a1157611a1161206b565b9060005260206000200154905092915050565b606082611a3957611a3482611a80565b6113eb565b8151158015611a5057506001600160a01b0384163b155b15611a7957604051639996b31560e01b81526001600160a01b0385166004820152602401610617565b50806113eb565b805115611a905780518082602001fd5b604051630a12f52160e11b815260040160405180910390fd5b600060208284031215611abb57600080fd5b81356001600160e01b0319811681146113eb57600080fd5b6001600160401b0381168114610d8857600080fd5b8035611af381611ad3565b919050565b6001600160a01b0381168114610d8857600080fd5b634e487b7160e01b600052604160045260246000fd5b604080519081016001600160401b0381118282101715611b4557611b45611b0d565b60405290565b60405160a081016001600160401b0381118282101715611b4557611b45611b0d565b604051601f8201601f191681016001600160401b0381118282101715611b9557611b95611b0d565b604052919050565b600082601f830112611bae57600080fd5b81356001600160401b03811115611bc757611bc7611b0d565b611bda601f8201601f1916602001611b6d565b818152846020838601011115611bef57600080fd5b816020850160208301376000918101602001919091529392505050565b600080600080600060a08688031215611c2457600080fd5b8535611c2f81611ad3565b94506020860135611c3f81611af8565b9350604086013592506060860135611c5681611af8565b915060808601356001600160401b03811115611c7157600080fd5b611c7d88828901611b9d565b9150509295509295909350565b600060208284031215611c9c57600080fd5b5035919050565b60008060408385031215611cb657600080fd5b823591506020830135611cc881611af8565b809150509250929050565b60008060408385031215611ce657600080fd5b8235611cf181611ad3565b91506020830135611cc881611af8565b60008060008060808587031215611d1757600080fd5b8435611d2281611ad3565b93506020850135611d3281611af8565b92506040850135611d4281611af8565b9396929550929360600135925050565b600060208284031215611d6457600080fd5b81356001600160401b03811115611d7a57600080fd5b820160a081850312156113eb57600080fd5b60008060408385031215611d9f57600080fd5b50508035926020909101359150565b634e487b7160e01b600052602160045260246000fd5b60208082528251828201819052600091906040908185019086840185805b83811015611e235782518051865287015160028110611e0f57634e487b7160e01b83526021600452602483fd5b858801529385019391860191600101611de2565b509298975050505050505050565b600060208284031215611e4357600080fd5b81356113eb81611ad3565b60005b83811015611e69578181015183820152602001611e51565b50506000910152565b60008151808452611e8a816020860160208601611e4e565b601f01601f19169290920160200192915050565b8481526001600160401b0384166020820152608060408201526000611ec66080830185611e72565b8281036060840152611ed88185611e72565b979650505050505050565b600060208284031215611ef557600080fd5b81356113eb81611af8565b8015158114610d8857600080fd5b60008060408385031215611f2157600080fd5b8235611f2c81611af8565b91506020830135611cc881611f00565b600060406001600160401b03851683526020604081850152845160a06040860152611f6a60e0860182611e72565b905081860151603f1980878403016060880152611f878383611e72565b6040890151888203830160808a01528051808352908601945060009350908501905b80841015611fdb57845180516001600160a01b0316835286015186830152938501936001939093019290860190611fa9565b5060608901516001600160a01b031660a08901526080890151888203830160c08a0152955061200a8187611e72565b9a9950505050505050505050565b60006020828403121561202a57600080fd5b5051919050565b600181811c9082168061204557607f821691505b60208210810361206557634e487b7160e01b600052602260045260246000fd5b50919050565b634e487b7160e01b600052603260045260246000fd5b60208082526019908201527f496e76616c69642044657374696e6174696f6e20436861696e00000000000000604082015260600190565b6000602082840312156120ca57600080fd5b81516113eb81611f00565b6000808335601e198436030181126120ec57600080fd5b83016020810192503590506001600160401b0381111561210b57600080fd5b8036038213156114d057600080fd5b81835281816020850137506000828201602090810191909152601f909101601f19169091010190565b8183526000602080850194508260005b8581101561218b57813561216681611af8565b6001600160a01b03168752818301358388015260409687019690910190600101612153565b509495945050505050565b6020815281356020820152600060208301356121b181611ad3565b6001600160401b0380821660408501526121ce60408601866120d5565b925060a060608601526121e560c08601848361211a565b9250506121f560608601866120d5565b601f198087860301608088015261220d85838561211a565b945060808801359250601e1988360301831261222857600080fd5b6020928801928301923591508382111561224157600080fd5b8160061b360383131561225357600080fd5b8685030160a0870152611ed8848284612143565b6000808335601e1984360301811261227e57600080fd5b8301803591506001600160401b0382111561229857600080fd5b6020019150368190038213156114d057600080fd5b601f821115611459576000816000526020600020601f850160051c810160208610156122d65750805b601f850160051c820191505b818110156122f5578281556001016122e2565b505050505050565b6001600160401b0383111561231457612314611b0d565b612328836123228354612031565b836122ad565b6000601f84116001811461235c57600085156123445750838201355b600019600387901b1c1916600186901b1783556123b6565b600083815260209020601f19861690835b8281101561238d578685013582556020948501946001909201910161236d565b50868210156123aa5760001960f88860031b161c19848701351681555b505060018560011b0183555b5050505050565b634e487b7160e01b600052601160045260246000fd5b81356123de81611af8565b81546001600160a01b0319166001600160a01b03919091161781556020919091013560019190910155565b6801000000000000000083111561242257612422611b0d565b8054838255808410156124965760016001600160ff1b03828116831461244a5761244a6123bd565b808616861461245b5761245b6123bd565b5060008360005260206000208360011b81018760011b820191505b80821015612491578282558284830155600282019150612476565b505050505b5060008181526020812083915b858110156122f5576124b583836123d3565b60409290920191600291909101906001016124a3565b813581556001810160208301356124e181611ad3565b6001600160401b038082166001600160401b03198454161783556125086040860186612267565b9350915061251a8383600287016122fd565b6125276060860186612267565b935091506125398383600387016122fd565b60808501359250601e1985360301831261255257600080fd5b91840191823591508082111561256757600080fd5b506020820191508060061b360382131561258057600080fd5b6105be818360048601612409565b6020815260006113eb6020830184611e72565b8082018082111561047b5761047b6123bd565b8181038181111561047b5761047b6123bd565b600082601f8301126125d857600080fd5b813560206001600160401b038211156125f3576125f3611b0d565b612601818360051b01611b6d565b82815260069290921b8401810191818101908684111561262057600080fd5b8286015b84811015612668576040818903121561263d5760008081fd5b612645611b23565b813561265081611af8565b81528185013585820152835291830191604001612624565b509695505050505050565b600060a0823603121561268557600080fd5b61268d611b4b565b8235815261269d60208401611ae8565b602082015260408301356001600160401b03808211156126bc57600080fd5b6126c836838701611b9d565b604084015260608501359150808211156126e157600080fd5b6126ed36838701611b9d565b6060840152608085013591508082111561270657600080fd5b50612713368286016125c7565b60808301525092915050565b60006020828403121561273157600080fd5b81516113eb81611af8565b60608152600061274f6060830186611e72565b6001600160a01b039490941660208301525060400152919050565b6000825161277c818460208701611e4e565b919091019291505056fea26469706673582212209024e6191d1667321060f85c9eebe6aee63bb53c7e6017a99b67a65d2c95ae2564736f6c63430008190033","linkReferences":{}},"methodIdentifiers":{"CROSS_CHAIN_TRANSFER()":"e6bf6472","authorizedContracts(address)":"d5b9221b","ccipReceive((bytes32,uint64,bytes,bytes,(address,uint256)[]))":"85572ffb","ccipRouter()":"0de22984","crossChainTransfer(uint64,address,address,uint256)":"7ea736e2","deleteReceiverForDestinationChain(uint64)":"9c18c570","estimateCrossChainTransferFee(uint64,address,uint256,address,bytes)":"06464cdc","getFailedMessages(uint256,uint256)":"8d9d89fe","getRouter()":"b0f479a1","isSavingsAccount(address)":"d765ba72","messageContents(bytes32)":"c9c093a2","owner()":"8da5cb5b","processMessage((bytes32,uint64,bytes,bytes,(address,uint256)[]))":"cf6730f8","receivers(uint64)":"fbaa1fa4","renounceOwnership()":"715018a6","retryFailedMessage(bytes32,address)":"369f7f66","setAuthorizedContract(address,bool)":"f2fa7392","setReceiverForDestinationChain(uint64,address)":"3f3b7a6f","supportsInterface(bytes4)":"01ffc9a7","transferOwnership(address)":"f2fde38b","withdraw(uint256)":"2e1a7d4d"},"id":83}