{"abi":[{"type":"constructor","inputs":[{"name":"_owner","type":"address","internalType":"address"},{"name":"_acceptedTokens","type":"address[]","internalType":"address[]"}],"stateMutability":"nonpayable"},{"type":"function","name":"acceptedTokens","inputs":[{"name":"","type":"uint256","internalType":"uint256"}],"outputs":[{"name":"","type":"address","internalType":"address"}],"stateMutability":"view"},{"type":"function","name":"autoSave","inputs":[{"name":"_amount","type":"uint256","internalType":"uint256"}],"outputs":[],"stateMutability":"nonpayable"},{"type":"function","name":"autoSaveEnabled","inputs":[],"outputs":[{"name":"","type":"bool","internalType":"bool"}],"stateMutability":"view"},{"type":"function","name":"defaultToken","inputs":[],"outputs":[{"name":"","type":"address","internalType":"address"}],"stateMutability":"view"},{"type":"function","name":"deposit","inputs":[{"name":"_token","type":"address","internalType":"address"},{"name":"_amount","type":"uint256","internalType":"uint256"}],"outputs":[],"stateMutability":"nonpayable"},{"type":"function","name":"getAcceptedTokens","inputs":[],"outputs":[{"name":"","type":"address[]","internalType":"address[]"}],"stateMutability":"view"},{"type":"function","name":"getBalance","inputs":[{"name":"_token","type":"address","internalType":"address"}],"outputs":[{"name":"","type":"uint256","internalType":"uint256"}],"stateMutability":"view"},{"type":"function","name":"isTokenAccepted","inputs":[{"name":"","type":"address","internalType":"address"}],"outputs":[{"name":"","type":"bool","internalType":"bool"}],"stateMutability":"view"},{"type":"function","name":"operator","inputs":[],"outputs":[{"name":"","type":"address","internalType":"address"}],"stateMutability":"view"},{"type":"function","name":"owner","inputs":[],"outputs":[{"name":"","type":"address","internalType":"address"}],"stateMutability":"view"},{"type":"function","name":"renounceOwnership","inputs":[],"outputs":[],"stateMutability":"nonpayable"},{"type":"function","name":"savingsCompatible","inputs":[],"outputs":[{"name":"","type":"bool","internalType":"bool"}],"stateMutability":"pure"},{"type":"function","name":"toggleAutoSave","inputs":[{"name":"_enabled","type":"bool","internalType":"bool"},{"name":"_defaultToken","type":"address","internalType":"address"},{"name":"_operator","type":"address","internalType":"address"}],"outputs":[],"stateMutability":"nonpayable"},{"type":"function","name":"tokenSavings","inputs":[{"name":"","type":"address","internalType":"address"}],"outputs":[{"name":"","type":"uint256","internalType":"uint256"}],"stateMutability":"view"},{"type":"function","name":"transferOwnership","inputs":[{"name":"newOwner","type":"address","internalType":"address"}],"outputs":[],"stateMutability":"nonpayable"},{"type":"function","name":"withdraw","inputs":[{"name":"_token","type":"address","internalType":"address"},{"name":"_amount","type":"uint256","internalType":"uint256"}],"outputs":[],"stateMutability":"nonpayable"},{"type":"event","name":"AutoSaveToggled","inputs":[{"name":"enabled","type":"bool","indexed":false,"internalType":"bool"},{"name":"defaultToken","type":"address","indexed":false,"internalType":"address"},{"name":"operator","type":"address","indexed":false,"internalType":"address"}],"anonymous":false},{"type":"event","name":"Deposit","inputs":[{"name":"user","type":"address","indexed":true,"internalType":"address"},{"name":"token","type":"address","indexed":true,"internalType":"address"},{"name":"amount","type":"uint256","indexed":false,"internalType":"uint256"}],"anonymous":false},{"type":"event","name":"OwnershipTransferred","inputs":[{"name":"previousOwner","type":"address","indexed":true,"internalType":"address"},{"name":"newOwner","type":"address","indexed":true,"internalType":"address"}],"anonymous":false},{"type":"event","name":"Withdraw","inputs":[{"name":"user","type":"address","indexed":true,"internalType":"address"},{"name":"token","type":"address","indexed":true,"internalType":"address"},{"name":"amount","type":"uint256","indexed":false,"internalType":"uint256"}],"anonymous":false},{"type":"error","name":"AddressEmptyCode","inputs":[{"name":"target","type":"address","internalType":"address"}]},{"type":"error","name":"AddressInsufficientBalance","inputs":[{"name":"account","type":"address","internalType":"address"}]},{"type":"error","name":"FailedInnerCall","inputs":[]},{"type":"error","name":"OwnableInvalidOwner","inputs":[{"name":"owner","type":"address","internalType":"address"}]},{"type":"error","name":"OwnableUnauthorizedAccount","inputs":[{"name":"account","type":"address","internalType":"address"}]},{"type":"error","name":"ReentrancyGuardReentrantCall","inputs":[]},{"type":"error","name":"SafeERC20FailedOperation","inputs":[{"name":"token","type":"address","internalType":"address"}]}],"bytecode":{"object":"0x608060405234801561001057600080fd5b5060405161115138038061115183398101604081905261002f91610255565b816001600160a01b03811661005f57604051631e4fbdf760e01b8152600060048201526024015b60405180910390fd5b610068816100b1565b506001805560005b81518110156100a9576100a182828151811061008e5761008e61032e565b602002602001015161010160201b60201c565b600101610070565b505050610344565b600080546001600160a01b038381166001600160a01b0319831681178455604051919092169283917f8be0079c531659141344cd1fd0a4f28419497f9722a3daafe3b4186f6b6457e09190a35050565b6001600160a01b03811660009081526006602052604090205460ff161561016a5760405162461bcd60e51b815260206004820152601660248201527f546f6b656e20616c7265616479206163636570746564000000000000000000006044820152606401610056565b6005546020116101bc5760405162461bcd60e51b815260206004820152601b60248201527f4d6178696d756d20746f6b656e206c696d6974207265616368656400000000006044820152606401610056565b6005805460018181019092557f036b6384b5eca791c62761152d0c79bb0604c104a5fb6f4eb0703f3154bb3db00180546001600160a01b039093166001600160a01b031990931683179055600091825260066020526040909120805460ff19169091179055565b80516001600160a01b038116811461023a57600080fd5b919050565b634e487b7160e01b600052604160045260246000fd5b6000806040838503121561026857600080fd5b61027183610223565b602084810151919350906001600160401b038082111561029057600080fd5b818601915086601f8301126102a457600080fd5b8151818111156102b6576102b661023f565b8060051b604051601f19603f830116810181811085821117156102db576102db61023f565b6040529182528482019250838101850191898311156102f957600080fd5b938501935b8285101561031e5761030f85610223565b845293850193928501926102fe565b8096505050505050509250929050565b634e487b7160e01b600052603260045260246000fd5b610dfe806103536000396000f3fe608060405234801561001057600080fd5b50600436106101005760003560e01c806374c13fda11610097578063a622752111610066578063a62275211461022b578063f2fde38b1461023e578063f3fef3a314610251578063f8b2cb4f1461026457600080fd5b806374c13fda146101f357806381684db51461020657806384bfd0df146102135780638da5cb5b1461021a57600080fd5b806336c87754116100d357806336c877541461019557806347e7ef24146101c0578063570ca735146101d3578063715018a6146101eb57600080fd5b80630560bd961461010557806318a029cf1461013d5780632f7570061461016b57806332469ffe14610180575b600080fd5b610128610113366004610bc6565b60066020526000908152604090205460ff1681565b60405190151581526020015b60405180910390f35b61015d61014b366004610bc6565b60046020526000908152604090205481565b604051908152602001610134565b61017361028d565b6040516101349190610be1565b61019361018e366004610c2e565b6102ef565b005b6101a86101a3366004610c2e565b610482565b6040516001600160a01b039091168152602001610134565b6101936101ce366004610c47565b6104ac565b6002546101a89061010090046001600160a01b031681565b6101936105a3565b6003546101a8906001600160a01b031681565b6002546101289060ff1681565b6001610128565b6000546001600160a01b03166101a8565b610193610239366004610c7f565b6105b7565b61019361024c366004610bc6565b61068b565b61019361025f366004610c47565b6106c6565b61015d610272366004610bc6565b6001600160a01b031660009081526004602052604090205490565b606060058054806020026020016040519081016040528092919081815260200182805480156102e557602002820191906000526020600020905b81546001600160a01b031681526001909101906020018083116102c7575b5050505050905090565b60025461010090046001600160a01b031633146103445760405162461bcd60e51b815260206004820152600e60248201526d139bdd08185d5d1a1bdc9a5e995960921b60448201526064015b60405180910390fd5b61034c6108c2565b60025460ff1661039e5760405162461bcd60e51b815260206004820152601860248201527f4175746f2d73617665206973206e6f7420656e61626c65640000000000000000604482015260640161033b565b600081116103be5760405162461bcd60e51b815260040161033b90610cc4565b6103e76103d36000546001600160a01b031690565b6003546001600160a01b03169030846108ec565b6003546001600160a01b031660009081526004602052604081208054839290610411908490610d11565b90915550506003546001600160a01b03166104346000546001600160a01b031690565b6001600160a01b03167f5548c837ab068cf56a2c2479df0882a4922fd203edb7517321831d95078c5f628360405161046e91815260200190565b60405180910390a361047f60018055565b50565b6005818154811061049257600080fd5b6000918252602090912001546001600160a01b0316905081565b6104b4610959565b6104bc6108c2565b6001600160a01b03821660009081526006602052604090205460ff166104f45760405162461bcd60e51b815260040161033b90610d24565b600081116105145760405162461bcd60e51b815260040161033b90610cc4565b6105296001600160a01b0383163330846108ec565b6001600160a01b03821660009081526004602052604081208054839290610551908490610d11565b90915550506040518181526001600160a01b0383169033907f5548c837ab068cf56a2c2479df0882a4922fd203edb7517321831d95078c5f629060200160405180910390a361059f60018055565b5050565b6105ab610959565b6105b56000610986565b565b6105bf610959565b6001600160a01b03821660009081526006602052604090205460ff166105f75760405162461bcd60e51b815260040161033b90610d24565b60028054600380546001600160a01b0319166001600160a01b038681169182179092556001600160a81b0319909216861515610100600160a81b031981169190911761010092861692830217909355604080519384526020840192909252908201527f629a66e9009f2689e67705f82a8e844ebd3be4c0168030a4727bc4b90663e15d9060600160405180910390a1505050565b610693610959565b6001600160a01b0381166106bd57604051631e4fbdf760e01b81526000600482015260240161033b565b61047f81610986565b6106ce610959565b6106d66108c2565b6001600160a01b03821660009081526006602052604090205460ff1661070e5760405162461bcd60e51b815260040161033b90610d24565b6000811161072e5760405162461bcd60e51b815260040161033b90610cc4565b6040516370a0823160e01b81523060048201526000906001600160a01b038416906370a0823190602401602060405180830381865afa158015610775573d6000803e3d6000fd5b505050506040513d601f19601f820116820180604052508101906107999190610d50565b6001600160a01b0384166000908152600460205260409020549091508111156107d757506001600160a01b0382166000908152600460205260409020545b6001600160a01b0383166000908152600460205260409020548211156108365760405162461bcd60e51b8152602060048201526014602482015273496e73756666696369656e742062616c616e636560601b604482015260640161033b565b6001600160a01b0383166000908152600460205260408120805484929061085e908490610d69565b9091555061087890506001600160a01b03841633846109d6565b6040518281526001600160a01b0384169033907f9b1bfa7fa9ee420a16e124f794c35ac9f90472acc99140eb2f6447c714cad8eb9060200160405180910390a35061059f60018055565b6002600154036108e557604051633ee5aeb560e01b815260040160405180910390fd5b6002600155565b6040516001600160a01b0384811660248301528381166044830152606482018390526109539186918216906323b872dd906084015b604051602081830303815290604052915060e01b6020820180516001600160e01b038381831617835250505050610a0c565b50505050565b6000546001600160a01b031633146105b55760405163118cdaa760e01b815233600482015260240161033b565b600080546001600160a01b038381166001600160a01b0319831681178455604051919092169283917f8be0079c531659141344cd1fd0a4f28419497f9722a3daafe3b4186f6b6457e09190a35050565b6040516001600160a01b03838116602483015260448201839052610a0791859182169063a9059cbb90606401610921565b505050565b6000610a216001600160a01b03841683610a6f565b90508051600014158015610a46575080806020019051810190610a449190610d7c565b155b15610a0757604051635274afe760e01b81526001600160a01b038416600482015260240161033b565b6060610a7d83836000610a86565b90505b92915050565b606081471015610aab5760405163cd78605960e01b815230600482015260240161033b565b600080856001600160a01b03168486604051610ac79190610d99565b60006040518083038185875af1925050503d8060008114610b04576040519150601f19603f3d011682016040523d82523d6000602084013e610b09565b606091505b5091509150610b19868383610b25565b925050505b9392505050565b606082610b3a57610b3582610b81565b610b1e565b8151158015610b5157506001600160a01b0384163b155b15610b7a57604051639996b31560e01b81526001600160a01b038516600482015260240161033b565b5080610b1e565b805115610b915780518082602001fd5b604051630a12f52160e11b815260040160405180910390fd5b80356001600160a01b0381168114610bc157600080fd5b919050565b600060208284031215610bd857600080fd5b610a7d82610baa565b6020808252825182820181905260009190848201906040850190845b81811015610c225783516001600160a01b031683529284019291840191600101610bfd565b50909695505050505050565b600060208284031215610c4057600080fd5b5035919050565b60008060408385031215610c5a57600080fd5b610c6383610baa565b946020939093013593505050565b801515811461047f57600080fd5b600080600060608486031215610c9457600080fd5b8335610c9f81610c71565b9250610cad60208501610baa565b9150610cbb60408501610baa565b90509250925092565b6020808252601d908201527f416d6f756e74206d7573742062652067726561746572207468616e2030000000604082015260600190565b634e487b7160e01b600052601160045260246000fd5b80820180821115610a8057610a80610cfb565b602080825260129082015271151bdad95b881b9bdd081858d8d95c1d195960721b604082015260600190565b600060208284031215610d6257600080fd5b5051919050565b81810381811115610a8057610a80610cfb565b600060208284031215610d8e57600080fd5b8151610b1e81610c71565b6000825160005b81811015610dba5760208186018101518583015201610da0565b50600092019182525091905056fea26469706673582212200dbbe626ff365a0c975f2a2b0847ab7c32a34958de68aa76a97d5c0097fc5bc564736f6c63430008190033","linkReferences":{}},"methodIdentifiers":{"acceptedTokens(uint256)":"36c87754","autoSave(uint256)":"32469ffe","autoSaveEnabled()":"81684db5","defaultToken()":"74c13fda","deposit(address,uint256)":"47e7ef24","getAcceptedTokens()":"2f757006","getBalance(address)":"f8b2cb4f","isTokenAccepted(address)":"0560bd96","operator()":"570ca735","owner()":"8da5cb5b","renounceOwnership()":"715018a6","savingsCompatible()":"84bfd0df","toggleAutoSave(bool,address,address)":"a6227521","tokenSavings(address)":"18a029cf","transferOwnership(address)":"f2fde38b","withdraw(address,uint256)":"f3fef3a3"},"id":100}