{"abi":[{"type":"constructor","inputs":[{"name":"_usdtToken","type":"address","internalType":"address"},{"name":"_metaMorphoVault","type":"address","internalType":"address"},{"name":"owner","type":"address","internalType":"address"}],"stateMutability":"nonpayable"},{"type":"function","name":"DEFAULT_ADMIN_ROLE","inputs":[],"outputs":[{"name":"","type":"bytes32","internalType":"bytes32"}],"stateMutability":"view"},{"type":"function","name":"USER_ROLE","inputs":[],"outputs":[{"name":"","type":"bytes32","internalType":"bytes32"}],"stateMutability":"view"},{"type":"function","name":"USER_ROLE_ADMIN","inputs":[],"outputs":[{"name":"","type":"bytes32","internalType":"bytes32"}],"stateMutability":"view"},{"type":"function","name":"deposit","inputs":[{"name":"amount","type":"uint256","internalType":"uint256"}],"outputs":[],"stateMutability":"nonpayable"},{"type":"function","name":"getRoleAdmin","inputs":[{"name":"role","type":"bytes32","internalType":"bytes32"}],"outputs":[{"name":"","type":"bytes32","internalType":"bytes32"}],"stateMutability":"view"},{"type":"function","name":"getTotalValue","inputs":[],"outputs":[{"name":"","type":"uint256","internalType":"uint256"}],"stateMutability":"view"},{"type":"function","name":"getYieldAmount","inputs":[],"outputs":[{"name":"","type":"uint256","internalType":"uint256"}],"stateMutability":"view"},{"type":"function","name":"grantRole","inputs":[{"name":"role","type":"bytes32","internalType":"bytes32"},{"name":"account","type":"address","internalType":"address"}],"outputs":[],"stateMutability":"nonpayable"},{"type":"function","name":"harvestYield","inputs":[],"outputs":[],"stateMutability":"nonpayable"},{"type":"function","name":"hasRole","inputs":[{"name":"role","type":"bytes32","internalType":"bytes32"},{"name":"account","type":"address","internalType":"address"}],"outputs":[{"name":"","type":"bool","internalType":"bool"}],"stateMutability":"view"},{"type":"function","name":"metaMorphoVault","inputs":[],"outputs":[{"name":"","type":"address","internalType":"contract IMorphoLendingPool"}],"stateMutability":"view"},{"type":"function","name":"renounceRole","inputs":[{"name":"role","type":"bytes32","internalType":"bytes32"},{"name":"callerConfirmation","type":"address","internalType":"address"}],"outputs":[],"stateMutability":"nonpayable"},{"type":"function","name":"revokeRole","inputs":[{"name":"role","type":"bytes32","internalType":"bytes32"},{"name":"account","type":"address","internalType":"address"}],"outputs":[],"stateMutability":"nonpayable"},{"type":"function","name":"supportsInterface","inputs":[{"name":"interfaceId","type":"bytes4","internalType":"bytes4"}],"outputs":[{"name":"","type":"bool","internalType":"bool"}],"stateMutability":"view"},{"type":"function","name":"usdtToken","inputs":[],"outputs":[{"name":"","type":"address","internalType":"contract IERC20"}],"stateMutability":"view"},{"type":"function","name":"withdraw","inputs":[{"name":"amount","type":"uint256","internalType":"uint256"}],"outputs":[],"stateMutability":"nonpayable"},{"type":"event","name":"Deposited","inputs":[{"name":"user","type":"address","indexed":true,"internalType":"address"},{"name":"amount","type":"uint256","indexed":false,"internalType":"uint256"},{"name":"shares","type":"uint256","indexed":false,"internalType":"uint256"}],"anonymous":false},{"type":"event","name":"RoleAdminChanged","inputs":[{"name":"role","type":"bytes32","indexed":true,"internalType":"bytes32"},{"name":"previousAdminRole","type":"bytes32","indexed":true,"internalType":"bytes32"},{"name":"newAdminRole","type":"bytes32","indexed":true,"internalType":"bytes32"}],"anonymous":false},{"type":"event","name":"RoleGranted","inputs":[{"name":"role","type":"bytes32","indexed":true,"internalType":"bytes32"},{"name":"account","type":"address","indexed":true,"internalType":"address"},{"name":"sender","type":"address","indexed":true,"internalType":"address"}],"anonymous":false},{"type":"event","name":"RoleRevoked","inputs":[{"name":"role","type":"bytes32","indexed":true,"internalType":"bytes32"},{"name":"account","type":"address","indexed":true,"internalType":"address"},{"name":"sender","type":"address","indexed":true,"internalType":"address"}],"anonymous":false},{"type":"event","name":"Withdrawn","inputs":[{"name":"user","type":"address","indexed":true,"internalType":"address"},{"name":"amount","type":"uint256","indexed":false,"internalType":"uint256"},{"name":"shares","type":"uint256","indexed":false,"internalType":"uint256"}],"anonymous":false},{"type":"event","name":"YieldHarvested","inputs":[{"name":"user","type":"address","indexed":true,"internalType":"address"},{"name":"amount","type":"uint256","indexed":false,"internalType":"uint256"}],"anonymous":false},{"type":"error","name":"AccessControlBadConfirmation","inputs":[]},{"type":"error","name":"AccessControlUnauthorizedAccount","inputs":[{"name":"account","type":"address","internalType":"address"},{"name":"neededRole","type":"bytes32","internalType":"bytes32"}]},{"type":"error","name":"ReentrancyGuardReentrantCall","inputs":[]}],"bytecode":{"object":"0x60c060405234801561001057600080fd5b506040516114af3803806114af83398101604081905261002f916101ca565b60016000556001600160a01b03808416608052821660a05261006d60008051602061148f83398151915260008051602061146f8339815191526100cc565b610078600082610119565b5061009160008051602061148f83398151915282610119565b506100aa60008051602061148f83398151915233610119565b506100c360008051602061146f83398151915282610119565b5050505061020d565b6000828152600160208190526040808320909101805490849055905190918391839186917fbd79b86ffe0ab8e8776151514217cd7cacd52c909f66475c3af44e129f0b00ff9190a4505050565b60008281526001602090815260408083206001600160a01b038516845290915281205460ff166101a45760008381526001602081815260408084206001600160a01b0387168086529252808420805460ff19169093179092559051339286917f2f8788117e7eff1d82e926ec794901d17c78024a50270940304540a733656f0d9190a45060016101a8565b5060005b92915050565b80516001600160a01b03811681146101c557600080fd5b919050565b6000806000606084860312156101df57600080fd5b6101e8846101ae565b92506101f6602085016101ae565b9150610204604085016101ae565b90509250925092565b60805160a0516111cd6102a260003960008181610273015281816102ee015281816103950152818161044801528181610538015281816105d00152818161065e015281816108e00152818161099501528181610a2701528181610ab501528181610baf01528181610cec01528181610ddc0152610e6c0152600081816101fe01528181610816015261090f01526111cd6000f3fe608060405234801561001057600080fd5b50600436106101005760003560e01c806391d1485411610097578063caa648b411610066578063caa648b41461024b578063d547741f14610253578063e8d991d114610266578063f83ebfec1461026e57600080fd5b806391d14854146101de578063a217fddf146101f1578063a98ad46c146101f9578063b6b55f251461023857600080fd5b8063248a9ca3116100d3578063248a9ca31461017f5780632e1a7d4d146101a35780632f2ff15d146101b857806336568abe146101cb57600080fd5b806301ffc9a714610105578063121a23c11461012d578063131191611461014357806313b3c60d14610158575b600080fd5b61011861011336600461107a565b610295565b60405190151581526020015b60405180910390f35b6101356102cc565b604051908152602001610124565b61013560008051602061117883398151915281565b6101357fb73487ee776bea9709fd1aabda12d65672636aa359648814e956b4e282c695f181565b61013561018d3660046110ab565b6000908152600160208190526040909120015490565b6101b66101b13660046110ab565b61040f565b005b6101b66101c63660046110c4565b610745565b6101b66101d93660046110c4565b610771565b6101186101ec3660046110c4565b6107a9565b610135600081565b6102207f000000000000000000000000000000000000000000000000000000000000000081565b6040516001600160a01b039091168152602001610124565b6101b66102463660046110ab565b6107d4565b610135610b97565b6101b66102613660046110c4565b610c8e565b6101b6610cb4565b6102207f000000000000000000000000000000000000000000000000000000000000000081565b60006001600160e01b03198216637965db0b60e01b14806102c657506301ffc9a760e01b6001600160e01b03198316145b92915050565b6040516370a0823160e01b815230600482015260009081906001600160a01b037f000000000000000000000000000000000000000000000000000000000000000016906370a0823190602401602060405180830381865afa158015610335573d6000803e3d6000fd5b505050506040513d601f19601f820116820180604052508101906103599190611100565b9050600254811161036c57600091505090565b60006002548261037c919061112f565b6040516303d1689d60e11b8152600481018290529091507f00000000000000000000000000000000000000000000000000000000000000006001600160a01b0316906307a2d13a90602401602060405180830381865afa1580156103e4573d6000803e3d6000fd5b505050506040513d601f19601f820116820180604052508101906104089190611100565b9250505090565b60008051602061117883398151915261042781610f27565b61042f610f31565b6040516363737ac960e11b8152600481018390526000907f00000000000000000000000000000000000000000000000000000000000000006001600160a01b03169063c6e6f59290602401602060405180830381865afa158015610497573d6000803e3d6000fd5b505050506040513d601f19601f820116820180604052508101906104bb9190611100565b90506002548111156105205760405162461bcd60e51b815260206004820152602360248201527f43616e6e6f74207769746864726177206d6f7265207468616e206465706f73696044820152621d195960ea1b60648201526084015b60405180910390fd5b6040516370a0823160e01b81523060048201526000907f00000000000000000000000000000000000000000000000000000000000000006001600160a01b0316906370a0823190602401602060405180830381865afa158015610587573d6000803e3d6000fd5b505050506040513d601f19601f820116820180604052508101906105ab9190611100565b604051632d182be560e21b8152600481018690523360248201523060448201529091507f00000000000000000000000000000000000000000000000000000000000000006001600160a01b03169063b460af94906064016020604051808303816000875af1158015610621573d6000803e3d6000fd5b505050506040513d601f19601f820116820180604052508101906106459190611100565b506040516370a0823160e01b81523060048201526000907f00000000000000000000000000000000000000000000000000000000000000006001600160a01b0316906370a0823190602401602060405180830381865afa1580156106ad573d6000803e3d6000fd5b505050506040513d601f19601f820116820180604052508101906106d19190611100565b905060006106df828461112f565b905080600260008282546106f3919061112f565b9091555050604080518781526020810183905233917f92ccf450a286a957af52509bc1c9939d1a6a481783e142e41e2499f0bb66ebc6910160405180910390a2505050506107416001600055565b5050565b6000828152600160208190526040909120015461076181610f27565b61076b8383610f5b565b50505050565b6001600160a01b038116331461079a5760405163334bd91960e11b815260040160405180910390fd5b6107a48282610fd4565b505050565b60009182526001602090815260408084206001600160a01b0393909316845291905290205460ff1690565b6000805160206111788339815191526107ec81610f27565b6107f4610f31565b6040516323b872dd60e01b8152336004820152306024820152604481018390527f00000000000000000000000000000000000000000000000000000000000000006001600160a01b0316906323b872dd906064016020604051808303816000875af1158015610867573d6000803e3d6000fd5b505050506040513d601f19601f8201168201806040525081019061088b9190611142565b6108c95760405162461bcd60e51b815260206004820152600f60248201526e151c985b9cd9995c8819985a5b1959608a1b6044820152606401610517565b60405163095ea7b360e01b81526001600160a01b037f000000000000000000000000000000000000000000000000000000000000000081166004830152602482018490527f0000000000000000000000000000000000000000000000000000000000000000169063095ea7b3906044016020604051808303816000875af1158015610958573d6000803e3d6000fd5b505050506040513d601f19601f8201168201806040525081019061097c9190611142565b506040516370a0823160e01b81523060048201526000907f00000000000000000000000000000000000000000000000000000000000000006001600160a01b0316906370a0823190602401602060405180830381865afa1580156109e4573d6000803e3d6000fd5b505050506040513d601f19601f82011682018060405250810190610a089190611100565b604051636e553f6560e01b8152600481018590523060248201529091507f00000000000000000000000000000000000000000000000000000000000000006001600160a01b031690636e553f65906044016020604051808303816000875af1158015610a78573d6000803e3d6000fd5b505050506040513d601f19601f82011682018060405250810190610a9c9190611100565b506040516370a0823160e01b81523060048201526000907f00000000000000000000000000000000000000000000000000000000000000006001600160a01b0316906370a0823190602401602060405180830381865afa158015610b04573d6000803e3d6000fd5b505050506040513d601f19601f82011682018060405250810190610b289190611100565b90506000610b36838361112f565b90508060026000828254610b4a9190611164565b9091555050604080518681526020810183905233917f73a19dd210f1a7f902193214c0ee91dd35ee5b4d920cba8d519eca65a7b488ca910160405180910390a25050506107416001600055565b6040516370a0823160e01b81523060048201526000907f00000000000000000000000000000000000000000000000000000000000000006001600160a01b0316906307a2d13a9082906370a0823190602401602060405180830381865afa158015610c06573d6000803e3d6000fd5b505050506040513d601f19601f82011682018060405250810190610c2a9190611100565b6040518263ffffffff1660e01b8152600401610c4891815260200190565b602060405180830381865afa158015610c65573d6000803e3d6000fd5b505050506040513d601f19601f82011682018060405250810190610c899190611100565b905090565b60008281526001602081905260409091200154610caa81610f27565b61076b8383610fd4565b600080516020611178833981519152610ccc81610f27565b610cd4610f31565b6040516370a0823160e01b81523060048201526000907f00000000000000000000000000000000000000000000000000000000000000006001600160a01b0316906370a0823190602401602060405180830381865afa158015610d3b573d6000803e3d6000fd5b505050506040513d601f19601f82011682018060405250810190610d5f9190611100565b90506002548111610da85760405162461bcd60e51b8152602060048201526013602482015272139bc81e5a595b19081d1bc81a185c9d995cdd606a1b6044820152606401610517565b600060025482610db8919061112f565b6040516303d1689d60e11b8152600481018290529091506000906001600160a01b037f000000000000000000000000000000000000000000000000000000000000000016906307a2d13a90602401602060405180830381865afa158015610e23573d6000803e3d6000fd5b505050506040513d601f19601f82011682018060405250810190610e479190611100565b604051632d182be560e21b8152600481018290523360248201523060448201529091507f00000000000000000000000000000000000000000000000000000000000000006001600160a01b03169063b460af94906064016020604051808303816000875af1158015610ebd573d6000803e3d6000fd5b505050506040513d601f19601f82011682018060405250810190610ee19190611100565b5060405181815233907faf070de27b945892aaad9c44ade61c1ac81cc8459711bba886304b1a2bf847a89060200160405180910390a2505050610f246001600055565b50565b610f248133611041565b600260005403610f5457604051633ee5aeb560e01b815260040160405180910390fd5b6002600055565b6000610f6783836107a9565b610fcc5760008381526001602081815260408084206001600160a01b0387168086529252808420805460ff19169093179092559051339286917f2f8788117e7eff1d82e926ec794901d17c78024a50270940304540a733656f0d9190a45060016102c6565b5060006102c6565b6000610fe083836107a9565b15610fcc5760008381526001602090815260408083206001600160a01b0386168085529252808320805460ff1916905551339286917ff6391f5c32d9c69d2a47ea670b442974b53935d1edc7fd64eb21e047a839171b9190a45060016102c6565b61104b82826107a9565b6107415760405163e2517d3f60e01b81526001600160a01b038216600482015260248101839052604401610517565b60006020828403121561108c57600080fd5b81356001600160e01b0319811681146110a457600080fd5b9392505050565b6000602082840312156110bd57600080fd5b5035919050565b600080604083850312156110d757600080fd5b8235915060208301356001600160a01b03811681146110f557600080fd5b809150509250929050565b60006020828403121561111257600080fd5b5051919050565b634e487b7160e01b600052601160045260246000fd5b818103818111156102c6576102c6611119565b60006020828403121561115457600080fd5b815180151581146110a457600080fd5b808201808211156102c6576102c661111956fe14823911f2da1b49f045a0929a60b8c1f2a7fc8c06c7284ca3e8ab4e193a08c8a26469706673582212205f04717eea06e3f61cce62fd7b2610cb788adc7d18517f8e6f7db3ddbe9ff87564736f6c63430008190033b73487ee776bea9709fd1aabda12d65672636aa359648814e956b4e282c695f114823911f2da1b49f045a0929a60b8c1f2a7fc8c06c7284ca3e8ab4e193a08c8","linkReferences":{}},"methodIdentifiers":{"DEFAULT_ADMIN_ROLE()":"a217fddf","USER_ROLE()":"13119161","USER_ROLE_ADMIN()":"13b3c60d","deposit(uint256)":"b6b55f25","getRoleAdmin(bytes32)":"248a9ca3","getTotalValue()":"caa648b4","getYieldAmount()":"121a23c1","grantRole(bytes32,address)":"2f2ff15d","harvestYield()":"e8d991d1","hasRole(bytes32,address)":"91d14854","metaMorphoVault()":"f83ebfec","renounceRole(bytes32,address)":"36568abe","revokeRole(bytes32,address)":"d547741f","supportsInterface(bytes4)":"01ffc9a7","usdtToken()":"a98ad46c","withdraw(uint256)":"2e1a7d4d"},"id":90}