{"abi":[{"type":"constructor","inputs":[],"stateMutability":"nonpayable"},{"type":"function","name":"acceptableTokens","inputs":[{"name":"","type":"uint256","internalType":"uint256"}],"outputs":[{"name":"","type":"address","internalType":"address"}],"stateMutability":"view"},{"type":"function","name":"createCustodialSavings","inputs":[{"name":"_acceptedTokens","type":"address[]","internalType":"address[]"},{"name":"_recipient","type":"address","internalType":"address"},{"name":"_unlockPeriod","type":"uint256","internalType":"uint256"}],"outputs":[{"name":"","type":"address","internalType":"address"}],"stateMutability":"nonpayable"},{"type":"function","name":"createInvestmentSavings","inputs":[{"name":"_acceptedTokens","type":"address[]","internalType":"address[]"},{"name":"_investmentPercentage","type":"uint256","internalType":"uint256"},{"name":"_yieldStrategyManager","type":"address","internalType":"address"}],"outputs":[{"name":"","type":"address","internalType":"address"}],"stateMutability":"nonpayable"},{"type":"function","name":"getAcceptableTokens","inputs":[],"outputs":[{"name":"","type":"address[]","internalType":"address[]"}],"stateMutability":"view"},{"type":"function","name":"isTokenAcceptable","inputs":[{"name":"","type":"address","internalType":"address"}],"outputs":[{"name":"","type":"bool","internalType":"bool"}],"stateMutability":"view"},{"type":"function","name":"owner","inputs":[],"outputs":[{"name":"","type":"address","internalType":"address"}],"stateMutability":"view"},{"type":"function","name":"renounceOwnership","inputs":[],"outputs":[],"stateMutability":"nonpayable"},{"type":"function","name":"transferOwnership","inputs":[{"name":"newOwner","type":"address","internalType":"address"}],"outputs":[],"stateMutability":"nonpayable"},{"type":"function","name":"updateAcceptableTokens","inputs":[{"name":"_acceptedTokens","type":"address[]","internalType":"address[]"}],"outputs":[],"stateMutability":"nonpayable"},{"type":"event","name":"OwnershipTransferred","inputs":[{"name":"previousOwner","type":"address","indexed":true,"internalType":"address"},{"name":"newOwner","type":"address","indexed":true,"internalType":"address"}],"anonymous":false},{"type":"event","name":"SavingsCreated","inputs":[{"name":"owner","type":"address","indexed":true,"internalType":"address"},{"name":"savingsContract","type":"address","indexed":false,"internalType":"address"},{"name":"acceptedTokens","type":"address[]","indexed":false,"internalType":"address[]"},{"name":"savingsType","type":"string","indexed":false,"internalType":"string"}],"anonymous":false},{"type":"error","name":"OwnableInvalidOwner","inputs":[{"name":"owner","type":"address","internalType":"address"}]},{"type":"error","name":"OwnableUnauthorizedAccount","inputs":[{"name":"account","type":"address","internalType":"address"}]}],"bytecode":{"object":"0x6080604052348015600f57600080fd5b503380603557604051631e4fbdf760e01b81526000600482015260240160405180910390fd5b603c816041565b506091565b600080546001600160a01b038381166001600160a01b0319831681178455604051919092169283917f8be0079c531659141344cd1fd0a4f28419497f9722a3daafe3b4186f6b6457e09190a35050565b6138d6806100a06000396000f3fe608060405234801561001057600080fd5b50600436106100935760003560e01c80638da5cb5b116100665780638da5cb5b14610118578063bb09bdd414610129578063e6c83db51461013c578063f2fde38b14610151578063fa138b2c1461016457600080fd5b806321a30e721461009857806347e7fcfc146100ad57806360e0e2b4146100dd578063715018a614610110575b600080fd5b6100ab6100a63660046106b3565b610177565b005b6100c06100bb366004610711565b61027a565b6040516001600160a01b0390911681526020015b60405180910390f35b6101006100eb36600461076e565b60026020526000908152604090205460ff1681565b60405190151581526020016100d4565b6100ab610396565b6000546001600160a01b03166100c0565b6100c0610137366004610790565b6103aa565b6101446103d4565b6040516100d491906107a9565b6100ab61015f36600461076e565b610436565b6100c06101723660046107f6565b610474565b61017f610532565b801580159061018f575060208111155b6101b45760405162461bcd60e51b81526004016101ab90610852565b60405180910390fd5b60005b818110156102755760008383838181106101d3576101d3610889565b90506020020160208101906101e8919061076e565b6001600160a01b03811660009081526002602052604090205490915060ff1661026c576001805480820182557fb10e2d527612073b26eecdfd717e6a320cf44b4afac2b0732d9fcbe2b7fa0cf60180546001600160a01b0319166001600160a01b0384169081179091556000908152600260205260409020805460ff191690911790555b506001016101b7565b505050565b6000831580159061028c575060208411155b6102a85760405162461bcd60e51b81526004016101ab90610852565b6001600160a01b0382166102fe5760405162461bcd60e51b815260206004820152601e60248201527f5969656c64207374726174656779206d616e61676572206e6f7420736574000060448201526064016101ab565b610308858561055f565b6000338686858760405161031b9061064d565b6103299594939291906108e6565b604051809103906000f080158015610345573d6000803e3d6000fd5b509050336001600160a01b03167f916a0fb4a04cc0ff6ad55718200c0742807696951d50bb55f5a2ea2af79a063d8288886040516103859392919061091c565b60405180910390a295945050505050565b61039e610532565b6103a860006105fd565b565b600181815481106103ba57600080fd5b6000918252602090912001546001600160a01b0316905081565b6060600180548060200260200160405190810160405280929190818152602001828054801561042c57602002820191906000526020600020905b81546001600160a01b0316815260019091019060200180831161040e575b5050505050905090565b61043e610532565b6001600160a01b03811661046857604051631e4fbdf760e01b8152600060048201526024016101ab565b610471816105fd565b50565b60008315801590610486575060208411155b6104a25760405162461bcd60e51b81526004016101ab90610852565b6104ac858561055f565b6000338487876104bc874261096d565b6040516104c89061065a565b6104d6959493929190610994565b604051809103906000f0801580156104f2573d6000803e3d6000fd5b509050336001600160a01b03167f916a0fb4a04cc0ff6ad55718200c0742807696951d50bb55f5a2ea2af79a063d828888604051610385939291906109d3565b6000546001600160a01b031633146103a85760405163118cdaa760e01b81523360048201526024016101ab565b60005b81811015610275576002600084848481811061058057610580610889565b9050602002016020810190610595919061076e565b6001600160a01b0316815260208101919091526040016000205460ff166105f55760405162461bcd60e51b8152602060048201526014602482015273546f6b656e206e6f742061636365707461626c6560601b60448201526064016101ab565b600101610562565b600080546001600160a01b038381166001600160a01b0319831681178455604051919092169283917f8be0079c531659141344cd1fd0a4f28419497f9722a3daafe3b4186f6b6457e09190a35050565b6119a580610a2483390190565b6114d8806123c983390190565b60008083601f84011261067957600080fd5b50813567ffffffffffffffff81111561069157600080fd5b6020830191508360208260051b85010111156106ac57600080fd5b9250929050565b600080602083850312156106c657600080fd5b823567ffffffffffffffff8111156106dd57600080fd5b6106e985828601610667565b90969095509350505050565b80356001600160a01b038116811461070c57600080fd5b919050565b6000806000806060858703121561072757600080fd5b843567ffffffffffffffff81111561073e57600080fd5b61074a87828801610667565b90955093505060208501359150610763604086016106f5565b905092959194509250565b60006020828403121561078057600080fd5b610789826106f5565b9392505050565b6000602082840312156107a257600080fd5b5035919050565b6020808252825182820181905260009190848201906040850190845b818110156107ea5783516001600160a01b0316835292840192918401916001016107c5565b50909695505050505050565b6000806000806060858703121561080c57600080fd5b843567ffffffffffffffff81111561082357600080fd5b61082f87828801610667565b90955093506108429050602086016106f5565b9396929550929360400135925050565b60208082526018908201527f496e76616c6964206e756d626572206f6620746f6b656e730000000000000000604082015260600190565b634e487b7160e01b600052603260045260246000fd5b8183526000602080850194508260005b858110156108db576001600160a01b036108c8836106f5565b16875295820195908201906001016108af565b509495945050505050565b600060018060a01b0380881683526080602084015261090960808401878961089f565b9416604083015250606001529392505050565b6001600160a01b0384168152606060208201819052600090610941908301848661089f565b828103604093840152600a815269125b9d995cdd1b595b9d60b21b602082015291909101949350505050565b8082018082111561098e57634e487b7160e01b600052601160045260246000fd5b92915050565b6001600160a01b038681168252851660208201526080604082018190526000906109c1908301858761089f565b90508260608301529695505050505050565b6001600160a01b03841681526060602082018190526000906109f8908301848661089f565b828103604093840152600981526810dd5cdd1bd91a585b60ba1b60208201529190910194935050505056fe6080604052612710600a5534801561001657600080fd5b506040516119a53803806119a583398101604081905261003591610445565b8383816001600160a01b03811661006757604051631e4fbdf760e01b8152600060048201526024015b60405180910390fd5b610070816102a1565b506001805560005b81518110156100b1576100a982828151811061009657610096610536565b60200260200101516102f160201b60201c565b600101610078565b505050600a548111156101065760405162461bcd60e51b815260206004820152601d60248201527f496e76616c696420696e766573746d656e742070657263656e74616765000000604482015260640161005e565b600780546001600160a01b0319166001600160a01b038416908117909155604080516338d52e0f60e01b815290516338d52e0f916004808201926020929091908290030181865afa15801561015f573d6000803e3d6000fd5b505050506040513d601f19601f82011682018060405250810190610183919061054c565b600960006101000a8154816001600160a01b0302191690836001600160a01b03160217905550826000815181106101bc576101bc610536565b60209081029190910101516009546001600160a01b039081169116146102605760405162461bcd60e51b815260206004820152604d60248201527f53747261746567794d616e61676572206173736574206d75737420626520616d60448201527f6f6e6720616363657074656420746f6b656e7320616e6420626520746865206660648201526c6972737420696e20617272617960981b608482015260a40161005e565b60088190556040518181527f98132183cba89b5fe478033097f47dd829659cc7a27740b25ec997747f9481499060200160405180910390a15050505061056e565b600080546001600160a01b038381166001600160a01b0319831681178455604051919092169283917f8be0079c531659141344cd1fd0a4f28419497f9722a3daafe3b4186f6b6457e09190a35050565b6001600160a01b03811660009081526006602052604090205460ff161561035a5760405162461bcd60e51b815260206004820152601660248201527f546f6b656e20616c726561647920616363657074656400000000000000000000604482015260640161005e565b6005546020116103ac5760405162461bcd60e51b815260206004820152601b60248201527f4d6178696d756d20746f6b656e206c696d697420726561636865640000000000604482015260640161005e565b6005805460018181019092557f036b6384b5eca791c62761152d0c79bb0604c104a5fb6f4eb0703f3154bb3db00180546001600160a01b039093166001600160a01b031990931683179055600091825260066020526040909120805460ff19169091179055565b80516001600160a01b038116811461042a57600080fd5b919050565b634e487b7160e01b600052604160045260246000fd5b6000806000806080858703121561045b57600080fd5b61046485610413565b602086810151919550906001600160401b038082111561048357600080fd5b818801915088601f83011261049757600080fd5b8151818111156104a9576104a961042f565b8060051b604051601f19603f830116810181811085821117156104ce576104ce61042f565b60405291825284820192508381018501918b8311156104ec57600080fd5b938501935b828510156105115761050285610413565b845293850193928501926104f1565b80985050505050505061052660408601610413565b6060959095015193969295505050565b634e487b7160e01b600052603260045260246000fd5b60006020828403121561055e57600080fd5b61056782610413565b9392505050565b6114288061057d6000396000f3fe608060405234801561001057600080fd5b50600436106101415760003560e01c806381684db5116100b8578063d3d381931161007c578063d3d38193146102bd578063d965183d146102d0578063ec342ad0146102e3578063f2fde38b146102ec578063f3fef3a3146102ff578063f8b2cb4f1461031257600080fd5b806381684db51461027c57806384bfd0df146102895780638da5cb5b146102905780639b49969b146102a1578063a6227521146102aa57600080fd5b806336c877541161010a57806336c877541461020157806347e7ef2414610214578063570ca73514610227578063715018a61461023f57806374c13fda146102475780637d5ed9bd1461025a57600080fd5b80622703a2146101465780630560bd961461017657806318a029cf146101a95780632f757006146101d757806332469ffe146101ec575b600080fd5b600954610159906001600160a01b031681565b6040516001600160a01b0390911681526020015b60405180910390f35b6101996101843660046111b7565b60066020526000908152604090205460ff1681565b604051901515815260200161016d565b6101c96101b73660046111b7565b60046020526000908152604090205481565b60405190815260200161016d565b6101df61033b565b60405161016d91906111d2565b6101ff6101fa36600461121f565b61039d565b005b61015961020f36600461121f565b610530565b6101ff610222366004611238565b61055a565b6002546101599061010090046001600160a01b031681565b6101ff6106f5565b600354610159906001600160a01b031681565b6101996102683660046111b7565b6009546001600160a01b0391821691161490565b6002546101999060ff1681565b6001610199565b6000546001600160a01b0316610159565b6101c960085481565b6101ff6102b8366004611270565b610709565b6101c96102cb3660046111b7565b6107dd565b600754610159906001600160a01b031681565b6101c9600a5481565b6101ff6102fa3660046111b7565b610957565b6101ff61030d366004611238565b610992565b6101c96103203660046111b7565b6001600160a01b031660009081526004602052604090205490565b6060600580548060200260200160405190810160405280929190818152602001828054801561039357602002820191906000526020600020905b81546001600160a01b03168152600190910190602001808311610375575b5050505050905090565b60025461010090046001600160a01b031633146103f25760405162461bcd60e51b815260206004820152600e60248201526d139bdd08185d5d1a1bdc9a5e995960921b60448201526064015b60405180910390fd5b6103fa610bc8565b60025460ff1661044c5760405162461bcd60e51b815260206004820152601860248201527f4175746f2d73617665206973206e6f7420656e61626c6564000000000000000060448201526064016103e9565b6000811161046c5760405162461bcd60e51b81526004016103e9906112b5565b6104956104816000546001600160a01b031690565b6003546001600160a01b0316903084610bf2565b6003546001600160a01b0316600090815260046020526040812080548392906104bf908490611302565b90915550506003546001600160a01b03166104e26000546001600160a01b031690565b6001600160a01b03167f5548c837ab068cf56a2c2479df0882a4922fd203edb7517321831d95078c5f628360405161051c91815260200190565b60405180910390a361052d60018055565b50565b6005818154811061054057600080fd5b6000918252602090912001546001600160a01b0316905081565b610562610c5f565b61056a610bc8565b6105748282610c8c565b6000600a54600854836105879190611315565b610591919061132c565b90506000811180156105b057506009546001600160a01b038481169116145b156106e75760075460405163095ea7b360e01b81526001600160a01b039182166004820152602481018390529084169063095ea7b3906044016020604051808303816000875af1158015610608573d6000803e3d6000fd5b505050506040513d601f19601f8201168201806040525081019061062c919061134e565b50600754604051636e553f6560e01b8152600481018390523060248201526001600160a01b0390911690636e553f65906044016020604051808303816000875af115801561067e573d6000803e3d6000fd5b505050506040513d601f19601f820116820180604052508101906106a2919061136b565b50826001600160a01b03167fc3f75dfc78f6efac88ad5abb5e606276b903647d97b2a62a1ef89840a658bbc3826040516106de91815260200190565b60405180910390a25b506106f160018055565b5050565b6106fd610c5f565b6107076000610d7f565b565b610711610c5f565b6001600160a01b03821660009081526006602052604090205460ff166107495760405162461bcd60e51b81526004016103e990611384565b60028054600380546001600160a01b0319166001600160a01b038681169182179092556001600160a81b0319909216861515610100600160a81b031981169190911761010092861692830217909355604080519384526020840192909252908201527f629a66e9009f2689e67705f82a8e844ebd3be4c0168030a4727bc4b90663e15d9060600160405180910390a1505050565b6040516370a0823160e01b815230600482015260009081906001600160a01b038416906370a0823190602401602060405180830381865afa158015610826573d6000803e3d6000fd5b505050506040513d601f19601f8201168201806040525081019061084a919061136b565b9050610864836009546001600160a01b0391821691161490565b15610951576007546040516370a0823160e01b81523060048201526000916001600160a01b0316906307a2d13a9082906370a0823190602401602060405180830381865afa1580156108ba573d6000803e3d6000fd5b505050506040513d601f19601f820116820180604052508101906108de919061136b565b6040518263ffffffff1660e01b81526004016108fc91815260200190565b602060405180830381865afa158015610919573d6000803e3d6000fd5b505050506040513d601f19601f8201168201806040525081019061093d919061136b565b90506109498183611302565b949350505050565b92915050565b61095f610c5f565b6001600160a01b03811661098957604051631e4fbdf760e01b8152600060048201526024016103e9565b61052d81610d7f565b61099a610c5f565b6109a2610bc8565b6040516370a0823160e01b81523060048201526000906001600160a01b038416906370a0823190602401602060405180830381865afa1580156109e9573d6000803e3d6000fd5b505050506040513d601f19601f82011682018060405250810190610a0d919061136b565b90508181108015610a2b57506009546001600160a01b038481169116145b15610b77576000610a3c82846113b0565b6007546040516363737ac960e11b8152600481018390529192506000916001600160a01b039091169063c6e6f59290602401602060405180830381865afa158015610a8b573d6000803e3d6000fd5b505050506040513d601f19601f82011682018060405250810190610aaf919061136b565b600754604051635d043b2960e11b815260048101839052306024820181905260448201529192506001600160a01b03169063ba087652906064016020604051808303816000875af1158015610b08573d6000803e3d6000fd5b505050506040513d601f19601f82011682018060405250810190610b2c919061136b565b50846001600160a01b03167f2253aebe2fe8682635bbe60d9b78df72efaf785a596910a8ad66e8c6e37584fd83604051610b6891815260200190565b60405180910390a25050610bbe565b81811015610bbe5760405162461bcd60e51b8152602060048201526014602482015273496e73756666696369656e742062616c616e636560601b60448201526064016103e9565b6106e78383610dcf565b600260015403610beb57604051633ee5aeb560e01b815260040160405180910390fd5b6002600155565b6040516001600160a01b038481166024830152838116604483015260648201839052610c599186918216906323b872dd906084015b604051602081830303815290604052915060e01b6020820180516001600160e01b038381831617835250505050610fcb565b50505050565b6000546001600160a01b031633146107075760405163118cdaa760e01b81523360048201526024016103e9565b610c94610c5f565b610c9c610bc8565b6001600160a01b03821660009081526006602052604090205460ff16610cd45760405162461bcd60e51b81526004016103e990611384565b60008111610cf45760405162461bcd60e51b81526004016103e9906112b5565b610d096001600160a01b038316333084610bf2565b6001600160a01b03821660009081526004602052604081208054839290610d31908490611302565b90915550506040518181526001600160a01b0383169033907f5548c837ab068cf56a2c2479df0882a4922fd203edb7517321831d95078c5f629060200160405180910390a36106f160018055565b600080546001600160a01b038381166001600160a01b0319831681178455604051919092169283917f8be0079c531659141344cd1fd0a4f28419497f9722a3daafe3b4186f6b6457e09190a35050565b610dd7610c5f565b610ddf610bc8565b6001600160a01b03821660009081526006602052604090205460ff16610e175760405162461bcd60e51b81526004016103e990611384565b60008111610e375760405162461bcd60e51b81526004016103e9906112b5565b6040516370a0823160e01b81523060048201526000906001600160a01b038416906370a0823190602401602060405180830381865afa158015610e7e573d6000803e3d6000fd5b505050506040513d601f19601f82011682018060405250810190610ea2919061136b565b6001600160a01b038416600090815260046020526040902054909150811115610ee057506001600160a01b0382166000908152600460205260409020545b6001600160a01b038316600090815260046020526040902054821115610f3f5760405162461bcd60e51b8152602060048201526014602482015273496e73756666696369656e742062616c616e636560601b60448201526064016103e9565b6001600160a01b03831660009081526004602052604081208054849290610f679084906113b0565b90915550610f8190506001600160a01b0384163384611033565b6040518281526001600160a01b0384169033907f9b1bfa7fa9ee420a16e124f794c35ac9f90472acc99140eb2f6447c714cad8eb9060200160405180910390a3506106f160018055565b6000610fe06001600160a01b03841683611064565b90508051600014158015611005575080806020019051810190611003919061134e565b155b1561102e57604051635274afe760e01b81526001600160a01b03841660048201526024016103e9565b505050565b6040516001600160a01b0383811660248301526044820183905261102e91859182169063a9059cbb90606401610c27565b606061107283836000611079565b9392505050565b60608147101561109e5760405163cd78605960e01b81523060048201526024016103e9565b600080856001600160a01b031684866040516110ba91906113c3565b60006040518083038185875af1925050503d80600081146110f7576040519150601f19603f3d011682016040523d82523d6000602084013e6110fc565b606091505b509150915061110c868383611116565b9695505050505050565b60608261112b5761112682611172565b611072565b815115801561114257506001600160a01b0384163b155b1561116b57604051639996b31560e01b81526001600160a01b03851660048201526024016103e9565b5080611072565b8051156111825780518082602001fd5b604051630a12f52160e11b815260040160405180910390fd5b80356001600160a01b03811681146111b257600080fd5b919050565b6000602082840312156111c957600080fd5b6110728261119b565b6020808252825182820181905260009190848201906040850190845b818110156112135783516001600160a01b0316835292840192918401916001016111ee565b50909695505050505050565b60006020828403121561123157600080fd5b5035919050565b6000806040838503121561124b57600080fd5b6112548361119b565b946020939093013593505050565b801515811461052d57600080fd5b60008060006060848603121561128557600080fd5b833561129081611262565b925061129e6020850161119b565b91506112ac6040850161119b565b90509250925092565b6020808252601d908201527f416d6f756e74206d7573742062652067726561746572207468616e2030000000604082015260600190565b634e487b7160e01b600052601160045260246000fd5b80820180821115610951576109516112ec565b8082028115828204841417610951576109516112ec565b60008261134957634e487b7160e01b600052601260045260246000fd5b500490565b60006020828403121561136057600080fd5b815161107281611262565b60006020828403121561137d57600080fd5b5051919050565b602080825260129082015271151bdad95b881b9bdd081858d8d95c1d195960721b604082015260600190565b81810381811115610951576109516112ec565b6000825160005b818110156113e457602081860181015185830152016113ca565b50600092019182525091905056fea2646970667358221220f4fa839ba2795dce5917928be198ec540b09f6a8b1a9a19703688cca6c1db13e64736f6c6343000819003360c060405234801561001057600080fd5b506040516114d83803806114d883398101604081905261002f91610336565b8382816001600160a01b03811661006157604051631e4fbdf760e01b8152600060048201526024015b60405180910390fd5b61006a81610192565b506001805560005b81518110156100ab576100a382828151811061009057610090610424565b60200260200101516101e260201b60201c565b600101610072565b505050826001600160a01b0316846001600160a01b03160361010f5760405162461bcd60e51b815260206004820152601b60248201527f43726561746f722063616e6e6f7420626520726563697069656e7400000000006044820152606401610058565b42811161015e5760405162461bcd60e51b815260206004820152601a60248201527f756e6c6f636b2074696d6520697320696e2074686520706173740000000000006044820152606401610058565b6001600160a01b039384166080526007805460a092909252929093166001600160a81b03199093169290921790555061043a565b600080546001600160a01b038381166001600160a01b0319831681178455604051919092169283917f8be0079c531659141344cd1fd0a4f28419497f9722a3daafe3b4186f6b6457e09190a35050565b6001600160a01b03811660009081526006602052604090205460ff161561024b5760405162461bcd60e51b815260206004820152601660248201527f546f6b656e20616c7265616479206163636570746564000000000000000000006044820152606401610058565b60055460201161029d5760405162461bcd60e51b815260206004820152601b60248201527f4d6178696d756d20746f6b656e206c696d6974207265616368656400000000006044820152606401610058565b6005805460018181019092557f036b6384b5eca791c62761152d0c79bb0604c104a5fb6f4eb0703f3154bb3db00180546001600160a01b039093166001600160a01b031990931683179055600091825260066020526040909120805460ff19169091179055565b80516001600160a01b038116811461031b57600080fd5b919050565b634e487b7160e01b600052604160045260246000fd5b6000806000806080858703121561034c57600080fd5b61035585610304565b93506020610364818701610304565b60408701519094506001600160401b038082111561038157600080fd5b818801915088601f83011261039557600080fd5b8151818111156103a7576103a7610320565b8060051b604051601f19603f830116810181811085821117156103cc576103cc610320565b60405291825284820192508381018501918b8311156103ea57600080fd5b938501935b8285101561040f5761040085610304565b845293850193928501926103ef565b60609a909a0151989b979a5050505050505050565b634e487b7160e01b600052603260045260246000fd5b60805160a05161106b61046d600039600081816101f101526108d101526000818161014c0152610697015261106b6000f3fe608060405234801561001057600080fd5b50600436106101425760003560e01c806366d003ac116100b85780638da5cb5b1161007c5780638da5cb5b146102e3578063a6227521146102f4578063a68947df14610307578063f2fde38b1461031b578063f3fef3a31461032e578063f8b2cb4f1461034157600080fd5b806366d003ac146102a1578063715018a6146102b457806374c13fda146102bc57806381684db5146102cf57806384bfd0df146102dc57600080fd5b806332469ffe1161010a57806332469ffe1461022857806336c877541461023d5780633bbed4a01461025057806347e7ef241461026357806351cff8d914610276578063570ca7351461028957600080fd5b806302d05d3f146101475780630560bd961461018b57806318a029cf146101be578063251c1aa3146101ec5780632f75700614610213575b600080fd5b61016e7f000000000000000000000000000000000000000000000000000000000000000081565b6040516001600160a01b0390911681526020015b60405180910390f35b6101ae610199366004610e9e565b60066020526000908152604090205460ff1681565b6040519015158152602001610182565b6101de6101cc366004610e9e565b60046020526000908152604090205481565b604051908152602001610182565b6101de7f000000000000000000000000000000000000000000000000000000000000000081565b61021b61036a565b6040516101829190610eb9565b61023b610236366004610f06565b6103cc565b005b61016e61024b366004610f06565b61058f565b61023b61025e366004610e9e565b6105b9565b61023b610271366004610f1f565b610766565b61023b610284366004610e9e565b610875565b60025461016e9061010090046001600160a01b031681565b60075461016e906001600160a01b031681565b61023b610a36565b60035461016e906001600160a01b031681565b6002546101ae9060ff1681565b60016101ae565b6000546001600160a01b031661016e565b61023b610302366004610f57565b610a4a565b6007546101ae90600160a01b900460ff1681565b61023b610329366004610e9e565b610b1e565b61023b61033c366004610f1f565b610b59565b6101de61034f366004610e9e565b6001600160a01b031660009081526004602052604090205490565b606060058054806020026020016040519081016040528092919081815260200182805480156103c257602002820191906000526020600020905b81546001600160a01b031681526001909101906020018083116103a4575b5050505050905090565b60025461010090046001600160a01b031633146104215760405162461bcd60e51b815260206004820152600e60248201526d139bdd08185d5d1a1bdc9a5e995960921b60448201526064015b60405180910390fd5b610429610b9a565b60025460ff1661047b5760405162461bcd60e51b815260206004820152601860248201527f4175746f2d73617665206973206e6f7420656e61626c656400000000000000006044820152606401610418565b600081116104cb5760405162461bcd60e51b815260206004820152601d60248201527f416d6f756e74206d7573742062652067726561746572207468616e20300000006044820152606401610418565b6104f46104e06000546001600160a01b031690565b6003546001600160a01b0316903084610bc4565b6003546001600160a01b03166000908152600460205260408120805483929061051e908490610f9c565b90915550506003546001600160a01b03166105416000546001600160a01b031690565b6001600160a01b03167f5548c837ab068cf56a2c2479df0882a4922fd203edb7517321831d95078c5f628360405161057b91815260200190565b60405180910390a361058c60018055565b50565b6005818154811061059f57600080fd5b6000918252602090912001546001600160a01b0316905081565b6105c1610c31565b600754600160a01b900460ff16156106265760405162461bcd60e51b815260206004820152602260248201527f526563697069656e742063616e206f6e6c79206265206368616e676564206f6e604482015261636560f01b6064820152608401610418565b6001600160a01b03811661067c5760405162461bcd60e51b815260206004820152601960248201527f496e76616c696420726563697069656e742061646472657373000000000000006044820152606401610418565b6000546001600160a01b038281169116148015906106cc57507f00000000000000000000000000000000000000000000000000000000000000006001600160a01b0316816001600160a01b031614155b61070c5760405162461bcd60e51b8152602060048201526011602482015270125b9d985b1a59081c9958da5c1a595b9d607a1b6044820152606401610418565b600780546001600160a81b031981166001600160a01b03848116918217600160a01b17909355604051929091169182907f4a9d367b1b0cd787be10021f1c55cb49c9f2302334e6df35c9621005eb22251490600090a35050565b6001600160a01b03821660009081526006602052604090205460ff1661079e5760405162461bcd60e51b815260040161041890610fbd565b600081116107ee5760405162461bcd60e51b815260206004820152601d60248201527f416d6f756e74206d7573742062652067726561746572207468616e20300000006044820152606401610418565b6108036001600160a01b038316333084610bc4565b6001600160a01b0382166000908152600460205260408120805483929061082b908490610f9c565b90915550506040518181526001600160a01b0383169033907f5548c837ab068cf56a2c2479df0882a4922fd203edb7517321831d95078c5f62906020015b60405180910390a35050565b6007546001600160a01b031633146108cf5760405162461bcd60e51b815260206004820152601b60248201527f4f6e6c7920726563697069656e742063616e20776974686472617700000000006044820152606401610418565b7f00000000000000000000000000000000000000000000000000000000000000004210156109385760405162461bcd60e51b8152602060048201526016602482015275119d5b991cc8185c99481cdd1a5b1b081b1bd8dad95960521b6044820152606401610418565b6001600160a01b03811660009081526006602052604090205460ff166109705760405162461bcd60e51b815260040161041890610fbd565b6001600160a01b038116600090815260046020526040902054806109cd5760405162461bcd60e51b81526020600482015260146024820152734e6f2066756e647320746f20776974686472617760601b6044820152606401610418565b6001600160a01b038083166000818152600460205260408120556007546109f5921683610c5e565b6007546040518281526001600160a01b038481169216907fa92ff919b850e4909ab2261d907ef955f11bc1716733a6cbece38d163a69af8a90602001610869565b610a3e610c31565b610a486000610c94565b565b610a52610c31565b6001600160a01b03821660009081526006602052604090205460ff16610a8a5760405162461bcd60e51b815260040161041890610fbd565b60028054600380546001600160a01b0319166001600160a01b038681169182179092556001600160a81b0319909216861515610100600160a81b031981169190911761010092861692830217909355604080519384526020840192909252908201527f629a66e9009f2689e67705f82a8e844ebd3be4c0168030a4727bc4b90663e15d9060600160405180910390a1505050565b610b26610c31565b6001600160a01b038116610b5057604051631e4fbdf760e01b815260006004820152602401610418565b61058c81610c94565b60405162461bcd60e51b815260206004820152601660248201527515da5d1a191c985dd85b081b9bdd08185b1b1bddd95960521b6044820152606401610418565b600260015403610bbd57604051633ee5aeb560e01b815260040160405180910390fd5b6002600155565b6040516001600160a01b038481166024830152838116604483015260648201839052610c2b9186918216906323b872dd906084015b604051602081830303815290604052915060e01b6020820180516001600160e01b038381831617835250505050610ce4565b50505050565b6000546001600160a01b03163314610a485760405163118cdaa760e01b8152336004820152602401610418565b6040516001600160a01b03838116602483015260448201839052610c8f91859182169063a9059cbb90606401610bf9565b505050565b600080546001600160a01b038381166001600160a01b0319831681178455604051919092169283917f8be0079c531659141344cd1fd0a4f28419497f9722a3daafe3b4186f6b6457e09190a35050565b6000610cf96001600160a01b03841683610d47565b90508051600014158015610d1e575080806020019051810190610d1c9190610fe9565b155b15610c8f57604051635274afe760e01b81526001600160a01b0384166004820152602401610418565b6060610d5583836000610d5e565b90505b92915050565b606081471015610d835760405163cd78605960e01b8152306004820152602401610418565b600080856001600160a01b03168486604051610d9f9190611006565b60006040518083038185875af1925050503d8060008114610ddc576040519150601f19603f3d011682016040523d82523d6000602084013e610de1565b606091505b5091509150610df1868383610dfd565b925050505b9392505050565b606082610e1257610e0d82610e59565b610df6565b8151158015610e2957506001600160a01b0384163b155b15610e5257604051639996b31560e01b81526001600160a01b0385166004820152602401610418565b5080610df6565b805115610e695780518082602001fd5b604051630a12f52160e11b815260040160405180910390fd5b80356001600160a01b0381168114610e9957600080fd5b919050565b600060208284031215610eb057600080fd5b610d5582610e82565b6020808252825182820181905260009190848201906040850190845b81811015610efa5783516001600160a01b031683529284019291840191600101610ed5565b50909695505050505050565b600060208284031215610f1857600080fd5b5035919050565b60008060408385031215610f3257600080fd5b610f3b83610e82565b946020939093013593505050565b801515811461058c57600080fd5b600080600060608486031215610f6c57600080fd5b8335610f7781610f49565b9250610f8560208501610e82565b9150610f9360408501610e82565b90509250925092565b80820180821115610d5857634e487b7160e01b600052601160045260246000fd5b602080825260129082015271151bdad95b881b9bdd081858d8d95c1d195960721b604082015260600190565b600060208284031215610ffb57600080fd5b8151610df681610f49565b6000825160005b81811015611027576020818601810151858301520161100d565b50600092019182525091905056fea2646970667358221220d684a61a7b36921d1e8170ab8dab1fe74dc4b8da7d59d3123a736c87d93c474064736f6c63430008190033a2646970667358221220adf4b1e7d87b622781d04ddf6ad0e066a740bcf0143c52001d5226c4ea7b5cf064736f6c63430008190033","linkReferences":{}},"methodIdentifiers":{"acceptableTokens(uint256)":"bb09bdd4","createCustodialSavings(address[],address,uint256)":"fa138b2c","createInvestmentSavings(address[],uint256,address)":"47e7fcfc","getAcceptableTokens()":"e6c83db5","isTokenAcceptable(address)":"60e0e2b4","owner()":"8da5cb5b","renounceOwnership()":"715018a6","transferOwnership(address)":"f2fde38b","updateAcceptableTokens(address[])":"21a30e72"},"id":110}