{"abi":[{"type":"constructor","inputs":[{"name":"_owner","type":"address","internalType":"address"},{"name":"_acceptedTokens","type":"address[]","internalType":"address[]"},{"name":"_lockPeriod","type":"uint256","internalType":"uint256"}],"stateMutability":"nonpayable"},{"type":"function","name":"acceptedTokens","inputs":[{"name":"","type":"uint256","internalType":"uint256"}],"outputs":[{"name":"","type":"address","internalType":"address"}],"stateMutability":"view"},{"type":"function","name":"autoSave","inputs":[{"name":"_amount","type":"uint256","internalType":"uint256"}],"outputs":[],"stateMutability":"nonpayable"},{"type":"function","name":"autoSaveEnabled","inputs":[],"outputs":[{"name":"","type":"bool","internalType":"bool"}],"stateMutability":"view"},{"type":"function","name":"defaultToken","inputs":[],"outputs":[{"name":"","type":"address","internalType":"address"}],"stateMutability":"view"},{"type":"function","name":"deposit","inputs":[{"name":"_token","type":"address","internalType":"address"},{"name":"_amount","type":"uint256","internalType":"uint256"}],"outputs":[],"stateMutability":"nonpayable"},{"type":"function","name":"getAcceptedTokens","inputs":[],"outputs":[{"name":"","type":"address[]","internalType":"address[]"}],"stateMutability":"view"},{"type":"function","name":"getBalance","inputs":[{"name":"_token","type":"address","internalType":"address"}],"outputs":[{"name":"","type":"uint256","internalType":"uint256"}],"stateMutability":"view"},{"type":"function","name":"isTokenAccepted","inputs":[{"name":"","type":"address","internalType":"address"}],"outputs":[{"name":"","type":"bool","internalType":"bool"}],"stateMutability":"view"},{"type":"function","name":"lastWithdrawalTime","inputs":[{"name":"","type":"address","internalType":"address"}],"outputs":[{"name":"","type":"uint256","internalType":"uint256"}],"stateMutability":"view"},{"type":"function","name":"lockPeriod","inputs":[],"outputs":[{"name":"","type":"uint256","internalType":"uint256"}],"stateMutability":"view"},{"type":"function","name":"operator","inputs":[],"outputs":[{"name":"","type":"address","internalType":"address"}],"stateMutability":"view"},{"type":"function","name":"owner","inputs":[],"outputs":[{"name":"","type":"address","internalType":"address"}],"stateMutability":"view"},{"type":"function","name":"renounceOwnership","inputs":[],"outputs":[],"stateMutability":"nonpayable"},{"type":"function","name":"savingsCompatible","inputs":[],"outputs":[{"name":"","type":"bool","internalType":"bool"}],"stateMutability":"pure"},{"type":"function","name":"startTime","inputs":[],"outputs":[{"name":"","type":"uint256","internalType":"uint256"}],"stateMutability":"view"},{"type":"function","name":"toggleAutoSave","inputs":[{"name":"_enabled","type":"bool","internalType":"bool"},{"name":"_defaultToken","type":"address","internalType":"address"},{"name":"_operator","type":"address","internalType":"address"}],"outputs":[],"stateMutability":"nonpayable"},{"type":"function","name":"tokenSavings","inputs":[{"name":"","type":"address","internalType":"address"}],"outputs":[{"name":"","type":"uint256","internalType":"uint256"}],"stateMutability":"view"},{"type":"function","name":"transferOwnership","inputs":[{"name":"newOwner","type":"address","internalType":"address"}],"outputs":[],"stateMutability":"nonpayable"},{"type":"function","name":"withdraw","inputs":[{"name":"_token","type":"address","internalType":"address"},{"name":"_amount","type":"uint256","internalType":"uint256"}],"outputs":[],"stateMutability":"nonpayable"},{"type":"event","name":"AutoSaveToggled","inputs":[{"name":"enabled","type":"bool","indexed":false,"internalType":"bool"},{"name":"defaultToken","type":"address","indexed":false,"internalType":"address"},{"name":"operator","type":"address","indexed":false,"internalType":"address"}],"anonymous":false},{"type":"event","name":"Deposit","inputs":[{"name":"user","type":"address","indexed":true,"internalType":"address"},{"name":"token","type":"address","indexed":true,"internalType":"address"},{"name":"amount","type":"uint256","indexed":false,"internalType":"uint256"}],"anonymous":false},{"type":"event","name":"LockPeriodSet","inputs":[{"name":"period","type":"uint256","indexed":false,"internalType":"uint256"}],"anonymous":false},{"type":"event","name":"OwnershipTransferred","inputs":[{"name":"previousOwner","type":"address","indexed":true,"internalType":"address"},{"name":"newOwner","type":"address","indexed":true,"internalType":"address"}],"anonymous":false},{"type":"event","name":"Withdraw","inputs":[{"name":"user","type":"address","indexed":true,"internalType":"address"},{"name":"token","type":"address","indexed":true,"internalType":"address"},{"name":"amount","type":"uint256","indexed":false,"internalType":"uint256"}],"anonymous":false},{"type":"event","name":"WithdrawalTimeReset","inputs":[{"name":"token","type":"address","indexed":true,"internalType":"address"}],"anonymous":false},{"type":"error","name":"AddressEmptyCode","inputs":[{"name":"target","type":"address","internalType":"address"}]},{"type":"error","name":"AddressInsufficientBalance","inputs":[{"name":"account","type":"address","internalType":"address"}]},{"type":"error","name":"FailedInnerCall","inputs":[]},{"type":"error","name":"OwnableInvalidOwner","inputs":[{"name":"owner","type":"address","internalType":"address"}]},{"type":"error","name":"OwnableUnauthorizedAccount","inputs":[{"name":"account","type":"address","internalType":"address"}]},{"type":"error","name":"ReentrancyGuardReentrantCall","inputs":[]},{"type":"error","name":"SafeERC20FailedOperation","inputs":[{"name":"token","type":"address","internalType":"address"}]}],"bytecode":{"object":"0x608060405234801561001057600080fd5b506040516112fb3803806112fb83398101604081905261002f91610296565b8282816001600160a01b03811661006157604051631e4fbdf760e01b8152600060048201526024015b60405180910390fd5b61006a816100f2565b506001805560005b81518110156100ab576100a382828151811061009057610090610378565b602002602001015161014260201b60201c565b600101610072565b5050506007819055426008556040518181527fd32a4cc27f52edbb5e071e05b29c1cdb120172bb012b7031894db8be82ad71fc9060200160405180910390a150505061038e565b600080546001600160a01b038381166001600160a01b0319831681178455604051919092169283917f8be0079c531659141344cd1fd0a4f28419497f9722a3daafe3b4186f6b6457e09190a35050565b6001600160a01b03811660009081526006602052604090205460ff16156101ab5760405162461bcd60e51b815260206004820152601660248201527f546f6b656e20616c7265616479206163636570746564000000000000000000006044820152606401610058565b6005546020116101fd5760405162461bcd60e51b815260206004820152601b60248201527f4d6178696d756d20746f6b656e206c696d6974207265616368656400000000006044820152606401610058565b6005805460018181019092557f036b6384b5eca791c62761152d0c79bb0604c104a5fb6f4eb0703f3154bb3db00180546001600160a01b039093166001600160a01b031990931683179055600091825260066020526040909120805460ff19169091179055565b80516001600160a01b038116811461027b57600080fd5b919050565b634e487b7160e01b600052604160045260246000fd5b6000806000606084860312156102ab57600080fd5b6102b484610264565b602085810151919450906001600160401b03808211156102d357600080fd5b818701915087601f8301126102e757600080fd5b8151818111156102f9576102f9610280565b8060051b604051601f19603f8301168101818110858211171561031e5761031e610280565b60405291825284820192508381018501918a83111561033c57600080fd5b938501935b828510156103615761035285610264565b84529385019392850192610341565b809750505050505050604084015190509250925092565b634e487b7160e01b600052603260045260246000fd5b610f5e8061039d6000396000f3fe608060405234801561001057600080fd5b50600436106101215760003560e01c8063715018a6116100ad5780638da5cb5b116100715780638da5cb5b1461026d578063a62275211461027e578063f2fde38b14610291578063f3fef3a3146102a4578063f8b2cb4f146102b757600080fd5b8063715018a61461023557806374c13fda1461023d57806378e979251461025057806381684db51461025957806384bfd0df1461026657600080fd5b806336c87754116100f457806336c87754146101b65780633fd8b02f146101e157806347e7ef24146101ea5780634de5120e146101fd578063570ca7351461021d57600080fd5b80630560bd961461012657806318a029cf1461015e5780632f7570061461018c57806332469ffe146101a1575b600080fd5b610149610134366004610d26565b60066020526000908152604090205460ff1681565b60405190151581526020015b60405180910390f35b61017e61016c366004610d26565b60046020526000908152604090205481565b604051908152602001610155565b6101946102e0565b6040516101559190610d41565b6101b46101af366004610d8e565b610342565b005b6101c96101c4366004610d8e565b6104d5565b6040516001600160a01b039091168152602001610155565b61017e60075481565b6101b46101f8366004610da7565b6104ff565b61017e61020b366004610d26565b60096020526000908152604090205481565b6002546101c99061010090046001600160a01b031681565b6101b46105f6565b6003546101c9906001600160a01b031681565b61017e60085481565b6002546101499060ff1681565b6001610149565b6000546001600160a01b03166101c9565b6101b461028c366004610ddf565b61060a565b6101b461029f366004610d26565b6106de565b6101b46102b2366004610da7565b610719565b61017e6102c5366004610d26565b6001600160a01b031660009081526004602052604090205490565b6060600580548060200260200160405190810160405280929190818152602001828054801561033857602002820191906000526020600020905b81546001600160a01b0316815260019091019060200180831161031a575b5050505050905090565b60025461010090046001600160a01b031633146103975760405162461bcd60e51b815260206004820152600e60248201526d139bdd08185d5d1a1bdc9a5e995960921b60448201526064015b60405180910390fd5b61039f610826565b60025460ff166103f15760405162461bcd60e51b815260206004820152601860248201527f4175746f2d73617665206973206e6f7420656e61626c65640000000000000000604482015260640161038e565b600081116104115760405162461bcd60e51b815260040161038e90610e24565b61043a6104266000546001600160a01b031690565b6003546001600160a01b0316903084610850565b6003546001600160a01b031660009081526004602052604081208054839290610464908490610e71565b90915550506003546001600160a01b03166104876000546001600160a01b031690565b6001600160a01b03167f5548c837ab068cf56a2c2479df0882a4922fd203edb7517321831d95078c5f62836040516104c191815260200190565b60405180910390a36104d260018055565b50565b600581815481106104e557600080fd5b6000918252602090912001546001600160a01b0316905081565b6105076108bd565b61050f610826565b6001600160a01b03821660009081526006602052604090205460ff166105475760405162461bcd60e51b815260040161038e90610e84565b600081116105675760405162461bcd60e51b815260040161038e90610e24565b61057c6001600160a01b038316333084610850565b6001600160a01b038216600090815260046020526040812080548392906105a4908490610e71565b90915550506040518181526001600160a01b0383169033907f5548c837ab068cf56a2c2479df0882a4922fd203edb7517321831d95078c5f629060200160405180910390a36105f260018055565b5050565b6105fe6108bd565b61060860006108ea565b565b6106126108bd565b6001600160a01b03821660009081526006602052604090205460ff1661064a5760405162461bcd60e51b815260040161038e90610e84565b60028054600380546001600160a01b0319166001600160a01b038681169182179092556001600160a81b0319909216861515610100600160a81b031981169190911761010092861692830217909355604080519384526020840192909252908201527f629a66e9009f2689e67705f82a8e844ebd3be4c0168030a4727bc4b90663e15d9060600160405180910390a1505050565b6106e66108bd565b6001600160a01b03811661071057604051631e4fbdf760e01b81526000600482015260240161038e565b6104d2816108ea565b6107216108bd565b610729610826565b6001600160a01b0382166000908152600960205260408120549003610765576008546001600160a01b0383166000908152600960205260409020555b6007546001600160a01b03831660009081526009602052604090205461078b9190610e71565b4210156107d25760405162461bcd60e51b8152602060048201526015602482015274131bd8dac81c195c9a5bd9081b9bdd08195b991959605a1b604482015260640161038e565b6107dc828261093a565b6001600160a01b038216600081815260096020526040808220429055517fa2afae4cf1376a97acf4741ea1e1c9f9f33cf1b757ba8bd478ee1667d5815e219190a26105f260018055565b60026001540361084957604051633ee5aeb560e01b815260040160405180910390fd5b6002600155565b6040516001600160a01b0384811660248301528381166044830152606482018390526108b79186918216906323b872dd906084015b604051602081830303815290604052915060e01b6020820180516001600160e01b038381831617835250505050610b36565b50505050565b6000546001600160a01b031633146106085760405163118cdaa760e01b815233600482015260240161038e565b600080546001600160a01b038381166001600160a01b0319831681178455604051919092169283917f8be0079c531659141344cd1fd0a4f28419497f9722a3daafe3b4186f6b6457e09190a35050565b6109426108bd565b61094a610826565b6001600160a01b03821660009081526006602052604090205460ff166109825760405162461bcd60e51b815260040161038e90610e84565b600081116109a25760405162461bcd60e51b815260040161038e90610e24565b6040516370a0823160e01b81523060048201526000906001600160a01b038416906370a0823190602401602060405180830381865afa1580156109e9573d6000803e3d6000fd5b505050506040513d601f19601f82011682018060405250810190610a0d9190610eb0565b6001600160a01b038416600090815260046020526040902054909150811115610a4b57506001600160a01b0382166000908152600460205260409020545b6001600160a01b038316600090815260046020526040902054821115610aaa5760405162461bcd60e51b8152602060048201526014602482015273496e73756666696369656e742062616c616e636560601b604482015260640161038e565b6001600160a01b03831660009081526004602052604081208054849290610ad2908490610ec9565b90915550610aec90506001600160a01b0384163384610b9e565b6040518281526001600160a01b0384169033907f9b1bfa7fa9ee420a16e124f794c35ac9f90472acc99140eb2f6447c714cad8eb9060200160405180910390a3506105f260018055565b6000610b4b6001600160a01b03841683610bcf565b90508051600014158015610b70575080806020019051810190610b6e9190610edc565b155b15610b9957604051635274afe760e01b81526001600160a01b038416600482015260240161038e565b505050565b6040516001600160a01b03838116602483015260448201839052610b9991859182169063a9059cbb90606401610885565b6060610bdd83836000610be6565b90505b92915050565b606081471015610c0b5760405163cd78605960e01b815230600482015260240161038e565b600080856001600160a01b03168486604051610c279190610ef9565b60006040518083038185875af1925050503d8060008114610c64576040519150601f19603f3d011682016040523d82523d6000602084013e610c69565b606091505b5091509150610c79868383610c85565b925050505b9392505050565b606082610c9a57610c9582610ce1565b610c7e565b8151158015610cb157506001600160a01b0384163b155b15610cda57604051639996b31560e01b81526001600160a01b038516600482015260240161038e565b5080610c7e565b805115610cf15780518082602001fd5b604051630a12f52160e11b815260040160405180910390fd5b80356001600160a01b0381168114610d2157600080fd5b919050565b600060208284031215610d3857600080fd5b610bdd82610d0a565b6020808252825182820181905260009190848201906040850190845b81811015610d825783516001600160a01b031683529284019291840191600101610d5d565b50909695505050505050565b600060208284031215610da057600080fd5b5035919050565b60008060408385031215610dba57600080fd5b610dc383610d0a565b946020939093013593505050565b80151581146104d257600080fd5b600080600060608486031215610df457600080fd5b8335610dff81610dd1565b9250610e0d60208501610d0a565b9150610e1b60408501610d0a565b90509250925092565b6020808252601d908201527f416d6f756e74206d7573742062652067726561746572207468616e2030000000604082015260600190565b634e487b7160e01b600052601160045260246000fd5b80820180821115610be057610be0610e5b565b602080825260129082015271151bdad95b881b9bdd081858d8d95c1d195960721b604082015260600190565b600060208284031215610ec257600080fd5b5051919050565b81810381811115610be057610be0610e5b565b600060208284031215610eee57600080fd5b8151610c7e81610dd1565b6000825160005b81811015610f1a5760208186018101518583015201610f00565b50600092019182525091905056fea2646970667358221220df7db88e4ee34cc92a213bd8f2514d22538eaf4afe03414482ab16618e6b206264736f6c63430008190033","linkReferences":{}},"methodIdentifiers":{"acceptedTokens(uint256)":"36c87754","autoSave(uint256)":"32469ffe","autoSaveEnabled()":"81684db5","defaultToken()":"74c13fda","deposit(address,uint256)":"47e7ef24","getAcceptedTokens()":"2f757006","getBalance(address)":"f8b2cb4f","isTokenAccepted(address)":"0560bd96","lastWithdrawalTime(address)":"4de5120e","lockPeriod()":"3fd8b02f","operator()":"570ca735","owner()":"8da5cb5b","renounceOwnership()":"715018a6","savingsCompatible()":"84bfd0df","startTime()":"78e97925","toggleAutoSave(bool,address,address)":"a6227521","tokenSavings(address)":"18a029cf","transferOwnership(address)":"f2fde38b","withdraw(address,uint256)":"f3fef3a3"},"id":108}