{"abi":[{"type":"constructor","inputs":[{"name":"_vrfCoordinator","type":"address","internalType":"address"},{"name":"_subscriptionId","type":"uint64","internalType":"uint64"},{"name":"_keyHash","type":"bytes32","internalType":"bytes32"}],"stateMutability":"nonpayable"},{"type":"function","name":"acceptableTokens","inputs":[{"name":"","type":"uint256","internalType":"uint256"}],"outputs":[{"name":"","type":"address","internalType":"address"}],"stateMutability":"view"},{"type":"function","name":"createCircleSavings","inputs":[{"name":"_acceptedToken","type":"address","internalType":"address"},{"name":"_recipient","type":"address","internalType":"address"},{"name":"_periodDuration","type":"uint256","internalType":"uint256"}],"outputs":[{"name":"","type":"address","internalType":"address"}],"stateMutability":"nonpayable"},{"type":"function","name":"createGroupSavings","inputs":[{"name":"_acceptedTokens","type":"address[]","internalType":"address[]"}],"outputs":[{"name":"","type":"address","internalType":"address"}],"stateMutability":"nonpayable"},{"type":"function","name":"getAcceptableTokens","inputs":[],"outputs":[{"name":"","type":"address[]","internalType":"address[]"}],"stateMutability":"view"},{"type":"function","name":"isTokenAcceptable","inputs":[{"name":"","type":"address","internalType":"address"}],"outputs":[{"name":"","type":"bool","internalType":"bool"}],"stateMutability":"view"},{"type":"function","name":"owner","inputs":[],"outputs":[{"name":"","type":"address","internalType":"address"}],"stateMutability":"view"},{"type":"function","name":"renounceOwnership","inputs":[],"outputs":[],"stateMutability":"nonpayable"},{"type":"function","name":"transferOwnership","inputs":[{"name":"newOwner","type":"address","internalType":"address"}],"outputs":[],"stateMutability":"nonpayable"},{"type":"function","name":"updateAcceptableTokens","inputs":[{"name":"_acceptedTokens","type":"address[]","internalType":"address[]"}],"outputs":[],"stateMutability":"nonpayable"},{"type":"event","name":"OwnershipTransferred","inputs":[{"name":"previousOwner","type":"address","indexed":true,"internalType":"address"},{"name":"newOwner","type":"address","indexed":true,"internalType":"address"}],"anonymous":false},{"type":"event","name":"SavingsCreated","inputs":[{"name":"owner","type":"address","indexed":true,"internalType":"address"},{"name":"savingsContract","type":"address","indexed":false,"internalType":"address"},{"name":"acceptedTokens","type":"address[]","indexed":false,"internalType":"address[]"},{"name":"savingsType","type":"string","indexed":false,"internalType":"string"}],"anonymous":false},{"type":"error","name":"OwnableInvalidOwner","inputs":[{"name":"owner","type":"address","internalType":"address"}]},{"type":"error","name":"OwnableUnauthorizedAccount","inputs":[{"name":"account","type":"address","internalType":"address"}]}],"bytecode":{"object":"0x608060405234801561001057600080fd5b50604051614b37380380614b3783398101604081905261002f916100ee565b338061005557604051631e4fbdf760e01b81526000600482015260240160405180910390fd5b61005e8161009e565b50600380546001600160401b03909316600160a01b026001600160e01b03199093166001600160a01b039094169390931791909117909155600455610149565b600080546001600160a01b038381166001600160a01b0319831681178455604051919092169283917f8be0079c531659141344cd1fd0a4f28419497f9722a3daafe3b4186f6b6457e09190a35050565b60008060006060848603121561010357600080fd5b83516001600160a01b038116811461011a57600080fd5b60208501519093506001600160401b038116811461013757600080fd5b80925050604084015190509250925092565b6149df806101586000396000f3fe608060405234801561001057600080fd5b50600436106100935760003560e01c80638da5cb5b116100665780638da5cb5b1461011857806390c4553c14610129578063bb09bdd41461013c578063e6c83db51461014f578063f2fde38b1461016457600080fd5b806321a30e721461009857806331751639146100ad57806360e0e2b4146100dd578063715018a614610110575b600080fd5b6100ab6100a6366004610702565b610177565b005b6100c06100bb366004610702565b6102a1565b6040516001600160a01b0390911681526020015b60405180910390f35b6101006100eb366004610793565b60026020526000908152604090205460ff1681565b60405190151581526020016100d4565b6100ab61038e565b6000546001600160a01b03166100c0565b6100c06101373660046107b5565b6103a2565b6100c061014a3660046107f1565b610503565b61015761052d565b6040516100d4919061084f565b6100ab610172366004610793565b61058f565b61017f6105cd565b801580159061018f575060208111155b6101db5760405162461bcd60e51b8152602060048201526018602482015277496e76616c6964206e756d626572206f6620746f6b656e7360401b60448201526064015b60405180910390fd5b60005b8181101561029c5760008383838181106101fa576101fa610862565b905060200201602081019061020f9190610793565b6001600160a01b03811660009081526002602052604090205490915060ff16610293576001805480820182557fb10e2d527612073b26eecdfd717e6a320cf44b4afac2b0732d9fcbe2b7fa0cf60180546001600160a01b0319166001600160a01b0384169081179091556000908152600260205260409020805460ff191690911790555b506001016101de565b505050565b600081158015906102b3575060208211155b6102fa5760405162461bcd60e51b8152602060048201526018602482015277496e76616c6964206e756d626572206f6620746f6b656e7360401b60448201526064016101d2565b61030483836105fa565b600033848433604051610316906106e8565b61032394939291906108b4565b604051809103906000f08015801561033f573d6000803e3d6000fd5b509050336001600160a01b03167f916a0fb4a04cc0ff6ad55718200c0742807696951d50bb55f5a2ea2af79a063d82868660405161037f939291906108eb565b60405180910390a29392505050565b6103966105cd565b6103a06000610698565b565b6040805160018082528183019092526000918291906020808301908036833701905050905084816000815181106103db576103db610862565b60200260200101906001600160a01b031690816001600160a01b031681525050600085336104116000546001600160a01b031690565b600354600454604051899260fa926001600160a01b03821692600160a01b90920467ffffffffffffffff1691610446906106f5565b6001600160a01b039889168152968816602088015294871660408701526060860193909352608085019190915290931660a083015267ffffffffffffffff90921660c082015260e081019190915261010001604051809103906000f0801580156104b4573d6000803e3d6000fd5b509050336001600160a01b03167f916a0fb4a04cc0ff6ad55718200c0742807696951d50bb55f5a2ea2af79a063d82846040516104f2929190610937565b60405180910390a295945050505050565b6001818154811061051357600080fd5b6000918252602090912001546001600160a01b0316905081565b6060600180548060200260200160405190810160405280929190818152602001828054801561058557602002820191906000526020600020905b81546001600160a01b03168152600190910190602001808311610567575b5050505050905090565b6105976105cd565b6001600160a01b0381166105c157604051631e4fbdf760e01b8152600060048201526024016101d2565b6105ca81610698565b50565b6000546001600160a01b031633146103a05760405163118cdaa760e01b81523360048201526024016101d2565b60005b8181101561029c576002600084848481811061061b5761061b610862565b90506020020160208101906106309190610793565b6001600160a01b0316815260208101919091526040016000205460ff166106905760405162461bcd60e51b8152602060048201526014602482015273546f6b656e206e6f742061636365707461626c6560601b60448201526064016101d2565b6001016105fd565b600080546001600160a01b038381166001600160a01b0319831681178455604051919092169283917f8be0079c531659141344cd1fd0a4f28419497f9722a3daafe3b4186f6b6457e09190a35050565b611fb08061098383390190565b6120778061293383390190565b6000806020838503121561071557600080fd5b823567ffffffffffffffff8082111561072d57600080fd5b818501915085601f83011261074157600080fd5b81358181111561075057600080fd5b8660208260051b850101111561076557600080fd5b60209290920196919550909350505050565b80356001600160a01b038116811461078e57600080fd5b919050565b6000602082840312156107a557600080fd5b6107ae82610777565b9392505050565b6000806000606084860312156107ca57600080fd5b6107d384610777565b92506107e160208501610777565b9150604084013590509250925092565b60006020828403121561080357600080fd5b5035919050565b60008151808452602080850194506020840160005b838110156108445781516001600160a01b03168752958201959082019060010161081f565b509495945050505050565b6020815260006107ae602083018461080a565b634e487b7160e01b600052603260045260246000fd5b8183526000602080850194508260005b85811015610844576001600160a01b036108a183610777565b1687529582019590820190600101610888565b600060018060a01b038087168352606060208401526108d7606084018688610878565b915080841660408401525095945050505050565b6001600160a01b03841681526060602082018190526000906109109083018486610878565b8281036040938401526005815264047726f75760dc1b602082015291909101949350505050565b6001600160a01b038316815260606020820181905260009061095b9083018461080a565b8281036040938401526006815265436972636c6560d01b602082015291909101939250505056fe608060405234801561001057600080fd5b50604051611fb0380380611fb083398101604081905261002f91610388565b826001600160a01b03811661005f57604051631e4fbdf760e01b8152600060048201526024015b60405180910390fd5b610068816100fc565b506001805560005b82518110156100a9576100a183828151811061008e5761008e610471565b602002602001015161014c60201b60201c565b600101610070565b506100b38161026e565b816000815181106100c6576100c6610471565b6020026020010151600260006101000a8154816001600160a01b0302191690836001600160a01b03160217905550505050610487565b600080546001600160a01b038381166001600160a01b0319831681178455604051919092169283917f8be0079c531659141344cd1fd0a4f28419497f9722a3daafe3b4186f6b6457e09190a35050565b6001600160a01b03811660009081526006602052604090205460ff16156101b55760405162461bcd60e51b815260206004820152601660248201527f546f6b656e20616c7265616479206163636570746564000000000000000000006044820152606401610056565b6005546020116102075760405162461bcd60e51b815260206004820152601b60248201527f4d6178696d756d20746f6b656e206c696d6974207265616368656400000000006044820152606401610056565b6005805460018181019092557f036b6384b5eca791c62761152d0c79bb0604c104a5fb6f4eb0703f3154bb3db00180546001600160a01b039093166001600160a01b031990931683179055600091825260066020526040909120805460ff19169091179055565b6001600160a01b03811660009081526007602052604090205460ff16156102ca5760405162461bcd60e51b815260206004820152601060248201526f20b63932b0b23c90309036b2b6b132b960811b6044820152606401610056565b6001600160a01b038116600081815260076020526040808220805460ff1916600190811790915560088054918201815583527ff3f7a9fe364faab93b216da50a3214154f22a0a2b415b23a84c8169e8b636ee30180546001600160a01b03191684179055517fb251eb052afc73ffd02ffe85ad79990a8b3fed60d76dbc2fa2fdd7123dffd9149190a250565b80516001600160a01b038116811461036d57600080fd5b919050565b634e487b7160e01b600052604160045260246000fd5b60008060006060848603121561039d57600080fd5b6103a684610356565b602085810151919450906001600160401b03808211156103c557600080fd5b818701915087601f8301126103d957600080fd5b8151818111156103eb576103eb610372565b8060051b604051601f19603f8301168101818110858211171561041057610410610372565b60405291825284820192508381018501918a83111561042e57600080fd5b938501935b828510156104535761044485610356565b84529385019392850192610433565b80975050505050505061046860408501610356565b90509250925092565b634e487b7160e01b600052603260045260246000fd5b611b1a806104966000396000f3fe608060405234801561001057600080fd5b50600436106101735760003560e01c80635daf08ca116100de578063b3ab15fb11610097578063da95ebf711610071578063da95ebf71461039f578063f2fde38b146103b2578063f4970e71146103c5578063f8b2cb4f146103d857600080fd5b8063b3ab15fb14610366578063ca6d56dc14610379578063d765ba721461038c57600080fd5b80635daf08ca146102fc578063715018a61461030f57806374c13fda146103175780638da5cb5b1461032a5780639eab52531461033b578063a230c5241461034357600080fd5b80633cd9e525116101305780633cd9e5251461024657806347e7ef24146102595780634a062e731461026c5780634e5a2328146102a7578063570ca735146102e1578063586c5a52146102f457600080fd5b80630560bd96146101785780630b1ca49a146101b057806318a029cf146101c557806319648bed146101f35780632f7570061461020657806336c877541461021b575b600080fd5b61019b610186366004611725565b60066020526000908152604090205460ff1681565b60405190151581526020015b60405180910390f35b6101c36101be366004611725565b610401565b005b6101e56101d3366004611725565b60046020526000908152604090205481565b6040519081526020016101a7565b6101c361020136600461181a565b6105b9565b61020e610884565b6040516101a791906118ec565b61022e610229366004611939565b6108e6565b6040516001600160a01b0390911681526020016101a7565b6101c3610254366004611960565b610910565b6101c3610267366004611995565b61097c565b600a54600b54600c54600d546102859360ff1692919084565b60408051941515855260208501939093529183015260608201526080016101a7565b6102ba6102b5366004611995565b610aef565b604080516001600160a01b03909416845260208401929092521515908201526060016101a7565b60035461022e906001600160a01b031681565b6101c3610b3e565b61022e61030a366004611939565b610e00565b6101c3610e10565b60025461022e906001600160a01b031681565b6000546001600160a01b031661022e565b61020e610e22565b61019b610351366004611725565b60076020526000908152604090205460ff1681565b6101c3610374366004611725565b610e82565b6101c3610387366004611725565b610ed4565b6101c361039a366004611725565b610ee8565b6101c36103ad366004611995565b610f96565b6101c36103c0366004611725565b611134565b6101c36103d3366004611995565b61116f565b6101e56103e6366004611725565b6001600160a01b031660009081526004602052604090205490565b61040961133e565b6001600160a01b03811660009081526007602052604090205460ff166104655760405162461bcd60e51b815260206004820152600c60248201526b2737ba10309036b2b6b132b960a11b60448201526064015b60405180910390fd5b6001600160a01b0381166000908152600760205260408120805460ff191690555b60085481101561058157816001600160a01b0316600882815481106104ad576104ad6119bf565b6000918252602090912001546001600160a01b03160361057957600880546104d7906001906119eb565b815481106104e7576104e76119bf565b600091825260209091200154600880546001600160a01b039092169183908110610513576105136119bf565b9060005260206000200160006101000a8154816001600160a01b0302191690836001600160a01b031602179055506008805480610552576105526119fe565b600082815260209020810160001990810180546001600160a01b0319169055019055610581565b600101610486565b506040516001600160a01b038216907f6e76fb4c77256006d9c38ec7d82b45a8c8f3c27b1d6766fffc42dfb8de68449290600090a250565b6105c161133e565b6105c961136b565b80518251146106135760405162461bcd60e51b8152602060048201526016602482015275082e4e4c2f2e640d8cadccee8d040dad2e6dac2e8c6d60531b604482015260640161045c565b6001600160a01b03831660009081526006602052604090205460ff1661064b5760405162461bcd60e51b815260040161045c90611a14565b6000805b82518110156106875782818151811061066a5761066a6119bf565b60200260200101518261067d9190611a40565b915060010161064f565b506001600160a01b0384166000908152600460205260409020548111156106c05760405162461bcd60e51b815260040161045c90611a53565b60005b835181101561084757600760008583815181106106e2576106e26119bf565b6020908102919091018101516001600160a01b031682528101919091526040016000205460ff1661074e5760405162461bcd60e51b81526020600482015260166024820152752932b1b4b834b2b73a103737ba10309036b2b6b132b960511b604482015260640161045c565b610770848281518110610763576107636119bf565b6020026020010151610ee8565b6107c0848281518110610785576107856119bf565b602002602001015184838151811061079f5761079f6119bf565b6020026020010151876001600160a01b03166113959092919063ffffffff16565b846001600160a01b03168482815181106107dc576107dc6119bf565b60200260200101516001600160a01b03167f9b1bfa7fa9ee420a16e124f794c35ac9f90472acc99140eb2f6447c714cad8eb858481518110610820576108206119bf565b602002602001015160405161083791815260200190565b60405180910390a36001016106c3565b506001600160a01b038416600090815260046020526040812080548392906108709084906119eb565b90915550506001805550505050565b505050565b606060058054806020026020016040519081016040528092919081815260200182805480156108dc57602002820191906000526020600020905b81546001600160a01b031681526001909101906020018083116108be575b5050505050905090565b600581815481106108f657600080fd5b6000918252602090912001546001600160a01b0316905081565b61091861133e565b600a805460ff1916841515908117909155600b839055600c82905542600d55604080519182526020820184905281018290527fb58dd73d8fc2b9f2c4d24b29b6f6791534fda898df432b6b78ae58cd95e67ef69060600160405180910390a1505050565b3360009081526007602052604090205460ff166109d05760405162461bcd60e51b81526020600482015260126024820152712737ba10309033b937bab81036b2b6b132b960711b604482015260640161045c565b6109d861136b565b6001600160a01b03821660009081526006602052604090205460ff16610a105760405162461bcd60e51b815260040161045c90611a14565b60008111610a605760405162461bcd60e51b815260206004820152601d60248201527f416d6f756e74206d7573742062652067726561746572207468616e2030000000604482015260640161045c565b610a756001600160a01b0383163330846113f4565b6001600160a01b03821660009081526004602052604081208054839290610a9d908490611a40565b90915550506040518181526001600160a01b0383169033907f5548c837ab068cf56a2c2479df0882a4922fd203edb7517321831d95078c5f629060200160405180910390a3610aeb60018055565b5050565b60096020528160005260406000208181548110610b0b57600080fd5b60009182526020909120600390910201805460018201546002909201546001600160a01b03909116935090915060ff1683565b6003546001600160a01b03163314610b8b5760405162461bcd60e51b815260206004820152601060248201526f2737ba103a34329037b832b930ba37b960811b604482015260640161045c565b610b9361136b565b600a5460ff16610be55760405162461bcd60e51b815260206004820152601860248201527f4175746f2d73656e64206973206e6f7420656e61626c65640000000000000000604482015260640161045c565b600c54600d54610bf59190611a40565b421015610c445760405162461bcd60e51b815260206004820152601c60248201527f4175746f2d73656e6420706572696f64206e6f7420656c617073656400000000604482015260640161045c565b600854600b54600091610c5691611a81565b6002546001600160a01b0316600090815260046020526040902054909150811115610c935760405162461bcd60e51b815260040161045c90611a53565b60005b600854811015610d8357610cd060088281548110610cb657610cb66119bf565b6000918252602090912001546001600160a01b0316610ee8565b610d0b60088281548110610ce657610ce66119bf565b600091825260209091200154600b546002546001600160a01b03908116921690611395565b600254600880546001600160a01b039092169183908110610d2e57610d2e6119bf565b60009182526020918290200154600b546040519081526001600160a01b03909116917f9b1bfa7fa9ee420a16e124f794c35ac9f90472acc99140eb2f6447c714cad8eb910160405180910390a3600101610c96565b506002546001600160a01b031660009081526004602052604081208054839290610dae9084906119eb565b909155505042600d556008546040805183815260208101929092527fc06a2616f5525484d5c386ced74ecb8b2c1348567eaf29ac1833eab333791558910160405180910390a150610dfe60018055565b565b600881815481106108f657600080fd5b610e1861133e565b610dfe6000611433565b606060088054806020026020016040519081016040528092919081815260200182805480156108dc576020028201919060005260206000209081546001600160a01b031681526001909101906020018083116108be575050505050905090565b610e8a61133e565b600380546001600160a01b0319166001600160a01b0383169081179091556040517fb3b3f5f64ab192e4b5fefde1f51ce9733bbdcf831951543b325aebd49cc27ec490600090a250565b610edc61133e565b610ee581611483565b50565b806001600160a01b03166384bfd0df6040518163ffffffff1660e01b8152600401602060405180830381865afa158015610f26573d6000803e3d6000fd5b505050506040513d601f19601f82011682018060405250810190610f4a9190611a98565b610ee55760405162461bcd60e51b815260206004820181905260248201527f4e6f74206120636f6d70617469626c6520736176696e6773206163636f756e74604482015260640161045c565b3360009081526007602052604090205460ff16610fea5760405162461bcd60e51b81526020600482015260126024820152712737ba10309033b937bab81036b2b6b132b960711b604482015260640161045c565b6001600160a01b03821660009081526006602052604090205460ff166110225760405162461bcd60e51b815260040161045c90611a14565b600081116110725760405162461bcd60e51b815260206004820152601d60248201527f416d6f756e74206d7573742062652067726561746572207468616e2030000000604482015260640161045c565b6001600160a01b0382811660009081526009602090815260408083208054825160608101845233808252818601898152828601888152600180860187559589529787902092516003850290930180546001600160a01b0319169390991692909217885590519287019290925593516002909501805460ff19169515159590951790945580518581529182018390529192917f24b91f4f47caf44230a57777a9be744924e82bf666f2d5702faf97df35e60f9f91015b60405180910390a2505050565b61113c61133e565b6001600160a01b03811661116657604051631e4fbdf760e01b81526000600482015260240161045c565b610ee581611433565b61117761133e565b6001600160a01b03821660009081526009602052604090205481106111d35760405162461bcd60e51b8152602060048201526012602482015271125b9d985b1a59081c995c5d595cdd08125160721b604482015260640161045c565b6001600160a01b03821660009081526009602052604081208054839081106111fd576111fd6119bf565b60009182526020909120600390910201600281015490915060ff16156112585760405162461bcd60e51b815260206004820152601060248201526f105b1c9958591e48185c1c1c9bdd995960821b604482015260640161045c565b60018101546001600160a01b03841660009081526004602052604090205410156112945760405162461bcd60e51b815260040161045c90611a53565b60028101805460ff191660019081179091558101546001600160a01b038416600090815260046020526040812080549091906112d19084906119eb565b9091555050805460018201546112f5916001600160a01b0386811692911690611395565b8054600182015460408051918252602082018590526001600160a01b03909216917ffca20c9ed6adcdaa5ddc6863b9744f5651994b53a016c73a30ff4bdf37f96c519101611127565b6000546001600160a01b03163314610dfe5760405163118cdaa760e01b815233600482015260240161045c565b60026001540361138e57604051633ee5aeb560e01b815260040160405180910390fd5b6002600155565b6040516001600160a01b0383811660248301526044820183905261087f91859182169063a9059cbb906064015b604051602081830303815290604052915060e01b6020820180516001600160e01b03838183161783525050505061156b565b6040516001600160a01b03848116602483015283811660448301526064820183905261142d9186918216906323b872dd906084016113c2565b50505050565b600080546001600160a01b038381166001600160a01b0319831681178455604051919092169283917f8be0079c531659141344cd1fd0a4f28419497f9722a3daafe3b4186f6b6457e09190a35050565b6001600160a01b03811660009081526007602052604090205460ff16156114df5760405162461bcd60e51b815260206004820152601060248201526f20b63932b0b23c90309036b2b6b132b960811b604482015260640161045c565b6001600160a01b038116600081815260076020526040808220805460ff1916600190811790915560088054918201815583527ff3f7a9fe364faab93b216da50a3214154f22a0a2b415b23a84c8169e8b636ee30180546001600160a01b03191684179055517fb251eb052afc73ffd02ffe85ad79990a8b3fed60d76dbc2fa2fdd7123dffd9149190a250565b60006115806001600160a01b038416836115ce565b905080516000141580156115a55750808060200190518101906115a39190611a98565b155b1561087f57604051635274afe760e01b81526001600160a01b038416600482015260240161045c565b60606115dc838360006115e5565b90505b92915050565b60608147101561160a5760405163cd78605960e01b815230600482015260240161045c565b600080856001600160a01b031684866040516116269190611ab5565b60006040518083038185875af1925050503d8060008114611663576040519150601f19603f3d011682016040523d82523d6000602084013e611668565b606091505b5091509150611678868383611684565b925050505b9392505050565b60608261169957611694826116e0565b61167d565b81511580156116b057506001600160a01b0384163b155b156116d957604051639996b31560e01b81526001600160a01b038516600482015260240161045c565b508061167d565b8051156116f05780518082602001fd5b604051630a12f52160e11b815260040160405180910390fd5b80356001600160a01b038116811461172057600080fd5b919050565b60006020828403121561173757600080fd5b6115dc82611709565b634e487b7160e01b600052604160045260246000fd5b604051601f8201601f1916810167ffffffffffffffff8111828210171561177f5761177f611740565b604052919050565b600067ffffffffffffffff8211156117a1576117a1611740565b5060051b60200190565b600082601f8301126117bc57600080fd5b813560206117d16117cc83611787565b611756565b8083825260208201915060208460051b8701019350868411156117f357600080fd5b602086015b8481101561180f57803583529183019183016117f8565b509695505050505050565b60008060006060848603121561182f57600080fd5b61183884611709565b925060208085013567ffffffffffffffff8082111561185657600080fd5b818701915087601f83011261186a57600080fd5b81356118786117cc82611787565b81815260059190911b8301840190848101908a83111561189757600080fd5b938501935b828510156118bc576118ad85611709565b8252938501939085019061189c565b9650505060408701359250808311156118d457600080fd5b50506118e2868287016117ab565b9150509250925092565b6020808252825182820181905260009190848201906040850190845b8181101561192d5783516001600160a01b031683529284019291840191600101611908565b50909695505050505050565b60006020828403121561194b57600080fd5b5035919050565b8015158114610ee557600080fd5b60008060006060848603121561197557600080fd5b833561198081611952565b95602085013595506040909401359392505050565b600080604083850312156119a857600080fd5b6119b183611709565b946020939093013593505050565b634e487b7160e01b600052603260045260246000fd5b634e487b7160e01b600052601160045260246000fd5b818103818111156115df576115df6119d5565b634e487b7160e01b600052603160045260246000fd5b602080825260129082015271151bdad95b881b9bdd081858d8d95c1d195960721b604082015260600190565b808201808211156115df576115df6119d5565b602080825260149082015273496e73756666696369656e742062616c616e636560601b604082015260600190565b80820281158282048414176115df576115df6119d5565b600060208284031215611aaa57600080fd5b815161167d81611952565b6000825160005b81811015611ad65760208186018101518583015201611abc565b50600092019182525091905056fea264697066735822122028878f64d666ece2e40936a7582e3a0476a85742766a9ab0d9a6b942f31e3a8e64736f6c6343000819003360a0604052601080546001600160501b03191666010003000186a017905534801561002957600080fd5b5060405161207738038061207783398101604081905261004891610211565b600160005582876001600160a01b03811661007e57604051631e4fbdf760e01b8152600060048201526024015b60405180910390fd5b610087816101a3565b506001600160a01b0316608052620151808510156100e75760405162461bcd60e51b815260206004820152601960248201527f506572696f64206475726174696f6e20746f6f2073686f7274000000000000006044820152606401610075565b6103e884111561012d5760405162461bcd60e51b81526020600482015260116024820152700a8c2f040e4c2e8ca40e8dede40d0d2ced607b1b6044820152606401610075565b600280546001600160a01b03998a166001600160a01b031991821617909155600395909555600c93909355600d80549588169590941694909417909255600e80546001600160401b03909416600160a01b026001600160e01b031990941692909516919091179190911790925550600f556102a4565b600180546001600160a01b038381166001600160a01b0319831681179093556040519116919082907f8be0079c531659141344cd1fd0a4f28419497f9722a3daafe3b4186f6b6457e090600090a35050565b80516001600160a01b038116811461020c57600080fd5b919050565b600080600080600080600080610100898b03121561022e57600080fd5b610237896101f5565b975061024560208a016101f5565b965061025360408a016101f5565b9550606089015194506080890151935061026f60a08a016101f5565b60c08a01519093506001600160401b038116811461028c57600080fd5b8092505060e089015190509295985092959890939650565b608051611db16102c6600039600081816107e9015261082b0152611db16000f3fe608060405234801561001057600080fd5b50600436106101fb5760003560e01c80637c2d6e011161011a578063bb806659116100ad578063d7bb99ba1161007c578063d7bb99ba14610424578063e50b9ecd1461042c578063eac471a01461043f578063f2fde38b14610448578063fc0c546a1461045b57600080fd5b8063bb806659146103d2578063bea1dcf8146103db578063c88290cd146103ee578063ca6d56dc1461041157600080fd5b8063ab58b17e116100e9578063ab58b17e14610390578063b0e8d086146103a3578063b307fc6d146103b6578063b470aade146103c957600080fd5b80637c2d6e01146103405780638da5cb5b14610353578063997072f714610364578063a92017071461036c57600080fd5b80631fe543e3116101925780635fa0b65f116101615780635fa0b65f14610313578063715018a61461031c57806375a43aa31461032457806378e979251461033757600080fd5b80631fe543e3146102cf5780633ccfd60b146102e257806342619f66146102ea57806349afeaa5146102f357600080fd5b806308ae4b0c116101ce57806308ae4b0c146102375780630b1ca49a14610294578063144fa6d7146102a95780631e9d7065146102bc57600080fd5b80630235e7e714610200578063023f41471461021d5780630604061814610226578063086146d21461022f575b600080fd5b61020a6201518081565b6040519081526020015b60405180910390f35b61020a600b5481565b61020a60065481565b61020a61046e565b610272610245366004611a9f565b60096020526000908152604090208054600182015460029092015460ff8083169361010090930416919084565b6040805194151585529215156020850152918301526060820152608001610214565b6102a76102a2366004611a9f565b6104c0565b005b6102a76102b7366004611a9f565b610704565b6102a76102ca366004611ac8565b6107a8565b6102a76102dd366004611b08565b6107de565b6102a7610866565b61020a60115481565b6102fb610c36565b6040516001600160a01b039091168152602001610214565b61020a60045481565b6102a7610c67565b6102a7610332366004611a9f565b610c79565b61020a60055481565b6102a761034e366004611bd2565b610c9f565b6001546001600160a01b03166102fb565b60085461020a565b60125461038090600160a01b900460ff1681565b6040519015158152602001610214565b6012546102fb906001600160a01b031681565b6102a76103b1366004611beb565b610d92565b6102fb6103c4366004611bd2565b610db6565b61020a60035481565b61020a600c5481565b600d546102fb906001600160a01b031681565b6103806103fc366004611a9f565b600a6020526000908152604090205460ff1681565b6102a761041f366004611a9f565b610de0565b6102a7610f93565b6102a761043a366004611bd2565b610fae565b61020a60075481565b6102a7610456366004611a9f565b611109565b6002546102fb906001600160a01b031681565b60006005546000036104805750600090565b6000600354600554426104939190611c27565b61049d9190611c50565b905060075481106104af5760006104ba565b6104ba816001611c64565b91505090565b6104c8611144565b6001600160a01b03811660009081526009602052604090205460ff1661052d5760405162461bcd60e51b815260206004820152601560248201527413595b58995c88191bd95cc81b9bdd08195e1a5cdd605a1b60448201526064015b60405180910390fd5b600554158061053c5750600654155b6105995760405162461bcd60e51b815260206004820152602860248201527f43616e6e6f742072656d6f7665206d656d62657220647572696e6720616374696044820152677665206379636c6560c01b6064820152608401610524565b60005b60085481101561069757816001600160a01b0316600882815481106105c3576105c3611c77565b6000918252602090912001546001600160a01b03160361068f57600880546105ed90600190611c27565b815481106105fd576105fd611c77565b600091825260209091200154600880546001600160a01b03909216918390811061062957610629611c77565b9060005260206000200160006101000a8154816001600160a01b0302191690836001600160a01b03160217905550600880548061066857610668611c8d565b600082815260209020810160001990810180546001600160a01b0319169055019055610697565b60010161059c565b506001600160a01b0381166000818152600960209081526040808320805461ffff19168155600181018490556002019290925560085460075590519182527f6e76fb4c77256006d9c38ec7d82b45a8c8f3c27b1d6766fffc42dfb8de68449291015b60405180910390a150565b61070c611144565b6001600160a01b03811661075a5760405162461bcd60e51b8152602060048201526015602482015274496e76616c696420746f6b656e206164647265737360581b6044820152606401610524565b600280546001600160a01b0319166001600160a01b0383169081179091556040519081527f5ba6b30cd4b2f9e9e67f4feb9b9df10d5da3b057598e6901b217b7d590345e30906020016106f9565b6107b0611144565b600e805467ffffffffffffffff909216600160a01b0267ffffffffffffffff60a01b19909216919091179055565b336001600160a01b037f000000000000000000000000000000000000000000000000000000000000000016146108585760405163073e64fd60e21b81523360048201526001600160a01b037f0000000000000000000000000000000000000000000000000000000000000000166024820152604401610524565b6108628282611171565b5050565b61086e61119a565b6000600554116108b45760405162461bcd60e51b815260206004820152601160248201527010de58db19481b9bdd081cdd185c9d1959607a1b6044820152606401610524565b60075460065411156108fa5760405162461bcd60e51b815260206004820152600f60248201526e10de58db194818dbdb5c1b195d1959608a1b6044820152606401610524565b60075460045461090a9190611ca3565b600b541461095a5760405162461bcd60e51b815260206004820152601e60248201527f4e6f7420616c6c20636f6e747269627574696f6e7320726563656976656400006044820152606401610524565b601254600160a01b900460ff166109b35760405162461bcd60e51b815260206004820152601b60248201527f57697468647261776572206e6f742073656c65637465642079657400000000006044820152606401610524565b6012546001600160a01b03163314610a095760405162461bcd60e51b81526020600482015260196024820152784e6f7420796f7572207475726e20746f20776974686472617760381b6044820152606401610524565b33600090815260096020526040902054610100900460ff1615610a3e5760405162461bcd60e51b815260040161052490611cba565b6005543360009081526009602052604090206002015410610aa15760405162461bcd60e51b815260206004820152601c60248201527f416c72656164792077697468647261776e2074686973206379636c65000000006044820152606401610524565b6012546001600160a01b0316338114610af85760405162461bcd60e51b81526020600482015260196024820152784e6f7420796f7572207475726e20746f20776974686472617760381b6044820152606401610524565b6001600160a01b038116600090815260096020526040902054610100900460ff1615610b365760405162461bcd60e51b815260040161052490611cba565b6000600754600454610b489190611ca3565b90506000612710600c5483610b5d9190611ca3565b610b679190611c50565b90506000610b758284611c27565b33600090815260096020526040902042600291820155601280546001600160a81b031916905554909150610bb3906001600160a01b031685836111c4565b600d54600254610bd0916001600160a01b039182169116846111c4565b600654604080516001600160a01b03871681526020810184905280820192909252517f072c40752b50e77bf22285251805c7f7884a12a4c07f29697909bea49b30571e9181900360600190a1610c266000611228565b50505050610c346001600055565b565b600060065460001480610c4c5750600754600654115b15610c575750600090565b506012546001600160a01b031690565b610c6f611144565b610c34600061136f565b610c81611144565b610c8961119a565b610c92816113c1565b610c9c6001600055565b50565b610ca7611144565b62015180811015610cfa5760405162461bcd60e51b815260206004820152601960248201527f506572696f64206475726174696f6e20746f6f2073686f7274000000000000006044820152606401610524565b60055415610d5d5760405162461bcd60e51b815260206004820152602a60248201527f43616e6e6f74206368616e6765206475726174696f6e20647572696e6720616360448201526974697665206379636c6560b01b6064820152608401610524565b60038190556040518181527fbd6eb9cf4d6e2902587c57e3163aaafdb46e3b3f2086bdfa75c790228930a9d7906020016106f9565b610d9a611144565b6010805463ffffffff191663ffffffff92909216919091179055565b60088181548110610dc657600080fd5b6000918252602090912001546001600160a01b0316905081565b610de8611144565b6001600160a01b03811660009081526009602052604090205460ff1615610e495760405162461bcd60e51b81526020600482015260156024820152744d656d62657220616c72656164792065786973747360581b6044820152606401610524565b6005541580610e585750600654155b610eb25760405162461bcd60e51b815260206004820152602560248201527f43616e6e6f7420616464206d656d62657220647572696e6720616374697665206044820152646379636c6560d81b6064820152608401610524565b60088054600180820183557ff3f7a9fe364faab93b216da50a3214154f22a0a2b415b23a84c8169e8b636ee390910180546001600160a01b0319166001600160a01b038516908117909155604080516080810182528381526000602080830182815283850183815260608501848152878552600984529386902094518554925161ffff1990931690151561ff0019161761010092151592909202919091178455519583019590955551600290910155925460075591519182527fb251eb052afc73ffd02ffe85ad79990a8b3fed60d76dbc2fa2fdd7123dffd91491016106f9565b610f9b61119a565b610fa4336113c1565b610c346001600055565b610fb6611144565b60055415610ffe5760405162461bcd60e51b815260206004820152601560248201527410de58db1948185b1c9958591e481cdd185c9d1959605a1b6044820152606401610524565b6008546001106110505760405162461bcd60e51b815260206004820152601960248201527f4e656564206174206c656173742074776f206d656d62657273000000000000006044820152606401610524565b600081116110b35760405162461bcd60e51b815260206004820152602a60248201527f436f6e747269627574696f6e20616d6f756e74206d75737420626520677265616044820152690746572207468616e20360b41b6064820152608401610524565b42600581905560016006556008546007819055600483905560408051928352602083019190915281018290527f0e41c903d4f464af8fdd82a2a195fb81a5b17cfe3a20585d2f10d0eeb1f1d33c906060016106f9565b611111611144565b6001600160a01b03811661113b57604051631e4fbdf760e01b815260006004820152602401610524565b610c9c8161136f565b6001546001600160a01b03163314610c345760405163118cdaa760e01b8152336004820152602401610524565b8060008151811061118457611184611c77565b60200260200101516011819055506108626116e2565b6002600054036111bd57604051633ee5aeb560e01b815260040160405180910390fd5b6002600055565b6040516001600160a01b0383811660248301526044820183905261122391859182169063a9059cbb906064015b604051602081830303815290604052915060e01b6020820180516001600160e01b038381831617835250505050611807565b505050565b7f95357e1b81128b2e56387f7f29ae51b03ce299a9784c0714c6401291f27e517460065460405161125b91815260200190565b60405180910390a16000600b819055600680549161127883611ce4565b9190505550600754600654111561129157600060055550565b60005b600854811015611360576000600882815481106112b3576112b3611c77565b6000918252602090912001546006546001600160a01b0390911691506112db90600190611c27565b6001600160a01b0382166000908152600960205260409020600101541015611357576001600160a01b038116600081815260096020908152604091829020805461ff00191661010017905590519182527f2b53dfd20eeb9ad336276df9c2fa376b6f9ad57640a33b56181333660b0de6c4910160405180910390a15b50600101611294565b508015610c9c57610c9c61186a565b600180546001600160a01b038381166001600160a01b0319831681179093556040519116919082907f8be0079c531659141344cd1fd0a4f28419497f9722a3daafe3b4186f6b6457e090600090a35050565b6000600554116114075760405162461bcd60e51b815260206004820152601160248201527010de58db19481b9bdd081cdd185c9d1959607a1b6044820152606401610524565b6001600160a01b03811660009081526009602052604090205460ff1661145e5760405162461bcd60e51b815260206004820152600c60248201526b2737ba10309036b2b6b132b960a11b6044820152606401610524565b6001600160a01b038116600090815260096020526040902054610100900460ff161561149c5760405162461bcd60e51b815260040161052490611cba565b60075460065411156114e25760405162461bcd60e51b815260206004820152600f60248201526e10de58db194818dbdb5c1b195d1959608a1b6044820152606401610524565b6006546001600160a01b0382166000908152600960205260409020600101541061154e5760405162461bcd60e51b815260206004820152601f60248201527f416c726561647920636f6e7472696275746564207468697320706572696f64006044820152606401610524565b60045460025461156d916001600160a01b039091169083903090611925565b6001600160a01b038116600090815260096020526040902060019081015461159491611c64565b6001600160a01b038216600090815260096020526040812060010191909155600454600b8054919290916115c9908490611c64565b90915550506001600160a01b038116600090815260096020526040902054610100900460ff16801561161757506006546001600160a01b038216600090815260096020526040902060010154145b15611672576001600160a01b038116600081815260096020908152604091829020805461ff001916905590519182527f9592f55c896a756ec61c21bf4c9b9b947f7f76a40ae7502c917f00c884435b82910160405180910390a15b600454600654604080516001600160a01b038516815260208101939093528201527f5dc1fe5ab986a852c4eda8e8bb94247d13307065c593fb83f1a09be2736793829060600160405180910390a16007546004546116d09190611ca3565b600b5403610c9c57610c9c6001611228565b6008546011546000916116f491611cfd565b905060005b6008548110156117fe576008546000906117138385611c64565b61171d9190611cfd565b905060006008828154811061173457611734611c77565b60009182526020808320909101546001600160a01b0316808352600990915260409091205490915060ff6101009091041615801561178e57506005546001600160a01b038216600090815260096020526040902060020154105b156117f457601280546001600160a81b0319166001600160a01b0383811691909117600160a01b1791829055604051911681527fa58c1125f34593f5a1f6dcca751cb0e3240afcf17101eb4d8ebf404da9b2ba209060200160405180910390a150505050565b50506001016116f9565b50610c9c61186a565b600061181c6001600160a01b03841683611964565b9050805160001415801561184157508080602001905181019061183f9190611d11565b155b1561122357604051635274afe760e01b81526001600160a01b0384166004820152602401610524565b600e54600f546010546040516305d3b1d360e41b81526004810192909252600160a01b830467ffffffffffffffff166024830152640100000000810461ffff16604483015263ffffffff808216606484015266010000000000009091041660848201526001600160a01b0390911690635d3b1d309060a4016020604051808303816000875af1158015611901573d6000803e3d6000fd5b505050506040513d601f19601f82011682018060405250810190610c9c9190611d33565b6040516001600160a01b03848116602483015283811660448301526064820183905261195e9186918216906323b872dd906084016111f1565b50505050565b60606119728383600061197b565b90505b92915050565b6060814710156119a05760405163cd78605960e01b8152306004820152602401610524565b600080856001600160a01b031684866040516119bc9190611d4c565b60006040518083038185875af1925050503d80600081146119f9576040519150601f19603f3d011682016040523d82523d6000602084013e6119fe565b606091505b5091509150611a0e868383611a1a565b925050505b9392505050565b606082611a2f57611a2a82611a76565b611a13565b8151158015611a4657506001600160a01b0384163b155b15611a6f57604051639996b31560e01b81526001600160a01b0385166004820152602401610524565b5080611a13565b805115611a865780518082602001fd5b604051630a12f52160e11b815260040160405180910390fd5b600060208284031215611ab157600080fd5b81356001600160a01b0381168114611a1357600080fd5b600060208284031215611ada57600080fd5b813567ffffffffffffffff81168114611a1357600080fd5b634e487b7160e01b600052604160045260246000fd5b60008060408385031215611b1b57600080fd5b8235915060208084013567ffffffffffffffff80821115611b3b57600080fd5b818601915086601f830112611b4f57600080fd5b813581811115611b6157611b61611af2565b8060051b604051601f19603f83011681018181108582111715611b8657611b86611af2565b604052918252848201925083810185019189831115611ba457600080fd5b938501935b82851015611bc257843584529385019392850192611ba9565b8096505050505050509250929050565b600060208284031215611be457600080fd5b5035919050565b600060208284031215611bfd57600080fd5b813563ffffffff81168114611a1357600080fd5b634e487b7160e01b600052601160045260246000fd5b8181038181111561197557611975611c11565b634e487b7160e01b600052601260045260246000fd5b600082611c5f57611c5f611c3a565b500490565b8082018082111561197557611975611c11565b634e487b7160e01b600052603260045260246000fd5b634e487b7160e01b600052603160045260246000fd5b808202811582820484141761197557611975611c11565b60208082526010908201526f26b2b6b132b91034b990333937bd32b760811b604082015260600190565b600060018201611cf657611cf6611c11565b5060010190565b600082611d0c57611d0c611c3a565b500690565b600060208284031215611d2357600080fd5b81518015158114611a1357600080fd5b600060208284031215611d4557600080fd5b5051919050565b6000825160005b81811015611d6d5760208186018101518583015201611d53565b50600092019182525091905056fea2646970667358221220daf6448535935615ca59dbaec8ef87f7bf87ac2d156d5dff692f69e24d47f15e64736f6c63430008190033a2646970667358221220c4a577b5c941ae0498e0a03008651123378574dabd39c7f33f67af54af967e3464736f6c63430008190033","linkReferences":{}},"methodIdentifiers":{"acceptableTokens(uint256)":"bb09bdd4","createCircleSavings(address,address,uint256)":"90c4553c","createGroupSavings(address[])":"31751639","getAcceptableTokens()":"e6c83db5","isTokenAcceptable(address)":"60e0e2b4","owner()":"8da5cb5b","renounceOwnership()":"715018a6","transferOwnership(address)":"f2fde38b","updateAcceptableTokens(address[])":"21a30e72"},"id":99}