{"abi":[{"type":"constructor","inputs":[{"name":"_creator","type":"address","internalType":"address"},{"name":"_recipient","type":"address","internalType":"address"},{"name":"_acceptedTokens","type":"address[]","internalType":"address[]"},{"name":"_unlockTime","type":"uint256","internalType":"uint256"}],"stateMutability":"nonpayable"},{"type":"function","name":"acceptedTokens","inputs":[{"name":"","type":"uint256","internalType":"uint256"}],"outputs":[{"name":"","type":"address","internalType":"address"}],"stateMutability":"view"},{"type":"function","name":"autoSave","inputs":[{"name":"_amount","type":"uint256","internalType":"uint256"}],"outputs":[],"stateMutability":"nonpayable"},{"type":"function","name":"autoSaveEnabled","inputs":[],"outputs":[{"name":"","type":"bool","internalType":"bool"}],"stateMutability":"view"},{"type":"function","name":"creator","inputs":[],"outputs":[{"name":"","type":"address","internalType":"address"}],"stateMutability":"view"},{"type":"function","name":"defaultToken","inputs":[],"outputs":[{"name":"","type":"address","internalType":"address"}],"stateMutability":"view"},{"type":"function","name":"deposit","inputs":[{"name":"_token","type":"address","internalType":"address"},{"name":"_amount","type":"uint256","internalType":"uint256"}],"outputs":[],"stateMutability":"nonpayable"},{"type":"function","name":"getAcceptedTokens","inputs":[],"outputs":[{"name":"","type":"address[]","internalType":"address[]"}],"stateMutability":"view"},{"type":"function","name":"getBalance","inputs":[{"name":"_token","type":"address","internalType":"address"}],"outputs":[{"name":"","type":"uint256","internalType":"uint256"}],"stateMutability":"view"},{"type":"function","name":"isTokenAccepted","inputs":[{"name":"","type":"address","internalType":"address"}],"outputs":[{"name":"","type":"bool","internalType":"bool"}],"stateMutability":"view"},{"type":"function","name":"operator","inputs":[],"outputs":[{"name":"","type":"address","internalType":"address"}],"stateMutability":"view"},{"type":"function","name":"owner","inputs":[],"outputs":[{"name":"","type":"address","internalType":"address"}],"stateMutability":"view"},{"type":"function","name":"recipient","inputs":[],"outputs":[{"name":"","type":"address","internalType":"address"}],"stateMutability":"view"},{"type":"function","name":"recipientChanged","inputs":[],"outputs":[{"name":"","type":"bool","internalType":"bool"}],"stateMutability":"view"},{"type":"function","name":"renounceOwnership","inputs":[],"outputs":[],"stateMutability":"nonpayable"},{"type":"function","name":"savingsCompatible","inputs":[],"outputs":[{"name":"","type":"bool","internalType":"bool"}],"stateMutability":"pure"},{"type":"function","name":"setRecipient","inputs":[{"name":"_newRecipient","type":"address","internalType":"address"}],"outputs":[],"stateMutability":"nonpayable"},{"type":"function","name":"toggleAutoSave","inputs":[{"name":"_enabled","type":"bool","internalType":"bool"},{"name":"_defaultToken","type":"address","internalType":"address"},{"name":"_operator","type":"address","internalType":"address"}],"outputs":[],"stateMutability":"nonpayable"},{"type":"function","name":"tokenSavings","inputs":[{"name":"","type":"address","internalType":"address"}],"outputs":[{"name":"","type":"uint256","internalType":"uint256"}],"stateMutability":"view"},{"type":"function","name":"transferOwnership","inputs":[{"name":"newOwner","type":"address","internalType":"address"}],"outputs":[],"stateMutability":"nonpayable"},{"type":"function","name":"unlockTime","inputs":[],"outputs":[{"name":"","type":"uint256","internalType":"uint256"}],"stateMutability":"view"},{"type":"function","name":"withdraw","inputs":[{"name":"_token","type":"address","internalType":"address"}],"outputs":[],"stateMutability":"nonpayable"},{"type":"function","name":"withdraw","inputs":[{"name":"_token","type":"address","internalType":"address"},{"name":"_amount","type":"uint256","internalType":"uint256"}],"outputs":[],"stateMutability":"nonpayable"},{"type":"event","name":"AutoSaveToggled","inputs":[{"name":"enabled","type":"bool","indexed":false,"internalType":"bool"},{"name":"defaultToken","type":"address","indexed":false,"internalType":"address"},{"name":"operator","type":"address","indexed":false,"internalType":"address"}],"anonymous":false},{"type":"event","name":"Deposit","inputs":[{"name":"user","type":"address","indexed":true,"internalType":"address"},{"name":"token","type":"address","indexed":true,"internalType":"address"},{"name":"amount","type":"uint256","indexed":false,"internalType":"uint256"}],"anonymous":false},{"type":"event","name":"FundsWithdrawn","inputs":[{"name":"recipient","type":"address","indexed":true,"internalType":"address"},{"name":"token","type":"address","indexed":true,"internalType":"address"},{"name":"amount","type":"uint256","indexed":false,"internalType":"uint256"}],"anonymous":false},{"type":"event","name":"OwnershipTransferred","inputs":[{"name":"previousOwner","type":"address","indexed":true,"internalType":"address"},{"name":"newOwner","type":"address","indexed":true,"internalType":"address"}],"anonymous":false},{"type":"event","name":"RecipientChanged","inputs":[{"name":"oldRecipient","type":"address","indexed":true,"internalType":"address"},{"name":"newRecipient","type":"address","indexed":true,"internalType":"address"}],"anonymous":false},{"type":"event","name":"Withdraw","inputs":[{"name":"user","type":"address","indexed":true,"internalType":"address"},{"name":"token","type":"address","indexed":true,"internalType":"address"},{"name":"amount","type":"uint256","indexed":false,"internalType":"uint256"}],"anonymous":false},{"type":"error","name":"AddressEmptyCode","inputs":[{"name":"target","type":"address","internalType":"address"}]},{"type":"error","name":"AddressInsufficientBalance","inputs":[{"name":"account","type":"address","internalType":"address"}]},{"type":"error","name":"FailedInnerCall","inputs":[]},{"type":"error","name":"OwnableInvalidOwner","inputs":[{"name":"owner","type":"address","internalType":"address"}]},{"type":"error","name":"OwnableUnauthorizedAccount","inputs":[{"name":"account","type":"address","internalType":"address"}]},{"type":"error","name":"ReentrancyGuardReentrantCall","inputs":[]},{"type":"error","name":"SafeERC20FailedOperation","inputs":[{"name":"token","type":"address","internalType":"address"}]}],"bytecode":{"object":"0x60c060405234801561001057600080fd5b506040516114d83803806114d883398101604081905261002f91610336565b8382816001600160a01b03811661006157604051631e4fbdf760e01b8152600060048201526024015b60405180910390fd5b61006a81610192565b506001805560005b81518110156100ab576100a382828151811061009057610090610424565b60200260200101516101e260201b60201c565b600101610072565b505050826001600160a01b0316846001600160a01b03160361010f5760405162461bcd60e51b815260206004820152601b60248201527f43726561746f722063616e6e6f7420626520726563697069656e7400000000006044820152606401610058565b42811161015e5760405162461bcd60e51b815260206004820152601a60248201527f756e6c6f636b2074696d6520697320696e2074686520706173740000000000006044820152606401610058565b6001600160a01b039384166080526007805460a092909252929093166001600160a81b03199093169290921790555061043a565b600080546001600160a01b038381166001600160a01b0319831681178455604051919092169283917f8be0079c531659141344cd1fd0a4f28419497f9722a3daafe3b4186f6b6457e09190a35050565b6001600160a01b03811660009081526006602052604090205460ff161561024b5760405162461bcd60e51b815260206004820152601660248201527f546f6b656e20616c7265616479206163636570746564000000000000000000006044820152606401610058565b60055460201161029d5760405162461bcd60e51b815260206004820152601b60248201527f4d6178696d756d20746f6b656e206c696d6974207265616368656400000000006044820152606401610058565b6005805460018181019092557f036b6384b5eca791c62761152d0c79bb0604c104a5fb6f4eb0703f3154bb3db00180546001600160a01b039093166001600160a01b031990931683179055600091825260066020526040909120805460ff19169091179055565b80516001600160a01b038116811461031b57600080fd5b919050565b634e487b7160e01b600052604160045260246000fd5b6000806000806080858703121561034c57600080fd5b61035585610304565b93506020610364818701610304565b60408701519094506001600160401b038082111561038157600080fd5b818801915088601f83011261039557600080fd5b8151818111156103a7576103a7610320565b8060051b604051601f19603f830116810181811085821117156103cc576103cc610320565b60405291825284820192508381018501918b8311156103ea57600080fd5b938501935b8285101561040f5761040085610304565b845293850193928501926103ef565b60609a909a0151989b979a5050505050505050565b634e487b7160e01b600052603260045260246000fd5b60805160a05161106b61046d600039600081816101f101526108d101526000818161014c0152610697015261106b6000f3fe608060405234801561001057600080fd5b50600436106101425760003560e01c806366d003ac116100b85780638da5cb5b1161007c5780638da5cb5b146102e3578063a6227521146102f4578063a68947df14610307578063f2fde38b1461031b578063f3fef3a31461032e578063f8b2cb4f1461034157600080fd5b806366d003ac146102a1578063715018a6146102b457806374c13fda146102bc57806381684db5146102cf57806384bfd0df146102dc57600080fd5b806332469ffe1161010a57806332469ffe1461022857806336c877541461023d5780633bbed4a01461025057806347e7ef241461026357806351cff8d914610276578063570ca7351461028957600080fd5b806302d05d3f146101475780630560bd961461018b57806318a029cf146101be578063251c1aa3146101ec5780632f75700614610213575b600080fd5b61016e7f000000000000000000000000000000000000000000000000000000000000000081565b6040516001600160a01b0390911681526020015b60405180910390f35b6101ae610199366004610e9e565b60066020526000908152604090205460ff1681565b6040519015158152602001610182565b6101de6101cc366004610e9e565b60046020526000908152604090205481565b604051908152602001610182565b6101de7f000000000000000000000000000000000000000000000000000000000000000081565b61021b61036a565b6040516101829190610eb9565b61023b610236366004610f06565b6103cc565b005b61016e61024b366004610f06565b61058f565b61023b61025e366004610e9e565b6105b9565b61023b610271366004610f1f565b610766565b61023b610284366004610e9e565b610875565b60025461016e9061010090046001600160a01b031681565b60075461016e906001600160a01b031681565b61023b610a36565b60035461016e906001600160a01b031681565b6002546101ae9060ff1681565b60016101ae565b6000546001600160a01b031661016e565b61023b610302366004610f57565b610a4a565b6007546101ae90600160a01b900460ff1681565b61023b610329366004610e9e565b610b1e565b61023b61033c366004610f1f565b610b59565b6101de61034f366004610e9e565b6001600160a01b031660009081526004602052604090205490565b606060058054806020026020016040519081016040528092919081815260200182805480156103c257602002820191906000526020600020905b81546001600160a01b031681526001909101906020018083116103a4575b5050505050905090565b60025461010090046001600160a01b031633146104215760405162461bcd60e51b815260206004820152600e60248201526d139bdd08185d5d1a1bdc9a5e995960921b60448201526064015b60405180910390fd5b610429610b9a565b60025460ff1661047b5760405162461bcd60e51b815260206004820152601860248201527f4175746f2d73617665206973206e6f7420656e61626c656400000000000000006044820152606401610418565b600081116104cb5760405162461bcd60e51b815260206004820152601d60248201527f416d6f756e74206d7573742062652067726561746572207468616e20300000006044820152606401610418565b6104f46104e06000546001600160a01b031690565b6003546001600160a01b0316903084610bc4565b6003546001600160a01b03166000908152600460205260408120805483929061051e908490610f9c565b90915550506003546001600160a01b03166105416000546001600160a01b031690565b6001600160a01b03167f5548c837ab068cf56a2c2479df0882a4922fd203edb7517321831d95078c5f628360405161057b91815260200190565b60405180910390a361058c60018055565b50565b6005818154811061059f57600080fd5b6000918252602090912001546001600160a01b0316905081565b6105c1610c31565b600754600160a01b900460ff16156106265760405162461bcd60e51b815260206004820152602260248201527f526563697069656e742063616e206f6e6c79206265206368616e676564206f6e604482015261636560f01b6064820152608401610418565b6001600160a01b03811661067c5760405162461bcd60e51b815260206004820152601960248201527f496e76616c696420726563697069656e742061646472657373000000000000006044820152606401610418565b6000546001600160a01b038281169116148015906106cc57507f00000000000000000000000000000000000000000000000000000000000000006001600160a01b0316816001600160a01b031614155b61070c5760405162461bcd60e51b8152602060048201526011602482015270125b9d985b1a59081c9958da5c1a595b9d607a1b6044820152606401610418565b600780546001600160a81b031981166001600160a01b03848116918217600160a01b17909355604051929091169182907f4a9d367b1b0cd787be10021f1c55cb49c9f2302334e6df35c9621005eb22251490600090a35050565b6001600160a01b03821660009081526006602052604090205460ff1661079e5760405162461bcd60e51b815260040161041890610fbd565b600081116107ee5760405162461bcd60e51b815260206004820152601d60248201527f416d6f756e74206d7573742062652067726561746572207468616e20300000006044820152606401610418565b6108036001600160a01b038316333084610bc4565b6001600160a01b0382166000908152600460205260408120805483929061082b908490610f9c565b90915550506040518181526001600160a01b0383169033907f5548c837ab068cf56a2c2479df0882a4922fd203edb7517321831d95078c5f62906020015b60405180910390a35050565b6007546001600160a01b031633146108cf5760405162461bcd60e51b815260206004820152601b60248201527f4f6e6c7920726563697069656e742063616e20776974686472617700000000006044820152606401610418565b7f00000000000000000000000000000000000000000000000000000000000000004210156109385760405162461bcd60e51b8152602060048201526016602482015275119d5b991cc8185c99481cdd1a5b1b081b1bd8dad95960521b6044820152606401610418565b6001600160a01b03811660009081526006602052604090205460ff166109705760405162461bcd60e51b815260040161041890610fbd565b6001600160a01b038116600090815260046020526040902054806109cd5760405162461bcd60e51b81526020600482015260146024820152734e6f2066756e647320746f20776974686472617760601b6044820152606401610418565b6001600160a01b038083166000818152600460205260408120556007546109f5921683610c5e565b6007546040518281526001600160a01b038481169216907fa92ff919b850e4909ab2261d907ef955f11bc1716733a6cbece38d163a69af8a90602001610869565b610a3e610c31565b610a486000610c94565b565b610a52610c31565b6001600160a01b03821660009081526006602052604090205460ff16610a8a5760405162461bcd60e51b815260040161041890610fbd565b60028054600380546001600160a01b0319166001600160a01b038681169182179092556001600160a81b0319909216861515610100600160a81b031981169190911761010092861692830217909355604080519384526020840192909252908201527f629a66e9009f2689e67705f82a8e844ebd3be4c0168030a4727bc4b90663e15d9060600160405180910390a1505050565b610b26610c31565b6001600160a01b038116610b5057604051631e4fbdf760e01b815260006004820152602401610418565b61058c81610c94565b60405162461bcd60e51b815260206004820152601660248201527515da5d1a191c985dd85b081b9bdd08185b1b1bddd95960521b6044820152606401610418565b600260015403610bbd57604051633ee5aeb560e01b815260040160405180910390fd5b6002600155565b6040516001600160a01b038481166024830152838116604483015260648201839052610c2b9186918216906323b872dd906084015b604051602081830303815290604052915060e01b6020820180516001600160e01b038381831617835250505050610ce4565b50505050565b6000546001600160a01b03163314610a485760405163118cdaa760e01b8152336004820152602401610418565b6040516001600160a01b03838116602483015260448201839052610c8f91859182169063a9059cbb90606401610bf9565b505050565b600080546001600160a01b038381166001600160a01b0319831681178455604051919092169283917f8be0079c531659141344cd1fd0a4f28419497f9722a3daafe3b4186f6b6457e09190a35050565b6000610cf96001600160a01b03841683610d47565b90508051600014158015610d1e575080806020019051810190610d1c9190610fe9565b155b15610c8f57604051635274afe760e01b81526001600160a01b0384166004820152602401610418565b6060610d5583836000610d5e565b90505b92915050565b606081471015610d835760405163cd78605960e01b8152306004820152602401610418565b600080856001600160a01b03168486604051610d9f9190611006565b60006040518083038185875af1925050503d8060008114610ddc576040519150601f19603f3d011682016040523d82523d6000602084013e610de1565b606091505b5091509150610df1868383610dfd565b925050505b9392505050565b606082610e1257610e0d82610e59565b610df6565b8151158015610e2957506001600160a01b0384163b155b15610e5257604051639996b31560e01b81526001600160a01b0385166004820152602401610418565b5080610df6565b805115610e695780518082602001fd5b604051630a12f52160e11b815260040160405180910390fd5b80356001600160a01b0381168114610e9957600080fd5b919050565b600060208284031215610eb057600080fd5b610d5582610e82565b6020808252825182820181905260009190848201906040850190845b81811015610efa5783516001600160a01b031683529284019291840191600101610ed5565b50909695505050505050565b600060208284031215610f1857600080fd5b5035919050565b60008060408385031215610f3257600080fd5b610f3b83610e82565b946020939093013593505050565b801515811461058c57600080fd5b600080600060608486031215610f6c57600080fd5b8335610f7781610f49565b9250610f8560208501610e82565b9150610f9360408501610e82565b90509250925092565b80820180821115610d5857634e487b7160e01b600052601160045260246000fd5b602080825260129082015271151bdad95b881b9bdd081858d8d95c1d195960721b604082015260600190565b600060208284031215610ffb57600080fd5b8151610df681610f49565b6000825160005b81811015611027576020818601810151858301520161100d565b50600092019182525091905056fea2646970667358221220d684a61a7b36921d1e8170ab8dab1fe74dc4b8da7d59d3123a736c87d93c474064736f6c63430008190033","linkReferences":{}},"methodIdentifiers":{"acceptedTokens(uint256)":"36c87754","autoSave(uint256)":"32469ffe","autoSaveEnabled()":"81684db5","creator()":"02d05d3f","defaultToken()":"74c13fda","deposit(address,uint256)":"47e7ef24","getAcceptedTokens()":"2f757006","getBalance(address)":"f8b2cb4f","isTokenAccepted(address)":"0560bd96","operator()":"570ca735","owner()":"8da5cb5b","recipient()":"66d003ac","recipientChanged()":"a68947df","renounceOwnership()":"715018a6","savingsCompatible()":"84bfd0df","setRecipient(address)":"3bbed4a0","toggleAutoSave(bool,address,address)":"a6227521","tokenSavings(address)":"18a029cf","transferOwnership(address)":"f2fde38b","unlockTime()":"251c1aa3","withdraw(address)":"51cff8d9","withdraw(address,uint256)":"f3fef3a3"},"id":104}